:020000040800F2
:10201000D00B0020E5200008ED200008EF2000088C
:1020200000000000000000000000000000000000B0
:10203000000000000000000000000000F120000887
:102040000000000000000000F32000080D2F000831
:10205000F7200008F7200008F7200008F720000804
:10206000F7200008F7200008F7200008F7200008F4
:10207000F7200008F7200008F7200008F7200008E4
:10208000F7200008F7200008F7200008F7200008D4
:10209000F7200008F7200008F7200008F7200008C4
:1020A000F7200008F7200008F7200008F7200008B4
:1020B000F7200008F7200008F7200008F7200008A4
:1020C000F7200008F7200008D3210008F7200008B7
:1020D0000348854600F04EF8004800478D77000819
:1020E000D00B00200448804704480047FEE7FEE785
:1020F000FEE7FEE7FEE7FEE76D2F0008D1200008AF
:1021000030B50B46014600202022012409E00D468F
:10211000D5409D4205D31D469540491B2546954017
:1021200040191546521E002DF1DC30BD03460B430D
:102130009B0703D009E008C9121F08C0042AFAD27D
:1021400003E00B780370401C491C521EF9D2704703
:10215000D2B201E00270401C491EFBD2704700223F
:10216000F6E710B513460A4604461946FFF7F0FF96
:10217000204610BD064C0125064E05E0E36807CC5D
:102180002B430C3C98471034B442F7D3FFF7A4FF1D
:10219000C88E0008E88E000830B58C180278401C04
:1021A00013071B0F01D10378401C120906D10278D6
:1021B000401C03E005780D70401C491C5B1EF9D1E2
:1021C00001E00B70491C521EFBD1A142E6D3002056
:1021D00030BD10B502F080FC02F0F0FD02F088FB8B
:1021E00010BD000070B50346002200240020DAE094
:1021F000012696400D6835402C46002C77D04D685E
:10220000022D02D04D68122D15D1D508AE001D4605
:102210002035A8595507EE0E0F25B5400646AE43AA
:1022200030465607F60E0D69B5402843D508AD0077
:102230001E4620367051186856000325B5400646E4
:10224000AE4330460D79AD07AD0F5600B54028437B
:1022500018604D68012D08D04D68022D05D04D68DD
:10226000112D02D04D68122D18D198685600032503
:10227000B5400646AE4330465600CD68B5402843CB
:1022800098605868012595400646AE4330461026B2
:102290004D6835402D09954028435860D868560050
:1022A0000325B5400646AE43304656008D68B5401E
:1022B0002843D860012636074D683540B54271D1B4
:1022C0003C4DAD69012635433A4EB5613A4D96080D
:1022D000B600A85995072E0F0F25B5400646AE4308
:1022E00030460925ED06AB4202D1002515E059E044
:1022F000324DAB4201D101250FE0314DAB4201D14E
:1023000002250AE02F4DAB4201D1032505E02E4DF9
:10231000AB4201D1042500E005259607360FB540F4
:102320002843254D9608B600A851284D2868054633
:10233000A5432846012636044D683540B54202D1F2
:10234000054625432846214D286068680546A54373
:102350002846012676044D683540B54202D105462F
:1023600025432846194D6860A8680546A5432846B8
:10237000012636054D683540B54202D10546254354
:102380002846124DA860E8680546A5432846012660
:1023900076054D683540B54202D1054625432846AD
:1023A0000A4DE860521C0D68D540002D00D01FE793
:1023B00070BD000000100240080001400004004809
:1023C00000080048000C00480010004800040140CC
:1023D0000148006870470000800200200248006841
:1023E000401C0149086070478002002010B5064873
:1023F00000681021084304490860032000F006F833
:1024000000F017F8002010BD0020024070B504460F
:1024100000F098F906467D21C900FFF771FE0546D8
:1024200000F0AAFC00222146501E00F01BF80020FC
:1024300070BD704700BFC206D20E01219140024A12
:10244000116000BF7047000000E100E000BFC2065D
:10245000D20E01219140024A116000BF7047000076
:1024600000E200E070B504460D46164629462046B7
:1024700000F010FD70BD000070B504460E4600254A
:10248000AD480068C007C00FB0426ED2AA480068CD
:10249000400840003043A849086008460068C0076B
:1024A000C00FB04201D0012070BD02212068084059
:1024B000022807D1A1484068F0218843A168084359
:1024C0009E4948602078C007C00F002848D0606847
:1024D000012808D1994800680121490408400028D2
:1024E00021D10120E0E76068022808D19348006804
:1024F000012149060840002815D10120D4E7606871
:10250000032808D18D48406B0121090408400028A8
:1025100009D10120C8E78948006802210840002845
:1025200001D10120C0E785484068800880006168CB
:10253000084382494860FFF74BFF05466068012861
:102540000FD107E0FFF744FF401B7D49884201D9C6
:102550000320A9E7794840680C2108400428F1D1FC
:10256000D6E06068022810D108E031E0FFF730FFC4
:10257000401B7349884201D9032095E76F484068A2
:102580000C2108400828F1D1C2E0606803280FD16F
:1025900007E0FFF71DFF401B6949884201D903206E
:1025A00082E7664840680C2108400C28F1D1AFE072
:1025B00007E0FFF70DFF401B6149884201D9032066
:1025C00072E75E4840680C2108400028F1D19FE086
:1025D000022120680840022807D158484068F021AD
:1025E0008843A1680843554948602078C007C00F58
:1025F00000287ED06068012808D150480068012179
:1026000049040840002821D101204DE760680228D4
:1026100008D14A480068012149060840002815D120
:10262000012041E76068032808D14448406B01213C
:1026300009040840002809D1012035E73F48006817
:1026400002210840002801D101202DE73B484068C5
:10265000800880006168084338494860FFF7B8FE89
:102660000546606801280FD107E0FFF7B1FE401B67
:102670003349884201D9032016E7304840680C21CD
:1026800008400428F1D134E0606802280FD107E047
:10269000FFF79EFE401B2A49884201D9032003E729
:1026A000264840680C2108400828F1D121E06068E4
:1026B00003280FD107E0FFF78BFE401B204988421B
:1026C00001D90320F0E61D4840680C2108400C2881
:1026D000F1D10EE007E0FFF77BFE401B184988426E
:1026E00001D90320E0E6154840680C210840002885
:1026F000F1D1114800684008400030430E4908609D
:1027000008460068C007C00FB04201D00120CBE6E8
:10271000042120680840042808D10848406807219F
:1027200009028843E1680843044948600320FFF731
:102730006DFE0020B8E600000020024000100240BC
:102740008813000010B500F013F806494968F0221C
:1027500011400909044A515CC84004490860084610
:10276000006810BD00100240988E0008840200200E
:10277000F8B50024002600250027002000902548F9
:1027800044680C20204000283DD0042804D00828AC
:1027900005D00C2836D132E01F48009036E00F20DB
:1027A00080042040800C1D490D5C1A48C06A000757
:1027B000000F1B490E5C0320C003204001210904C7
:1027C000884206D131461448FFF79AFC6843074611
:1027D00013E00320C00320400321C903884206D12F
:1027E00031461048FFF78CFC6843074605E0314648
:1027F0000948FFF785FC68430746009706E009484B
:10280000009003E000BF0448009000BF00BF0098A4
:10281000F8BD00000010024000127A00A88E0008E7
:10282000B88E0008006CDC0270B5044600252078E4
:10283000C007C00F002861D0FD4840680C21084047
:1028400004280CD0FA4840680840082813D1F848FA
:102850004068490308400121090488420BD1F4482B
:102860000068012149040840002847D06068012819
:1028700044D0012070BD0020ED498870FFF7A8FD0D
:10288000054607E0FFF7A4FD401BEA49884201D94D
:102890000320EFE7E64800680121490408400028CA
:1028A000F0D12079E24988706068002813D0FFF7E2
:1028B0008FFD054607E0FFF78BFD401BDD49884291
:1028C00001D90320D6E7DA4800680121490408400D
:1028D0000028F0D012E0FFF77BFD054607E0FFF788
:1028E00077FD401BD349884201D90320C2E7D04875
:1028F00000680121490408400028F0D10221206825
:102900000840022862D1CA4840680C2108400028CB
:102910000CD0C7484068084008281CD1C44840680B
:10292000490308400121C903884214D1C048006806
:1029300002210840002804D0E068012801D00120CD
:1029400098E7BB480068F82188432169C90008431B
:10295000B74908603AE0E068002820D0B448006831
:1029600001210843B2490860FFF732FD054606E041
:10297000FFF72EFD401B642801D903207AE7AC48FD
:102980000068022108400028F2D0A9480068F82118
:1029900088432169C9000843A549086016E0A44896
:1029A000006840084000A2490860FFF711FD054695
:1029B00006E0FFF70DFD401B642801D9032059E70D
:1029C0009B480068022108400028F2D108212068B5
:1029D0000840082831D1206A002817D09448406A5E
:1029E0000121084392494862FFF7F2FC054606E0E0
:1029F000FFF7EEFC401B642801D903203AE78C481E
:102A0000406A022108400028F2D016E08848406A57
:102A10004008400086494862FFF7DAFC054606E0B8
:102A2000FFF7D6FC401B642801D9032022E7804829
:102A3000406A022108400028F2D1042120680840A1
:102A4000042865D17A48C069890608437849C86175
:102A5000794800688915084377490860FFF7B8FC92
:102A6000054606E0FFF7B4FC401B642801D90320AB
:102A700000E771480068FF21013108400028F1D0CB
:102A80006B48006A0521884369490862FFF7A0FC8A
:102A9000054607E0FFF79CFC401B6649884201D9C8
:102AA0000320E7E66248006A022108400028F1D1CD
:102AB0005F48006A05218843A16808435C490862B1
:102AC000A068012812D1FFF783FC054607E0FFF755
:102AD0007FFC401B5749884201D90320CAE654486D
:102AE000006A022108400028F1D011E0FFF770FCD5
:102AF000054607E0FFF76CFC401B4E49884201D9B0
:102B00000320B7E64A48006A022108400028F1D1B4
:102B1000102120680840102859D16069012826D169
:102B20004348406B04210843414948630846406BD1
:102B3000012108433E494863FFF74AFC054606E089
:102B4000FFF746FC401B642801D9032092E6384871
:102B5000406B022108400028F2D03548406BF82134
:102B60008843A169C9000843314948632FE060697F
:102B7000401D00280FD12E48406B042188432C496A
:102B800048630846406BF8218843A169C90008439F
:102B9000274948631BE02648406B04210843244929
:102BA00048630846406B400840004863FFF710FC4C
:102BB000054606E0FFF70CFC401B642801D9032002
:102BC00058E61B48406B022108400028F2D1202122
:102BD00020680840202859D1154840680C21084039
:102BE0000C280AD0124840680840082811D1104823
:102BF00040684903084088420BD10D48406B0121D1
:102C000009040840002841D0E06901283ED0012095
:102C100030E6E069002820D00548406B0121090416
:102C2000084303494863FFF7D3FB05460DE0000066
:102C3000001002408813000000700040FFF7C8FB3E
:102C4000401B642801D9032014E64948406B012148
:102C5000090408400028F1D018E04548406B0121E4
:102C60000904884342494863FFF7B2FB054606E082
:102C7000FFF7AEFB401B642801D90320FAE53C486E
:102C8000406B0121090408400028F1D1606A002846
:102C90006CD0374840680C210840082864D0606A2E
:102CA000022847D13248006801210906884330498B
:102CB0000860FFF78DFB054606E0FFF789FB401B28
:102CC000642801D90320D5E5294800680121490677
:102CD00008400028F1D100BF2548C06A0009000162
:102CE000E16A08432249C862A16A206B084320496F
:102CF00049687B22D203914308431D49486000BFC5
:102D00000846006801210906084319490860FFF7D1
:102D10005FFB054606E0FFF75BFB401B642801D91B
:102D20000320A7E512480068012149060840002851
:102D3000F1D01BE00E4800680121090688430C49C8
:102D40000860FFF745FB054606E0FFF741FB401B27
:102D5000642801D903208DE5054800680121490652
:102D600008400028F1D101E0012083E5002081E541
:102D7000001002407047000070B504462546681EEA
:102D80000949884201D901200CE0681E07494861C1
:102D90000321081F00F07EF8002004498861072005
:102DA0000861002070BD0000FFFFFF0000E000E0B0
:102DB00010B5FFF7DFFF10BD10B5C022134914484E
:102DC000FFF7B4F91348806901210843114988616C
:102DD0000846C06840084000C86000BF0E48006850
:102DE000800880000C4908600846006803210843F9
:102DF0000949086000BFBFF35F8F002201211E2038
:102E0000FFF730FB1E20FFF715FB10BD1020000858
:102E100000000020001002400000014010B5002812
:102E200019DA1A4A03071B0F083B9B089B00D2586C
:102E30008307DC0EFF23A3409A438B071B0E8407F6
:102E4000E40EA3401A43114B0407240F083CA408C6
:102E5000A4001A5118E00E4A03231B02D21883085B
:102E60009B00D2588307DC0EFF23A3409A438B07B5
:102E70001B0E8407E40EA3401A43054B03242402CF
:102E80001B198408A4001A5110BD00001CED00E0BD
:102E900000E100E010B5002819DA1A4A03071B0FF9
:102EA000083B9B089B00D2588307DC0EFF23A340FE
:102EB0009A438B071B0E8407E40EA3401A43114B61
:102EC0000407240F083CA408A4001A5118E00E4A75
:102ED00003231B02D21883089B00D2588307DC0E01
:102EE000FF23A3409A438B071B0E8407E40EA340E5
:102EF0001A43054B032424021B198408A4001A5109
:102F000010BD00001CED00E000E100E010B5FFF78F
:102F100065FAFFF74DFF01F0CBFF10BD00B591B092
:102F20002020009001200790022009900321C9036E
:102F30000A9101210B9100210C916846FFF774FC66
:102F4000002801D000BFFEE707200D9002200E9060
:102F500000200F90109001210DA8FFF78DFA002896
:102F600001D000BFFEE711B000BD000019480068A5
:102F7000012108431749086008464068164908407F
:102F8000144948600846006814490840114908601F
:102F9000084600680121890488430E4908600846F4
:102FA00040683F21090488430A4948600846C06ACE
:102FB00000090001C8620846006B0949084005493C
:102FC00008630846406B4008400048630020886062
:102FD00070470000001002400CB8FF08FFFFF6FE2B
:102FE0002CFEFCFF30B47446641E2578641CAB4292
:102FF00004D3635D5B00E31830BC18471D46F8E757
:1030000002E008C8121F08C1002AFAD170477047B1
:10301000002001E001C1121F002AFBD1704700000F
:1030200010B50146184C8868246800194860174894
:103030000068002804D1154801600020086010BD18
:1030400012480268002301E0134612684868546879
:10305000A04202D910680028F6D148685468A042FE
:1030600007D2002B02D10948016000E019600A6014
:1030700008E01068002802D11160086002E01068C2
:10308000086011600020DAE74C02002048020020AE
:10309000034A1168106001620122827770470000C4
:1030A00024020020084A1168002901D1106005E0BF
:1030B00000E0096A0A6A002AFBD108620022026263
:1030C000022282777047000028020020002806D0E4
:1030D000012805D0022804D0032804D102E003E02F
:1030E00002E001E000E000BF00BF7047F0B58DB026
:1030F00005460E46002E01D168680678698D491E86
:103100000B225202891888B202F096FEB04202DA0F
:10311000FF200DB0F0BD00200C90002431E0686865
:10312000001D0C21614340180B9003AF0C2060433D
:10313000391D4018401D00900C2060434018031DAD
:103140000C20604342180B9800890004000E029086
:103150000B988068000C0190029902F0C7FE0A905B
:103160000A98002801D0FF20D3E76868001D0C21D1
:103170006143401801790C980818C0B20C90601C8B
:10318000C4B2B442CBDB0C98C3E70000F0B58DB0FD
:1031900005460E46002E01D168680678698D491EE5
:1031A0000D225202891888B202F046FEB04202DABD
:1031B000FF200DB0F0BD00200C9000243BE06868BB
:1031C000001D0C21614340180B90288E1C49884239
:1031D00001D103AF04E0288E1C2148431949471848
:1031E0000C206043391D4018401D00900C206043A6
:1031F0004018031D0C20604342180B9800890004FE
:10320000000E02900B988068000C0190029902F069
:10321000C7FE0A900A98002801D0FF20C9E7686815
:10322000001D0C216143401801790C980818C0B2A8
:103230000C90601CC4B2B442C1DB0C98B9E700002A
:10324000FFFF0000E404002030B587B005461422DB
:103250002E4902A8FEF76AFF02A800F067F82C4882
:1032600000212C232B4A0091019011212A4800F0C3
:10327000F5FE2A4801F084F900F02AFB012001F054
:1032800039F90446002C02D0204607B030BD24494D
:103290004888012100F0C4F90446002C01D02046E2
:1032A000F3E700F01FF90446002C01D02046ECE7BC
:1032B0000020009001901A484388028819484179FB
:1032C000012001F005F80446002C01D02046DCE77F
:1032D00015480090124883880288124841790120DD
:1032E00000F066FF0446002C01D02046CDE7002DFB
:1032F00001D00A20C9E7002000F0B4FB0446002CEE
:1033000001D02046C1E70020BFE70000848E0008FE
:10331000108E00080C8C00086C8D0008102700002F
:10332000D68B0008D08B0008F48D000810B5044639
:1033300001F07EFF01F0E2FF21460C31481E02F051
:10334000E1F820460A3002F021FA02F059FA21464B
:103350001031481E02F016FC02F034FCA11D201DA5
:1033600003F012FA03F0F0FA2046083003F0FAFEF8
:1033700010BD0000F8B5044603270020009000258A
:1033800008E0680028183D49085CA04200D103E02D
:10339000681CC5B20C2DF4D300BF0C2D00D1F8BDB4
:1033A00068002818354940188078032838D068000C
:1033B00028184018877832480078B8422ED0002F5D
:1033C00001D102F063F92F48067806E0701EC6B2FC
:1033D000B0002D4A115838468847002EF6D1002FEC
:1033E00006D0012F09D0022F10D0032F13D113E0E4
:1033F0000121062000F0F4FA0FE00021062000F081
:10340000EFFA0021022000F0EBFA06E00121022091
:1034100000F0E6FA01E000BF00BF00BF18480770E7
:1034200068002818154940184078012806D1174827
:103430000078A04202D01548047000946800281853
:103440000E4940184078022806D111480078A04261
:1034500002D00F4804700094009800280BD00D484B
:10346000067806E0701EC6B2B0000B4A115820461E
:103470008847002EF6D100BF91E70000608A00085F
:10348000170100201A0100201C0100201901002052
:10349000180100201B0100202001002010B505F0BC
:1034A0008BF903F0F7F901F00FF910BD002804D0F3
:1034B000012806D002280CD107E00121064A11702C
:1034C00007E00121054A117003E00121044A11704F
:1034D00000BF00BF7047000015010020140100204C
:1034E0001601002010B500220821104601F0D0FD81
:1034F00005490880084600880449884201D13220E5
:1035000010BD0020FCE700002C010020FFFF0000A0
:10351000F0B585B005460F463D480078FE210840CD
:10352000002802D13A49087005E0394800780121A5
:1035300008433749087000F08FFA019001987F28FE
:1035400005D00198052802D00E2005B0F0BD6846D0
:103550000572291241722E48017868468172FF2057
:1035600000022840002805D06946887A01210843D6
:1035700069468872002F0AD1002405E00021E01C72
:1035800002AA1154601CC4B2052CF7D309E0002430
:1035900005E0395DE01C02AA1154601CC4B2052C80
:1035A000F7D3002202A91B48008803F09DFF049076
:1035B000002D2BD0184806780078002801D0701E06
:1035C000C6B20AE0002E06D1701E800013490858CA
:1035D000B100124A5050701EC6B2002EF2D1002F18
:1035E00001D1009506E0787800042843397809066F
:1035F00008430090094900980860074800780028AF
:1036000004D105480078401C0349087004989CE7E1
:10361000240100202C010020340100203001002072
:1036200070B505460E4600220321104601F030FD1C
:1036300017490880084600881649884201D132207F
:1036400070BD15480580002014490870002415E05D
:1036500022460321012001F01BFD28216143104A6D
:10366000891808832820604311464018008B0949B7
:10367000884201D13220E3E7601CC4B2B442E7DBE8
:10368000064A0121074800F0DDFA0020D8E70000D3
:1036900046010020FFFF0000480100204A010020F1
:1036A0003004002029100000014609480078002855
:1036B00001D00D207047064800788000054A11505F
:1036C00003480078401C024A10700020F2E7000016
:1036D0001A0100201C01002001460948007800283A
:1036E00001D00D207047064800788000054A11502F
:1036F00003480078401C024A10700020F2E70000E6
:103700001B01002020010020014609480078002804
:1037100001D00D207047064800788000054A1150FE
:1037200003480078401C024A10700020F2E70000B5
:10373000440100204001002010B504460A480078EA
:10374000002801D00D2010BD0748007880000749EF
:103750000C5005480078401C03490870044948781B
:1037600003F098FF0020EEE76C01002064010020C8
:103770005801002010B504460A480078002801D0FE
:103780000D2010BD07480078800007490C500548FF
:103790000078401C034908700449487803F090FF02
:1037A0000020EEE76D010020680100205801002094
:1037B000014609480078002801D00D2070470648CE
:1037C00000788000054A115003480078401C024AE6
:1037D00010700020F2E700007C010020780100203A
:1037E000014609480088002801D00D20704706488E
:1037F00000888000054A115003480088401C024A96
:1038000010800020F2E70000100200200C020020CF
:10381000014609480088002801D00D20704706485D
:1038200000888000054A115003480088401C024A65
:1038300010800020F2E7000018020020140200208F
:10384000014609480078002801D00D20704706483D
:1038500000788000054A115003480078401C024A55
:1038600010700020F2E700003D020020400200201E
:10387000014609480078002801D00D20704706480D
:1038800000788000054A115003480078401C024A25
:1038900010700020F2E70000310200203402002006
:1038A000014609480078002801D00D2070470648DD
:1038B00000788000054A115003480078401C024AF5
:1038C00010700020F2E700003C02002038020020C7
:1038D00010B5002000F004F8002000F041F810BD01
:1038E00010B504461A480078012804D105F080F884
:1038F0000020184908701648047000201449887088
:103900000620604314494018114948600846406841
:103910000078C870002C0CD10E480078002801D126
:1039200005F066F80D480078002801D103F0B2FEDA
:1039300010BD0A480078012808D0012C03D10020CE
:1039400005F034F802E0012005F030F800BFEFE7A1
:103950005001002058010020848A000860010020E6
:1039600010B504461A480078012804D105F040F843
:103970000020184908701648047000201449887007
:1039800006206043144940181149486008464068C1
:103990000078C870002C0CD10E480078002801D1A6
:1039A00005F026F80D480078002801D103F088FEC4
:1039B00010BD0A480078012808D0012C03D100204E
:1039C00004F0F4FF02E0012004F0F0FF00BFEFE795
:1039D0005801002050010020848A00086001002066
:1039E00070B505460E46012E07D10120A8401549A5
:1039F000096808431349086006E00120A8401149FE
:103A0000096881430F4801600E480068002802D110
:103A1000FFF7A6FF70BD07240FE0601EC4B20A487E
:103A2000015D01208840074909680840002804D04A
:103A30000549085DFFF794FF01E0002CEDD100BFC0
:103A400000BFE7E770010020AE8A00080148007857
:103A500070470000740100200148007870470000A2
:103A60007501002070B50546002D01D0032400E04B
:103A70000224032C07D100220221104601F008FB8A
:103A80000B49088006E000220221012001F000FB22
:103A900007490880064800880649884201D132203B
:103AA00070BD03F065FF03F073FF0020F8E700002E
:103AB0007E010020FFFF0000F8B505460E461446C3
:103AC0002746002000903A4631462846FEF72EFB56
:103AD0000098F8BDF8B505460E4617461C4600206E
:103AE0000090002C05D13A4631462846FEF71EFBD1
:103AF00004E03A4631462846FEF718FB0098F8BD28
:103B0000F8B505460E4617461C46002C05D13A4628
:103B100031462846FEF70AFB04E03A46314628467D
:103B2000FEF704FBF8BD0000F8B506460F46144644
:103B30006A463946304600F0D1F80546002D01D0DE
:103B40002846F8BD009840782A2817D008DC0328BA
:103B50000FD004280FD005280CD0272819D10CE04D
:103B6000312809D036280AD03B2809D03F2810D167
:103B700007E000BF00BF00BF00BF00BF00BF00BF25
:103B800000BF0098C088400004490968085A208096
:103B900001E01F2500BF00BF2846D2E798010020A2
:103BA000F8B506460F4614466A463946304600F0D8
:103BB00095F80546002D01D02846F8BD00984078BC
:103BC0002D2828D010DC23282AD006DC09281CD078
:103BD0000A281CD00B282ED118E0252821D028280F
:103BE0001DD02B2827D119E0372813D006DC2F2829
:103BF00012D032280CD034281DD10AE03C2811D034
:103C0000402810D0442816D107E000BF00BF00BFF5
:103C100000BF00BF00BF00BF00BF00BF00BF00BFAC
:103C200000BF00BF00BF0098C08880000449096839
:103C30000858206001E01F2500BF00BF2846BCE7F0
:103C40009C010020F8B506460F4614466A463946E0
:103C5000304600F043F80546002D01D02846F8BD57
:103C6000009840782C2822D00EDC242822D006DCB4
:103C7000002816D0012816D0022824D112E02628C8
:103C800013D029281FD111E033280DD004DC2E28B1
:103C90000ED0302817D10EE035280AD03E2812D198
:103CA0000AE000BF00BF00BF00BF00BF00BF00BFF1
:103CB00000BF00BF00BF00BF0098C088044909686A
:103CC000085C207001E01F2500BF00BF2846C6E742
:103CD000940100200146888870470000F8B5064628
:103CE0000F461446002000906A463946304604F0DC
:103CF000F1F80546002D01D02846F8BD6846008839
:103D0000C00003490968401820600020F5E7000062
:103D10009001002000B5014600204A781300FFF70B
:103D200061F9493E2656442C5CEEEEEE4A3262EED4
:103D3000EEEEEEEEEEEEEEEE7A688C806E9286742B
:103D400098A4AEB8C2EFECF0EAF1FCE7F2FDE4F3C0
:103D5000E2F4E0F7FEDDF5DBF6FFD8EED7F9D5D4D7
:103D6000EEF8D2D1FACFCECDCC50389EEE00794AC3
:103D70001268002A00D00120E9E0774A1268002A80
:103D800000D00220E3E0754A1268002A00D0042027
:103D9000DDE0734A1268002A00D00420D7E0714A9F
:103DA0001268002A00D00120D1E06F4A1268002A70
:103DB00000D00220CBE06D4A1268002A00D0042017
:103DC000C5E06B4A1268002A00D00420BFE0694AAF
:103DD0001268002A00D00120B9E0674A1268002A60
:103DE00000D00220B3E0654A1268002A00D0042007
:103DF000ADE0634A1268002A00D00120A7E0614AC2
:103E00001268002A00D00220A1E05F4A1268002A4E
:103E100000D004209BE05D4A1268002A00D00120F7
:103E200095E05B4A1268002A00D002208FE0594AD0
:103E30001268002A00D0042089E0574A1268002A3C
:103E400000D0012083E0554A1268002A00D00220E9
:103E50007DE0534A1268002A00D0042077E0514ADE
:103E60001268002A00D0042071E04F4A1268002A2C
:103E700004D04A8892004C4B1B68985867E04B4A24
:103E80001268002A04D04A889200484B1B68985850
:103E90005DE0474A1268002A04D04A889200444BE9
:103EA0001B68985853E0434A1268002A04D04A8895
:103EB0009200404B1B68985849E040E03EE042E0E9
:103EC00031E028E03DE02DE023E03BE029E021E087
:103ED00036E032E024E01AE02EE017E02BE01EE0AE
:103EE00016E027E011E023E00EE022E016E00AE011
:103EF0001DE012E006E019E003E016E000E024E037
:103F000000BF00BF00BF00BF00BF00BF00BF00BFB9
:103F100000BF00BF00BF012019E000BF00BF00BF0D
:103F200000BF00BF00BF022011E000BF00BF00BF04
:103F300000BF00BF00BF00BF00BF00BF00BF00BF89
:103F400000BF00BF00BF042001E0002000BF00BF91
:103F500000BD000094010020980100209C01002079
:103F6000A0010020A4010020A8010020AC01002035
:103F7000B0010020CC010020D0010020D40100209D
:103F8000B4010020B8010020BC010020C0010020C5
:103F9000C4010020C8010020D8010020DC0100205D
:103FA000E0010020E4010020F4010020EC010020E9
:103FB000FC01002004020020FEB506460F46144610
:103FC00001AA39463046FFF789FE0546002D01D08B
:103FD0002846FEBD019840782C2829D010DC2228E4
:103FE00022D006DC00281DD001281AD0022830D1AA
:103FF00019E0242819D0262818D0292829D116E01C
:10400000352818D006DC2E2813D0302814D03328B9
:104010001FD10FE03E2810D0412810D0492818D1D8
:104020000CE000BF00BF00BF00BF00BF00BF00BF6B
:1040300000BF00BF00BF00BF00BF00BF00BF012026
:1040400000231A4621460090019801F011FF054611
:1040500001E0162500BF00BF2846BAE7F0B50546C7
:104060000E461746069C31480560314806803148A7
:10407000076031492068086030496068086030494D
:10408000A06808602F49E06808602F49206908602F
:104090002E49606908602E49A06908602D49E069D1
:1040A00008602D49A06B08602C49E06B08602C4922
:1040B000206C08602B49206D08602B49206A08603D
:1040C0002A49606A08602A49A06A08602949E06AAA
:1040D00008602949206B08602849606B08602849FE
:1040E000606C08602749A06C08602749E06C086094
:1040F0002649606D08602649A06D08602549E06D7D
:1041000008602549206E08602449606E08602449D3
:10411000A06E08602349E06E08602349206F0860A4
:1041200022490120000301F0DDFFF0BD88010020DD
:104130008C010020900100209401002098010020B3
:104140009C010020A0010020A4010020A801002063
:10415000AC010020B0010020CC010020D0010020E3
:10416000D4010020E4010020B4010020B8010020A7
:10417000BC010020C0010020C4010020C8010020B3
:10418000D8010020DC010020E0010020E80100202F
:10419000EC010020F0010020F4010020F8010020D3
:1041A000FC0100200002002004020020FF9F00000C
:1041B000FFB583B006460F460020029026480088CF
:1041C000002802D00A2007B0F0BD234800880190E3
:1041D0003C21019848432149441866851E480288BD
:1041E0000521012000F054FFE084E08C1C49884246
:1041F00001D13220E7E7382007550598A0850698B9
:10420000E0850021242001550C98002805D00020CD
:10421000A0600C9860602820015500212046FEF720
:1042200065FF0546082D07D8E08C2A460121C907FD
:1042300004F0E6FA029007E0E08C00220121C907B1
:1042400004F0DEFA4720029003480088401C02492F
:1042500008800298B7E700000A020020A8040020A6
:10426000FFFF0000F8B505460E460027FFF7F4FBF8
:10427000052801D00E20F8BD284602F06BF904464F
:10428000002C01D10A20F6E72068C00FC0070121E9
:10429000C907884201D13320EDE73220005DF028C4
:1042A00008D83220005D002802D1012124200155C8
:1042B0003846E0E73220005DFD2801D10B20DAE727
:1042C0003146204603F00BFF07463846D3E700008F
:1042D000FFB583B00E4600200290404800880028B9
:1042E00002D00A2007B0F0BD3C4800880190382178
:1042F000019848433A494418039860853748028832
:104300000421002000F0C4FEE084E08C354988429E
:1043100001D13220E6E732200655342006550598B3
:10432000A0850698E08533210C98085500212420AB
:1043300001550D9800281ED10D22520203998918AB
:10434000491E88B200F0F0FD054626498D4201D194
:104350004720C7E71C20684323494018A060382144
:10436000019848431E4940188068606025860121F5
:104370002820015508E00D9860600020A060002111
:1043800028200155481E208600212046FEF7FEFE0B
:104390000746082F07D8E08C3A460121C90704F0E8
:1043A0002FFA029007E0E08C00220121C90704F0F7
:1043B00027FA47200290FE2E04D3A18DE08C00F056
:1043C00083FF03E0E08C002100F07EFF03480088BB
:1043D000401C02490880029884E70000080200207F
:1043E00070040020FFFF0000E40400200A48007869
:1043F000012801D0002070470848016808E0887F44
:10440000022804D10320887709600846F3E7096A87
:104410000029F4D10020EEE720020020280200202D
:1044200009480088401C81B20A2900D300210748AE
:104430000088814204D10120054A10700020704795
:104440004801044A8018FAE71C0200201E020020DE
:104450002C020020000500200021114A1180114A81
:104460001180002007E00022242141430E4BC9188F
:104470008A77411C88B20A28F5D301210B4A1170B2
:1044800000210B4A11600B4A1160054A1180054A50
:104490001180074A1160074A1160074A117070477E
:1044A0001C0200201E0200204006002020020020E6
:1044B00024020020280200202C020020016804228F
:1044C0008A77704710B509480088401C84B20A2CCE
:1044D00000D3002406480088844203D10820FEF758
:1044E00049FF10BD0148048000BFFAE71C0200200C
:1044F0001E02002070B505461E480078002801D035
:104500000A2070BD1B480478242060431A494018D3
:104510008576184802780021084600F0B9FD24216C
:104520006143154A8918C883242060431146401806
:10453000C08B1249884201D13220E2E70D4802784F
:104540000021012000F0A4FD242161430A4A8918BA
:1045500008842420604311464018008C0749884293
:1045600001D13220CDE703480078401C0149087092
:104570000020C6E730020020A8070020FFFF00004F
:10458000034908600021034A1160034A1160704723
:1045900044020020480200204C0200200246064847
:1045A000016804E0914201D10120704709680029A7
:1045B000F8D10020F9E7000048020020FFB581B0E3
:1045C00004460D4617460A9E002D02D10A2005B06A
:1045D000F0BD204600F026F8114801682846FDF796
:1045E0008FFDA060002E01D0012E09D10C4801687A
:1045F0002846FDF785FD002902D0A068401CA06078
:10460000A068002801D10120A060E7602675049809
:1046100020612046FEF704FD00900098D7E70000D7
:104620004402002010B503460B48016800220EE04A
:1046300099420AD1002A03D1074C0868206001E0A2
:10464000086810600020086010BD0A46096800294B
:10465000EED10A20F8E700004802002010B5002043
:10466000FEF724FF02480068401C0149086010BDA5
:104670004C02002000201249096801221143104A0F
:10468000116000BF0E494968C907C90F0029F9D058
:1046900000210C4A11700A49496949084900084A31
:1046A00051611146496902229143054A51611146FF
:1046B0004969432252029143014A51617047000007
:1046C000006400405002002010B500F02DF800F00A
:1046D000A1F810BD70B500250D48406901210843BF
:1046E0000B4948610846406902210843084948616E
:1046F0000846406943214902084305494861084684
:10470000046864086400046000F004F8284670BD82
:104710000064004010B51E20FDF78CFE10BD0000A7
:10472000004870476002002070B5FFF7F9FF0446AB
:1047300032488569324800686840064606200640CF
:10474000002E0FD004202840002802D003206071E2
:1047500008E002202840002802D00220607101E019
:10476000012060712648056026480078002817D08F
:104770002248806807218906084088420CD12248D7
:104780000088401C204908800846008814280ADD5B
:1047900000201C49087006E000201B49088002E048
:1047A0000020194908801948007801280AD11348C7
:1047B0004068C007C00F002810D0002013490870BF
:1047C00060710BE00D484068C007C00F002805D19C
:1047D00001200E490870607100F092FA0B480078D1
:1047E000012809D107480078002805D10848006849
:1047F000002801D000F084FA70BD00000064004081
:1048000054020020510200205E02002050020020CD
:104810005802002010B5FFF783FF044620780128D6
:1048200004D1002020700620FEF7A4FD6079032843
:1048300002D0E07801280BD12079012802D1042090
:10484000FEF798FD2079032802D00120FEF792FDA3
:104850002079032805D02079002802D0E0780128AB
:1048600008D16079022805D10520FEF783FD0420D8
:10487000FEF780FD2079012808D16079022805D152
:10488000E078002802D10420FEF774FD2079012889
:1048900012D1607901280FD1E078012803D10520D9
:1048A000FEF768FD08E06078012805D10420FEF7D6
:1048B00061FD0520FEF75EFD2079012805D06079B5
:1048C000012802D10520FEF755FD00206070A07080
:1048D000E07060792071002010BD00B5FFF720FF67
:1048E00001460020087048708870C870087100BDCB
:1048F00070B5FFF715FF04460A4885690420284073
:10490000002802D00120E07008E0022028400028A2
:1049100002D00120607001E00120A0700420014954
:10492000486070BD0064004010B5024600200021C0
:1049300009E0CB00074CE35A934202D1CB0018198F
:1049400006E04B1CD9B2CB00024CE35A002BF0D14D
:1049500000BF10BD888B000810B50146332300222C
:10496000087A002800D00122012A0FD18888084C3B
:10497000A0420BD107480088332807DC054800888F
:10498000888004480088401C024C2080888810BD24
:10499000FFFF00005C02002070B5044604200449BB
:1049A0000880204600F006F80546284670BD000045
:1049B0005C020020F8B50746002000903F4C2046DE
:1049C00000680121090408400646002648103043CB
:1049D0002146086000BF394800680121C90308402A
:1049E0000028F8D1012030433449086000BF334823
:1049F0004068C007C00F0028F9D030464D21084359
:104A00002E49086048150059012108434902085100
:104A1000872080000059810B890387208000015185
:104A200000250FE02649E80009229201801880083D
:104A300080002150E8008018001D8008800021506F
:104A4000681C85B20D2DEDD9812080000059810BA5
:104A50008903812080000151832080000059810B4F
:104A60008903832080000151852080000059810B3B
:104A7000890385208000015181208000005911495F
:104A80000843812189000851081F00594108490045
:104A900001204002015100200B4908700B490870A9
:104AA0000B490860FFF719FF00200A4908603846E3
:104AB00000F082F800900098F8BD0000006400400B
:104AC000F8FFF8FFFE3F00005002002051020020D6
:104AD0005802002054020020F0B585B00020039059
:104AE000029001903248C0688007800F002801D1F1
:104AF00005B0F0BD2F48066B04203040002801D0DF
:104B00000120029002203040002801D001200190B5
:104B10000298002801D1760D00E0F608FFF780FC2E
:104B20000446002C03D120202149C860E0E76660DC
:104B30000298A0720198E0721E48406B07073F0F71
:104B4000082F00D9082727740198002817D1194881
:104B5000856B65742804010EA1742802010EE174AE
:104B6000280E2075042F0AD91248C56B65752804D4
:104B7000010EA1752802010EE175280E20760C4861
:104B8000C06810210840002808D0FFF7C9FD009038
:104B900001210098017010200549C86020200449B7
:104BA000C860FFF78FFC0120FEF780FC00BF9FE785
:104BB0000064004080650040F1B5FFF75BFD0098A0
:104BC000FFF7B2FE0446002C01D13C20F8BD6588F9
:104BD000607921794618A779781E0005711E0904AD
:104BE0000843691E08430249C8610020EEE700003F
:104BF0000064004070B5044600262046FFF7ACFE76
:104C00000546A079012801D1012625E0207A012856
:104C10001AD1E07900280BD11248854201D1012632
:104C20001AE0228891B2E8B2002200F01FF813E0E7
:104C30000C48854201D101260EE0228891B2E8B2EB
:104C4000012200F013F807E00648854204D0E8B2DC
:104C50000022054900F00AF8012E01D13D2070BD67
:104C60000020FCE7FFFF0000FF070000F7B581B060
:104C700003460C461E489E088725AD002D58012787
:104C8000B740BD438727BF003D509D08ED00092771
:104C9000BF01EF199D07ED0FAD007D19AD032D0C80
:104CA0000095009DAD004159039D012D03D1650183
:104CB0002A46103200E06201DD07ED0F002D05D01D
:104CC000120489B20D461543294604E0090C090473
:104CD0000D4615432946009DAD0041518725AD0085
:104CE0002D580127B7403D438727BF003D50FFBDEA
:104CF0000064004010B51E20FDF7A8FB10BD0000A9
:104D000010B507480078012801D03D2010BD0548A6
:104D10000078002801D1FFF7EDFF0020F6E7000042
:104D2000500200205102002030B50146002300242B
:104D3000002220480068C007C00F002801D03F2093
:104D400030BD087C1B4D6860C87A002818D1487CAB
:104D50008D7C2D022843CD7C2D0428430D7D2D060E
:104D60002843144DA860487D8D7D2D022843CD7DBC
:104D70002D0428430D7E2D0628430E4DE86001E0EA
:104D800002200243887A002807D04868C0001043F8
:104D900005252843074D286006E088884005104314
:104DA00001252843034D28600120034D2870184633
:104DB000C6E70000806500405102002010B512488F
:104DC00012498860084680680721890608408842A1
:104DD00019D100200E4908700E480068002806D03E
:104DE0000C480068FFF76AFB00200A490860FFF7DB
:104DF000FDFA0849086008460068002803D0084604
:104E00000068FFF791FF10BD010101000064004040
:104E1000510200205802002000B585B01D48C0692D
:104E20000121490608431B49C86108464069012120
:104E300089040843174948614815009002200190F1
:104E40000320039001200290042004906946124838
:104E5000FDF7C8F9FF2001300090022001900320E7
:104E60000390012002900420049069460A48FDF74F
:104E7000B9F9084800690121490608430549086154
:104E8000084600690121490688430249086105B0C6
:104E900000BD0000001002400004004810B5FDF7FE
:104EA000A5FAFEF73BF8FDF787FFFFF7B5FF10BD4A
:104EB00010B5FFF7D3FB10BD70B505460C48854211
:104EC00001D0502070BD0B4C601E0B49884200D9A8
:104ED0000CE0601E094948610321081FFDF79EFF91
:104EE0000020064988610720086100BF0020E9E72B
:104EF0001027000000530700FFFFFF0000E000E064
:104F000000B5811F0B00FEF76DF8070506070809BD
:104F10000A0B0C0006E005E004E003E002E001E01B
:104F200000E000BF00BF00BD70B505460B4800881B
:104F3000012801D10A4870BD084806882946304634
:104F400003F0B0FC0446002C01D00548F3E7034809
:104F50000088401C014908803046ECE71A02002016
:104F6000FFFF000000BFFEE710B5002412E0242080
:104F700060430A494018807F002809D1092C02D1DA
:104F80000A20FEF7F7F9242060430449401810BDB9
:104F9000601C84B20A2CEAD30020F8E74006002007
:104FA0007CB504462546287F0022032100F03AFB09
:104FB0000020009001906946044800F0BFFA0121EA
:104FC0000320FEF70DFD00F061FB7CBD3081000089
:104FD0007CB50546FEF740FD044668460470002295
:104FE00069460248008802F07FFA7CBD4601002035
:104FF0007047000030B503460C46002111E0C800A0
:105000000A4D285898420AD8C8004019406898426A
:1050100005D3A34201D3934201D9012030BD481CDE
:10502000C1B20829EBD30020F8E70000208A00086D
:1050300010B50246002100231FE030205843124CD7
:10504000011910684C68A04215D19479887A84427D
:1050500011D1087B01280ED18878012809D08878E1
:10506000002808D1D079012805D1D479C87A8442A2
:1050700001D1084610BD581C83B204480088834201
:10508000DBDB0020F6E70000980200201001002082
:1050900070B503460C461B480088082801D31A48FF
:1050A00070BD184801880088401C164D2880481C97
:1050B00085B230204843154E35523020484335469E
:1050C000401983700025302048438019057301255D
:1050D000ED073020484380194560ED1730204843E4
:1050E000801905813020484335464019047430202A
:1050F0004843401942820025302048438019858268
:105100000846CDE710010020FFFF000098020020B4
:1051100070B504460A480088844201DD322070BD23
:10512000002130206043074A80180173204600F0B8
:105130001BF80546002D01D02846F0E70020EEE7D9
:10514000100100209802002010B5002404E0204641
:10515000FFF7DEFF601C84B2024800888442F6DB61
:1051600010BD00001001002070B50446002530205D
:10517000604326494018807800281CD130206043C5
:105180004018C07A002816D1302060434018067BB2
:105190000021302060431D4A801801733021614393
:1051A0008918081DFFF726FD054630206043174982
:1051B0004018067328E03020604314494018807876
:1051C000012819D1302060434018C07A012813D13A
:1051D0000021302060430D4A8018C17230216143A4
:1051E0008918081DFFF706FD0546012130206043A0
:1051F000064A8018C17207E030216143034A8918CA
:10520000081DFFF7F7FC0546284670BD98020020F0
:10521000014605480088814201DD002070473020AA
:105220004843024A8018F9E7100100209802002044
:10523000002001490880704710010020FFB581B0AF
:1052400006460D461F461E480088864202DD322073
:1052500005B0F0BD302070431A494418E80FC0076C
:105260000121C907884202D10021217305E0082FDE
:1052700001D92020ECE701212173E800C00860601B
:1052800001204007284001214907884202D101211D
:10529000A17201E00021A1720398002802D100212F
:1052A000E17201E00121E172A7753046FFF75CFF72
:1052B00000900098002801D00098C9E70020C7E7B7
:1052C000100100209802002070B505460C460948E0
:1052D0000088854201DD322070BD302068430649D8
:1052E00040188482002C02D1284601F063FA002085
:1052F000F2E70000100100209802002000200A4977
:1053000008700A4908700A4908700A49087009209B
:1053100009490870022009490870002008490870EE
:105320000849087070470000140100201501002092
:10533000160100201701002018010020190100208B
:105340001A0100201B010020F8B505460F4614463F
:1053500000260F48854219D10E480068844215D0B6
:10536000E00FC007002808D10A480068C00FC00736
:105370006907884201D02020F8BD812211462046CD
:10538000FFF738FE012801D12020F5E73046F3E78A
:10539000141000002801002010B503460020044C22
:1053A000A34204D0002901D1002A00D0202010BD42
:1053B0000110000010B502460020114BD318002B3D
:1053C00006D0022B06D0132B13D0142B15D112E0CC
:1053D0000C4813E0002901D10B4809E00A4B1B7867
:1053E000994201DD002003E04B1E9B00074C181979
:1053F00004E0074802E0074800E000BF00BF10BD1E
:10540000FFEFFFFF240100203401002030010020C5
:10541000280100203601002070B504460E46002504
:1054200011482018002804D0112806D0122816D1BF
:105430000DE000200D49087012E0082300220C48FE
:1054400001680C480088FFF7F9FE054608E00A48A5
:10545000018808480088FFF737FF054600E000BFD5
:1054600000BF284670BD0000FDEFFFFF34010020A3
:10547000280100202C010020360100201CB5FEF779
:10548000E5FA8030144908606A4600211348FEF7A7
:1054900087FB0446002C0BD10098C00FC0070028E2
:1054A00006D00D4800680121C90708430A49086071
:1054B00001AA00210948401CFEF736FB0446002CD7
:1054C00009D1684680880649088008460188054851
:1054D0000088FFF7F9FE1CBD280100201410000011
:1054E000360100202C01002010B5082300220348BB
:1054F000016803480088FFF7A1FE10BD28010020C5
:105500002C0100200022074B1A70074B1A60521E14
:10551000064B1A800022064B1A80064B1A70064B67
:105520001A70704724010020280100202C0100205F
:1055300036010020340100203C010020F8B5064669
:105540000F460C4805780CE0681EC5B2A8000A4951
:105550000A583946304690470446002C01D0502066
:10556000F8BD002DF0D139463046FDF7D1FF044695
:105570002046F5E73C01002038010020F3B581B05A
:105580000E467002470EB0B20090002F22D0009855
:1055900000281FD0FEF75AFAB84201D10B20FEBDF9
:1055A000002415E025460198401EA0420ED0282078
:1055B000684309494018007FB84207D12820684352
:1055C0004018408B002801D00B20E8E7601CC4B2D3
:1055D000002CE7D00020E2E73004002010B502469E
:1055E00000200C4BD318002B04D0012B0AD0132B16
:1055F0000CD109E04B1E28246343074C1B191846A5
:10560000203005E0054803E0054801E0002000BF28
:1056100000BF10BDEAEFFFFF30040020480100206A
:105620004A010020F8B505460E461746074804789B
:1056300008E0601EC4B2A00005490B583A46314646
:1056400028469847002CF4D1F8BD00004401002002
:105650004001002070B504460D4600260A48201877
:10566000002802D001280AD105E0691EC8B203F063
:10567000E1F8064604E000F013F9064600E000BF3A
:1056800000BF304670BD0000EAEFFFFF10B5FEF727
:10569000E3F9052810D109480078002804D1002139
:1056A0007F2000F015FA07E004480078022803D1B3
:1056B0000021042000F00CFA10BD00004A01002077
:1056C0007CB5FEF7C3F9054607200002291801231F
:1056D0001A460F480088FFF7B1FD002069460870A0
:1056E00000220B48008801F0FFFE0646002E04D081
:1056F0007F2207212846FFF795FF002404E020467B
:1057000003F098F8601CC4B2002CF8D07CBD0000F7
:10571000460100207CB501AA00211748FEF704FAD3
:105720000546002D03D1684680881449088000246E
:1057300019E02820604312494018008B1149884223
:105740000FD0601CC1B26A460B48401EFEF728FA13
:105750000546002D05D128206043094A801800998C
:105760000162601CC4B2002CE3D0074A0121024848
:105770001230FEF767FA7CBD1710000048010020C8
:1057800030040020FFFF00004A01002030B502462F
:1057900000214B1E0A4C238000230A4C237000205A
:1057A00008E00024E44328234B43074D5B191C8386
:1057B000431C98B20028F4D00023044C237030BD61
:1057C000460100204A01002030040020440100204E
:1057D00070B500240948056800200849086009E000
:1057E0002C462568002020606068002802D061688F
:1057F000A0688847002DF3D170BD00004C01002047
:1058000000200149086070474C010020F8B50446AB
:105810000E4617460025607823380300FDF7E2FBAB
:10582000150C37371213141A1B1C3737373722233E
:105830002437372A2B3137002178608801F042FB6A
:10584000054625E000BF00BF2178608801F001FE19
:1058500005461DE000BF00BF2178608801F0C1F956
:10586000054615E000BF00BF21786088FFF7F2FE13
:1058700005460DE000BF21786088FFF7CDFD0546A5
:1058800006E021786088FFF7C7FD054600E000BF0D
:1058900000BF002D01D02846F8BD2846FCE70000D7
:1058A00038B50E480088002804D10D48FEF7BAFE2E
:1058B000002038BD01200090084800887D22D200D9
:1058C000504301460023074A0548FEF777FE044689
:1058D0000020FFF77DFB2046EBE700004801002099
:1058E00018040020D14F0008FEB5054600200290A4
:1058F000E87A01280CD1FEF7A9F806460722120221
:10590000B0186968814202D10020FFF761FBFEBD3B
:10591000287C012800D0FAE7287F03280AD0687C79
:10592000002806D129794806400E7F220021FFF782
:1059300079FEECE7E88B282148432E4944182420BF
:10594000075D687C002806D004280FD0052813D0F6
:105950007F281DD116E07F2124200155075D2421D9
:105960000A5D207F0021FFF75DFE15E00421242061
:105970000155012002900FE005212420015501204E
:10598000029009E07F21242001550120029003E0CC
:1059900000212420015500BF00BF029801281CD11E
:1059A0002046FEF7FBFD019000200090608B7D22D9
:1059B000D2005043014623460F4A2046FEF7FEFD23
:1059C0000198002809D124210A5D207F0221FFF7D8
:1059D00029FE00210320FEF703F82420005DB842D1
:1059E00005D024210A5D207F0121FFF71BFE00BFA7
:1059F0008DE7000030040020A14F000870B5044678
:105A00006068002844D1207C022800D070BDA07CB2
:105A100026490978884202D0A07C002838D1607CD1
:105A2000802814D004DC012807D002282ED109E0F8
:105A3000812811D0822829D11EE00121052000F003
:105A400047F824E00121042000F042F81FE0012182
:105A50007F2000F03DF81AE00121802000F038F8A6
:105A600001F086FF01F094FF0546002D03D10121CE
:105A70007F2000F02DF80AE001F08AFF0546002D96
:105A800003D101217F2000F023F800E000BF00BF18
:105A9000072109026068884206D9207C012800D0CD
:105AA000B4E72046FFF720FF00BFAFE774010020F6
:105AB00010B505490968002903D0034909688847DA
:105AC00001E00249087810BD840100208001002017
:105AD000F8B505460F4628480078A84200D1F8BD21
:105AE000012F04D024480078052800D0F7E70026CD
:105AF000052D11D1214804780BE0601EC4B2A0002E
:105B00001F490A582946002090470646002E00D01B
:105B100001E0002CF1D100BF002E2AD116480570FB
:105B2000007804280BD0052805D07F280BD105204C
:105B3000FDF7D6FE08E00620FDF7D2FE04E00220C5
:105B4000FDF7CEFE00E000BF00BF0C48047807E080
:105B5000601EC4B2A0000A490A5829460120904795
:105B6000002CF5D1052D02D100F0F6FB01E000F08C
:105B70000DFC00BFB3E70000750100207C01002090
:105B8000780100200022D243084B1A800278084B8B
:105B90001A70084B0A681A607F22074B1A7080221D
:105BA000064B1A700022064B1A7070477E010020C7
:105BB0008001002084010020740100207501002074
:105BC0007C01002000201D4908601D4908601D4916
:105BD00008601D4908601D4908601D4908601D498D
:105BE00008601D4908601D4908601D4908601D497D
:105BF00008601D4908601D4908601D4908601D496D
:105C000008601D4908601D4908601D4908601D495C
:105C100008601D4908601D4908601D4908601D494C
:105C200008601D4908601D4908601D4908601D493C
:105C300008601D4908601D490860704794010020F4
:105C4000980100209C010020A0010020A401002058
:105C5000A8010020AC010020B0010020B401002008
:105C6000B8010020BC010020C0010020C4010020B8
:105C7000C8010020CC010020D0010020D401002068
:105C8000D8010020DC010020E0010020E401002018
:105C9000E8010020EC010020F0010020F4010020C8
:105CA000F8010020FC010020000200200402002076
:105CB0007CB504460D460A2600200123042229460D
:105CC000009001A8FDF706FF60782C2859D01DDC54
:105CD000222837D010DC1E2830D006DC012828D03E
:105CE000042827D00A2873D125E01F2825D0202892
:105CF00025D02128F7D123E023380300FDF772F9DE
:105D0000092791912E353B4E555B91002D380300AC
:105D1000FDF768F91B3E575F80796587876B817255
:105D20008787878287878384858787878787871286
:105D3000870000BF00BF00BF00BF00BF00BF00BFA3
:105D4000002675E0608800F0C9FF064670E0217803
:105D50006088019A00F072FF064669E02A7821788F
:105D6000608801F02DFB064662E02178608801F032
:105D70000CFB06465CE06088019901F0DEFA0646FD
:105D800056E02A782178608801F07AFA06464FE0DA
:105D90006088019901F04CFA064649E02A7821789A
:105DA000608800F0D8FE064642E02178608800F066
:105DB000B7FE06463CE06088019900F089FE064681
:105DC00036E02A782178608800F008FE06462FE049
:105DD00027E06088019900F0D3FD064628E020788E
:105DE0000199FFF7CBFB064622E02A7821786088EC
:105DF000FFF7D2FA06461BE021786088019AFFF788
:105E0000A3FA064614E02A460521204601F0FCFDCF
:105E100006460DE000BF00BF00BF00BF00BF002668
:105E200006E061782A46204601F0EEFD064600BFF6
:105E300000BF30467CBD0000024600210DE0C800D6
:105E4000094B1B68185A904205D1C800064B1B68C5
:105E5000C01880787047481C81B20448008881428D
:105E6000EDDB0020F6E70000880100208C01002017
:105E7000FFB585B014461D4600265320049000202F
:105E80000390059880880290059801F099FF0746D5
:105E9000002F29D00598FDF73DFF0646B44202D3F6
:105EA000222009B0F0BD361B002D02D0AE4200D931
:105EB0002E463F190E98012809D104210298084066
:105EC0000346324639460698FDF7F6FD0AE0039888
:105ED000009004210298084003463246394606984D
:105EE000FDF70EFE002004900498DAE7FFB581B0BC
:105EF00006461C46202E23D2002103980160012172
:105F00000A98017000273300FDF76CF808140508A3
:105F10000C10090D1114012020700DE000BF0120AC
:105F2000207009E000BF0220207005E000BF0420BF
:105F3000207001E0462700BF00BF384605B0F0BD25
:105F40006A4630460299FDF7C9FE0746002F01D088
:105F50003846F3E70098FDF7BDFE054628202840A7
:105F6000002801D14620E9E702202840002801D17D
:105F70001820E3E704202840002803D100210A98D4
:105F8000017002E001210A980170009801F090FD73
:105F9000039908600098FDF7BDFE20700020CDE752
:105FA000FFB581B006461746202E02D2462005B026
:105FB000F0BD6A4630460299FDF790FE0546002D79
:105FC00001D02846F3E70098FDF784FE0446182028
:105FD0002040002801D14620E9E7E007C00F002853
:105FE00001D11720E3E704202040002803D100213D
:105FF0000A98017002E001210A980170009801F0EE
:10600000DFFE38600098FDF785FEC1B2049801708C
:106010000020CCE7FFB585B0074614461D4600209A
:10602000049000260A20039000200290B888019076
:106030007878192814D008DC01280DD004280CD059
:106040000A280BD0162811D109E01C2809D01F28D6
:1060500009D047280AD105E000BF00BF00BF00BF3C
:1060600000BF00BF00BF0020049004E0384601F0EC
:106070001FFD049000BF00BF049800282FD03846B1
:10608000FDF748FE0646B44202D3222009B0F0BD17
:10609000361B002D02D0AE4200D92E4604980019BE
:1060A00004900E9801280BD1042101980840034662
:1060B000324606990498FDF7FFFC0F9908700CE032
:1060C0000298009004210198084003463246069940
:1060D0000498FDF7FFFC0F990870002003900398C7
:1060E000D4E70000F3B585B000220021FDE0CD002B
:1060F000814E3668765B059DAE426EDBCD007E4EEE
:106100003668765B069DAE4267DC0022E3E0CD0098
:10611000794E3668AD19ED88AD18ED00774E3668CA
:10612000A819858840263540002D78D04578172D50
:106130007AD010DC052D74D006DC002D1AD0022D8B
:1061400062D0032D6ED127E0092D3BD00B2D6AD0F4
:10615000152DF7D117E01D2D73D006DC182D26D094
:106160001A2D7CD01B2DEDD143E0462D36D0482D85
:10617000E8D19EE0C588624E3668755D4688614FFD
:106180003F68BD55A4E0C5885F4E3668755D46889A
:106190005E4F3F68BD559BE0C5886D005C4E36681C
:1061A000755B468876005B4F3F68BD5390E0C588BD
:1061B0006D00594E3668755B46887600574F3F68CC
:1061C000BD5385E0C588AD00554E36687659458883
:1061D000AD00544F3F687E517AE084E0C588AD0041
:1061E000514E366875594688B600504F3F68BD51CC
:1061F0006EE0C588AD004E4E366875594688B600CB
:106200004C4F3F68BD5163E04588AD004A4E36684B
:106210007359C5883A4E3668755D1D7058E058E070
:1062200002E010E053E028E04588AD00434E3668B8
:1062300075590395C588344E3668765D039D2E707A
:1062400046E028E00BE04588AD003D4E36687459C5
:10625000C5886D002E4E3668755B258038E0458810
:10626000AD00384E366875590295C5886D002A4EC6
:106270003668765B029D2E802AE04588AD00324E5E
:10628000366875590495C588AD00254E366876592F
:10629000049D2E601CE04588AD002C4E3668755973
:1062A0000195C588AD00224E36687659019D2E6055
:1062B0000EE04588AD00264E366875590095C588B4
:1062C000AD00194E36687659009D2E6000E000BF83
:1062D00000BF551CAAB2CD00074E3668AD19AD7887
:1062E000954200DD13E74D1CA9B21A4D2D88A94235
:1062F00000DAFCE607B0F0BD880100209001002024
:1063000094010020A4010020B4010020C00100205D
:1063100098010020A8010020B8010020C40100203D
:106320009C010020AC010020A0010020B001002051
:10633000BC010020C8010020CC010020D8010020B1
:10634000D0010020DC010020D4010020E001002069
:10635000E40100208C01002070B500240CE03820FE
:10636000604308494518688D0021FDF77BFF2846EA
:1063700002F0ECFA601C84B2034800888442EEDB31
:1063800070BD0000700400200802002070B50024D9
:1063900008E03820604306494518284602F0D6FA3E
:1063A000601C84B2034800888442F2DB70BD0000A8
:1063B00070040020080200207CB50546FDF74CFB68
:1063C000052800D07CBDE88B20490988884200DD83
:1063D000F8E7E88B3C2148431D494418297C3920C3
:1063E000005D81420CDA002000900190608D6946CA
:1063F0000870608D001248701648FFF79FF8E1E7BB
:10640000E08D00280CD002200090E08D7D22D2008B
:10641000504301462346104A20460C30FEF7CEF882
:106420003820005DF0280AD808222946113120467C
:106430003030FBF77BFE022124200155C2E7E88BB8
:106440002946113101F0F8FD00BFBBE70A02002028
:10645000A804002010820000D1800008F8B50026B2
:106460001CE038207043234945182868C00FC00736
:10647000002803D0E88CFEF74BFE03E0688D012175
:1064800000F0E7FF3220415D3420415500212420F7
:106490004155284602F05AFA701C86B21648008808
:1064A0008642DEDB002620E03C207043134944187E
:1064B0002068C00FC007002803D0E08CFEF728FE3C
:1064C0000BE000212046FCF711FE07463920075556
:1064D000E08C3A46216802F093F90021242001550E
:1064E000204602F095FA701C86B205480088864264
:1064F000DADBF8BD7004002008020020A8040020A8
:106500000A02002070B50546FDF7A6FA052800D05E
:1065100070BDE88B0D490988884200DDF8E7E88BFB
:10652000382148430A4944183220005DF02807D832
:106530003220005D002807D101212420015503E00D
:106540000021204601F0CBFD00BFE1E7080200205A
:1065500070040020024600210CE038204843074B1D
:10656000C018408D904203D138204843C01870476E
:10657000481C81B20029F0D00020F8E77004002008
:10658000F0B585B0002783E0382078437A49441875
:10659000618D0322D2028918491E88B203AA012103
:1065A000FDF7FEFA0646002E04D10398800F8007FF
:1065B000039001E000200390608D002812D0608DD0
:1065C00004280FD8608D401E80B20090FDF73EFA7F
:1065D000014600980002FF308130081803990843F3
:1065E000206004E00121C907039808432060618D01
:1065F0000322D2028918491E88B201AA0221FDF79E
:1066000021FB0646002E03D1684601793220015550
:10661000618D0322D2028918491E88B202AA032181
:10662000FDF782FA0646002E02D168460089A08551
:10663000618D0322D2028918491E88B202AA05215F
:10664000FDF772FA0646002E02D168460089E08501
:10665000618D0322D2028918491E88B201AA06213F
:10666000FDF7F0FA0646002E03D168460179332083
:1066700001552820005D012808D1628D0D235B02A1
:10668000D218521E91B2208E02F00CF9781C87B2FB
:106690003A480088874200DA76E7002765E03C2028
:1066A000784337494518698D052292028918491E99
:1066B00088B203AA0121FDF773FA0646002E04D121
:1066C0000398800F8007039001E000200390688DFD
:1066D000002812D0688D04280FD8688D401E80B223
:1066E0000090FDF7B3F900990902FF31FF31023143
:1066F000401803990843286004E00121C907039862
:1067000008432860698D052292028918491E88B2C3
:1067100001AA0221FDF796FA0646002E03D168462B
:10672000017938204155698D052292028918491E48
:1067300088B202AA0321FDF7F7F90646002E02D11E
:1067400068460089A885698D052292028918491E2C
:1067500088B202AA0521FDF7E7F90646002E02D10C
:1067600068460089E885781C87B206480088874219
:1067700095DB05B0F0BD0000700400200802002089
:10678000A80400200A0200200022054B1A80054BB5
:106790001A80054B1A80054B1A80054B1A807047EA
:1067A000080200201A0200200A0200201002002025
:1067B0001802002070B5054600262846FEF728FD81
:1067C0000446002C00D170BD00BF204601F088F8BF
:1067D0000646002EF9D100BFF5E70000F1B5002410
:1067E0000026002747E02848008828490988884271
:1067F00019D0012725480088401C244908800846F4
:1068000000880A2801D30020088020480088400121
:106810001F4944181D4800881B490988884202D135
:106820000920FCF7A7FD012F1AD1002C18D0002653
:10683000201DFEF7FDFB0546002D0CD16068C00948
:10684000C0010721090288420AD102202077C01E18
:10685000E083012604E0287C2077688AE083012613
:10686000012E08D1002C06D0202221460098FBF7EB
:106870005DFC0120F8BD044800880449098888426D
:10688000B1D10020F6E700001C0200201E0200200B
:106890000005002038B528480078012805D10020DF
:1068A000254908700820FCF765FD24480068002889
:1068B00000D138BD24E021490968888BFEF7A8FC87
:1068C0000446002C0ED0A08A00280BD00020009097
:1068D000A08A6422504301462346194A20461830B4
:1068E000FDF76CFE00201549096888771348006899
:1068F000006A1249086008460068002800D104E0D8
:106900000E480068807F0428D5D000BF0B4800687F
:10691000002807D10B48006800280AD10C20FCF79A
:1069200029FD06E005480068807F022801D1FEF7B6
:10693000E7F900BFBDE700002C020020280200207C
:106940004D760008240200200020074908800749EE
:1069500008800120064908700020064908600649A1
:1069600008600649087070471C0200201E020020C3
:106970002002002024020020280200202C020020F7
:10698000F3B585B00C46059801F0E6FE0646002EEC
:1069900002D1212007B0F0BD3068C00FC00701212F
:1069A000C907884201D04620F4E7706800780028C3
:1069B00001D04620EEE7270C2004000E049001A829
:1069C00002AB03AA009038460499FFF78FFA0546F8
:1069D000002D01D04620DDE72846DBE7F7B588B07B
:1069E0000D46164600200790089801F0B5FE0446B3
:1069F000002C02D121200BB0F0BD2068C00FC007D1
:106A00000121C907884201D04620F4E7002D1CD09F
:106A100060680078002801D04620ECE76168091D15
:106A2000681E0C2250430818069003A80090069890
:106A300000890004010E06988068000C04AB05AACA
:106A40000290FFF753FA07900AE0002E08D0314673
:106A50002046FCF74BFB0746082F01D94720CAE721
:106A60000798C8E7F8B507460C460026384601F0F7
:106A700073FE0546002D00D1F8BD002C01D1AE6893
:106A800008E0A968091D601E0C225043081806463C
:106A9000083600BF00BF3046EEE7F8B507460C46A3
:106AA0000026384601F058FE0546002D00D1F8BDFD
:106AB000002C01D16E6808E06968091D601E0C2277
:106AC000504308180646083600BF00BF3046EEE7C0
:106AD000F8B506460C460027304601F03DFE054657
:106AE000002D01D12120F8BDE00FC007002815D1ED
:106AF0002868C00FC0070121C907884204D0286850
:106B0000A04201D02020EEE7FF228232114620462B
:106B1000FEF770FA012801D12020E4E73846E2E7C9
:106B2000F8B506460C460027304601F015FE05462E
:106B3000002D01D12120F8BD032C07D12868C00FFA
:106B4000C007E107884204D02020F4E7052C00D0DC
:106B500015273846EFE7F8B507460C4615460020DE
:106B60000090384601F0F8FD0646002E01D12120A4
:106B7000F8BD3068C00FC0070121C907884201D0A5
:106B80002020F5E7022C03D1FE2D05D22020EFE7CF
:106B9000062C01D0152000900098E9E7F8B50646CC
:106BA0000D460027304601F0D7FD0446002C00D1E9
:106BB000F8BD012D06D0022D06D0032D07D0052DDE
:106BC0000BD107E0274609E02746383706E027467D
:106BD0002C3703E027462E3700E000BF00BF3846C1
:106BE000E6E7F3B581B00E460027019801F0B4FD49
:106BF0000446002C01D12120FEBD012E02D0052E1D
:106C000017D112E000212046FCF770FA0546E08C0F
:106C10002A46216801F0F4FD0746204601F0F8FEFF
:106C2000002F01D13920055504E0204601F0F0FE87
:106C300000E000BF00BF3846DEE70000F8B50746B9
:106C40000D46144600200090384601F09BFD064694
:106C50002048864201D12120F8BD012D19D1E00F35
:106C6000C007002833D1242070431B494018806896
:106C7000C00FC007E907884201D02020ECE70322BB
:106C8000520211462046FEF7B5F901281FD12020F7
:106C9000E2E7022D19D1E00FC007002817D1242008
:106CA00070430D4940184068C00FC007A9078842CB
:106CB00001D02020D0E70B22D20111462046FEF75A
:106CC00099F9012803D12020C6E7152000900098EB
:106CD000C2E70000FFFF0000A807002070B50446CF
:106CE0000025204601F04EFD06460348864201D1AC
:106CF000212070BD2846FCE7FFFF0000FFB581B0F2
:106D00001D460026144804780DE0601EC4B2A000A1
:106D1000124900950F58002001A90EC9B847064630
:106D2000002E00D001E0002CEFD100BF002E02D0D9
:106D3000304605B0F0BD0848047809E0601EC4B2D2
:106D4000A000064900950F58012001A90EC9B847B7
:106D5000002CF3D13046ECE73D0200204002002039
:106D6000F7B582B006460025002001901848047847
:106D700016E0601EC4B2A00016490F58314600202C
:106D8000049B039AB8470546002D09D0292D04D14C
:106D90000198401CC0B2019002E0284605B0F0BD49
:106DA000002CE6D10A48047809E0601EC4B2A000B5
:106DB00008490F5831460120049B039AB847002C1C
:106DC000F3D10198002801D02920E7E70020E5E76A
:106DD0003102002034020020FEB5044600260020C7
:106DE00001901A48057817E0681EC5B2E37EA08AB4
:106DF0000090A17EA800164A17580020009AB847B4
:106E00000646002E08D0292E04D10198401CC0B29D
:106E1000019001E03046FEBD002DE5D10B4805781C
:106E20000BE0681EC5B2E37EA28AA07E0090A80097
:106E300007490F5801200099B847002DF1D101985A
:106E4000002801D02920E6E73046E4E73C02002094
:106E5000380200204278120203781A438A8282782C
:106E6000CA767047F8B507460E460025384601F049
:106E700089FC04461148844201D10020F8BD012E4E
:106E800004D0022E09D0032E14D10CE0242060433C
:106E90000B494018054608350DE024206043084999
:106EA0004018051D07E024206043054940180546A9
:106EB0001C3500E000BF00BF2846DFE7FFFF0000F1
:106EC000A8070020F8B507460E460025384601F011
:106ED00059FC04461548844201D12120F8BD012EF9
:106EE00002D0022E1ED10EE024226243104BD21893
:106EF000916824226243D218108C08230022FEF7E6
:106F00009DF905460FE024226243094BD2185168CF
:106F100024226243D218D08B08230022FEF78EF978
:106F2000054600E000BF00BF2846D7E7FFFF00008E
:106F3000A8070020F0B585B005460E46174601208B
:106F4000C0060190012F24D000240BE0E00013497B
:106F5000085CB04204D1E00040184068019003E0B2
:106F6000601C84B21A2CF1D300BF802069460872DD
:106F70000931284601F01AF9002004231A4601A914
:106F8000009003A8FCF7BCFDE88B002202A900F0EA
:106F9000ABFA00212220415505B0F0BDB88A0008A7
:106FA000F8B504460026FCF757FD07467F2F02D0B0
:106FB000052F00D0F8BDE08B24490978884200DB1A
:106FC000F8E7E08B2421484321494518207C082814
:106FD00000D0EFE7607CE0210840402819D004DCB5
:106FE000002810D0202820D107E0602817D0802862
:106FF0001BD10021222041551EE02146284601F0E8
:107000001CFA064618E02146284601F0FEFA06461C
:1070100012E02146284601F022F906460CE02146FE
:10702000284601F055F9064606E01E262946204668
:107030001230FFF70FFF00BF00BF002E04D0002268
:1070400031462846FFF776FF00BFB3E73002002045
:10705000A807002070B5002536E02C46002124202A
:1070600060431C4A80182030817024206043114600
:1070700040188068012189070840002808D049008D
:107080002420604380188160242060438018416080
:10709000242262430F4BD218916824226243D218F3
:1070A000108C08230022FEF7C9F824226243094B02
:1070B000D218516824226243D218D08B08230022B0
:1070C000FEF7BCF8681C85B2034800788542C4DB33
:1070D00070BD0000A80700203002002070B5002518
:1070E00037E02C46242060431C494018807E01284C
:1070F00014D1FCF7ABFC0321490241182420604362
:10710000164A80188160FCF7A1FC0B21C9014118C7
:1071100024206043114A8018416018E02420604315
:107120000E49401880680121C907084324216143A2
:107130000A4A891888602420604311464018406834
:107140000121C90708432421614389184860681C4C
:1071500085B2034800788542C3DB70BDA8070020D4
:107160003002002010B50446002007490870242191
:107170000648FAF7F4FF0020054908700549087031
:107180000549087010BD000030020020A80700204B
:10719000310200203C0200203D0200200146002078
:1071A0007047000070B500251F480068002802D114
:1071B0001E49086070BD1C4804681C480668606869
:1071C000B04200D9F6E719480068801B17490860EB
:1071D0006068B04200D2666803E06068801B60604F
:1071E0002468002CF9D11048046818E06068002871
:1071F00014D125462C682846FDF714FAE8680028C3
:1072000002D0E96828698847287D012802D0287DB6
:10721000032804D12846FBF703FF00E02468002C74
:10722000E4D100BFC6E70000480200204C02002065
:10723000F0B585B007460C463846FFF78BF9054692
:10724000002D02D1212005B0F0BD2868C00FC00775
:107250000121C907884201D04620F4E76868007818
:10726000002801D04620EEE701A82204110E00906C
:10727000200C02AB03AAFEF793FE06463046E2E777
:10728000F7B582B00F461446002001900298FFF730
:1072900061F90646002E02D1212005B0F0BD30680C
:1072A000C00FC0070121C907884201D04620F4E77A
:1072B000002F0AD1002C08D021463046FBF766FF8C
:1072C0000546082D01D94720E7E70198E5E7F0B525
:1072D00007460C4600263846FFF73CF90546002DC8
:1072E00000D1F0BD002C01D1AE6808E0A968091DED
:1072F000601E0C22504308180646083600BF00BF27
:107300003046EEE7F0B507460C4600263846FFF754
:1073100021F90546002D00D1F0BD002C01D16E6889
:1073200008E06968091D601E0C22504308180646D3
:10733000083600BF00BF3046EEE7F8B506460C46FB
:1073400000273046FFF706F90546002D01D1212020
:10735000F8BDE00FC007002815D12868C00FC0078E
:107360000121C907884204D02868A04201D020200A
:10737000EEE7FF22823211462046FDF73BFE012850
:1073800001D12020E4E73846E2E7F0B506460C4696
:1073900000273046FFF7DEF80546002D01D12120F9
:1073A000F0BD032C07D12868C00FC007E107884251
:1073B00004D02020F4E7052C00D015273846EFE74D
:1073C000F8B507460C461546002000903846FFF7F2
:1073D000C1F80646002E01D12120F8BD3068C00F4B
:1073E000C0070121C907884201D02020F5E7022CFF
:1073F00004D1FD2D06D22020009003E0062C01D000
:10740000152000900098E8E7F0B506460D460027E5
:107410003046FFF79FF80446002C00D1F0BD2B004A
:10742000FBF7E0FD071305070A130D1013002746AD
:107430000CE02746323709E027462C3706E027467E
:107440002E3703E02746333700E000BF00BF384641
:10745000E4E7F8B507460E4600253846FFF77AF808
:107460000446002C01D12120F8BD012E06D0022EA9
:1074700027D0032E2ED0052E32D12CE0002120461D
:10748000FBF784FE0090E08C2168009A01F0B8F9C7
:107490000546002D03D1204601F058FA0546002D7F
:1074A0000ED13220005DFE2805D3A18DE08CFDF7C2
:1074B0000BFF054604E0E08C0021FDF705FF0546C3
:1074C0000FE03220015D34200155204601F03EFAE4
:1074D000054606E005E0204601F038FA054600E0E2
:1074E00000BF00BF2846BFE7F7B584B000240020E6
:1074F0000390029001900498FDF78AFE0546002D46
:1075000002D10D2007B0F0BD287B012801D0332027
:10751000F8E728461830FDF741F80746022106989B
:107520000840002803D0012F01D14820EAE70020BD
:10753000454908700698C007C00F002805D00021F3
:10754000049801F0DDF8044627E0287C032808D0E1
:10755000287C102805D0287C082802D0287C042804
:107560001BD10021049801F0CBF80446002C14D064
:1075700000260AE020461130815D0598805D814239
:1075800001D0002404E0701C86B2207CB042F1DC03
:1075900000BF002C01D001200290002C02D001205D
:1075A00001900EE0FDF7E0FC0446002C09D101201B
:1075B00025490870FDF7A4FB0B20FBF7DBFE3E20FE
:1075C000A0E70298002838D10498A083A87D2074F1
:1075D00068686060A97AA172A878002802D10021A9
:1075E000E17201E00121E17229892181002606E092
:1075F0000598815D204611308155701C86B2A87DAA
:10760000B042F5DC0198002817D1012F03D12046A4
:10761000FBF73EFD11E00121049801F071F80390A1
:107620000398002806D0A88A002803D02046FBF73C
:107630002FFD02E02046FBF735FD012002490870CE
:10764000FDF75EFB00205DE72002002070B50446D8
:107650002546284600F044F970BD000072B60422A9
:1076600007A10948FAF762FD00BFBFF34F8F074833
:107670000749C860BFF34F8F00BF00BFFEE700009F
:10768000424F4F5400000000000100200400FA05A2
:1076900000ED00E070B505460648047806E0601E7F
:1076A000C4B2A000044A115828468847002CF6D1DD
:1076B00070BD00006C0100206401002070470000D4
:1076C00070B505460648047806E0601EC4B2A00006
:1076D000044A115828468847002CF6D170BD000096
:1076E0006D0100206801002070470000F8B52448B3
:1076F000467824484778224C054623480078C0073E
:10770000C00F002814D12078062800D00026686811
:10771000401CA978405C002800D00127A878401CB4
:10772000A870A878E978884216D10020A87013E0E4
:107730002878062800D000276068401CA178405CAB
:10774000002800D00126A078401CA070A078E17825
:10775000884201D10020A0706078B04203D030464A
:10776000FFF798FF66706878B84203D03846FFF795
:10777000A7FF6F7004480078401C03490870F8BDEB
:107780005001002058010020610100201CB545A1D6
:1077900003C901910090FDF781FBFA20FDF7FCF889
:1077A000002802D00120FDF7DDFB4048FDF784FBF7
:1077B000002802D00220FDF7D5FB0020FBF744FD96
:1077C000002802D00120FDF7CDFB3948FBF7F0FF80
:1077D000002802D00320FDF7C5FB3648FBF794FFD5
:1077E000002802D00420FDF7BDFB3348FCF740F829
:1077F000002802D00520FDF7B5FB3048FCF720F843
:10780000002802D00620FDF7ADFB2D48FCF748F814
:10781000002802D00720FDF7A5FB2A48FBF7E0FF70
:10782000002802D00820FDF79DFB2748FBF7F0FF5A
:10783000002802D00920FDF795FB2448FBF77CFFC8
:10784000002802D00A20FDF78DFB2148FBF792FFAC
:10785000002802D00B20FDF785FB1E48FBF724FF14
:10786000002802D00C20FDF77DFB1B48FBF734FFFE
:10787000002802D00D20FDF775FB62B6FCF72AFF49
:10788000002802D00E20FDF76DFB69461348FBF778
:107890003FFE002802D00F20FDF764FB01E0FBF75C
:1078A000FDFDFCE7010203040500000010270000B5
:1078B00049790008F14F0008C7810008BD81000820
:1078C000898300080D8000080F800008BD7600083D
:1078D000E9760008CD300008014F0008341200009E
:1078E000F8B5074600251648046807E0A08BFDF7A9
:1078F0008FFC0646BE4200D12546246A002CF5D1F5
:10790000002D1BD000200F4908700D480068A842C8
:1079100003D10B49286A086008E00948046800E0C0
:10792000246A206AA842FBD1286A20622846FBF715
:10793000B9FB012003490870FDF7E2F92846F8BDBC
:107940002402002020020020024600207047000090
:1079500010B5802004490870022300221146034814
:107960000088FDF76BFC10BD750100207E01002032
:1079700010B5FDF745FF054901204003FEF7B2FBB6
:107980000320FFF70BFCFCF767FD10BDFF9F000015
:1079900010B5FEF78DF81A490870FDF7D5FBFFF713
:1079A000D7FF17480078002803D0154800787F28B3
:1079B00001D90F2010BD134901200003FEF792FBEF
:1079C000FFF78CFBFEF7DCFDFDF7A4FEFDF756FD8F
:1079D0000220FFF7E3FBFFF73DFBFEF73FFD012130
:1079E0008120FEF775F801217F20FEF771F8FDF781
:1079F00067FEFDF779FDFDF753FF0020DAE7000091
:107A000074010020FF1F0000FEB504460D46164617
:107A10000A27A08880210840002800D1FEBD002050
:107A2000012304223146009001A8FCF753F8172DDA
:107A300034D012DC092D25D008DC002D20D0022DF9
:107A400022D0032D1DD0052D2CD11EE00B2D1DD0D5
:107A5000152D20D0162D25D11AE01C2D1AD008DCAA
:107A6000182D19D0192D14D01A2D18D01B2D19D15D
:107A700013E01D2D14D0462D05D0482D12D106E05F
:107A800000BF00BF00BF00BF00BF00BF00BF00BFFE
:107A900000BF00BF00BF00BF00BF00BF00BF00BFEE
:107AA000002701E0162700BF00BF3846B6E70000F8
:107AB00070B5044600256078262870D015DC0300D8
:107AC000FBF790FA24329A593B9A639A9A9A459A0C
:107AD0006E9A9A9A9A9A9A9A9A9A789A9C819AA65F
:107AE0008F9AB0CEC4D8E2ECF39A2F2875D008DC78
