S32508000000909001204D030008550300085D030008B5030008BD0300081504000800000000C8
S32508000020000000000000000000000000910001087504000800000000A1020108419B010806
S32508000040A1040008A1040008A1040008A1040008A1040008A1040008A1040008A10400082A
S32508000060A1040008A1040008A1040008A1040008A1040008A1040008A1040008A10400080A
S32508000080A1040008A10400085D9B0108A1040008719B0108859B0108999B0108A104000822
S325080000A0A1040008A1040008A104F000A1040008A1040008A1040008A1040008A1040008E2
S325080000C0A1040008A1040008A1040008A1040008A1040008A1040008A1040008A1040008AA
S325080000E0A1040008A1040008A1040008A1040008A1040008A1040008A1040008A10400088A
S32508000100F0F00008AD9B0108A1040008A1040008A1040008A1040008ED9B0108A1040008A6
S32508000120A1040008A1040008A1040008B99B0108A1040008C59B0108A1040008A1040008DD
S32508000140A1040008A1040008A1040008D99B0108A1040008099C0108159C0108299C01082A
S32508000160A1040008A1040008A1040008A1040008A1040008A1040008A104000800000000B6
S32508000180A1040008A104000880B596B000AF0AF065FB5D4B5D4A1A605D4B5C4A1A605D4B3A
S325080001A07B6523E07B6D1A1D7A651B68FB647B6D1A1D7A651B68BB647B6D1A1D7A651B684D
S325080001C07B64FB6C3B63BB6CFB627B6CBB62FB6A7B6207E07B6A1A1D7A623A6B111D396315
S325080001E012681A60BA6A7B6A9A42F3D87B6D4A4A9342D7D3444B1B68484A934204D1444B75
S325080002001B68474A934200D0FEE7464B3F4A1A60454B3E4A1A60454B3B6519E03B6D1A1D04
S325080002203A651B68FB633B6D1A1D3A651B68BB63FB6B3B64BB6B3B623B6CFB6104E0FB69FE
S325080002401A1DFA6100221A603A6AFB699A42F6D83B6D374A9342E1D3324B1B68002B03D1FF
S32508000260314B1B68002B00D0FEE71DF02FF83A1D07F10803114618460AF02CFA2D4A2E4B3E
S32508000280D31A9B103B610023FB6007E02A4AFB6852F823309847FB680133FB603A69FB686C
S325080002A09A42F3DC254A264BD31A9B103B610023FB6007E0224AFB6852F823309847FB685E
S325080002C00133FB603A69FB689A42F3DCBB687A68114618461DF0ECF978631A4A1A4BD31A93
S325080002E09B10BB61BB697B6108E07B69013B164A52F8233098477B69013B7B617B69002B3A
S32508000300F3DC786B0AF0A2F900100020BABADECA80110020A8040008C004000878563412F7
S3250800032032547698881100202CEF0020C0040008D0040008D0040008D0040008D0040008EB
S32508000340D0040008D0040008D004000880B500AFFFF71AFF80B400AF00BEFEE71EF0040F61
S325080003600CBFEFF30880EFF309807146494A104700BF00BF80B588B002AF786039600B4BCB
S325080003805B6B7B61094B9B6B3B61084B9B6AFB6007480AF0FFF93B6800933B697A69F968A5
S325080003A078680AF071FA00BEFEE700BF00ED00E02812030880B400AF00BEFEE71EF0040FCF
S325080003C00CBFEFF30880EFF309807146324A104700BF00BF80B588B002AF786039600B4B82
S325080003E05B6B7B61094B9B6B3B61084B9B6AFB6007480AF0CFF93B6800933B697A69F96875
S3250800040078680AF041FA00BEFEE700BF00ED00E0381203081EF0040F0CBFEFF30880EFF3FD
S32508000420098071461D4A104700BF00BF80B588B002AF786039600B4B5B6B7B61094B9B6B51
S325080004403B61084B9B6AFB6007480AF0A3F93B6800933B697A69F96878680AF015FA00BE95
S32508000460FEE700BF00ED00E04412030880B400AF00BEFEE780B400AF00BEFEE780B400AFAD
S3250800048000BEFEE780B400AF00BFBD465DF8047B7047000075030008D50300082D040008E2
S325080004A080B400AF00BEFEE70CDF030800100020841100200CDF03080000001000000010B7
S325080004C08811002030EF0020000000100000001080B500AF0E4A0E4B1B6843F400731360C1
S325080004E00B4A0B4B1B6843F480631360084A084B1B6843F480731360032001F02BFE0F2002
S3250800050000F008F819F00EFB0023184680BD00BF003C024080B582B000AF786005F024F9D0
S325080005200246094BA3FB02239B09184601F08EFE002279684FF0FF3001F02CFE00231846C2
S325080005400837BD4680BD00BFD34D621080B400AF044B1B680133034A136000BFBD465DF8FD
S32508000560047B70473C84002080B400AF034B1B681846BD465DF8047B704700BF3C84002018
S3250800058080B584B000AF78600023FB60FFF7ECFFF86000BFFFF7E8FF0246FB68D21A7B6890
S325080005A09A42F7D300BF1037BD4680BD80B584B000AF78600023FB737B68002B01D10123BC
S325080005C057E17B681B68A24A93420ED07B681B68A04A934209D07B681B689F4A934204D0DA
S325080005E040F20D119D4818F059FA7B685B68002B13D07B685B68B3F5803F0ED07B685B6818
S32508000600B3F5003F09D07B685B68B3F5403F04D04FF48771914818F041FA7B689B68002B03
S3250800062013D07B689B68B3F1807F0ED07B689B68B3F1007F09D07B689B68B3F1407F04D063
S3250800064040F20F11854818F029FA7B681B69002B08D07B681B69012B04D04FF488717F486E
S3250800066018F01CFA7B689B69002B08D07B689B69012B04D040F21111784818F00FFA7B6875
S325080006809B6A002B54D07B689B6AB3F1807F4FD07B689B6AB3F1007F4AD07B689B6AB3F19D
S325080006A0407F45D07B689B6AB3F1806F40D07B689B6AB3F1A06F3BD07B689B6AB3F1C06F6C
S325080006C036D07B689B6AB3F1E06F31D07B689B6AB3F1006F2CD07B689B6AB3F1106F27D031
S325080006E07B689B6AB3F1206F22D07B689B6AB3F1306F1DD07B689B6AB3F1406F18D07B68C1
S325080007009B6AB3F1506F13D07B689B6AB3F1606F0ED07B689B6AB3F1706F09D07B689B6A1B
S325080007204F4A934204D04FF489714C4818F0B6F97B68DB68002B09D07B68DB68B3F5006F7A
S3250800074004D040F21311454818F0A8F97B68DB69002B03D07B68DB69102B04D94FF48A7189
S325080007603E4818F09BF97B681B6B002B08D07B681B6B012B04D040F21511384818F08EF90D
S325080007807B685B69012B0CD07B685B69002B08D07B685B69022B04D04FF48B712F4818F08C
S325080007A07DF97B681B6A002B08D07B681B6A012B04D040F21711294818F070F97B689B6ABE
S325080007C0274A934217D07B68DB6A002B13D07B68DB6AB3F1805F0ED07B68DB6AB3F1005FF4
S325080007E009D07B68DB6AB3F1405F04D040F21B111A4818F053F97B681B6C002B09D17B686D
S3250800080000225A647B68002283F83C20786817F0F3FF7B681B6C03F01003002B22D17B68C4
S325080008201B6C23F4885323F0020343F002027B681A64786800F0DAFB7B6800225A647B6836
S325080008401B6C23F0030343F001027B681A640BE0002001400021014000220140580E0308D1
S325080008600100000F0123FB737B68002283F83C20FB7B18461037BD4680BD00BF80B584B069
S3250800088000AF78600023FB607B689B69002B08D07B689B69012B04D040F2DD215B4818F099
S325080008A0FDF87B68DB6A002B13D07B68DB6AB3F1805F0ED07B68DB6AB3F1005F09D07B688F
S325080008C0DB6AB3F1405F04D040F2DE214F4818F0E5F87B6893F83C30012B01D1022391E093
S325080008E07B68012283F83C207B681B689B6803F00103002B18D17B681B687A6812689268DD
S3250800090042F001029A60424B1B68424AA2FB03239A0C13465B001344FB6002E0FB68013BAE
S32508000920FB60FB68002BF9D17B681B689B6803F00103002B65D07B681B6C23F4E06323F05F
S32508000940010343F480727B681A647B681B685B6803F48063002B07D07B681B6C23F44053E2
S3250800096043F480527B681A647B681B6C03F48053002B06D07B685B6C23F006027B685A6464
S3250800098002E07B6800225A647B68002283F83C207B681B686FF002021A607B681A687B683D
S325080009A01B685B6843F0806343F0200353601A4B5B6803F01F03002B0FD17B681B689B6813
S325080009C003F04053002B1CD17B681B687A681268926842F080429A6013E07B681B680F4A0F
S325080009E093420ED17B681B689B6803F04053002B07D17B681B687A681268926842F0804293
S32508000A009A60002318461037BD4680BD580E03080C10002083DE1B43002301400020014095
S32508000A2080B584B000AF78600023FB600023BB607B689B69002B08D07B689B69012B04D02B
S32508000A4040F26931604818F029F87B68DB69002B03D07B68DB69102B04D940F26A315A4818
S32508000A6018F01CF87B685B69012B0CD07B685B69002B08D07B685B69022B04D040F26B317D
S32508000A80514818F00BF87B681B681B6803F00203002B14BF01230023DBB2FB607B681B6830
S32508000AA05B6803F02003002B14BF01230023DBB2BB60FB68002B49D0BB68002B46D07B6874
S32508000AC01B6C03F01003002B05D17B681B6C43F400727B681A647B681B689B6803F0405317
S32508000AE0002B2BD17B689B69002B27D17B681B68DB6A03F47003002B06D07B681B689B6838
S32508000B0003F48063002B19D17B681B687A681268526822F020025A607B681B6C23F48072FB
S32508000B207B681A647B681B6C03F48053002B05D17B681B6C43F001027B681A64786816F02A
S32508000B407BFD7B681B686FF012021A607B681B681B6803F00403002B14BF01230023DBB207
S32508000B60FB607B681B685B6803F08003002B14BF01230023DBB2BB60FB68002B5AD0BB68A5
S32508000B80002B57D07B681B6C03F01003002B05D17B681B6C43F400527B681A647B681B68CA
S32508000BA09B6803F44013002B3CD17B681B689B6B03F44013002B09D07B681B689B6803F488
S32508000BC08063002B2ED101E0580E03087B681B685B6803F48063002B24D17B681B689B681C
S32508000BE003F04053002B1DD17B689B69002B19D17B681B687A681268526822F080025A6082
S32508000C007B681B6C23F480527B681A647B681B6C03F48073002B05D17B681B6C43F001021D
S32508000C207B681A64786800F0F1FA7B681B686FF00C021A607B681B681B6803F00103002B32
S32508000C4014BF01230023DBB2FB607B681B685B6803F04003002B14BF01230023DBB2BB6038
S32508000C60FB68002B17D0BB68002B14D07B681B681B6803F00103002B0DD07B681B6C43F436
S32508000C8080327B681A64786800F046F87B681B686FF001021A607B681B681B6803F02003E4
S32508000CA0002B14BF01230023DBB2FB607B681B685B6803F08063002B14BF01230023DBB228
S32508000CC0BB60FB68002B15D0BB68002B12D07B685B6C43F002027B685A647B681B686FF001
S32508000CE020021A60786800F021F87B681B686FF020021A6000BF1037BD4680BD80B483B053
S32508000D0000AF78607B681B68DB6C18460C37BD465DF8047B704700BF80B483B000AF7860B5
S32508000D2000BF0C37BD465DF8047B704780B483B000AF786000BF0C37BD465DF8047B704797
S32508000D4090B585B000AF786039600023FB603B681B68122B04D940F2FE419F4817F09EFE32
S32508000D603B685B68002B03D03B685B68102B04D940F2FF41984817F091FE3B689B68002BCA
S32508000D8020D03B689B68012B1CD03B689B68022B18D03B689B68032B14D03B689B68042B4F
S32508000DA010D03B689B68052B0CD03B689B68062B08D03B689B68072B04D04FF4A061864826
S32508000DC017F06CFE7B6893F83C30012B01D10223FEE07B68012283F83C203B681B68092B82
S32508000DE024D97B6819687B681B68D8683B681B689AB213465B0013441E3B072202FA03F3ED
S32508000E00DB430340CB607B6819687B681B68D8683B689C683B681B689AB213465B0013440A
S32508000E201E3B04FA03F30343CB6021E07B6819687B681B6818693B681B689AB213465B0074
S32508000E401344072202FA03F3DB4303400B617B6819687B681B6818693B689C683B681B682D
S32508000E609AB213465B00134404FA03F303430B613B685B68062B23D87B6819687B681B680B
S32508000E80586B3B685A6813469B001344053B1F2202FA03F3DB4303404B637B6819687B6808
S32508000EA01B68586B3B681B689CB23B685A6813469B001344053B04FA03F303434B634AE068
S32508000EC03B685B680C2B23D87B6819687B681B68186B3B685A6813469B001344233B1F22D0
S32508000EE002FA03F3DB4303400B637B6819687B681B68186B3B681B689CB23B685A681346A4
S32508000F009B001344233B04FA03F303430B6322E07B6819687B681B68D86A3B685A681346FF
S32508000F209B001344413B1F2202FA03F3DB430340CB627B6819687B681B68D86A3B681B6842
S32508000F409CB23B685A6813469B001344413B04FA03F30343CB627B681B68204A934209D123
S32508000F603B681B68122B05D11D4A1D4B5B6843F4800353607B681B68184A934223D13B68F7
S32508000F801B68102B03D03B681B68112B1BD1144A134B5B6843F4000353603B681B68102B97
S32508000FA011D1104B1B68104AA2FB03239A0C13469B0013445B00FB6002E0FB68013BFB60C3
S32508000FC0FB68002BF9D17B68002283F83C20002318461437BD4690BD580E030800200140E1
S32508000FE0002301400C10002083DE1B4380B584B000AF7860824A824B5B6823F440335360FB
S325080010007F497F4B5A687B685B6813434B607B681B687A681268526822F480725A607B68A6
S325080010201B687A68126851687A68126912020A435A607B681B687A681268526822F0407252
S325080010405A607B681B687A68126851687A6892680A435A607B681B687A681268926822F498
S3250800106000629A607B681B687A68126891687A68D2680A439A607B689B6A624A934222D08D
S325080010807B681B687A681268926822F070629A607B681B687A68126891687A68926A0A43C2
S325080010A09A607B681B687A681268926822F040529A607B681B687A68126891687A68D26AF5
S325080010C00A439A600FE07B681B687A681268926822F070629A607B681B687A681268926876
S325080010E022F040529A607B681B687A681268926822F002029A607B681B687A6812689168BD
S325080011007A68926952000A439A607B681B6A002B32D07B685B6A002B03D07B685B6A082B35
S3250800112004D940F20461384817F0B8FC7B681B687A681268526842F400625A607B681B68BE
S325080011407A681268526822F460425A607B685B6A5A1E4FF46043FB60FB6893FAA3F3BB60F7
S32508001160BB68B3FA83F39A407B681B687968096849680A435A6007E07B681B687A68126828
S32508001180526822F400625A607B681B687A681268D26A22F47002DA627B681B687A681268D1
S325080011A0D16A7A68D269013A12050A43DA627B681B687A681268926822F400729A607B68CD
S325080011C01B687A68126891687A68126B52020A439A607B681B687A681268926822F480627B
S325080011E09A607B681B687A68126891687A68526992020A439A6000BF1037BD4680BD00BFAF
S32508001200002301400100000F580E030880B483B000AF786000BF0C37BD465DF8047B70475D
S3250800122080B584B000AF78600323FB600023BB607B68002B01D10123C1E17B681B689A4A01
S32508001240934208D07B681B68984A934203D0B421974817F023FC7B689B69002B07D07B683D
S325080012609B69012B03D0B521914817F017FC7B68DB69002B07D07B68DB69012B03D0B6216E
S325080012808B4817F00BFC7B681B6A002B07D07B681B6A012B03D0B721854817F0FFFB7B6805
S325080012A05B6A002B07D07B685B6A012B03D0B8217F4817F0F3FB7B689B6A002B07D07B6850
S325080012C09B6A012B03D0B921794817F0E7FB7B68DB6A002B07D07B68DB6A012B03D0BA214C
S325080012E0734817F0DBFB7B689B68002B12D07B689B68B3F1804F0DD07B689B68B3F1004F46
S3250800130008D07B689B68B3F1404F03D0BB21684817F0C4FB7B68DB68002B12D07B68DB6850
S32508001320B3F1807F0DD07B68DB68B3F1007F08D07B68DB68B3F1407F03D0BC215C4817F01A
S32508001340ADFB7B681B69B3F5702F03D9BD21584817F0A4FB7B685B69B3F5E00F03D9BE2130
S32508001360534817F09BFB7B685B68002B04D07B685B68B3F5806F03D9BF214D4817F08EFB64
S325080013807B6893F83830DBB2002B06D17B68002283F83920786817F01DFC7B68022283F87F
S325080013A038207B681B687A681268126822F002021A607B681B687A681268126842F001028A
S325080013C01A60FFF7D1F8B86010E0FFF7CDF80246BB68D31A0A2B09D97B68032283F83820B9
S325080013E07B68002283F839200323E8E07B681B685B6803F00103002BE7D07B681B685B68ED
S3250800140003F00103002B02D10023FB60C6E07B689B69012B08D17B681B687A68126812687D
S3250800142042F080021A6007E07B681B687A681268126822F080021A607B68DB69012B08D113
S325080014407B681B687A681268126842F040021A6007E07B681B687A681268126822F04002DD
S325080014601A607B681B6A012B08D17B681B687A681268126842F020021A6007E07B681B6820
S325080014807A681268126822F020021A607B685B6A012B0FD17B681B687A681268126842F098
S325080014A010021A600EE000BF0064004000680040880E03087B681B687A681268126822F0AA
S325080014C010021A607B689B6A012B08D17B681B687A681268126842F008021A6007E07B68C9
S325080014E01B687A681268126822F008021A607B68DB6A012B08D17B681B687A681268126886
S3250800150042F004021A6007E07B681B687A681268126822F004021A607B681B687A68916815
S325080015207A68D26811437A68126911437A68526911437A685268013A0A43DA617B681B68C6
S325080015407A681268126822F001021A60FFF70CF8B86010E0FFF708F80246BB68D31A0A2B93
S3250800156009D97B68032283F838207B68002283F83920032323E07B681B685B6803F001037E
S32508001580002BE7D17B681B685B6803F00103002B02D00023FB6001E00123FB60FB68012BD0
S325080015A008D17B680022DA637B68012283F83820002304E07B68042283F8382001231846C4
S325080015C01037BD4680BD00BF80B584B000AF786039600023FB603B685B691B2B04D94FF4E3
S325080015E0B671804817F05AFA3B689B69002B08D03B689B69012B04D040F26D11794817F0CA
S325080016004DFA3B68DB69002B08D03B68DB69012B04D04FF4B771734817F040FA3B681B6916
S32508001620002B08D03B681B69012B04D040F26F116C4817F033FA3B681B6A002B08D03B680A
S325080016401B6A012B04D04FF4B871664817F026FA3B685B6A1C2B04D940F27111614817F0C6
S325080016601DFA3B685B69012202FA03F3FB605E4A5D4BD3F8003243F00103C2F800325A4A5A
S32508001680594BD3F8003223F47C53C2F800325649554BD3F800223B685B6A1B021343C1F809
S325080016A000325149504BD3F81C22FB68DB431340C1F81C323B68DB69002B23D14A494A4BA3
S325080016C0D3F80C22FB68DB431340C1F80C3246483B685B693A68D26811043A68526892B2B2
S325080016E00A43483340F833203F483B685B693A68926811043A68126892B20A434833DB00E7
S3250800170003445A603B68DB69012B22D13649364BD3F80C22FB681343C1F80C3232483B68EE
S325080017205B693A68126811043A68526892B20A43483340F833202C483B685B693A6892683C
S3250800174011043A68D26892B20A434833DB0003445A603B689B69002B09D12349224BD3F852
S325080017600422FB68DB431340C1F8043207E01E491D4BD3F80422FB681343C1F804323B6880
S325080017801B69002B08D11849174BD3F81422FB68DB431340C1F814323B681B69012B07D1F1
S325080017A01149114BD3F81422FB681343C1F814323B681B6A012B07D10B490B4BD3F81C22CD
S325080017C0FB681343C1F81C32074A074BD3F8003223F00103C2F80032002318461037BD46CD
S325080017E080BD00BF880E03080064004080B582B000AF78607B68002B01D101231EE07B68C7
S325080018001B68104A934209D07B681B680E4A934204D040F2D5110D4817F040F97B68022214
S3250800182083F83820786817F02DFA7B68002283F838207B68002283F8392000231846083748
S32508001840BD4680BD0064004000680040880E030880B584B000AF78600B46FB700023FB6023
S32508001860FB78002B07D0FB78012B04D040F28531394817F013F97B6893F83830DBB2FB6038
S32508001880FB68012B02D0FB68122B5DD17B6893F83930012B01D1022359E07B68012283F857
S325080018A039207B6893F83830DBB2122B04D17B68322283F8382003E07B68222283F8382065
S325080018C07B680022DA637B681B687A681268526942F480725A617B681B687A6812685269DB
S325080018E042F400725A617B681B687A681268526942F480625A617B681B687A6812685269AA
S3250800190042F400625A617B681B687A681268526942F400425A617B68002283F83920FB786A
S32508001920002B08D17B681B687A681268526942F002025A610AE07B681B687A6812685269C0
S3250800194042F010025A6101E0022300E0002318461037BD4680BD00BF880E030880B586B0C1
S3250800196000AF786000237B6100233B610023FB607B681B685B6903F00103002B37D07B6860
S325080019801B689A68154B1340144A93420CBF01230023DBB27B617B681B689A68104B13403D
S325080019A00F4A93420CBF01230023DBB23B617B681B689A680B4B13400A4A93420CBF012387
S325080019C00023DBB2FB607B69002B0DD13B69002B0AD1FB68002B0AD006E000BF0300000443
S325080019E00003000800000310786800F061F97B681B68DB6803F003037B617B681B685B69E9
S32508001A0003F00203002B14BF01230023DBB23B617B69002B06D03B69002B03D000217868CA
S32508001A2000F098F97B681B681B6903F003037B617B681B685B6903F01003002B14BF012306
S32508001A400023DBB23B617B69002B06D03B69002B03D00121786800F07DF97B681B689B69D3
S32508001A6003F00103002B14BF01230023DBB27B617B681B685B6903F48073002B14BF01237D
S32508001A800023DBB23B617B681B685B6903F40043002B14BF01230023DBB2FB607B69002B4C
S32508001AA00BD03B69002B08D0FB68002B05D07B68DB6B43F001027B68DA637B681B689B694A
S32508001AC003F00203002B14BF01230023DBB27B617B681B685B6903F40073002B14BF01239C
S32508001AE00023DBB23B617B681B685B6903F40043002B14BF01230023DBB2FB607B69002BEC
S32508001B000BD03B69002B08D0FB68002B05D07B68DB6B43F002027B68DA637B681B689B69E8
S32508001B2003F00403002B14BF01230023DBB27B617B681B685B6903F48063002B14BF0123C9
S32508001B400023DBB23B617B681B685B6903F40043002B14BF01230023DBB2FB607B69002B8B
S32508001B600BD03B69002B08D0FB68002B05D07B68DB6B43F004027B68DA637B681B689B6986
S32508001B8003F07003002B0CBF01230023DBB27B617B681B685B6903F40063002B14BF012385
S32508001BA00023DBB23B617B681B685B6903F40043002B14BF01230023DBB2FB607B69002B2B
S32508001BC04ED13B69002B4BD0FB68002B48D07B681B689B6903F070037B617B69302B1BD072
S32508001BE0302B04D8102B09D0202B0ED030E0502B20D0602B25D0402B15D029E07B68DB6BE6
S32508001C0043F008027B68DA6322E07B68DB6B43F010027B68DA631BE07B68DB6B43F0200250
S32508001C207B68DA6314E07B68DB6B43F040027B68DA630DE07B68DB6B43F080027B68DA63D9
S32508001C4006E07B68DB6B43F480727B68DA6300BF7B681B687A681268926922F070029A6123
S32508001C607B68DB6B002B0AD07B681B6804225A607B68012283F83820786816F0A3F800BFC9
S32508001C801837BD4680BD00BF80B483B000AF786000BF0C37BD465DF8047B704780B483B003
S32508001CA000AF786000BF0C37BD465DF8047B704780B582B000AF78607B681B687A6812684F
S32508001CC0526922F001025A617B6893F83830DBB2122B27D17B681B687A681268526922F440
S32508001CE080725A617B681B687A681268526922F400725A617B681B687A681268526922F4D6
S32508001D0080625A617B681B687A681268526922F400625A617B681B687A681268526922F4D5
S32508001D2000425A617B6893F83830DBB2322B04D17B68222283F8382003E07B68012283F8A5
S32508001D4038207868FFF7A0FF002318460837BD4680BD00BF80B582B000AF78600B46FB703F
S32508001D607B685B6B7A681168FA781B3212010A44126802F004029A607B685B6B9B68002BEE
S32508001D800BD17B685B6B7A681168FA781B3212010A441268520D1A600AE07B685B6B7A686D
S32508001DA01168FA781B3212010A441268D2085A607B685B6B7A681168FA781B3212010A444A
S32508001DC0126802F00202DA607B685B6B7A681168FA781B3212010A440432126802F00F0274
S32508001DE01A617B685B6B7A681168FA781B3212010A4404321268120AD2B2DA617B685B6B02
S32508001E007A681168FA7812010A4402F5DC721268D2B21A757B685B6B7A681168FA7812012B
S32508001E200A4402F5DC721268120AD2B25A757B685B6B7A681168FA7812010A4402F5DC72FC
S32508001E401268120CD2B29A757B685B6B7A681168FA7812010A4402F5DC721268120ED2B20F
S32508001E60DA757B685B6B7A681168FA7812010A4402F5DE721268D2B21A767B685B6B7A68CE
S32508001E801168FA7812010A4402F5DE721268120AD2B25A767B685B6B7A681168FA7812012E
S32508001EA00A4402F5DE721268120CD2B29A767B685B6B7A681168FA7812010A4402F5DE7235
S32508001EC01268120ED2B2DA76FB78002B0CD17B681B682022DA607B681B687A6812685269AC
S32508001EE022F002025A610BE07B681B6820221A617B681B687A681268526922F010025A6199
S32508001F007B6893F83830DBB2222B27D17B681B687A681268526922F480725A617B681B6865
S32508001F207A681268526922F400725A617B681B687A681268526922F480625A617B681B68A3
S32508001F407A681268526922F400625A617B681B687A681268526922F400425A617B6893F82B
S32508001F603830DBB2322B04D17B68122283F8382003E07B68012283F838207868FFF78EFE24
S32508001F80002318460837BD4680BD00BF80B485B000AF78607B6803F00703FB600C4BDB68AF
S32508001FA0BB60BA684FF6FF031340BB60FB681A02BB68134343F0BF6343F40033BB60044A01
S32508001FC0BB68D36000BF1437BD465DF8047B704700ED00E080B400AF044BDB6803F4E06389
S32508001FE01B0A1846BD465DF8047B704700ED00E080B483B000AF0346FB71094997F9073011
S325080020005B09FA7902F01F02012000FA02F241F8232000BF0C37BD465DF8047B704700BFEE
S3250800202000E100E080B483B000AF0346FB71094997F907305B09FA7902F01F02012000FAE8
S3250800204002F2203341F8232000BF0C37BD465DF8047B704700E100E080B483B000AF0346FF
S325080020603960FB7197F90730002B0BDA0D49FB7903F00F03043B3A68D2B21201D2B20B445C
S325080020801A7609E0084997F907303A68D2B21201D2B20B4483F8002300BF0C37BD465DF89D
S325080020A0047B704700ED00E000E100E080B489B000AFF860B9607A60FB6803F00703FB612B
S325080020C0FB69C3F10703042B28BF0423BB61FB690433062B02D9FB69033B00E000237B614F
S325080020E00122BB6902FA03F35A1EBB681A407B699A4001217B6901FA03F3591E7B680B404A
S32508002100134318462437BD465DF8047B704700BF80B582B000AF78607B68013BB3F1807FA5
S3250800212001D301230FE00A4A7B68013B53600F214FF0FF30FFF790FF054B00229A60044BA6
S3250800214007221A60002318460837BD4680BD00BF10E000E080B582B000AF78607B68072B3C
S325080021600FD07B68062B0CD07B68052B09D07B68042B06D07B68032B03D0A421044816F0B3
S325080021808DFC7868FFF702FF00BF0837BD4680BDB80E030880B586B000AF0346B9607A606C
S325080021A0FB7300237B617B680F2B03D9BC210E4816F074FCBB680F2B03D9BD210A4816F093
S325080021C06DFCFFF707FF78617A68B9687869FFF76DFF024697F90F3011461846FFF73CFF70
S325080021E000BF1837BD4680BDB80E030880B582B000AF0346FB7197F90730002B03DAD02127
S32508002200054816F04BFC97F907301846FFF7F0FE00BF0837BD4680BDB80E030880B582B097
S3250800222000AF0346FB7197F90730002B03DAE021054816F033FC97F907301846FFF7F2FECF
S3250800224000BF0837BD4680BDB80E030880B582B000AF78607868FFF75BFF0346184608375D
S32508002260BD4680BD80B582B000AF78607B68042B07D07B68002B04D040F2B3110B4816F008
S325080022800DFC7B68042B06D1094A094B1B6843F00403136005E0064A054B1B6823F0040345
S325080022A0136000BF0837BD4680BD00BFB80E030810E000E080B584B000AF78600023FB6091
S325080022C07B68002B01D10123C4E17B681B68974A93424ED07B681B68954A934249D07B68F7
S325080022E01B68944A934244D07B681B68924A93423FD07B681B68914A93423AD07B681B68DA
S325080023008F4A934235D07B681B688E4A934230D07B681B688C4A93422BD07B681B688B4AA2
S32508002320934226D07B681B68894A934221D07B681B68884A93421CD07B681B68864A9342C1
S3250800234017D07B681B68854A934212D07B681B68834A93420DD07B681B68824A934208D0D8
S325080023607B681B68804A934203D0C5217F4816F095FB7B685B68002B26D07B685B68B3F123
S32508002380007F21D07B685B68B3F1806F1CD07B685B68B3F1C06F17D07B685B68B3F1006F81
S325080023A012D07B685B68B3F1206F0DD07B685B68B3F1406F08D07B685B68B3F1606F03D0BA
S325080023C0C6216A4816F06AFB7B689B68002B0BD07B689B68402B07D07B689B68802B03D073
S325080023E0C721624816F05AFB7B68DB68B3F5007F07D07B68DB68002B03D0C8215B4816F008
S325080024004DFB7B681B69B3F5806F07D07B681B69002B03D0C921554816F040FB7B685B69BD
S32508002420002B0DD07B685B69B3F5006F08D07B685B69B3F5805F03D0CA214C4816F02EFB41
S325080024407B689B69002B0DD07B689B69B3F5005F08D07B689B69B3F5804F03D0CB21434811
S3250800246016F01CFB7B68DB69002B0CD07B68DB69B3F5807F07D07B68DB69202B03D0CC212C
S325080024803A4816F00BFB7B681B6A002B12D07B681B6AB3F5803F0DD07B681B6AB3F5003F30
S325080024A008D07B681B6AB3F5403F03D0CD212F4816F0F4FA7B685B6A002B07D07B685B6A29
S325080024C0042B03D0CE21294816F0E8FA7B685B6A002B64D07B689B6A002B0FD07B689B6AC3
S325080024E0012B0BD07B689B6A022B07D07B689B6A032B03D0D3211D4816F0D0FA7B68DB6AA1
S32508002500002B35D07B68DB6AB3F5000F30D07B68DB6AB3F1807F2BD07B68DB6AB3F1C07FCD
S3250800252026D0D421114816F0B9FA21E0106002402860024040600240586002407060024025
S3250800254088600240A0600240B8600240106402402864024040640240586402407064024029
S3250800256088640240A0640240B8640240EC0E03087B681B6B002B12D07B681B6BB3F5001FD0
S325080025800DD07B681B6BB3F5800F08D07B681B6BB3F5C00F03D0D521304816F07FFA7B6855
S325080025A0022283F835207B681B681B68FB60FA682B4B1340FB607B685A687B689B681A4367
S325080025C07B68DB681A437B681B691A437B685B691A437B689B691A437B68DB691A437B68F7
S325080025E01B6A1343FA681343FB607B685B6A042B07D17B68DA6A7B681B6B1343FA68134392
S32508002600FB607B681B68FA681A607B681B685B69FB60FB6823F00703FB607B685B6AFA68A5
S325080026201343FB607B685B6A042B04D17B689B6AFA681343FB607B681B68FA685A617868D1
S3250800264000F084FA7B680022DA647B68012283F83520002318461037BD4680BDEC0E0308D8
S325080026603F8010F080B584B000AF78607B68002B01D101233EE07B6893F83530DBB2022BEE
S3250800268001D1012336E07B681B687A681268126822F001021A607B681B6800221A607B6870
S325080026A01B6800225A607B681B6800229A607B681B680022DA607B681B6800221A617B6883
S325080026C01B6821225A61786800F040FA0346FB607B685B6D3F229A40FB689A607B68002275
S325080026E0DA647B68002283F835207B68002283F83420002318461037BD4680BD80B584B074
S3250800270000AFF860B9607A603B60FB6893F83430012B01D102233AE0FB68012283F8342032
S32508002720FB68022283F835203B68002B03D03B68B3F5803F04D340F29911174816F0AEF9CA
S32508002740FB681B68FA681268126822F001021A603B687A68B968F86800F0CAF9FB681B6801
S32508002760FA681268126842F01E021A60FB681B68FA681268526942F080025A61FB681B6857
S32508002780FA681268126842F001021A60002318461037BD4680BD00BFEC0E030880B584B0F1
S325080027A000AF78600023FB607B681B687A681268126822F001021A60FDF7D6FEF86017E024
S325080027C0FDF7D2FE0246FB68D31AB3F57A7F0FD97B68DB6C43F020027B68DA647B68002261
S325080027E083F834207B68032283F8352003230FE07B681B681B6803F00103002BE0D17B6870
S32508002800002283F834207B68012283F83520002318461037BD4680BD80B584B000AF7860EB
S325080028207B681B6DFB60FB681A687B685B6D082101FA03F31340002B2AD07B681B681B68B9
S3250800284003F00403002B23D07B681B687A681268126822F004021A607B685B6D08229A40D5
S32508002860FB689A607B68DB6C43F001027B68DA647B68042283F835207B68002283F83420BF
S325080028807B689B6C002B03D07B689B6C78689847FB681A687B685B6D934901FA03F31340E9
S325080028A0002B2AD07B681B685B6903F08003002B23D07B681B687A681268526922F0800216
S325080028C05A617B685B6D884A9A40FB689A607B68DB6C43F002027B68DA647B68042283F875
S325080028E035207B68002283F834207B689B6C002B03D07B689B6C78689847FB681A687B6848
S325080029005B6D7A4901FA03F31340002B2AD07B681B681B6803F00203002B23D07B681B6850
S325080029207A681268126822F002021A607B685B6D6E4A9A40FB689A607B68DB6C43F0040226
S325080029407B68DA647B68042283F835207B68002283F834207B689B6C002B03D07B689B6CC9
S3250800296078689847FB681A687B685B6D102101FA03F31340002B4CD07B681B681B6803F062
S325080029800803002B45D07B681B681B6803F48023002B1DD07B685B6D10229A40FB689A602F
S325080029A07B681B681B6803F40023002B04D17B68312283F8352024E07B681B681B6803F41C
S325080029C00023002B1DD07B68412283F8352018E07B681B681B6803F48073002B07D17B68E7
S325080029E01B687A681268126822F008021A607B685B6D10229A40FB689A607B68312283F815
S32508002A0035207B681B6C002B03D07B681B6C78689847FB681A687B685B6D202101FA03F300
S32508002A201340002B5CD07B681B681B6803F01003002B55D07B681B681B6803F48023002BF1
S32508002A4025D07B685B6D20229A40FB689A607B681B681B6803F40023002B08D17B685B6C9E
S32508002A60002B3DD07B685B6C7868984738E07B681B681B6803F40023002B31D07B68DB6B37
S32508002A80002B2DD07B68DB6B7868984728E07B681B681B6803F48073002B07D17B681B68D4
S32508002AA07A681268126822F010021A607B685B6D20229A40FB689A607B68DA6C7B68DA6426
S32508002AC07B68112283F835207B68002283F834207B68DB6B002B03D07B68DB6B786898471F
S32508002AE000BF1037BD4680BD010080000400800080B485B000AFF860B9607A603B60FB681C
S32508002B001B68FA681268126822F480221A60FB681B683A685A60FB689B68402B08D1FB684D
S32508002B201B687A689A60FB681B68BA68DA6007E0FB681B68BA689A60FB681B687A68DA60FB
S32508002B4000BF1437BD465DF8047B704780B485B000AF78607B681B68DBB2103B144AA2FBA6
S32508002B6003231B09FB60134AFB6813441B781A467B685A65FB68032B09D97B681B6823F406
S32508002B807F7323F003031A1D7B681A6507E07B681B6823F47F7323F003037A6813657B68D7
S32508002BA01B6D18461437BD465DF8047B704700BFABAAAAAA1C0F030880B582B000AF7860BC
S32508002BC07B681B6803F5805314331B6803F04003002B12D0786816F0DBF87B681B6803F592
S32508002BE08053143340221A607B68012283F844207B68002283F845201BE07B681B6803F5AE
S32508002C00805314331B6803F00103002B11D0786800F038F87B681B6803F58053143301226B
S32508002C201A607B68012283F844207B68002283F845207B681B6803F5805314334FF48032D5
S32508002C401A607B681B6803F5805314331B6803F40043002B12D0786800F01EF87B681B685E
S32508002C6003F5805314334FF400421A607B68012283F844207B68002283F8452000BF08376D
S32508002C80BD4680BD80B483B000AF786000BF0C37BD465DF8047B704780B483B000AF78607A
S32508002CA000BF0C37BD465DF8047B704780B588B000AF7860396000237B6100233B61002308
S32508002CC0BB617B683E4A934223D07B683D4A93421FD07B683C4A93421BD07B683B4A934203
S32508002CE017D07B683A4A934213D07B68394A93420FD07B68384A93420BD07B68374A934258
S32508002D0007D07B68364A934203D0C521354815F0C5FE3B681B689BB2002B03D1C6213148C6
S32508002D2015F0BCFE3B685B68002B35D03B685B68012B31D03B685B68112B2DD03B685B6898
S32508002D40022B29D03B685B68122B25D03B685B68254A934220D03B685B68244A93421BD079
S32508002D603B685B68224A934216D03B685B68214A934211D03B685B681F4A93420CD03B680E
S32508002D805B681E4A934207D03B685B68032B03D0C721144815F082FE3B689B68002B0BD072
S32508002DA03B689B68012B07D03B689B68022B03D0C8210C4815F072FE0023FB6157E200BF8D
S32508002DC0000002400004024000080240000C0240001002400014024000180240001C024065
S32508002DE000200240240F0308000011100000211000003110000012100000221000003210FC
S32508002E000122FB6902FA03F37B613B681A687B6913403B613A697B699A4240F025823B687A
S32508002E205B68022B04D03B685B68122B40F0BC803B681B69002B00F093803B681B69092B01
S32508002E4000F08E803B681B69002B00F089803B681B69002B00F084803B681B69002B7FD034
S32508002E603B681B69002B7BD03B681B69012B77D03B681B69012B73D03B681B69022B6FD0E4
S32508002E803B681B69022B6BD03B681B69022B67D03B681B69032B63D03B681B69042B5FD0FD
S32508002EA03B681B69042B5BD03B681B69042B57D03B681B69052B53D03B681B69052B4FD016
S32508002EC03B681B69092B4BD03B681B69062B47D03B681B69092B43D03B681B69072B3FD029
S32508002EE03B681B69072B3BD03B681B69072B37D03B681B69082B33D03B681B69082B2FD04A
S32508002F003B681B69082B2BD03B681B69092B27D03B681B69092B23D03B681B690A2B1FD063
S32508002F203B681B690A2B1BD03B681B690B2B17D03B681B690C2B13D03B681B690C2B0FD07A
S32508002F403B681B690D2B0BD03B681B690C2B07D03B681B690F2B03D0D921854815F09EFD59
S32508002F60FB69DA087B68083253F82230BB61FB6903F007039B000F2202FA03F3DB43BA69C7
S32508002F801340BB613B681A69FB6903F007039B0002FA03F3BA691343BB61FB69DA087B68E2
S32508002FA00832B96943F822107B681B68BB61FB695B00032202FA03F3DB43BA691340BB6132
S32508002FC03B685B6803F00302FB695B0002FA03F3BA691343BB617B68BA691A603B685B6859
S32508002FE0012B0BD03B685B68022B07D03B685B68112B03D03B685B68122B44D13B68DB683F
S32508003000002B0FD03B68DB68012B0BD03B68DB68022B07D03B68DB68032B03D0EC21544831
S3250800302015F03CFD7B689B68BB61FB695B00032202FA03F3DB43BA691340BB613B68DA68D7
S32508003040FB695B0002FA03F3BA691343BB617B68BA699A607B685B68BB610122FB6902FAD7
S3250800306003F3DB43BA691340BB613B685B681B0903F00102FB6902FA03F3BA691343BB6131
S325080030807B68BA695A607B68DB68BB61FB695B00032202FA03F3DB43BA691340BB613B68F7
S325080030A09A68FB695B0002FA03F3BA691343BB617B68BA69DA603B685B6803F08053002B23
S325080030C000F0D2800023FB602A4A2A4B5B6C43F480435364274B5B6C03F48043FB60FB6810
S325080030E0254AFB699B08023352F82330BB61FB6903F003039B000F2202FA03F3DB43BA6902
S325080031001340BB617B681D4A934249D07B681C4A93422BD07B681B4A934225D07B681A4A88
S3250800312093421FD07B68194A934219D07B68184A934213D07B68174A93420DD07B68164A83
S32508003140934207D07B68154A934201D1082328E0092326E0072324E0062322E0052320E0E6
S3250800316004231EE003231CE002231AE0012318E0240F03080038024000380140000002404C
S325080031800004024000080240000C0240001002400014024000180240001C02400020024081
S325080031A00023FA6902F0030292009340BA691343BB613349FB699B080233BA6941F8232033
S325080031C0304B1B68BB613B69DB43BA691340BB613B685B6803F48033002B03D0BA693B699E
S325080031E01343BB61274ABB691360264B5B68BB613B69DB43BA691340BB613B685B6803F446
S325080032000033002B03D0BA693B691343BB611D4ABB6953601B4B9B68BB613B69DB43BA698E
S325080032201340BB613B685B6803F48013002B03D0BA693B691343BB61124ABB699360114B1B
S32508003240DB68BB613B69DB43BA691340BB613B685B6803F40013002B03D0BA693B69134322
S32508003260BB61084ABB69D360FB690133FB61FB690F2B7FF6C5AD00BF2037BD4680BD00BFED
S3250800328000380140003C014080B586B000AF7860396000233B610023FB600023BB607B6841
S325080032A0834A934224D07B68824A934220D07B68814A93421CD07B68804A934218D07B683A
S325080032C07F4A934214D07B687E4A934210D07B687D4A93420CD07B687C4A934208D07B686A
S325080032E07B4A934204D04FF4A1717A4815F0D6FB00237B61D4E001227B6902FA03F33B611D
S325080033003A683B691340FB60FA683B699A4240F0C4807B681A687B695B00032101FA03F39C
S32508003320DB431A407B681A607B69DA087B69D9087B68083153F821107B6903F007039B000B
S325080033400F2000FA03F3DB4319407B68083243F822107B689A687B695B00032101FA03F306
S32508003360DB431A407B689A607B685A6801217B6901FA03F3DB431A407B685A607B68DA6814
S325080033807B695B00032101FA03F3DB431A407B68DA60514A7B699B08023352F82330BB6027
S325080033A07B6903F003039B000F2202FA03F3BA681340BB607B683E4A934231D07B683D4A29
S325080033C093422BD07B683C4A934225D07B683B4A93421FD07B683A4A934219D07B68394A25
S325080033E0934213D07B68384A93420DD07B68374A934207D07B68364A934201D1082310E0BB
S3250800340009230EE007230CE006230AE0052308E0042306E0032304E0022302E0012300E029
S3250800342000237A6902F00302920003FA02F2BB689A4232D17B6903F003039B000F2202FA57
S3250800344003F3BB6024487B699B0823497A699208023251F82210BA68D2430A40023340F8D4
S3250800346023201E491D4B1A68FB68DB4313400B601A491A4B5A68FB68DB4313404B60174902
S32508003480164B9A68FB68DB4313408B601349134BDA68FB68DB431340CB607B6901337B610D
S325080034A07B690F2B7FF627AF00BF1837BD4680BD000002400004024000080240000C024027
S325080034C0001002400014024000180240001C024000200240240F030800380140003C0140E8
S325080034E080B584B000AF78600B467B807B88002B04D14FF4C871094815F0D0FA7B681A697D
S325080035007B881340002B02D00123FB7301E00023FB73FB7B18461037BD4680BD240F0308AD
S3250800352080B582B000AF78600B467B8013467B707B88002B04D140F2B1110E4815F0AEFA05
S325080035407B78002B07D07B78012B04D04FF4D971084815F0A3FA7B78002B03D07A887B6820
S325080035609A6103E07B881A047B689A6100BF0837BD4680BD240F030880B582B000AF7860F6
S325080035800B467B807B88002B04D14FF4E471064815F084FA7B685A697B885A407B685A6184
S325080035A000BF0837BD4680BD240F0308F0B58DB00AAF78607B68002B01D101234CE07B68FB
S325080035C01B68B3F1A04F08D07B681B68244A934203D08C21234815F061FA7B68032283F878
S325080035E09122786816F0BAFD7B681B68184606F0A3F97B681B683B607E686D4606F1100472
S325080036000FCC0FC50FCC0FC594E8030085E80300331D0ECB386806F031F97B681B680121DE
S32508003620184606F09BF97B681B683B607E686D4606F110040FCC0FC50FCC0FC594E8030012
S3250800364085E80300331D0ECB386806F0ADFA7B68012283F89122002318460C37BD46F0BDDE
S3250800366000000440540F030890B589B004AF7860084611461A460346FB700B46BB701346F3
S325080036807B700023FB737B6893F89032012B01D102236CE07B68012283F89022FA7879687B
S325080036A013469B001344DB000B4438337A781A70FA78796813469B001344DB000B44403365
S325080036C03A8D1A80FA78796813469B001344DB000B443933FA781A70FA78796813469B0004
S325080036E01344DB000B443F3397F824201A70FA78BB7803F07F03D8B2796813469B0013449C
S32508003700DB000B443A3302461A70FA7897F90230DBB2DB09DBB21846796813469B00134476
S32508003720DB000B443B3302461A70FA78796813469B001344DB000B443C3397F820201A7081
S325080037407B6818687C78BA78F9783B8D029397F82430019397F820300093234606F08AFB37
S325080037600346FB737B68002283F89022FB7B18461437BD4690BD00BF80B584B000AF786034
S325080037800B46FB700023FB737B6893F89032012B01D102230FE07B68012283F890227B6876
S325080037A01B68FA781146184606F0AEFD7B68002283F89022FB7B18461037BD4680BD00BF64
S325080037C080B582B000AF7860084611461A460346FB700B46BB7013467B70FA7879681346C8
S325080037E09B001344DB000B443B33BA781A70FA78796813469B001344DB000B443F337A7849
S325080038001A703B7C002B0AD1FA78796813469B001344DB000B44423303221A7009E0FA780C
S32508003820796813469B001344DB000B44423302221A707B78032B00F2048101A252F823F069
S3250800384051380008273A0008E93800089D3900083B7C012B40F0F280BB78002B40F0EE80D8
S325080038603B8B002B09D1FA78796813469B001344DB000B44513301221A70FA7879681346CA
S325080038809B001344DB000B4451331B78002B0AD1FA78796813469B001344DB000B444233A4
S325080038A000221A7009E0FA78796813469B001344DB000B44423302221A70FA7879681346CE
S325080038C09B001344DB000B445C331B78022B00F0B580FA78796813469B001344DB000B4482
S325080038E03D333A7F1A70A9E0BB78002B35D1FA78796813469B001344DB000B4451331B783B
S32508003900002B0AD1FA78796813469B001344DB000B44423300221A7009E0FA787968134615
S325080039209B001344DB000B44423302221A70FA78796813469B001344DB000B445C331B7850
S32508003940022B7DD0FA78796813469B001344DB000B443D333A7F1A7072E0FA787968134666
S325080039609B001344DB000B4450331B78002B0AD1FA78796813469B001344DB000B444233C4
S3250800398000221A705CE0FA78796813469B001344DB000B44423302221A7051E0BB78002BB7
S325080039A020D1FA78796813469B001344DB000B4451331B78002B0AD1FA78796813469B00DC
S325080039C01344DB000B44423300221A7039E0FA78796813469B001344DB000B4442330222BD
S325080039E01A702EE0FA78796813469B001344DB000B4450331B78002B0AD1FA787968134691
S32508003A009B001344DB000B44423300221A7018E0FA78796813469B001344DB000B44423326
S32508003A2002221A700DE0FA78796813469B001344DB000B44423300221A7002E000BF00E073
S32508003A4000BFFA78796813469B001344DB000B4444337A691A60FA78398B786813469B00F3
S32508003A601344DB00034448331960FA78796813469B001344DB000B445C3300221A70FA7856
S32508003A80796813469B001344DB000B444C3300221A60FA78796813469B001344DB000B44DF
S32508003AA03933FA781A70FA78796813469B001344DB000B445D3300221A707B681868FA78B7
S32508003AC013469B001344DB0038337A68D1187B681B69DBB21A4606F0C9FA03461846083789
S32508003AE0BD4680BD80B586B000AF78607B681B683B6100237B610023FB607B681B68184643
S32508003B0006F010F80346012B40F0E3807B681B68184605F0F1FF0346002B00F0D9807B6848
S32508003B201B68184605F0E8FF034603F40013002B04D07B681B684FF400125A617B681B688C
S32508003B40184605F0D9FF034603F48013002B04D07B681B684FF480125A617B681B681846A0
S32508003B6005F0CAFF034603F08063002B04D07B681B684FF080625A617B681B68184605F060
S32508003B80BBFF034603F00203002B03D07B681B6802225A617B681B68184605F0ADFF03462B
S32508003BA003F00053002B18D03B6903F588631A463B6903F588631B6823F02E031360786816
S32508003BC016F030FB7B681B680121184606F098F87B681B684FF000525A617B681B681846C4
S32508003BE005F08AFF034603F08073002B02D0786801F03AF87B681B68184605F07DFF03468C
S32508003C0003F00803002B06D0786816F0EFFA7B681B6808225A617B681B68184605F06CFF59
S32508003C20034603F00073002B34D07B681B68184606F05AFBF86000237B6121E001227B692A
S32508003C409A40FB681340002B17D07B695A013B69134403F5A0631B6803F40043002B06D0C1
S32508003C607B69DBB21946786800F0CEF805E07B69DBB21946786800F009FC7B6901337B6152
S32508003C807B689A687B699A42D8D87B681B684FF000725A617B681B68184605F02DFF0346C1
S32508003CA003F01003002B14D07B681B687A681268926922F010029A61786800F023FF7B6830
S32508003CC01B687A681268926942F010029A6100E000BF1837BD4680BD80B582B000AF7860A1
S32508003CE07B6893F89032012B01D1022313E07B68012283F890227B681B68184605F00AFE7C
S32508003D007B681B680121184606F05AF87B68002283F89022002318460837BD4680BD00BF76
S32508003D2080B582B000AF78607B6893F89032012B01D102230DE07B68012283F890227B6831
S32508003D401B68184606F000FC7B68002283F89022002318460837BD4680BD00BF80B582B02A
S32508003D6000AF78607B681B68184606F003F8034618460837BD4680BD80B483B000AF7860E5
S32508003D800B46FB70FA78796813469B001344DB000B445C331B7818460C37BD465DF8047BF7
S32508003DA0704700BF80B483B000AF78600B46FB70FA78796813469B001344DB000B444C338E
S32508003DC01B6818460C37BD465DF8047B704700BF80B582B000AF78607B681B68184606F0BC
S32508003DE039F8034618460837BD4680BD80B582B000AF78607B681B68184606F017F803465E
S32508003E0018460837BD4680BD90B585B000AF78600B46FB707B681B68FB600023BB60FB7888
S32508003E205A01FB68134403F5A0639B6803F00403002B1AD0FB785A01FB68134403F5A063CF
S32508003E401A4604239360FB785A01FB68134403F5A0631946FB785A01FB68134403F5A06375
S32508003E60DB6843F00203CB6094E0FB785A01FB68134403F5A0639B6803F02003002B09D07A
S32508003E80FB785A01FB68134403F5A0631A46202393607FE0FB785A01FB68134403F5A06319
S32508003EA09B6803F00803002B34D0FB785A01FB68134403F5A0631946FB785A01FB6813445A
S32508003EC003F5A063DB6843F00203CB60FA78796813469B001344DB000B445D3305221A702A
S32508003EE0FB785A01FB68134403F5A0631A4610239360FB785A01FB68134403F5A0631A46C8
S32508003F00082393607B681B68FA781146184606F0FBF93FE0FB785A01FB68134403F5A0635C
S32508003F209B6803F48063002B34D0FB785A01FB68134403F5A0631946FB785A01FB681344FD
S32508003F4003F5A063DB6843F00203CB607B681B68FA781146184606F0D7F9FB785A01FB682E
S32508003F60134403F5A0631A4610239360FA78796813469B001344DB000B445D3308221A704F
S32508003F80FB785A01FB68134403F5A0631A464FF480639360FB785A01FB68134403F5A06394
S32508003FA09B6803F40073002B22D0FB785A01FB68134403F5A0631946FB785A01FB681344FF
S32508003FC003F5A063DB6843F00203CB607B681B68FA781146184606F097F9FB785A01FB68EE
S32508003FE0134403F5A0631A464FF40073936048E2FB785A01FB68134403F5A0639B6803F0B5
S325080040000103002B00F0C0807B681B69002B1BD0FA78F97878680B469B000B44DB00034496
S3250800402048331968FB785801FB68034403F5A0631B69C3F31203C91A786813469B001344A8
S32508004040DB0003444C331960FA78796813469B001344DB000B445D3301221A70FA787968E0
S3250800406013469B001344DB000B44583300221A60FB785A01FB68134403F5A0631A4601238F
S325080040809360FA78796813469B001344DB000B443F331B78002B0AD0FA78796813469B0006
S325080040A01344DB000B443F331B78022B21D1FB785A01FB68134403F5A0631946FB785A019D
S325080040C0FB68134403F5A063DB6843F00203CB607B681B68FA781146184606F015F9FB7873
S325080040E05A01FB68134403F5A0631A461023936033E0FA78796813469B001344DB000B4441
S325080041003F331B78032B28D1FB785A01FB68134403F5A0631946FB785A01FB68134403F503
S32508004120A0631B6843F000530B60FA78796813469B001344DB000B445C3301221A70FA7884
S32508004140796813469B001344DB000B445C331A78FB781946786816F073F8FA78F9787868F4
S325080041600B469B000B44DB00034450331B7883F00103D8B2796813469B001344DB000B4467
S32508004180503302461A707CE1FB785A01FB68134403F5A0639B6803F00203002B00F0B7808F
S325080041A0FB785A01FB68134403F5A0631946FB785A01FB68134403F5A063DB6823F0020331
S325080041C0CB60FA78796813469B001344DB000B445D331B78012B0AD1FA78796813469B006D
S325080041E01344DB000B445C3301221A7077E0FA78796813469B001344DB000B445D331B78B2
S32508004200052B0AD1FA78796813469B001344DB000B445C3305221A7061E0FA787968134690
S325080042209B001344DB000B445D331B78062B0AD0FA78796813469B001344DB000B445D33CE
S325080042401B78082B4BD1FA78796813469B001344DB000B4458331968481C7C6813469B005E
S325080042601344DB00234458331860032914D9FA78796813469B001344DB000B445833002206
S325080042801A60FA78796813469B001344DB000B445C3304221A7009E0FA78796813469B005F
S325080042A01344DB000B445C3302221A70FB785A01FB68134403F5A0631B68BB60BB6823F0DB
S325080042C08043BB60BB6843F00043BB60FB785A01FB68134403F5A0631A46BB681360FB7852
S325080042E05A01FB68134403F5A0631A4602239360FA78796813469B001344DB000B445C33D1
S325080043001A78FB781946786815F09AFFB9E0FB785A01FB68134403F5A0639B6803F0800318
S32508004320002B3DD0FB785A01FB68134403F5A0631946FB785A01FB68134403F5A063DB688F
S3250800434043F00203CB60FA78796813469B001344DB000B4458331B68591C786813469B00CD
S325080043601344DB00034458331960FA78796813469B001344DB000B445D3306221A707B68C5
S325080043801B68FA781146184605F0BEFFFB785A01FB68134403F5A0631A468023936070E0EA
S325080043A0FB785A01FB68134403F5A0639B6803F01003002B65D0FA78796813469B00134465
S325080043C0DB000B443F331B78032B18D1FB785A01FB68134403F5A0631946FB785A01FB6876
S325080043E0134403F5A063DB6843F00203CB607B681B68FA781146184605F086FF2EE0FA7830
S32508004400796813469B001344DB000B443F331B78002B0AD0FA78796813469B001344DB00B5
S325080044200B443F331B78022B18D1FB785A01FB68134403F5A0631B68BB60BB6823F08043EA
S32508004440BB60BB6843F00043BB60FB785A01FB68134403F5A0631A46BB681360FA787968B3
S3250800446013469B001344DB000B445D3303221A70FB785A01FB68134403F5A0631A46102364
S32508004480936000BF1437BD4690BD00BF90B585B000AF78600B46FB707B681B68FB60002361
S325080044A0BB60FB785A01FB68134403F5A0639B6803F00403002B1AD0FB785A01FB681344B6
S325080044C003F5A0631A4604239360FB785A01FB68134403F5A0631946FB785A01FB681344EF
S325080044E003F5A063DB6843F00203CB6006E3FB785A01FB68134403F5A0639B6803F0200388
S32508004500002B41D0FB785A01FB68134403F5A0631A4620239360FA78796813469B0013449A
S32508004520DB000B443D331B78012B40F0E782FA78796813469B001344DB000B445D330422FD
S325080045401A70FB785A01FB68134403F5A0631946FB785A01FB68134403F5A063DB6843F0E8
S325080045600203CB607B681B68FA781146184605F0CBFEFA78796813469B001344DB000B44EA
S325080045805C3302221A70B9E2FB785A01FB68134403F5A0639B6803F04003002B35D0FA78D7
S325080045A0796813469B001344DB000B445D3304221A70FA78796813469B001344DB000B448F
S325080045C0583300221A60FB785A01FB68134403F5A0631946FB785A01FB68134403F5A06341
S325080045E0DB6843F00203CB607B681B68FA781146184605F089FEFB785A01FB68134403F57E
S32508004600A0631A464023936078E2FB785A01FB68134403F5A0639B6803F40073002B22D06C
S32508004620FB785A01FB68134403F5A0631946FB785A01FB68134403F5A063DB6843F002038C
S32508004640CB607B681B68FA781146184605F05CFEFB785A01FB68134403F5A0631A464FF41F
S32508004660007393604AE2FB785A01FB68134403F5A0639B6803F00103002B35D0FA7879689A
S3250800468013469B001344DB000B44583300221A60FB785A01FB68134403F5A0631946FB781B
S325080046A05A01FB68134403F5A063DB6843F00203CB607B681B68FA781146184605F024FE92
S325080046C0FB785A01FB68134403F5A0631A4601239360FA78796813469B001344DB000B440A
S325080046E05D3301221A7009E2FB785A01FB68134403F5A0639B6803F00803002B2BD0FB7867
S325080047005A01FB68134403F5A0631A4608239360FB785A01FB68134403F5A0631946FB78A8
S325080047205A01FB68134403F5A063DB6843F00203CB607B681B68FA781146184605F0E4FD52
S32508004740FA78796813469B001344DB000B445D3305221A70D2E1FB785A01FB68134403F50F
S32508004760A0639B6803F01003002B35D0FA78796813469B001344DB000B44583300221A6000
S32508004780FB785A01FB68134403F5A0631946FB785A01FB68134403F5A063DB6843F002032B
S325080047A0CB607B681B68FA781146184605F0ACFDFA78796813469B001344DB000B445D333D
S325080047C003221A70FB785A01FB68134403F5A0631A461023936091E1FB785A01FB68134419
S325080047E003F5A0639B6803F08003002B2BD0FB785A01FB68134403F5A0631946FB785A0161
S32508004800FB68134403F5A063DB6843F00203CB607B681B68FA781146184605F075FDFA78C9
S32508004820796813469B001344DB000B445D3306221A70FB785A01FB68134403F5A0631A46EF
S32508004840802393605AE1FB785A01FB68134403F5A0639B6803F48063002B35D0FB785A011B
S32508004860FB68134403F5A0631946FB785A01FB68134403F5A063DB6843F00203CB607B680A
S325080048801B68FA781146184605F03EFDFB785A01FB68134403F5A0631A4610239360FB78B4
S325080048A05A01FB68134403F5A0631A464FF480639360FA78796813469B001344DB000B4499
S325080048C05D3308221A7019E1FB785A01FB68134403F5A0639B6803F00203002B00F00E8164
S325080048E0FB785A01FB68134403F5A0631946FB785A01FB68134403F5A063DB6823F00203EA
S32508004900CB60FA78796813469B001344DB000B445D331B78012B2CD1FA78796813469B0003
S325080049201344DB000B445C3301221A70FA78796813469B001344DB000B443F331B78022BB2
S3250800494040F0C580FA78F97878680B469B000B44DB00034451331B7883F00103D8B27968BB
S3250800496013469B001344DB000B44513302461A70ADE0FA78796813469B001344DB000B4409
S325080049805D331B78032B0AD1FA78796813469B001344DB000B445C3302221A7097E0FA78EF
S325080049A0796813469B001344DB000B445D331B78042B14D1FA78796813469B001344DB00E3
S325080049C00B445C3302221A70FA78796813469B001344DB000B443D3300221A7077E0FA7890
S325080049E0796813469B001344DB000B445D331B78052B0AD1FA78796813469B001344DB00AC
S32508004A000B445C3305221A7061E0FA78796813469B001344DB000B445D331B78062B0AD0C2
S32508004A20FA78796813469B001344DB000B445D331B78082B4BD1FA78796813469B00134490
S32508004A40DB000B4458331968481C7C6813469B001344DB00234458331860032914D9FA78AF
S32508004A60796813469B001344DB000B44583300221A60FA78796813469B001344DB000B44E3
S32508004A805C3304221A7009E0FA78796813469B001344DB000B445C3302221A70FB785A010D
S32508004AA0FB68134403F5A0631B68BB60BB6823F08043BB60BB6843F00043BB60FB785A01FF
S32508004AC0FB68134403F5A0631A46BB681360FB785A01FB68134403F5A0631A460223936022
S32508004AE0FA78796813469B001344DB000B445C331A78FB781946786815F0A2FB00BF143761
S32508004B00BD4690BD80B588B000AF78607B681B68FB610023FB7600237B6100233B617B684C
S32508004B201B681B6A7B617B69DBB203F00F03FB767B695B0C03F00F03FB607B691B09C3F333
S32508004B400A03BB60FB68022B03D0052B00F0828083E0BB68002B7FD0FA7E796813469B004D
S32508004B601344DB000B4444331B68002B74D07B681868FA7E796813469B001344DB000B440C
S32508004B8044331B68BA6892B2194604F08DFFFA7EF97E78680B469B000B44DB000344443325
S32508004BA01968BB681944786813469B001344DB00034444331960FA7EF97E78680B469B00EE
S32508004BC00B44DB0003444C331968BB681944786813469B001344DB0003444C331960FB7E18
S32508004BE05A01FB69134403F5A0631A691D4B1340002B31D0FB7E5A01FB69134403F5A063A2
S32508004C001B683B613B6923F080433B613B6943F000433B61FB7E5A01FB69134403F5A06311
S32508004C201A463B691360FA7EF97E78680B469B000B44DB00034450331B7883F00103D8B2AC
S32508004C40796813469B001344DB000B44503302461A7001E000BF00E000BF00BF2037BD4643
S32508004C6080BD00BF0000F81F80B586B000AF78607B681B687B617B6903F588631B683B61F9
S32508004C807B6903F588631B68FB60FB6823F02E03FB603B6903F00203002B13D03B6903F01E
S32508004CA00103002B0AD07B681B687A681268926922F000529A61786815F0A6FAFB6843F0A6
S32508004CC00203FB603B6903F00803002B42D0FB6843F00803FB603B6903F00403002B26D0CC
S32508004CE07B689B69022B13D13B6903F4C023B3F5802F06D17B681B680221184605F000F82E
S32508004D0011E07B681B680121184604F0F9FF0AE07B68DB68032B06D17B6903F580631A468E
S32508004D204EF660235360786815F06EFA12E07B6903F588631A467B6903F588631B6823F028
S32508004D402E0313607B681B687A681268926942F000529A613B6903F02003002B03D0FB684A
S32508004D6043F02003FB607B6903F588631A46FB68136000BF1837BD4680BD00BF80B483B003
S32508004D8000AF4FF480737B607B6893FAA3F33B603B68B3FA83F303F1845303F560339B00ED
S32508004DA01A460123136000BF0C37BD465DF8047B704700BF80B58EB000AF786000237B63A4
S32508004DC07B681B680F2B03D9F6219E4813F066FE7B681B6803F00103002B5FD07B685B6888
S32508004DE0002B0BD07B685B68012B07D07B685B68052B03D0FB21934813F050FE924B9B6825
S32508004E0003F00C03042B0BD08F4B9B6803F00C03082B11D18C4B5B6803F48003002B0BD06A
S32508004E20894B1B6803F40033002B36D07B685B68002B32D1012377E2844A7B685B68DBB260
S32508004E4013707B685B68002B13D0FBF78DFB786308E0FBF789FB02467B6BD31A642B01D9D6
S32508004E60032361E2784B1B6803F40033002BF0D014E0FBF779FB786308E0FBF775FB024699
S32508004E807B6BD31A642B01D903234DE26E4B1B6803F40033002BF0D100E000BF7B681B681C
S32508004EA003F00203002B00F08E807B68DB68002B08D07B68DB68012B04D040F22D1161485B
S32508004EC013F0ECFD7B681B691F2B04D94FF497715C4813F0E3FD5C4B9B6803F00C03002BA1
S32508004EE00BD0594B9B6803F00C03082B26D1564B5B6803F48003002B20D1534B1B6803F0E8
S32508004F000203002B05D07B68DB68012B01D001230AE24D484C4B1B6823F0F8027B6819692A
S32508004F20F8233B623B6A93FAA3F3FB61FB69B3FA83F301FA03F31343036044E07B68DB680C
S32508004F40002B2AD0424B01221A60FBF70DFB786308E0FBF709FB02467B6BD31A022B01D91F
S32508004F600323E1E1384B1B6803F00203002BF0D03548354B1B6823F0F8027B681969F82345
S32508004F80FB62FB6A93FAA3F3BB61BB69B3FA83F301FA03F31343036015E02D4B00221A6008
S32508004FA0FBF7E2FA786308E0FBF7DEFA02467B6BD31A022B01D90323B6E1234B1B6803F0C5
S32508004FC00203002BF0D17B681B6803F00803002B48D07B685B69002B08D07B685B69012BAE
S32508004FE004D04FF4B771174813F058FD7B685B69002B16D0174B01221A60FBF7B5FA78637A
S3250800500008E0FBF7B1FA02467B6BD31A022B01D9032389E10C4B5B6F03F00203002BF0D047
S3250800502020E00C4B00221A60FBF79EFA786313E0FBF79AFA02467B6BD31A022B0CD903233E
S3250800504072E100BF940F0308003802400238024000004742800E4742A94B5B6F03F0020336
S32508005060002BE5D17B681B6803F00403002B6BD07B689B68002B0CD07B689B68012B08D0A4
S325080050807B689B68052B04D04FF4CC719D4813F005FD0023BB609A4A994B1B6C43F080531B
S325080050A01364974B1B6C03F08053BB60BB68964A954B1B6843F480731360FBF755FA786302
S325080050C008E0FBF751FA02467B6BD31A022B01D9032329E18C4B1B6803F48073002BF0D01C
S325080050E08A4A7B689B68DBB213707B689B68002B15D0FBF739FA78630AE0FBF735FA02468F
S325080051007B6BD31A41F28832934201D903230BE17B4B1B6F03F00203002BEED014E0FBF7E9
S3250800512023FA78630AE0FBF71FFA02467B6BD31A41F28832934201D90323F5E0704B1B6F7D
S3250800514003F00203002BEED17B689B69002B0CD07B689B69012B08D07B689B69022B04D09E
S3250800516040F2CD11674813F099FC7B689B69002B00F0D980624B9B6803F00C03082B00F09A
S32508005180D0807B689B69022B40F0AA807B68DB69002B09D07B68DB69B3F5800F04D04FF4A3
S325080051A0EB71584813F07AFC7B681B6A3F2B04D940F2D711534813F071FC7B685B6A312B94
S325080051C004D97B685B6AB3F5D87F04D94FF4EC714C4813F063FC7B689B6A022B10D07B68F2
S325080051E09B6A042B0CD07B689B6A062B08D07B689B6A082B04D040F2D911424813F04EFCBE
S325080052007B68DB6A032B03D97B68DB6A0F2B04D94FF4ED713B4813F041FC3D4B00221A6087
S32508005220FBF7A2F9786308E0FBF79EF902467B6BD31A022B01D9032376E0314B1B6803F0F7
S325080052400073002BF0D12E487B68DA697B681B6A1A437B68596A47F6C073BB62BB6A93FA9B
S32508005260A3F3FB60FB68B3FA83F301FA03F31A437B689B6A5B08591E4FF440337B627B6A21
S3250800528093FAA3F33B613B69B3FA83F301FA03F31A437B68D96A4FF070633B633B6B93FA23
S325080052A0A3F37B617B69B3FA83F301FA03F313434360174B01221A60FBF756F9786308E07A
S325080052C0FBF752F902467B6BD31A022B01D903232AE00B4B1B6803F00073002BF0D022E005
S325080052E00B4B00221A60FBF73FF9786312E0FBF73BF902467B6BD31A022B0BD9032313E04C
S3250800530000380240940F0308007000407038024060004742064B1B6803F00073002BE6D1B8
S3250800532001E0012300E0002318463837BD4680BD0038024080B584B000AF78603960002324
S32508005340FB607B681B68002B03D07B681B680F2B04D94FF40E718F4813F0A0FB3B68002BFE
S3250800536019D03B68012B16D03B68022B13D03B68032B10D03B68042B0DD03B68052B0AD0C1
S325080053803B68062B07D03B68072B04D040F23921804813F083FB804B1B6803F00F023B68E1
S325080053A09A420CD27C4B3A68D2B21A707A4B1B6803F00F023B689A4201D001234DE17B68DD
S325080053C01B6803F00203002B31D07B689B68002B24D07B689B68802B20D07B689B68902BF1
S325080053E01CD07B689B68A02B18D07B689B68B02B14D07B689B68C02B10D07B689B68D02BE3
S325080054000CD07B689B68E02B08D07B689B68F02B04D04FF414715F4813F040FB5F495F4B05
S325080054209B6823F0F0027B689B6813438B607B681B6803F00103002B00F097807B685B68FA
S32508005440002B10D07B685B68012B0CD07B685B68022B08D07B685B68032B04D040F2572188
S325080054604C4813F01BFB7B685B68012B07D14B4B1B6803F40033002B19D10123EDE07B689B
S325080054805B68022B03D07B685B68032B07D1434B1B6803F00073002B09D10123DDE03F4BA8
S325080054A01B6803F00203002B01D10123D5E03B493A4B9B6823F003027B685B6813438B6082
S325080054C0FBF752F8F8607B685B68012B12D10AE0FBF74AF80246FB68D31A41F288329342FD
S325080054E001D90323B9E02D4B9B6803F00C03042BEED13AE07B685B68022B12D10AE0FBF7EE
S3250800550033F80246FB68D31A41F28832934201D90323A2E0214B9B6803F00C03082BEED113
S3250800552023E07B685B68032B19D10AE0FBF71CF80246FB68D31A41F28832934201D9032352
S325080055408BE0164B9B68F1E7FBF70EF80246FB68D31A41F25500934201D903237DE00F4BF2
S325080055609B6803F00C03002BEED10B4B1B6803F00F023B689A4213D9074B3A68D2B21A70E4
S32508005580054B1B6803F00F023B689A4208D0012363E000BF940F0308003C02400038024003
S325080055A07B681B6803F00403002B25D07B68DB68002B18D07B68DB68B3F5805F13D07B68B1
S325080055C0DB68B3F5A05F0ED07B68DB68B3F5C05F09D07B68DB68B3F5E05F04D040F2B52146
S325080055E0204813F05BFA20491F4B9B6823F4E0527B68DB6813438B607B681B6803F00803F3
S32508005600002B26D07B681B69002B18D07B681B69B3F5805F13D07B681B69B3F5A05F0ED024
S325080056207B681B69B3F5C05F09D07B681B69B3F5E05F04D04FF42F710A4813F02FFA0A497F
S32508005640094B9B6823F460427B681B69DB0013438B600F20FAF75EFF002318461037BD4661
S3250800566080BD00BF940F03080038024080B48BB000AF0023FB6100237B620023BB610023F9
S325080056803B62364B9B6803F00C03042B06D0082B07D0002B58D1324B3B6258E0314B3B620B
S325080056A055E02E4B5B6803F03F03FB612B4B5B6803F48003002B17D02A4AFB69B2FBF3F2AB
S325080056C0264B596847F6C0730B4047F6C071F960F96891FAA1F1B960B968B1FA81F1CB4028
S325080056E003FB02F37B6216E01D4AFB69B2FBF3F21A4B596847F6C0730B4047F6C071796150
S32508005700796991FAA1F179607968B1FA81F1CB4003FB02F37B62114B5B6803F440324FF4FF
S3250800572040333B613B6993FAA3F33B603B68B3FA83F322FA03F301335B00BB617A6ABB695F
S32508005740B2FBF3F33B6202E0054B3B6200BF3B6A18462C37BD465DF8047B7047003802400F
S325080057600024F40040787D0180B582B000AFFFF77DFF01460D4B9B6803F0F002F0237B60D0
S325080057807B6893FAA3F33B603B68B3FA83F322FA03F3074AD35C21FA03F3064A1360054BDE
S325080057A01B6818460837BD4680BD00BF00380240840F03080C10002080B582B000AFFFF75C
S325080057C0D3FF01460B4B9B6803F4E0524FF4E0537B607B6893FAA3F33B603B68B3FA83F368
S325080057E022FA03F3044AD35C21FA03F318460837BD4680BD00380240840F030880B582B09F
S3250800580000AFFFF7B1FF01460B4B9B6803F460424FF460437B607B6893FAA3F33B603B68E7
S32508005820B3FA83F322FA03F3044AD35C21FA03F318460837BD4680BD00380240840F0308A2
S3250800584080B582B000AF78607B68002B01D10123BBE07B685B68402B07D07B685B68002BF4
S3250800586003D0D4215B4813F019F97B689B687F2B03D9D521574813F011F97B68DB68B3F5BE
S32508005880004F03D3D621534813F008F97B681B69002B12D07B681B69B3F5001F0DD07B68DD
S325080058A01B69B3F5800F08D07B681B69B3F5C00F03D0D721474813F0F1F87B685B69002B51
S325080058C008D07B685B69B3F5801F03D0D821414813F0E4F87B689B69002B08D07B689B69EF
S325080058E0B3F5802F03D0D9213A4813F0D7F87B685B7FDBB2002B05D17B6800221A77786861
S3250800590000F06AF87B6802225A777B681B68CA225A627B681B6853225A62786800F0E2FBFD
S325080059200346002B08D07B681B68FF225A627B6804225A77012348E07B681A687B681B68D9
S325080059409B6823F4E00323F0400393607B681B687A68126891687A6850687A6812691043EE
S325080059607A68526902430A439A607B681B687A68D2681A617B681B687A68126811697A68D5
S32508005980926812040A431A617B681B687A681268D26822F08002DA607B681B687A68126895
S325080059A0126C22F480221A647B681B687A681268116C7A6892690A431A647B681B68FF22B7
S325080059C05A627B6801225A77002318460837BD4680BD00BFC40F030880B483B000AF78609B
S325080059E000BF0C37BD465DF8047B704790B587B000AFF860B9607A6000237B617B68002B86
S32508005A0007D07B68012B04D04FF4DA71A34813F045F8BB68DB68B3F5003F0DD0BB68DB6875
S32508005A20B3F5803F08D0BB68DB68002B04D040F2B5119A4813F032F8BB681B69002B09D002
S32508005A40BB681B69B3F5802F04D04FF4DB71934813F024F8FB681B7F012B01D102232AE1B2
S32508005A60FB6801221A77FB6802225A777B68002B5CD1FB681B689B6803F04003002B1AD03A
S32508005A80BB681B78002B03D0BB681B780C2B04D940F2C111814813F001F8BB68DB78002B10
S32508005AA015D0BB68DB78402B11D04FF4E1717B4812F0F4FF0BE0BB680022DA70BB681B78B4
S32508005AC0172B04D940F2C711744812F0E7FFBB685B783B2B04D940F2C911704812F0DEFF0F
S32508005AE0BB689B783B2B04D94FF4E5716B4812F0D5FFBB681B78184600F020FB03461C0475
S32508005B00BB685B78184600F019FB03461B021C43BB689B78184600F011FB034644EA03024E
S32508005B20BB68DB781B0413437B615FE0FB681B689B6803F04003002B1FD0BB681B78184604
S32508005B4000F01AFB03467B617B69002B02D07B690C2B04D94FF4EB71504812F09FFFBB683A
S32508005B60DB78002B19D0BB68DB78402B15D040F2D7114A4812F092FF0FE0BB680022DA702D
S32508005B80BB681B78184600F0F7FA0346172B04D94FF4EE71414812F081FFBB685B78184699
S32508005BA000F0EAFA03463B2B04D94FF4EF713B4812F074FFBB689B78184600F0DDFA034638
S32508005BC03B2B04D940F2DF11344812F067FFBB681B781A04BB685B781B021343BA68927805
S32508005BE01A43BB68DB781B0413437B61FB681B68CA225A62FB681B6853225A62F86800F07E
S32508005C0071FA0346002B0BD0FB681B68FF225A62FB6804225A77FB6800221A7701234AE03B
S32508005C20FB681A687B6903F07F3323F0FE431360FB681B68FA681268926822F480229A60B3
S32508005C40FB681B68FA6812689168BA68D068BA68126902430A439A60FB681B68FA68126836
S32508005C60D26822F08002DA60FB681B689B6803F02003002B14D1F86800F014FA0346002B2D
S32508005C800ED0FB681B68FF225A62FB6804225A77FB6800221A7701230DE000BFC40F030837
S32508005CA0FB681B68FF225A62FB6801225A77FB6800221A77002318461C37BD4690BD00BFC3
S32508005CC080B586B000AFF860B9607A6000237B617B68002B07D07B68012B04D04FF40E71C8
S32508005CE02C4812F0DBFEFB681B689A6ABB685A60FB681B681B69C3F30E02BB689A60FB68D0
S32508005D001B681B6803F07F3323F0FE437B617B691B0CDBB203F03F03DAB2BB681A707B69B0
S32508005D201B0ADBB203F07F03DAB2BB685A707B69DBB203F07F03DAB2BB689A707B691B0C0B
S32508005D40DBB203F04003DAB2BB68DA707B68002B1AD1BB681B78184600F00EFA03461A46CB
S32508005D60BB681A70BB685B78184600F005FA03461A46BB685A70BB689B78184600F0FCF916
S32508005D8003461A46BB689A70002318461837BD4680BD00BFC40F030890B587B000AFF860EF
S32508005DA0B9607A6000237B617B68002B07D07B68012B04D040F265218B4812F06FFEFB68BE
S32508005DC01B7F012B01D1022309E1FB6801221A77FB6802225A777B68002B0ED1BB685B78BC
S32508005DE003F01003002B08D0BB685B7823F01003DBB20A33DAB2BB685A70BB681B78012B4B
S32508005E001CD0BB681B78022B18D0BB681B78032B14D0BB681B78042B10D0BB681B78052B4A
S32508005E200CD0BB681B78062B08D0BB681B78072B04D040F271216C4812F030FE7B68002B47
S32508005E403FD1BB68DB78632B04D940F27521664812F024FEBB685B78002B03D0BB685B78BF
S32508005E600C2B04D940F276215F4812F017FEBB689B78002B03D0BB689B781F2B04D940F2B6
S32508005E807721594812F00AFEBB68DB78184600F055F903461C04BB685B78184600F04EF9AB
S32508005EA003461B021C43BB689B78184600F046F9034644EA0302BB681B785B0313437B618A
S32508005EC03FE0BB68DB78184600F056F90346632B04D94FF42071444812F0E0FDBB685B7899
S32508005EE0184600F049F903467B617B69002B02D07B690C2B04D940F282213B4812F0CEFDE1
S32508005F00BB689B78184600F037F903467B617B69002B02D07B691F2B04D94FF4217132485F
S32508005F2012F0BCFDBB68DB781A04BB685B781B021343BA6892781A43BB681B785B031343A8
S32508005F407B61FB681B68CA225A62FB681B6853225A62F86800F0C6F80346002B0BD0FB68F2
S32508005F601B68FF225A62FB6804225A77FB6800221A77012333E0FB681A687B6923F07F436E
S32508005F8023F0C0035360FB681B68FA681268D26822F08002DA60FB681B689B6803F02003A1
S32508005FA0002B11D1F86800F07DF80346002B0BD0FB681B68FF225A62FB6804225A77FB6832
S32508005FC000221A7701230AE0FB681B68FF225A62FB6801225A77FB6800221A770023184641
S32508005FE01C37BD4690BD00BFC40F030880B586B000AFF860B9607A6000237B617B68002BE1
S3250800600007D07B68012B04D040F2D521244812F045FDFB681B685B6823F07F4323F0C0038C
S325080060207B617B691B0CDAB2BB68DA707B691B0ADBB203F01F03DAB2BB685A707B69DBB2DD
S3250800604003F03F03DAB2BB689A707B695B0BDBB203F00703DAB2BB681A707B68002B1AD13E
S32508006060BB68DB78184600F087F803461A46BB68DA70BB685B78184600F07EF803461A4656
S32508006080BB685A70BB689B78184600F075F803461A46BB689A70002318461837BD4680BD2E
S325080060A0C40F030880B584B000AF78600023FB607B681B687A681268D26822F0A002DA609C
S325080060C0FAF752FAF860FAF74FFA0246FB68D31AB3F57A7F01D9032300E000231846103702
S325080060E0BD4680BD80B584B000AF78600023FB607B681B68DB6803F04003002B19D17B680D
S325080061001B684FF0FF32DA60FAF72EFAF86009E0FAF72AFA0246FB68D31AB3F57A7F01D9C2
S32508006120032307E07B681B68DB6803F04003002BEED0002318461037BD4680BD80B485B00B
S3250800614000AF0346FB710023FB6005E0FB680133FB60FB790A3BFB71FB79092BF6D8FB687A
S32508006160DBB21B01DAB2FB791343DBB218461437BD465DF8047B704780B485B000AF0346ED
S32508006180FB710023FB60FB791B09DBB21A4613469B0013445B00FB60FB7903F00F03DAB27C
S325080061A0FB68DBB21344DBB218461437BD465DF8047B7047B0B58EB004AF786039600023DC
S325080061C087F827307B6800221A77786813F0D8F90023FB6000233B6100237B610023BB6116
S325080061E00023FB6176233B627B681D686C4607F1180393E8070084E8070007F10C030ECBDA
S32508006200284603F05FF9786801F062F8034687F8273097F82730DBB2002B03D097F8273016
S32508006220DBB239E0786800F065FF034687F8273097F82730DBB2002B03D097F82730DBB273
S325080062402AE03968786800F037FB034687F8273097F82730DBB2002B0DD13B68B3F8543016
S325080062601B044FF000041A462346786801F006F8034687F827307B681D687B686C4603F106
S32508006280100207CA84E8070004330ECB284603F019F997F82730DBB218462837BD46B0BD77
S325080062A0F0B591B000AFF860B960C7E90023002387F83F30FB681B680022DA62FB6800221D
S325080062C09A64FB6800221A65FB680022DA64FB6D012B03D9FB6801225A6502E0FB680022CF
S325080062E05A65FB681A68FB681B68DB6B43F44A7343F00203D363484B01221A60FB689B6DC3
S32508006300464ADA63FB689B6D454A9A64FB68986DFB681B6880331E46B968BB6DFA6D02FB98
S3250800632003F39B080A463146FCF7E8F9FB681B6A022B0AD14FF40073BB65D7E90023540A14
S3250800634044EAC3545D0AC7E90045BB6DBB621023FB6240233B6300237B634FF48063BB6373
S32508006360FB681B6807F128021146184603F04EF91021F86801F05EF9034687F83F3097F879
S325080063803F30002B02D097F83F3041E04FF0FF333B61BB6DFA6D02FB03F37B619023BB612A
S325080063A00223FB6100233B6201237B62FB681B6807F110021146184603F0C2F9FB6D012BA6
S325080063C002D91223FB6201E01123FB623B68BB62FB681B6807F128021146184603F016F951
S325080063E0FB6D012B07D91221F86801F023F9034687F83F3006E01121F86801F01BF903467E
S3250800640087F83F3097F83F20FB68DA6497F83F3018464437BD46F0BD8C8525420D7000086D
S3250800642045700008F0B591B000AFF860B960C7E90023002387F83F30FB681B680022DA6263
S32508006440FB6800229A64FB6800221A65FB680022DA64FB6D012B03D9FB6803225A6502E04B
S32508006460FB6802225A65FB681A68FB681B68DB6B43F4467343F00203D363FB68DB6D4A4A1A
S32508006480DA63FB68DB6D494A9A64FB68D86DB968FB681B6880331E46BB6DFA6D02FB03F32D
S325080064A09B083246FCF72AF9414B01221A60FB681B6A022B0AD14FF40073BB65D7E90023CB
S325080064C0540A44EAC3545D0AC7E90045BB6DBB621023FB6240233B6300237B634FF48063B2
S325080064E0BB63FB681B6807F128021146184603F08DF81021F86801F09DF8034687F83F30ED
S3250800650097F83F30002B02D097F83F3048E0FB6D012B02D81823FB6201E01923FB623B6829
S32508006520BB62FB681B6807F128021146184603F06DF8FB6D012B07D91921F86801F07AF8AA
