:020000040800F2
:10401000400C0020E5400008ED400008EF4000089B
:104020000000000000000000000000000000000090
:10403000000000000000000000000000F140000847
:104040000000000000000000F3400008354F0008A9
:10405000F7400008F7400008F7400008F740000864
:10406000F7400008F7400008F7400008F740000854
:10407000F7400008F7400008F7400008F740000844
:10408000F7400008F7400008F7400008F740000834
:10409000F7400008F7400008F7400008F740000824
:1040A000F7400008F7400008F7400008F740000814
:1040B000F7400008F7400008F7400008F740000804
:1040C000F7400008F7400008FB410008F7400008EF
:1040D0000348854600F062F800480047F59A00085A
:1040E000400C00200448804704480047FEE7FEE7F4
:1040F000FEE7FEE7FEE7FEE7954F0008D140000827
:1041000030B50B46014600202022012409E00D466F
:10411000D5409D4205D31D469540491B25469540F7
:1041200040191546521E002DF1DC30BD03460B43ED
:104130009B0703D009E008C9121F08C0042AFAD25D
:1041400003E00B780370401C491C521EF9D27047E3
:10415000D2B201E00270401C491EFBD2704700221F
:10416000F6E710B513460A4604461946FFF7F0FF76
:10417000204610BD0122D207002800DB101A0029BA
:1041800000DB511A814270470122D207002800DB70
:10419000101A002900DB511A88427047064C01258D
:1041A000064E05E0E36807CC2B430C3C98471034DF
:1041B000B442F7D3FFF790FFA4B30008C4B30008DC
:1041C00030B58C180278401C13071B0F01D10378FF
:1041D000401C120906D10278401C03E005780D70DE
:1041E000401C491C5B1EF9D101E00B70491C521E9A
:1041F000FBD1A142E6D3002030BD10B502F024FE71
:1042000002F094FF02F02CFD10BD000070B50346D3
:10421000002200240020DAE0012696400D68354097
:104220002C46002C77D04D68022D02D04D68122DFF
:1042300015D1D508AE001D462035A8595507EE0EFC
:104240000F25B5400646AE4330465607F60E0D69BB
:10425000B5402843D508AD001E4620367051186879
:1042600056000325B5400646AE4330460D79AD07EE
:10427000AD0F5600B540284318604D68012D08D099
:104280004D68022D05D04D68112D02D04D68122DBC
:1042900018D1986856000325B5400646AE4330460F
:1042A0005600CD68B5402843986058680125954070
:1042B0000646AE43304610264D6835402D099540E0
:1042C00028435860D86856000325B5400646AE43DB
:1042D000304656008D68B5402843D8600126360721
:1042E0004D683540B54271D13C4DAD69012635432D
:1042F0003A4EB5613A4D9608B600A85995072E0F6B
:104300000F25B5400646AE4330460925ED06AB42C3
:1043100002D1002515E059E0324DAB4201D1012513
:104320000FE0314DAB4201D102250AE02F4DAB42E7
:1043300001D1032505E02E4DAB4201D1042500E05B
:1043400005259607360FB5402843254D9608B6003B
:10435000A851284D28680546A5432846012636045D
:104360004D683540B54202D1054625432846214DCA
:10437000286068680546A5432846012676044D68EE
:104380003540B54202D1054625432846194D68609F
:10439000A8680546A5432846012636054D683540E0
:1043A000B54202D1054625432846124DA860E8686B
:1043B0000546A5432846012676054D683540B54299
:1043C00002D10546254328460A4DE860521C0D6877
:1043D000D540002D00D01FE770BD00000010024046
:1043E000080001400004004800080048000C004894
:1043F00000100048000401400148006870470000B8
:104400007402002002480068401C0149086070479F
:104410007402002010B506480068102108430449C2
:104420000860032000F006F800F017F8002010BD27
:104430000020024070B5044600F098F906467D2140
:10444000C900FFF75DFE054600F0AAFC00222146E8
:10445000501E00F01BF8002070BD704700BFC20660
:10446000D20E01219140024A116000BF7047000046
:1044700000E100E000BFC206D20E01219140024AD5
:10448000116000BF7047000000E200E070B5044614
:104490000D4616462946204600F010FD70BD00006E
:1044A00070B504460E460025AD480068C007C00F31
:1044B000B0426ED2AA480068400840003043A84984
:1044C000086008460068C007C00FB04201D0012054
:1044D00070BD022120680840022807D1A148406829
:1044E000F0218843A16808439E4948602078C007AE
:1044F000C00F002848D06068012808D1994800689A
:10450000012149040840002821D10120E0E760682A
:10451000022808D193480068012149060840002874
:1045200015D10120D4E76068032808D18D48406B7D
:10453000012109040840002809D10120C8E7894861
:10454000006802210840002801D10120C0E7854809
:104550004068800880006168084382494860FFF72E
:104560004BFF0546606801280FD107E0FFF744FFC5
:10457000401B7D49884201D90320A9E7794840685A
:104580000C2108400428F1D1D6E06068022810D13F
:1045900008E031E0FFF730FF401B7349884201D942
:1045A000032095E76F4840680C2108400828F1D1A6
:1045B000C2E0606803280FD107E0FFF71DFF401B32
:1045C0006949884201D9032082E7664840680C2186
:1045D00008400C28F1D1AFE007E0FFF70DFF401BCA
:1045E0006149884201D9032072E75E4840680C2186
:1045F00008400028F1D19FE00221206808400228ED
:1046000007D158484068F0218843A16808435549BC
:1046100048602078C007C00F00287ED0606801285D
:1046200008D150480068012149040840002821D1E0
:1046300001204DE76068022808D14A48006801213E
:1046400049060840002815D1012041E76068032889
:1046500008D14448406B012109040840002809D1D1
:10466000012035E73F48006802210840002801D1B9
:1046700001202DE73B4840688008800061680843BE
:1046800038494860FFF7B8FE0546606801280FD139
:1046900007E0FFF7B1FE401B3349884201D90320F0
:1046A00016E7304840680C2108400428F1D134E076
:1046B000606802280FD107E0FFF79EFE401B2A49E1
:1046C000884201D9032003E7264840680C210840AE
:1046D0000828F1D121E0606803280FD107E0FFF737
:1046E0008BFE401B2049884201D90320F0E61D487B
:1046F00040680C2108400C28F1D10EE007E0FFF7DC
:104700007BFE401B1849884201D90320E0E615488A
:1047100040680C2108400028F1D111480068400889
:10472000400030430E49086008460068C007C00FCB
:10473000B04201D00120CBE60421206808400428C3
:1047400008D108484068072109028843E168084306
:10475000044948600320FFF76DFE0020B8E6000022
:1047600000200240001002408813000010B500F045
:1047700013F806494968F02211400909044A515CBE
:10478000C840044908600846006810BD0010024097
:1047900074B3000878020020F8B500240026002534
:1047A000002700200090254844680C202040002865
:1047B0003DD0042804D0082805D00C2836D132E09A
:1047C0001F48009036E00F2080042040800C1D49D7
:1047D0000D5C1A48C06A0007000F1B490E5C0320DD
:1047E000C003204001210904884206D13146144803
:1047F000FFF786FC6843074613E00320C003204010
:104800000321C903884206D131461048FFF778FCDE
:104810006843074605E031460948FFF771FC6843E5
:104820000746009706E00948009003E000BF0448EF
:10483000009000BF00BF0098F8BD000000100240CB
:1048400000127A0084B3000894B30008006CDC0204
:1048500070B5044600252078C007C00F002861D03D
:10486000FD4840680C21084004280CD0FA484068F4
:104870000840082813D1F84840684903084001213E
:10488000090488420BD1F44800680121490408401A
:10489000002847D06068012844D0012070BD002066
:1048A000ED498870FFF7A8FD054607E0FFF7A4FD76
:1048B000401BEA49884201D90320EFE7E648006837
:1048C0000121490408400028F0D12079E24988708C
:1048D0006068002813D0FFF78FFD054607E0FFF75B
:1048E0008BFD401BDD49884201D90320D6E7DA4819
:1048F00000680121490408400028F0D012E0FFF7C9
:104900007BFD054607E0FFF777FD401BD349884252
:1049100001D90320C2E7D0480068012149040840BA
:104920000028F0D1022120680840022862D1CA483C
:1049300040680C21084000280CD0C7484068084057
:1049400008281CD1C4484068490308400121C90314
:10495000884214D1C048006802210840002804D0D1
:10496000E068012801D0012098E7BB480068F821E1
:1049700088432169C9000843B74908603AE0E06804
:10498000002820D0B448006801210843B2490860DB
:10499000FFF732FD054606E0FFF72EFD401B6428B9
:1049A00001D903207AE7AC480068022108400028BA
:1049B000F2D0A9480068F82188432169C90008435A
:1049C000A549086016E0A448006840084000A249D4
:1049D0000860FFF711FD054606E0FFF70DFD401BDF
:1049E000642801D9032059E79B4800680221084048
:1049F0000028F2D1082120680840082831D1206A17
:104A0000002817D09448406A01210843924948621F
:104A1000FFF7F2FC054606E0FFF7EEFC401B6428BA
:104A200001D903203AE78C48406A02210840002857
:104A3000F2D016E08848406A400840008649486243
:104A4000FFF7DAFC054606E0FFF7D6FC401B6428BA
:104A500001D9032022E78048406A0221084000284B
:104A6000F2D1042120680840042865D17A48C06941
:104A7000890608437849C861794800688915084360
:104A800077490860FFF7B8FC054606E0FFF7B4FC7D
:104A9000401B642801D9032000E771480068FF210A
:104AA000013108400028F1D06B48006A0521884395
:104AB00069490862FFF7A0FC054607E0FFF79CFC88
:104AC000401B6649884201D90320E7E66248006A34
:104AD000022108400028F1D15F48006A052188437F
:104AE000A16808435C490862A068012812D1FFF759
:104AF00083FC054607E0FFF77FFC401B57498842CF
:104B000001D90320CAE65448006A0221084000285F
:104B1000F1D011E0FFF770FC054607E0FFF76CFCF1
:104B2000401B4E49884201D90320B7E64A48006A33
:104B3000022108400028F1D11021206808401028E7
:104B400059D16069012826D14348406B04210843AC
:104B5000414948630846406B012108433E49486388
:104B6000FFF74AFC054606E0FFF746FC401B6428B9
:104B700001D9032092E63848406B02210840002802
:104B8000F2D03548406BF8218843A169C900084339
:104B9000314948632FE06069401D00280FD12E483D
:104BA000406B042188432C4948630846406BF82138
:104BB0008843A169C9000843274948631BE0264888
:104BC000406B04210843244948630846406B400871
:104BD00040004863FFF710FC054606E0FFF70CFCB9
:104BE000401B642801D9032058E61B48406B022172
:104BF00008400028F2D1202120680840202859D1FF
:104C0000154840680C2108400C280AD0124840681A
:104C10000840082811D110484068490308408842DC
:104C20000BD10D48406B012109040840002841D0F8
:104C3000E06901283ED0012030E6E069002820D05C
:104C40000548406B01210904084303494863FFF705
:104C5000D3FB05460DE00000001002408813000061
:104C600000700040FFF7C8FB401B642801D90320F7
:104C700014E64948406B0121090408400028F1D09E
:104C800018E04548406B01210904884342494863C4
:104C9000FFF7B2FB054606E0FFF7AEFB401B6428BA
:104CA00001D90320FAE53C48406B01210904084082
:104CB0000028F1D1606A00286CD0374840680C2188
:104CC0000840082864D0606A022847D1324800684A
:104CD00001210906884330490860FFF78DFB05462E
:104CE00006E0FFF789FB401B642801D90320D5E5C6
:104CF000294800680121490608400028F1D100BF79
:104D00002548C06A00090001E16A08432249C862D7
:104D1000A16A206B0843204949687B22D203914352
:104D200008431D49486000BF084600680121090684
:104D3000084319490860FFF75FFB054606E0FFF7E7
:104D40005BFB401B642801D90320A7E512480068DB
:104D50000121490608400028F1D01BE00E480068F8
:104D60000121090688430C490860FFF745FB054609
:104D700006E0FFF741FB401B642801D903208DE5C5
:104D8000054800680121490608400028F1D101E0EA
:104D9000012083E5002081E50010024070470000FB
:104DA00070B504462546681E0949884201D901208C
:104DB0000CE0681E074948610321081F00F07EF8D7
:104DC00000200449886107200861002070BD0000B0
:104DD000FFFFFF0000E000E010B5FFF7DFFF10BDB0
:104DE00010B5C02213491448FFF7A0F91348806991
:104DF00001210843114988610846C0684008400005
:104E0000C86000BF0E480068800880000C49086038
:104E100008460068032108430949086000BFBFF342
:104E20005F8F002201211E20FFF730FB1E20FFF7BD
:104E300015FB10BD104000080000002000100240CB
:104E40000000014010B5002819DA1A4A03071B0FA9
:104E5000083B9B089B00D2588307DC0EFF23A3402E
:104E60009A438B071B0E8407E40EA3401A43114B91
:104E70000407240F083CA408A4001A5118E00E4AA5
:104E800003231B02D21883089B00D2588307DC0E31
:104E9000FF23A3409A438B071B0E8407E40EA34015
:104EA0001A43054B032424021B198408A4001A5139
:104EB00010BD00001CED00E000E100E010B500288E
:104EC00019DA1A4A03071B0F083B9B089B00D258AC
:104ED0008307DC0EFF23A3409A438B071B0E840736
:104EE000E40EA3401A43114B0407240F083CA40806
:104EF000A4001A5118E00E4A03231B02D21883089B
:104F00009B00D2588307DC0EFF23A3409A438B07F4
:104F10001B0E8407E40EA3401A43054B032424020E
:104F20001B198408A4001A5110BD00001CED00E0FC
:104F300000E100E010B5FFF765FAFFF74DFF02F062
:104F40006FF910BD00B591B02020009001200790AE
:104F5000022009900321C9030A9101210B9100212C
:104F60000C916846FFF774FC002801D000BFFEE7F3
:104F700007200D9002200E9000200F90109001212C
:104F80000DA8FFF78DFA002801D000BFFEE711B091
:104F900000BD000019480068012108431749086056
:104FA00008464068164908401449486008460068A9
:104FB0001449084011490860084600680121890425
:104FC00088430E490860084640683F210904884329
:104FD0000A4948600846C06A00090001C8620846DC
:104FE000006B09490840054908630846406B4008C2
:104FF00040004863002088607047000000100240B5
:105000000CB8FF08FFFFF6FE2CFEFCFF30B4744620
:10501000641E2578641CAB4204D3635D5B00E31817
:1050200030BC18471D46F8E702E008C8121F08C147
:10503000002AFAD170477047002001E001C1121F19
:10504000002AFBD17047000010B50146184C886853
:1050500024680019486017480068002804D11548E2
:1050600001600020086010BD12480268002301E0C2
:105070001346126848685468A04202D91068002894
:10508000F6D148685468A04207D2002B02D10948E3
:10509000016000E019600A6008E01068002802D191
:1050A0001160086002E01068086011600020DAE713
:1050B0004802002044020020034A11681060416247
:1050C000012322221354704720020020084A11684D
:1050D000002901D1106005E000E0496A4A6A002A0F
:1050E000FBD14862002242620223222213547047FD
:1050F00024020020002806D0012805D0022804D070
:10510000032804D102E003E002E001E000E000BF78
:1051100000BF704710B502460A20938880242340C0
:10512000002B13D00A4B1B68002B10D013895B0097
:10513000074C2468E35A8B4209DC53895B00044C1A
:105140002468E35A8B4202DB002000E0002010BDFF
:105150009401002070B504460E460A2560782D287B
:105160001FD008DC062830D007282BD008282DD0E7
:105170002A2831D108E0342826D039281ED03E28EC
:105180001DD0422828D11BE02178608804F0ADFAB8
:105190000546002D04D131462046FFF7BBFF0546EA
:1051A0001CE02178608803F06BFE0546002D04D1D9
:1051B00031462046FFF7AEFF05460FE000BF00BFB7
:1051C00000250BE0002509E000BF00BF3146204666
:1051D000FFF7A0FF054601E0162500BF00BF2846E7
:1051E00070BD000070B504460D460A266078302870
:1051F00029D00EDC262819D006DC0C2848D00D2832
:1052000042D00E2861D144E02B2816D02E285CD144
:105210001FE03A282FD004DC322820D0352854D182
:1052200023E03F2832D043284FD12BE021786088FB
:105230002A4603F0B3FE064649E06088294604F09A
:105240002CFA064643E06088294604F0A1F9064698
:105250003DE06088294603F0EBFD064637E06088B4
:10526000294603F03DFD064631E02078294602F04C
:105270003DFB06462BE0217860882A4602F026FA9C
:10528000064624E0002622E0002620E000261EE05C
:1052900000BFA08880210840002813D00D48006876
:1052A000002811D0208980000A4909680858A842BE
:1052B0000AD860898000074909680858A84203D3C2
:1052C000002601E0002070BD01E0162600BF00BFEF
:1052D0003046F8E79801002070B504460D460A26CE
:1052E0006078292825D010DC03284DD006DC002862
:1052F00047D0012844D0022860D143E004283ED0A2
:10530000052842D0252859D10EE0332834D006DCB8
:105310002C281CD02F2813D031284FD11EE038283C
:1053200023D041284AD128E0608803F087FE064652
:1053300046E0217860882A4604F0F2F906463FE00C
:10534000217860882A4604F04BF9064638E0217837
:1053500060882A4603F0AFFD064631E02178608878
:105360002A4603F0EBFC06462AE0217860882A46AC
:1053700002F0D4F9064623E000BF002620E000BF7B
:1053800000BF00BF00261BE000BFA08880210840AE
:10539000002811D00C48006800280ED020890A4946
:1053A0000968085CA84208DC608907490968085C4C
:1053B000A84202DB002600E0002601E0162600BF1E
:1053C00000BF304670BD000090010020F0B58DB0E8
:1053D00005460E46002E01D168680678698D491E83
:1053E0000B225202891888B202F0D4FEB04202DACF
:1053F000FF200DB0F0BD00200C90002431E0686863
:10540000001D0C21614340180B9003AF0C2060433A
:10541000391D4018401D00900C2060434018031DAA
:105420000C20604342180B9800890004000E029083
:105430000B988068000C0190029902F005FF0A9019
:105440000A98002801D0FF20D3E76868001D0C21CE
:105450006143401801790C980818C0B20C90601C88
:10546000C4B2B442CBDB0C98C3E70000F0B58DB0FA
:1054700005460F46002F01D168680778698D491EDF
:105480000D225202891888B202F084FEB84202DA74
:10549000FF200DB0F0BD00200C9000243AE06868B9
:1054A000001D0C21614340180B90288E1B49884237
:1054B00001D103AE04E0288E1C2148431849461848
:1054C0000C206043311D4018401D00900C206043AB
:1054D0004018031D0C20604342180B9800890004FB
:1054E000000E02900B988068000C0190029902F067
:1054F00005FF0A900A98002801D0FF20C9E70C2078
:105500006043311D401801790C980818C0B20C9006
:10551000601CC4B2BC42C2DB0C98BAE7FFFF0000BB
:10552000F804002030B587B0054614222E4902A8A1
:10553000FEF7FCFD02A800F067F82C4800212C23A0
:105540002B4A0091019011212A4800F035FF2A488A
:1055500001F0CCF900F038FB012001F081F904469C
:10556000002C02D0204607B030BD244948880121D4
:1055700000F0D2F90446002C01D02046F3E700F0F9
:1055800021F90446002C01D02046ECE700200090D1
:1055900001901A484388028819484179012001F096
:1055A00045F80446002C01D02046DCE71548009061
:1055B00012488388028812484179012000F0A6FF32
:1055C0000446002C01D02046CDE7002D01D00A2052
:1055D000C9E7002000F0C2FB0446002C01D02046A1
:1055E000C1E70020BFE7000060B30008ECB200088C
:1055F00038B0000848B200081027000002B00008C8
:10560000FCAF0008D0B2000810B5044601F0D2FF8C
:1056100002F036F821460C31481E02F02FF92046E0
:105620000A3002F06BFA02F0A3FA02F017FB2146EF
:105630001031481E02F08CFC02F0AAFCA11D201DB6
:1056400003F04EFA03F030FB2046083003F03AFF37
:1056500010BD0000F8B50446032700200090002587
:1056600008E0680028183D49085CA04200D103E02A
:10567000681CC5B20C2DF4D300BF0C2D00D1F8BDB1
:1056800068002818354940188078032838D0680009
:1056900028184018877832480078B8422ED0002F5A
:1056A00001D102F0ABF92F48067806E0701EC6B2B1
:1056B000B0002D4A115838468847002EF6D1002FE9
:1056C00006D0012F09D0022F10D0032F13D113E0E1
:1056D0000121062000F000FB0FE00021062000F071
:1056E000FBFA0021022000F0F7FA06E00121022077
:1056F00000F0F2FA01E000BF00BF00BF18480770D9
:1057000068002818154940184078012806D1174824
:105710000078A04202D01548047000946800281850
:105720000E4940184078022806D111480078A0425E
:1057300002D00F4804700094009800280BD00D4848
:10574000067806E0701EC6B2B0000B4A115820461B
:105750008847002EF6D100BF91E700008CAE00080C
:10576000170100201A0100201C010020190100204F
:10577000180100201B0100202001002010B505F0B9
:105780002DFA03F035FA01F055F910BD002804D0C8
:10579000012806D002280CD107E00121064A117029
:1057A00007E00121054A117003E00121044A11704C
:1057B00000BF00BF70470000150100201401002049
:1057C0001601002010B500220821104601F01CFE31
:1057D00005490880084600880449884201D13220E2
:1057E00010BD0020FCE7000028010020FFFF0000A2
:1057F000F3B585B005460021434800F0FBFB0746A2
:10580000002F0AD03878FE210840002801D13870D6
:1058100003E0387801210843387000F099FA0190CC
:1058200001987F2805D00198052802D00E2007B0E6
:10583000F0BD6846057229124172002F03D03878F6
:105840006946887202E0002069468872FF200002E3
:105850002840002805D06946887A01210843694616
:105860008872069800280AD1002405E00021E01C77
:1058700002AA1154601CC4B2052CF7D30AE000241C
:1058800006E00698015DE01C02AA1154601CC4B237
:10589000052CF6D3002202A91C48008803F0D4FF8F
:1058A0000490002D2ED01A4806780078002801D0E8
:1058B000701EC6B20AE0002E06D1701E8000154987
:1058C0000858B100134A5050701EC6B2002EF2D1D3
:1058D0000698002801D1009508E006984078000459
:1058E0002843069909780906084300900949009859
:1058F000086007480078002804D105480078401C5B
:1059000003490870049892E7011000002801002064
:10591000300100202C01002070B505460E46002203
:105920000321104601F070FD1749088008460088E1
:105930001649884201D1322070BD154805800020EB
:1059400014490870002415E022460321012001F0CB
:105950005BFD28216143104A891808832820604391
:1059600011464018008B0949884201D13220E3E7F3
:10597000601CC4B2B442E7DB064A0121074800F0CC
:10598000E7FA0020D8E7000042010020FFFF0000F6
:10599000440100204601002044040020291000009A
:1059A000014609480078002801D00D2070470648BC
:1059B00000788000054A115003480078401C024AD4
:1059C00010700020F2E700001A0100201C010020E6
:1059D000014609480078002801D00D20704706488C
:1059E00000788000054A115003480078401C024AA4
:1059F00010700020F2E700001B01002020010020B1
:105A0000014609480078002801D00D20704706485B
:105A100000788000054A115003480078401C024A73
:105A200010700020F2E70000400100203C0100203F
:105A300010B504460A480078002801D00D2010BD9A
:105A400007480078800007490C5005480078401C42
:105A5000034908700449487803F0D0FF0020EEE7BE
:105A600068010020600100205401002010B50446A8
:105A70000A480078002801D00D2010BD07480078A2
:105A8000800007490C5005480078401C0349087005
:105A90000449487803F0C8FF0020EEE769010020C0
:105AA00064010020540100200146094800780028C4
:105AB00001D00D207047064800788000054A11503B
:105AC00003480078401C024A10700020F2E70000F2
:105AD0007801002074010020014609480088002850
:105AE00001D00D207047064800888000054A1150FB
:105AF00003480088401C024A10800020F2E70000A2
:105B00000C020020080200200146094800880028F5
:105B100001D00D207047064800888000054A1150CA
:105B200003480088401C024A10800020F2E7000071
:105B300014020020100200200146094800780028C5
:105B400001D00D207047064800788000054A1150AA
:105B500003480078401C024A10700020F2E7000061
:105B6000390200203C020020014609480078002844
:105B700001D00D207047064800788000054A11507A
:105B800003480078401C024A10700020F2E7000031
:105B90002D0200203002002001460948007800282C
:105BA00001D00D207047064800788000054A11504A
:105BB00003480078401C024A10700020F2E7000001
:105BC000380200203402002010B5002000F004F854
:105BD000002000F041F810BD10B504461A480078C6
:105BE000012804D105F01AF9002018490870164858
:105BF000047000201449887006206043144940183E
:105C000011494860084640680078C870002C0CD1E3
:105C10000E480078002801D105F000F90D48007801
:105C2000002801D103F0EAFE10BD0A4800780128DF
:105C300008D0012C03D1002005F0CEF802E00120AD
:105C400005F0CAF800BFEFE74C0100205401002026
:105C5000B0AE00085C01002010B504461A48007878
:105C6000012804D105F0DAF8002018490870164818
:105C700004700020144988700620604314494018BD
:105C800011494860084640680078C870002C0CD163
:105C90000E480078002801D105F0C0F80D480078C2
:105CA000002801D103F0C0FE10BD0A480078012889
:105CB00008D0012C03D1002005F08EF802E001206D
:105CC00005F08AF800BFEFE7540100204C010020E6
:105CD000B0AE00085C01002070B505460E46012EEE
:105CE00007D10120A84015490968084313490860F5
:105CF00006E00120A8401149096881430F4801606E
:105D00000E480068002802D1FFF7A6FF70BD0724E7
:105D10000FE0601EC4B20A48015D012088400749B7
:105D200009680840002804D00549085DFFF794FF82
:105D300001E0002CEDD100BF00BFE7E76C010020BF
:105D4000DAAE0008014800787047000070010020BA
:105D500001480078704700007101002070B50546C9
:105D6000002D01D0032400E00224032C07D10022DF
:105D70000221104601F048FB0B49088006E0002292
:105D80000221012001F040FB0749088006480088F5
:105D90000649884201D1322070BD03F09DFF03F017
:105DA000ABFF0020F8E700007A010020FFFF0000B1
:105DB000F8B505460E4614462746002000903A46A0
:105DC00031462846FEF7B2F90098F8BDF8B5054609
:105DD0000E4617461C4600200090002C05D13A467E
:105DE00031462846FEF7A2F904E03A4631462846F5
:105DF000FEF79CF90098F8BDF8B505460E46174623
:105E00001C46002C05D13A4631462846FEF78EF94D
:105E100004E03A4631462846FEF788F9F8BD00000E
:105E2000F8B506460F4614466A463946304600F035
:105E3000F7F80546002D01D02846F8BD00984078B7
:105E4000342819D00CDC082814D004DC062810D023
:105E500007281FD10FE02A280FD02D281AD10DE0D6
:105E600039280CD03E280BD042280AD0452811D121
:105E700008E000BF00BF00BF00BF00BF00BF00BF01
:105E800000BF00BF0098C088400005490968085A53
:105E9000208001E01F2500BF00BF2846CDE700009D
:105EA00094010020F8B506460F4614466A46394666
:105EB000304600F0B5F80546002D01D02846F8BD63
:105EC0000098407832282BD012DC28282DD008DC0E
:105ED0000C281ED00D281ED00E281BD026282FD10E
:105EE00022E02B281FD02E281CD0302828D116E0E5
:105EF0003F281BD006DC35280ED037280DD03A2895
:105F00001ED10BE0432812D0462811D0472817D1C4
:105F100007E000BF00BF00BF00BF00BF00BF00BF61
:105F200000BF00BF00BF00BF00BF00BF00BF00BF79
:105F30000098C0888000054909680858206001E081
:105F40001F2500BF00BF2846B9E7000098010020C8
:105F5000F8B506460F4614466A463946304600F004
:105F60005FF80546002D01D02846F8BD009840781E
:105F70002C2829D010DC042823D006DC00281CD0D3
:105F800002281BD003282DD119E0052818D0272876
:105F90001ED0292826D116E0362813D006DC2F285B
:105FA00013D0312812D033281CD112E038280ED05B
:105FB00041280FD0442815D10DE000BF00BF00BF1D
:105FC00000BF00BF00BF00BF00BF00BF00BF00BFD9
:105FD00000BF00BF00BF0098C08805490968085C81
:105FE000207001E01F2500BF00BF2846BDE700006C
:105FF00090010020F8B504460D466A462946204621
:1060000000F00EF80646002E01D00020F8BD0098E2
:1060100003F064FF07463846F8E701468888704772
:10602000F8B506460F461446002000906A463946E9
:10603000304604F05DF90546002D01D02846F8BD34
:10604000684600880C2148430249096840182060CE
:106050000020F4E78C01002000B5014600204A78BA
:106060001300FEF7D3FF4D42295B41285A482F61A8
:10607000F4F4F44E3567F4F4F4F4F4F4F4F4F47F47
:106080006D918573978B799DA9B3BDC7F5F2F6F035
:10609000F7EEEDF8EBEAF9E8FAE6FDE4E3FBE1FC04
:1060A000DFDEF4DDFFDBDAF4FED8D7D6D5D4D3D2E9
:1060B000543BA3D1F40000BF7A4A1268002A00D0F2
:1060C0000120EDE0784A1268002A00D00220E7E0C3
:1060D000764A1268002A00D00420E1E0744A12686F
:1060E000002A00D00420DBE000BF724A1268002AB8
:1060F00000D00120D4E0704A1268002A00D00220AB
:10610000CEE06E4A1268002A00D00420C8E06C4A33
:106110001268002A00D00420C2E000BF694A126859
:10612000002A00D00120BBE0674A1268002A00D094
:106130000220B5E0654A1268002A00D00420AFE0D2
:10614000634A1268002A00D00120A9E0614A12685F
:10615000002A00D00220A3E05F4A1268002A00D083
:1061600004209DE05D4A1268002A00D0012097E0DB
:106170005B4A1268002A00D0022091E0594A126856
:10618000002A00D004208BE0574A1268002A00D071
:10619000012085E0554A1268002A00D002207FE0E5
:1061A000534A1268002A00D0042079E0514A12684C
:1061B000002A00D0042073E04F4A1268002A04D05D
:1061C0004A8892004C4B1B68985869E04B4A126809
:1061D000002A04D04A889200484B1B6898585FE018
:1061E000474A1268002A04D04A889200444B1B6830
:1061F000985855E0434A1268002A04D04A88920011
:10620000404B1B6898584BE02EE041E03FE043E0F4
:1062100032E028E03EE02EE023E03CE02AE021E00E
:1062200037E033E025E01AE02FE017E02CE01FE034
:1062300016E028E011E024E00EE023E017E00AE099
:106240001EE013E006E01AE003E017E000E025E0BE
:1062500000BF00BF00BF00BF00BF00BF00BF00BF46
:1062600000BF00BF00BF00BF012019E000BF00BF9A
:1062700000BF00BF00BF00BF022011E000BF00BF91
:1062800000BF00BF00BF00BF00BF00BF00BF00BF16
:1062900000BF00BF00BF00BF042001E0002000BF1E
:1062A00000BF00BD90010020940100209801002053
:1062B0009C010020A0010020A4010020A8010020D2
:1062C000AC010020C8010020CC010020D00100203A
:1062D000B0010020B4010020B8010020BC01002062
:1062E000C0010020C4010020D4010020D8010020FA
:1062F000DC010020E0010020F0010020E801002086
:10630000F801002000020020FEB506460F461446A4
:1063100001AA39463046FFF783FE0546002D01D01D
:106320002846FEBD019840782C282ED012DC052886
:1063300027D008DC002821D001281ED003281FD038
:10634000042834D11BE025281CD027281BD029285D
:106350002DD119E038281CD008DC2F2816D0312880
:1063600015D0332816D0362821D111E0412812D07B
:10637000442812D04C281AD10EE000BF00BF00BF45
:1063800000BF00BF00BF00BF00BF00BF00BF00BF15
:1063900000BF00BF00BF00BF00BF012000231A469E
:1063A00021460090019801F011FF054601E01625F5
:1063B00000BF00BF2846B4E7F0B505460E461746B5
:1063C000069C3148056031480680314807603149F4
:1063D000206808603049606808603049A06808603B
:1063E0002F49E06808602F49206908602E496069DC
:1063F00008602E49A06908602D49E06908602D49B0
:10640000A06B08602C49E06B08602C49206C086088
:106410002B49206D08602B49206A08602A49606A70
:1064200008602A49A06A08602949E06A0860294989
:10643000206B08602849606B08602849606C086020
:106440002749A06C08602749E06C08602649606D08
:1064500008602649A06D08602549E06D086025495F
:10646000206E08602449606E08602449A06E0860B0
:106470002349E06E08602349206F0860224901200B
:10648000000301F0DFFFF0BD84010020880100203F
:106490008C01002090010020940100209801002030
:1064A0009C010020A0010020A4010020A8010020E0
:1064B000AC010020C8010020CC010020D001002048
:1064C000E0010020B0010020B4010020B80100204C
:1064D000BC010020C0010020C4010020D401002024
:1064E000D8010020DC010020E4010020E8010020A8
:1064F000EC010020F0010020F4010020F801002050
:10650000FC01002000020020FF9F0000FFB583B0C7
:1065100006460F460020029026480088002802D038
:106520000A2007B0F0BD2348008801903C21019863
:1065300048432149441866851E48028805210120E8
:1065400000F062FFE084E08C1C49884201D13220D7
:10655000E7E7382007550598A0850698E0850021D3
:10656000242001550C98002805D00020A0600C982C
:1065700060602820015500212046FEF727FF0546D0
:10658000082D07D8E08C2A460121C90704F04EFBEC
:10659000029007E0E08C00220121C90704F046FBCD
:1065A0004720029003480088401C02490880029856
:1065B000B7E7000006020020BC040020FFFF000037
:1065C000F8B505460E460027FFF7C2FB052801D0A7
:1065D0000E20F8BD284602F069F90446002C01D1CE
:1065E0000A20F6E72068C00FC0070121C9078842CA
:1065F00001D13320EDE73220005DF02808D83220A9
:10660000005D002802D10121242001553846E0E731
:106610003220005DFD2801D10B20DAE7314620460B
:1066200003F06DFF07463846D3E70000FFB583B09F
:106630000E460020029040480088002802D00A2020
:1066400007B0F0BD3C4800880190382101984843CC
:106650003A4944180398608537480288042100208D
:1066600000F0D2FEE084E08C3549884201D132202E
:10667000E6E732200655342006550598A085069891
:10668000E08533210C9808550021242001550D98F0
:1066900000281ED10D22520203998918491E88B282
:1066A00000F0FAFD054626498D4201D14720C7E793
:1066B0001C20684323494018A060382101984843B2
:1066C0001E494018806860602586012128200155F8
:1066D00008E00D9860600020A0600021282001558E
:1066E000481E208600212046FEF7C0FE0746082FE0
:1066F00007D8E08C3A460121C90704F097FA0290C6
:1067000007E0E08C00220121C90704F08FFA47203E
:106710000290FE2E04D3A18DE08C00F097FF03E0E1
:10672000E08C002100F092FF03480088401C0249E1
:106730000880029884E700000402002084040020FE
:10674000FFFF0000F80400200B480078012801D06A
:1067500000207047094801680AE02220405C0228B6
:1067600005D103222220425409600846F1E7496A14
:106770000029F2D10020ECE71C02002024020020B6
:106780000A480088401C81B20A2900D30021084829
:106790000088814204D10120064A10700020704711
:1067A00024204843044A8018F9E70000180200201A
:1067B0001A02002028020020140500200021124A9D
:1067C0001180124A1180002008E000222821414354
:1067D0000F4BC91820318A70411C88B20A28F4D3A3
:1067E00001210C4A117000210B4A11600B4A116003
:1067F000054A1180054A1180074A1160074A116055
:10680000074A117070470000180200201A02002089
:106810007C0600201C020020200200202402002010
:1068200028020020016804232222535470470000EC
:1068300010B509480088401C84B20A2C00D30024FB
:1068400006480088844203D10820FEF703FF10BDEC
:106850000148048000BFFAE7180200201A02002055
:1068600070B505461E480078002801D00A2070BD8A
:106870001B480478242060431A494018857618483C
:1068800002780021084600F0BFFD24216143154A2B
:106890008918C8832420604311464018C08B1249D0
:1068A000884201D13220E2E70D4802780021012020
:1068B00000F0AAFD242161430A4A89180884242093
:1068C000604311464018008C0749884201D13220AC
:1068D000CDE703480078401C014908700020C6E756
:1068E0002C0200200C080020FFFF00000349086074
:1068F0000021034A1160034A1160704740020020E2
:10690000440200204802002002460648016804E0D4
:10691000914201D10120704709680029F8D1002077
:10692000F9E7000044020020FFB581B004460D469F
:1069300017460A9E002D02D10A2005B0F0BD204660
:1069400000F026F8114801682846FDF7D9FBA06041
:10695000002E01D0012E09D10C4801682846FDF710
:10696000CFFB002902D0A068401CA060A0680028CE
:1069700001D10120A060E7602675049820612046BF
:10698000FEF762FB00900098D7E70000400200206D
:1069900010B503460B48016800220EE099420AD167
:1069A000002A03D1074C0868206001E008681060E5
:1069B0000020086010BD0A4609680029EED10A20AF
:1069C000F8E700004402002010B50020FEF7DEFECC
:1069D00002480068401C0149086010BD48020020C0
:1069E00000201249096801221143104A116000BFBA
:1069F0000E494968C907C90F0029F9D000210C4A7E
:106A000011700A49496949084900084A516111460B
:106A1000496902229143054A51611146496943225D
:106A200052029143014A51617047000000640040E6
:106A30004C02002010B500F02DF800F0A3F810BDB6
:106A400070B500250D484069012108430B49486194
:106A500008464069022108430849486108464069E0
:106A6000432149020843054948610846046864080F
:106A70006400046000F004F8284670BD0064004023
:106A800010B51E20FDF7EAFC10BD0000004870475D
:106A90005C020020F8B50027FFF7F8FF04463348F2
:106AA0008569334800686840064606200640002E87
:106AB0000FD004202840002802D00320607108E095
:106AC00002202840002802D00220607101E001204D
:106AD00060712748056027480078002817D02348B0
:106AE000806807218906084088420CD12248008826
:106AF000401C214908800846008814280ADD00202F
:106B00001C49087006E000201B49088002E00020B4
:106B1000194908801948007801280AD113484068AB
:106B2000C007C00F00280FD0002014490870607102
:106B30000AE00E484068C007C00F002804D10120B9
:106B40000E490870607101270C480078012808D1AF
:106B500008480078002804D109480068002800D0BF
:106B60000127012F01D100F083FAF8BD0064004035
:106B7000500200204D0200205A0200204C0200204A
:106B80005402002010B5FFF781FF04462078012849
:106B900004D1002020700620FEF75CFD60790328F8
:106BA00002D0E07801280BD12079012802D10420FD
:106BB000FEF750FD2079032802D00120FEF74AFDA0
:106BC0002079032805D02079002802D0E078012818
:106BD00008D16079022805D10520FEF73BFD04208D
:106BE000FEF738FD2079012808D16079022805D107
:106BF000E078002802D10420FEF72CFD207901283E
:106C000012D1607901280FD1E078012803D1052045
:106C1000FEF720FD08E06078012805D10420FEF78A
:106C200019FD0520FEF716FD2079012805D06079B1
:106C3000012802D10520FEF70DFD00206070A07034
:106C4000E07060792071002010BD00B5FFF71EFFD5
:106C500001460020087048708870C870087100BD37
:106C600070B5FFF713FF04460A48856904202840E1
:106C7000002802D00120E07008E00220284000280F
:106C800002D00120607001E00120A07004200149C1
:106C9000486070BD0064004010B50246002000212D
:106CA00009E0CB00074CE35A934202D1CB001819FC
:106CB00006E04B1CD9B2CB00024CE35A002BF0D1BA
:106CC00000BF10BDB4AF000810B501463323002249
:106CD000087B002800D00122012A0FD10889084C26
:106CE000A0420BD107480088332807DC05480088FC
:106CF000088104480088401C024C2080088910BD8F
:106D0000FFFF00005802002070B50446042004492B
:106D10000880204600F006F80546284670BD0000B1
:106D200058020020F8B50746002000903F4C20464E
:106D30000068012109040840064600264810304337
:106D40002146086000BF394800680121C903084096
:106D50000028F8D1012030433449086000BF33488F
:106D60004068C007C00F0028F9D030464D210843C5
:106D70002E4908604815005901210843490208516D
:106D8000872080000059810B8903872080000151F2
:106D900000250FE02649E8000922920180188008AA
:106DA00080002150E8008018001D800880002150DC
:106DB000681C85B20D2DEDD9812080000059810B12
:106DC0008903812080000151832080000059810BBC
:106DD0008903832080000151852080000059810BA8
:106DE00089038520800001518120800000591149CC
:106DF0000843812189000851081F005941084900B2
:106E000001204002015100200B4908700B49087015
:106E10000B490860FFF719FF00200A49086038464F
:106E200000F082F800900098F8BD00000064004077
:106E3000F8FFF8FFFE3F00004C0200204D0200204A
:106E40005402002050020020F0B585B000200390CD
:106E5000029001903248C0688007800F002801D15D
:106E600005B0F0BD2F48066B04203040002801D04B
:106E70000120029002203040002801D00120019022
:106E80000298002801D1760D00E0F608FFF778FCA3
:106E90000446002C03D120202149C860E0E7666049
:106EA0000298A0730198E0731E48406B07073F0FDC
:106EB000082F00D9082727750198002817D11948ED
:106EC000856B65752804010EA1752802010EE17518
:106ED000280E2076042F0AD91248C56B657628043F
:106EE000010EA1762802010EE176280E20770C48CB
:106EF000C06810210840002808D0FFF7C7FD0090A7
:106F000001210098017010200549C8602020044923
:106F1000C860FFF78DFC0120FEF738FC00BF9FE73B
:106F20000064004080650040F1B5FFF759FD00980E
:106F3000FFF7B2FE0446002C01D13C20F8BD658865
:106F4000607921794618A779781E0005711E090419
:106F50000843691E08430249C8610020EEE70000AB
:106F60000064004070B5044600262046FFF7ACFEE2
:106F70000546A07A012801D1012625E0207B0128C1
:106F80001AD1E07A00280BD11248854201D101269E
:106F90001AE0228891B2E8B2002200F01FF813E054
:106FA0000C48854201D101260EE0228891B2E8B258
:106FB000012200F013F807E00648854204D0E8B249
:106FC0000022054900F00AF8012E01D13D2070BDD4
:106FD0000020FCE7FFFF0000FF070000F7B581B0CD
:106FE00003460C461E489E088725AD002D580127F4
:106FF000B740BD438727BF003D509D08ED000927DE
:10700000BF01EF199D07ED0FAD007D19AD032D0CEC
:107010000095009DAD004159039D012D03D16501EF
:107020002A46103200E06201DD07ED0F002D05D089
:10703000120489B20D461543294604E0090C0904DF
:107040000D4615432946009DAD0041518725AD00F1
:107050002D580127B7403D438727BF003D50FFBD56
:107060000064004010B51E20FDF704FA10BD0000BA
:1070700010B507480078012801D03D2010BD054813
:107080000078002801D1FFF7EDFF0020F6E70000AF
:107090004C0200204D02002030B5014600230024A0
:1070A000002220480068C007C00F002801D03F2000
:1070B00030BD087D1B4D6860C87B002818D1487D15
:1070C0008D7D2D022843CD7D2D0428430D7E2D0678
:1070D0002843144DA860487E8D7E2D022843CD7E26
:1070E0002D0428430D7F2D0628430E4DE86001E056
:1070F00002200243887B002807D04868C000104364
:1071000005252843074D286006E088884005104380
:1071100001252843034D28600120034D287018469F
:10712000C6E70000806500404D02002010B51248FF
:10713000124988600846806807218906084088420D
:1071400019D100200E4908700E480068002806D0AA
:107150000C480068FFF766FB00200A490860FFF74B
:10716000F3FA0849086008460068002803D008467A
:107170000068FFF791FF10BD0101010000640040AD
:107180004D0200205402002000B585B01D48C069A2
:107190000121490608431B49C8610846406901218D
:1071A000890408431749486148150090022001905E
:1071B00003200390012002900420049069461248A5
:1071C000FDF724F8FF2001300090022001900320F9
:1071D0000390012002900420049069460A48FDF7BC
:1071E00015F8084800690121490608430549086166
:1071F000084600690121490688430249086105B033
:1072000000BD0000001002400004004810B5FDF76A
:1072100001F9FDF797FEFDF7E3FDFFF7B5FF10BDA0
:1072200010B5FFF7D1FB10BD70B505460C4885427F
:1072300001D0502070BD0B4C601E0B49884200D914
:107240000CE0601E094948610321081FFDF7FAFDA3
:107250000020064988610720086100BF0020E9E797
:107260001027000000530700FFFFFF0000E000E0D0
:1072700000B5811F0B00FDF7C9FE070506070809C9
:107280000A0B0C0006E005E004E003E002E001E088
:1072900000E000BF00BF00BD70B505460B48008888
:1072A000012801D10A4870BD0848068829463046A1
:1072B00003F00EFD0446002C01D00548F3E7034817
:1072C0000088401C014908803046ECE71602002087
:1072D000FFFF000000BFFEE710B5002413E02820E8
:1072E00060430B49401820308078002809D1092CD0
:1072F00002D10A20FEF7AEF9282060430449401865
:1073000010BD601C84B20A2CE9D30020F8E700000D
:107310007C0600207CB504462546287F00220321F8
:1073200000F038FB0020009001906946044800F00E
:10733000BDFA01210320FEF7CFFC00F05FFB7CBD0E
:10734000308100007CB50546FEF702FD0446684624
:107350000470002269460248008802F075FA7CBD7C
:10736000420100207047000030B503460C46002162
:1073700011E0C8000A4D285898420AD8C8004019A0
:107380004068984205D3A34201D3934201D901201A
:1073900030BD481CC1B20829EBD30020F8E700003B
:1073A0004CAE000830B502460021002422E0342013
:1073B0006043134D41198B68106898434D689D4395
:1073C000A84215D1957A887B854211D1087C012885
:1073D0000ED18878012809D08878002808D1D07A81
:1073E000012805D1D57AC87B854201D1084630BD38
:1073F000601C84B2034800888442D8DB0020F6E792
:107400008C0200201001002070B503460C461E4877
:107410000088082801D31D4870BD1B4801880088DA
:10742000401C194D2880481C85B234204843184E12
:1074300035523420484335464019837000253420A6
:107440004843801905740125ED073420484380190D
:107450004560002534204843801985606D1E342026
:1074600048438019858134204843354640190475C6
:10747000342048434019C2820025342048438019F3
:1074800005830846C8E7000010010020FFFF000048
:107490008C02002070B504460A480088844201DD51
:1074A000322070BD002134206043074A80180174E7
:1074B000204600F01BF80546002D01D02846F0E7D5
:1074C0000020EEE7100100208C02002010B50024FF
:1074D00004E02046FFF7DEFF601C84B2024800880B
:1074E0008442F6DB10BD00001001002070B5044698
:1074F00000253420604326494018807800281CD19C
:10750000342060434018C07B002816D134206043EB
:107510004018067C0021342060431D4A8018017405
:10752000342161438918081DFFF71CFD05463420EE
:10753000604317494018067428E03420604314491A
:1075400040188078012819D1342060434018C07B4E
:10755000012813D10021342060430D4A8018C173E3
:10756000342161438918081DFFF7FCFC0546012101
:1075700034206043064A8018C17307E03421614318
:10758000034A8918081DFFF7EDFC0546284670BD23
:107590008C020020014605480088814201DD002060
:1075A000704734204843024A8018F9E71001002050
:1075B0008C02002000200149088070471001002043
:1075C000FFB581B006460D461F461E48008886421C
:1075D00002DD322005B0F0BD342070431A49441852
:1075E000E80FC0070121C907884202D10021217498
:1075F00005E0082F01D92020ECE701212174E800E3
:10760000C0086060012040072840012149078842E6
:1076100002D10121A17301E00021A1730398002888
:1076200002D10021E17301E00121E173A776304628
:10763000FFF75CFF00900098002801D00098C9E790
:107640000020C7E7100100208C02002070B505461D
:107650000C4609480088854201DD322070BD342087
:107660006843064940180483002C02D1284601F0E3
:107670004DFA0020F2E70000100100208C020020EB
:1076800000200A4908700A4908700A4908700A4926
:107690000870092009490870022009490870002073
:1076A000084908700849087070470000140100205C
:1076B00015010020160100201701002018010020EC
:1076C000190100201A0100201B010020F8B5054611
:1076D0000F46144600260F48854219D10E4800680F
:1076E000844215D0E00FC007002808D10A4800687E
:1076F000C00FC0076907884201D02020F8BD812251
:1077000011462046FFF730FE012801D12020F5E781
:107710003046F3E7141000002401002010B50346A2
:107720000020044CA34204D0002901D1002A00D03B
:10773000202010BD0110000010B5024600200F4BA4
:10774000D318002B04D0112B11D0122B13D110E021
:10775000002901D10A4809E0094B1B78994201DD53
:10776000002003E04B1E9B00064C181904E006485D
:1077700002E0064800E000BF00BF10BDFDEFFFFFC4
:10778000300100202C0100202401002032010020C3
:1077900070B504460E46002511482018002804D074
:1077A000112806D0122816D10DE000200D490870CE
:1077B00012E0082300220C4801680C480088FFF7FB
:1077C000FFFE054608E00A48018808480088FFF7E0
:1077D0003DFF054600E000BF00BF284670BD000029
:1077E000FDEFFFFF300100202401002028010020D0
:1077F000320100201CB5FEF7A5FA8030144908605C
:107800006A4600211348FEF74DFB0446002C0BD1BD
:107810000098C00FC007002806D00D48006801215D
:10782000C90708430A49086001AA00210948401C09
:10783000FEF7F6FA0446002C09D16846808806490E
:1078400008800846018805480088FFF7FFFE1CBD38
:107850002401002014100000320100202801002023
:1078600010B5082300220348016803480088FFF789
:10787000A7FE10BD24010020280100200022064B95
:107880001A60521E054B1A800022054B1A80054BC8
:107890001A70054B1A70704724010020280100203F
:1078A000320100203001002038010020F8B50646E2
:1078B0000F460C4805780CE0681EC5B2A8000A49BE
:1078C0000A583946304690470446002C01D05020D3
:1078D000F8BD002DF0D139463046FDF789FF04464A
:1078E0002046F5E73801002034010020F3B581B0CF
:1078F0000E467002470EB0B20090002F22D00098C2
:1079000000281FD0FEF71EFAB84201D10B20FEBDA1
:10791000002415E025460198401EA0420ED02820E4
:10792000684309494018007FB84207D128206843BE
:107930004018408B002801D00B20E8E7601CC4B23F
:10794000002CE7D00020E2E74404002010B50246F6
:1079500000200C4BD318002B04D0012B0AD0132B82
:107960000CD109E04B1E28246343074C1B19184611
:10797000203005E0054803E0054801E0002000BF95
:1079800000BF10BDEAEFFFFF4404002044010020C7
:1079900046010020F8B505460E461746074804780C
:1079A00008E0601EC4B2A00005490B583A463146B3
:1079B00028469847002CF4D1F8BD00004001002073
:1079C0003C01002070B504460D4600260A482018E8
:1079D000002802D001280BD105E0691EC8B203F0CF
:1079E0003FF9064605E0012000F012F9064600E0E6
:1079F00000BF00BF304670BDEAEFFFFF10B5FEF7D5
:107A0000A7F9052810D109480078002804D10021E1
:107A10007F2000F039FA07E004480078022803D1FB
:107A20000021042000F030FA10BD000046010020C3
:107A30007CB5FEF787F905460720000229180123C7
:107A40001A460F480088FFF7BBFD00206946087002
:107A500000220B48008801F0F7FE0646002E04D0F5
:107A60007F2207212846FFF795FF002404E02046E7
:107A700003F0F6F8601CC4B2002CF8D07CBD000006
:107A8000420100207CB501AA00211748FEF7C8F981
:107A90000546002D03D168468088144908800024DB
:107AA00019E02820604312494018008B1149884290
:107AB0000FD0601CC1B26A460B48401EFEF7F2F9B7
:107AC0000546002D05D128206043094A80180099F9
:107AD0000162601CC4B2002CE3D0074A01210248B5
:107AE0001230FEF735FA7CBD17100000440100206B
:107AF00044040020FFFF00004601002030B502468C
:107B000000214B1E0A4C238000230A4C23700020C6
:107B100008E00024E44328234B43074D5B191C83F2
:107B2000431C98B20028F4D00023044C237030BDCD
:107B300042010020460100204404002040010020B2
:107B400070B500240948056800200849086009E06C
:107B50002C462568002020606068002802D06168FB
:107B6000A0688847002DF3D170BD000048010020B7
:107B7000002001490860704748010020F8B504461C
:107B80000E4617460025607826380300FDF73EFABA
:107B9000150C37371213141A1B1C373737372223AB
:107BA0002437372A2B3137002178608801F03AFBDF
:107BB000054625E000BF00BF2178608801F0F9FD8F
:107BC00005461DE000BF00BF2178608801F0B9F9CB
:107BD000054615E000BF00BF21786088FFF7F2FE80
:107BE00005460DE000BF21786088FFF7D1FD05460E
:107BF00006E021786088FFF7CBFD054600E000BF76
:107C000000BF002D01D02846F8BD2846FCE7000043
:107C100038B504460E480088002804D10D48FEF708
:107C2000B7FE002038BD01200090094800887D2261
:107C3000D200504301460023074A0648FEF774FE6F
:107C40000546012C02D10020FFF77CFB2846E9E71E
:107C5000440100202C040020457300080020044942
:107C60000870044908700449087004490870704796
:107C700068010020690100205C0100205D010020F6
:107C8000FEB5054600200290FEF75CF80190E87B07
:107C900001280AD1696807221202019880188142DE
:107CA00002D10020FFF74EFBFEBD287D012800D049
:107CB000FAE769680722120201988018814207D109
:107CC00029794806400E00220821FFF763FEEBE702
:107CD0002020405D03280AD0687D002806D129793C
:107CE0004806400E7F220021FFF754FEDCE7688C37
:107CF000282148432D4944182420065D687D00282A
:107D000006D004280FD0052813D07F281DD116E0F7
:107D10007F2124200155065D24210A5D207F00215A
:107D2000FFF738FE15E004212420015501200290C0
:107D30000FE00521242001550120029009E07F2158
:107D4000242001550120029003E000212420015548
:107D500000BF00BF029801281BD12046FEF7D4FDCA
:107D6000074600200090608B7D22D20050430146E0
:107D700023460F4A2046FEF7D7FD002F09D12421C4
:107D80000A5D207F0221FFF705FE00210320FDF799
:107D9000A3FF2420005DB04205D024210A5D207F8E
:107DA0000121FFF7F7FD00BF7EE70000440400203B
:107DB0001573000870B504466068002844D1207D22
:107DC000022800D070BDA07D26490978884202D0E3
:107DD000A07D002838D1607D802814D004DC0128E3
:107DE00007D002282ED109E0812811D0822829D17C
:107DF0001EE00121052000F047F824E001210420C5
:107E000000F042F81FE001217F2000F03DF81AE069
:107E10000121802000F038F801F05EFF01F06CFFD6
:107E20000546002D03D101217F2000F02DF80AE046
:107E300001F062FF0546002D03D101217F2000F0F3
:107E400023F800E000BF00BF0721090260688842F4
:107E500006D9207D012800D0B4E72046FFF710FFA7
:107E600000BFAFE77001002010B50549096800297F
:107E700003D003490968884701E00249087810BD2A
:107E8000800100207C010020F8B505460F462C48F3
:107E90000078A84200D1F8BD2A480078002803D015
:107EA000284800787F2800D9F5E7012F04D024481E
:107EB0000078052800D0EEE70026052D11D12248D4
:107EC00004780BE0601EC4B2A00020490A5829467D
:107ED000002090470646002E00D001E0002CF1D192
:107EE00000BF002E2AD116480570007804280BD058
:107EF000052805D07F280BD10520FDF76DFE08E091
:107F00000620FDF769FE04E00220FDF765FE00E0B3
:107F100000BF00BF0C48047807E0601EC4B2A00098
:107F20000A490A58294601209047002CF5D1052D11
:107F300002D100F0BDFB01E000F0D4FB00BFAAE7D6
:107F400071010020700100207801002074010020E0
:107F50000022D243084B1A800278084B1A70084B53
:107F60000A681A607F22074B1A708022064B1A702B
:107F70000022064B1A7070477A0100207C01002015
:107F80008001002070010020710100207801002094
:107F900000201D4908601D4908601D4908601D49F1
:107FA00008601D4908601D4908601D4908601D4999
:107FB00008601D4908601D4908601D4908601D4989
:107FC00008601D4908601D4908601D4908601D4979
:107FD00008601D4908601D4908601D4908601D4969
:107FE00008601D4908601D4908601D4908601D4959
:107FF00008601D4908601D4908601D4908601D4949
:1080000008601D490860704790010020940100201D
:10801000980100209C010020A0010020A401002064
:10802000A8010020AC010020B0010020B401002014
:10803000B8010020BC010020C0010020C4010020C4
:10804000C8010020CC010020D0010020D401002074
:10805000D8010020DC010020E0010020E401002024
:10806000E8010020EC010020F0010020F4010020D4
:10807000F8010020FC01002000020020FEB50446AB
:108080000D460A2660780300FCF7C0FF4B3E273FF1
:108090003C283D4C294D7979796A2A6B797979792F
:1080A00079797979797979797979797979792D2CD9
:1080B0002E2F315C345E35495F374A613660386255
:1080C0003245633A65394664796879477979334846
:1080D0005D3B4B696667792B790000BF00BF00BF2D
:1080E00000BF00BF00BF00BF00BF00264EE000BFC2
:1080F00000BF00BF00BF00BF00BF00BF00BF00BF88
:1081000000BF00BF00BF00BF00BF29782046FDF7B9
:10811000E3F806463AE000BF00BF00BF00BF00BF63
:1081200000BF00BF00BF00200123022229460090AB
:1081300002A8FDF74BFE684601892046FDF70AF8C4
:10814000064623E000BF00BF00BF00BF00BF00BF66
:1081500000BF00BF00BF00BF00BF00BF00BF00BF27
:1081600000BF0020012304222946009001A8FDF74A
:108170002DFE20460199FDF735F8064606E06178A8
:108180002A46204601F0F4FD064600BF00BF3046F7
:10819000FEBD0000024600210DE0C800094B1B682F
:1081A000185A904205D1C800064B1B68C018807849
:1081B0007047481C81B2044800888142EDDB0020F2
:1081C000F6E700008401002088010020FFB585B09B
:1081D00014461D4600265320049000200390059865
:1081E00080880290059801F0F7FF0746002F29D0FC
:1081F0000598FDF731FF0646B44202D3222009B0AC
:10820000F0BD361B002D02D0AE4200D92E463F19DC
:108210000E98012809D104210298084003463246ED
:1082200039460698FDF7C4FD0AE003980090042142
:10823000029808400346324639460698FDF7DCFDB1
:10824000002004900498DAE7FFB581B006461C468A
:10825000202E23D200210398016001210A98017089
:1082600000273300FCF7D2FE081405080C10090D96
:108270001114012020700DE000BF0120207009E0E2
:1082800000BF0220207005E000BF0420207001E044
:10829000462700BF00BF384605B0F0BD6A463046ED
:1082A0000299FDF7BDFE0746002F01D03846F3E7DF
:1082B0000098FDF7B2FE054628202840002801D18D
:1082C0004620E9E702202840002801D11820E3E7F2
:1082D00004202840002803D100210A98017002E000
:1082E00001210A980170009801F0F8FD03990860D7
:1082F0000098FDF7B1FE20700020CDE7FFB581B0FA
:1083000006461746202E02D2462005B0F0BD6A462A
:1083100030460299FDF784FE0546002D01D028461F
:10832000F3E70098FDF779FE044618202040002866
:1083300001D14620E9E7E007C00F002801D117204E
:10834000E3E704202040002803D100210A980170AF
:1083500002E001210A980170009801F03DFF3860A9
:108360000098FDF779FEC1B2049801700020CCE7B7
:10837000FFB585B0074614461D4600200490002630
:108380000A20039000200290B8880190787819287C
:1083900016D008DC01280FD004280ED007280DD0F5
:1083A0000D2814D10BE01C280BD01F280AD022283E
:1083B0000AD04A280BD106E000BF00BF00BF00BFB3
:1083C00000BF00BF00BF00BF0020049004E038469B
:1083D00001F084FD049000BF00BF049800282FD056
:1083E0003846FDF739FE0646B44202D3222009B0D2
:1083F000F0BD361B002D02D0AE4200D92E460498A7
:10840000001904900E9801280BD10421019808400E
:108410000346324606990498FDF7CAFC0F99087086
:108420000CE002980090042101980840034632466F
:1084300006990498FDF7CAFC0F9908700020039074
:108440000398D4E7F3B585B000220021F9E0CB0012
:108450007F4E3668F65A059B9E4278DBCB007C4EF9
:108460003668F65A069B9E4271DC0022DFE0CB00A4
:10847000774E36689B19DB889B180C267343754E24
:1084800036689819838840263340002B77D0467889
:10849000182E27D00BDC3300FCF7B8FD0F1BC56688
:1084A0001AC5652DC57FC5C5C543C59BC5001E2E14
:1084B0004ED006DC1A2E63D01B2E27D01D2E78D16D
:1084C00079E0202E76D0492E36D04B2EF7D19CE085
:1084D00000BFC388604E3668F35C46885F4F3F68D4
:1084E000BB55A1E0C3885E4E3668F35C46885D4F9D
:1084F0003F68BB5598E0C3885B005B4E3668F35A13
:1085000046887600594F3F68BB538DE0C3885B00B7
:10851000574E3668F35A46887600564F3F68BB532D
:1085200082E0C3889B00544E3668F3584688B600F4
:10853000524F3F68BB5177E0C3889B00504E36686E
:10854000F3584688B6004F4F3F68BB516CE076E069
:10855000C3889B004C4E3668F3584688B6004B4F94
:108560003F68BB5160E000BF43889B00484E3668BF
:10857000F458C388384E3668F35C237054E054E0F6
:1085800043889B00434E3668F3580393C388344EA8
:108590003668F65C039B1E7046E043889B003E4EA7
:1085A0003668F558C3885B002F4E3668F35A2B8027
:1085B0003AE038E01BE043889B00384E3668F358B9
:1085C0000293C3885B002A4E3668F65A029B1E80CF
:1085D0002AE043889B00324E3668F3580493C388E0
:1085E0009B00254E3668F658049B1E601CE04388AD
:1085F0009B002C4E3668F3580193C3889B00224E93
:108600003668F658019B1E600EE043889B00264E9C
:108610003668F3580093C3889B00194E3668F658A5
:10862000009B1E6000E000BF00BF531C9AB2CB004D
:10863000074E36689B199B78934200DD17E74B1C69
:1086400099B21A4B1B88994200DA00E707B0F0BDD7
:10865000840100208C01002090010020A001002056
:10866000B0010020BC01002094010020A4010020E2
:10867000B4010020C001002098010020A8010020C2
:108680009C010020AC010020B8010020C4010020A2
:10869000C8010020D4010020CC010020D801002016
:1086A000D0010020DC010020E00100208801002032
:1086B00070B500240CE03820604308494518688DE7
:1086C0000021FDF77DFF284602F056FB601C84B2B6
:1086D000034800888442EEDB70BD00008404002063
:1086E0000402002070B5002408E0382060430649E9
:1086F0004518284602F040FB601C84B203480088FD
:108700008442F2DB70BD00008404002004020020DB
:108710007CB50546FDF71CFB052800D07CBD688CA8
:1087200020490988884200DDF8E7688C3C214843ED
:108730001D494418297D3920005D81420CDA002052
:1087400000900190608D69460870608D001248703D
:108750001648FFF7ABF8E1E7E08D00280CD00220C7
:108760000090E08D7D22D200504301462346104AFE
:1087700020460C30FEF7D8F83820005DF0280AD8E3
:1087800008222946153120463030FBF7CFFC022164
:1087900024200155C2E7688C2946153101F05CFEA2
:1087A00000BFBBE706020020BC04002010820000CE
:1087B000F1A40008F8B500261CE0382070432349D6
:1087C00045182868C00FC007002803D0E88CFEF7C2
:1087D00061FE03E0688D012100F0EBFF3220415D76
:1087E00034204155002124204155284602F0C4FA86
:1087F000701C86B2164800888642DEDB002620E028
:108800003C207043134944182068C00FC00700285B
:1088100003D0E08CFEF73EFE0BE000212046FCF783
:10882000D5FD074639200755E08C3A46216802F00D
:10883000FDF9002124200155204602F0FFFA701CAA
:1088400086B2054800888642DADBF8BD8404002041
:1088500004020020BC0400200602002070B505467A
:10886000FDF776FA052800D070BD688C0D4909889F
:10887000884200DDF8E7688C382148430A494418EB
:108880003220005DF02807D83220005D002807D193
:1088900001212420015503E00021204601F02FFE94
:1088A00000BFE1E70402002084040020024600210A
:1088B0000CE038204843074BC018408D904203D14C
:1088C00038204843C0187047481C81B20029F0D0B6
:1088D0000020F8E784040020F0B585B0002783E08D
:1088E000382078437A494418618D0322D2028918CE
:1088F000491E88B203AA0121FDF7D4FA0646002ECC
:1089000004D10398800F8007039001E000200390BA
:10891000608D002812D0608D04280FD8608D401E15
:1089200080B20090FDF70EFA014600980002FF3079
:108930008130081803990843206004E00121C90729
:10894000039808432060618D0322D2028918491ED2
:1089500088B201AA0221FDF7FBFA0646002E03D1D8
:108960006846017932200155618D0322D2028918AF
:10897000491E88B202AA0321FDF752FA0646002ECC
:1089800002D168460089A085618D0322D202891830
:10899000491E88B202AA0521FDF742FA0646002EBA
:1089A00002D168460089E085618D0322D2028918D0
:1089B000491E88B201AA0621FDF7CAFA0646002E12
:1089C00003D168460179332001552820005D012834
:1089D00008D1628D0D235B02D218521E91B2208EF7
:1089E00002F076F9781C87B23A480088874200DAAC
:1089F00076E7002765E03C20784337494518698DC4
:108A0000052292028918491E88B203AA0121FDF7A6
:108A100049FA0646002E04D10398800F8007039080
:108A200001E000200390688D002812D0688D042892
:108A30000FD8688D401E80B20090FDF783F9009931
:108A40000902FF31FF3102314018039908432860C1
:108A500004E00121C907039808432860698D0522B5
:108A600092028918491E88B201AA0221FDF770FA04
:108A70000646002E03D16846017938204155698D9C
:108A8000052292028918491E88B202AA0321FDF725
:108A9000C7F90646002E02D168460089A885698D6F
:108AA000052292028918491E88B202AA0521FDF703
:108AB000B7F90646002E02D168460089E885781C81
:108AC00087B206480088874295DB05B0F0BD0000FC
:108AD0008404002004020020BC04002006020020C0
:108AE0000022054B1A80054B1A80054B1A80054B56
:108AF0001A80054B1A8070470402002016020020DD
:108B0000060200200C0200201402002070B5054669
:108B100000262846FEF73EFD0446002C00D170BD1D
:108B200000BF204601F090F80646002EF9D100BFA4
:108B3000F5E70000F1B50024002600274AE02948A7
:108B400000882949098888421AD0012726480088C8
:108B5000401C25490880084600880A2801D30020C7
:108B600008802148008824214843204944181E4891
:108B700000881C490988884202D10920FCF76AFD57
:108B8000012F1CD1002C1AD00026201DFEF70AFC54
:108B90000546002D0DD16068C009C00107210902FA
:108BA00088420CD1022120200155C81E6084012674
:108BB00005E0297D20200155E88A60840126012EE8
:108BC00008D1002C06D0242221460098FBF7AEFAEB
:108BD0000120F8BD03480088034909888842AED1C6
:108BE0000020F6E7180200201A02002014050020D9
:108BF00038B529480078012805D100202649087099
:108C00000820FCF727FD25480068002800D138BD62
:108C100025E022490968088CFEF7BCFC0446002CBC
:108C20000ED0208B00280BD000200090208B6422D7
:108C30005043014623461A4A20461C30FDF774FE75
:108C40000021164800682030817014480068406A8E
:108C50001249086008460068002800D105E00F4866
:108C60000068203080780428D3D000BF0B4800680B
:108C7000002807D10B48006800280BD10C20FCF716
:108C8000E9FC07E00548006820308078022801D11F
:108C9000FEF7EEF900BFBAE7280200202402002008
:108CA000B5990008200200200020074908800749E4
:108CB000088001200649087000200649086006491E
:108CC0000860064908707047180200201A02002048
:108CD0001C02002020020020240200202802002084
:108CE000F3B585B00C46059801F048FF0646002E06
:108CF00002D1212007B0F0BD3068C00FC0070121AC
:108D0000C907884201D04620F4E77068007800283F
:108D100001D04620EEE7270C2004000E049001A8A5
:108D200002AB03AA009038460499FFF78DFA054676
:108D3000002D01D04620DDE72846DBE7F7B588B0F7
:108D40000D46164600200790089801F017FF0446CC
:108D5000002C02D121200BB0F0BD2068C00FC0074D
:108D60000121C907884201D04620F4E7002D1CD01C
:108D700060680078002801D04620ECE76168091D92
:108D8000681E0C2250430818069003A8009006980D
:108D900000890004010E06988068000C04AB05AA47
:108DA0000290FFF751FA07900AE0002E08D03146F2
:108DB0002046FCF70BFB0746082F01D94720CAE7DE
:108DC0000798C8E7F8B507460C460026384601F074
:108DD000D5FE0546002D00D1F8BD002C01D1AE68AE
:108DE00008E0A968091D601E0C22504308180646B9
:108DF000083600BF00BF3046EEE7F8B507460C4620
:108E00000026384601F0BAFE0546002D00D1F8BD17
:108E1000002C01D16E6808E06968091D601E0C22F3
:108E2000504308180646083600BF00BF3046EEE73C
:108E3000F8B506460C460027304601F09FFE054671
:108E4000002D01D12120F8BDE00FC007002815D169
:108E50002868C00FC0070121C907884204D02868CC
:108E6000A04201D02020EEE7FF22823211462046A8
:108E7000FEF77AFA012801D12020E4E73846E2E73C
:108E8000F8B506460C460027304601F077FE054649
:108E9000002D01D12120F8BD032C07D12868C00F77
:108EA000C007E107884204D02020F4E7052C00D059
:108EB00015273846EFE7F8B507460C46154600205B
:108EC0000090384601F05AFE0646002E01D12120BE
:108ED000F8BD3068C00FC0070121C907884201D022
:108EE0002020F5E7022C03D1FE2D05D22020EFE74C
:108EF000062C01D0152000900098E9E7F8B5064649
:108F00000D460027304601F039FE0446002C00D102
:108F1000F8BD012D06D0022D06D0032D07D0052D5A
:108F20000BD107E0274609E02746383706E02746F9
:108F30002C3703E027462E3700E000BF00BF38463D
:108F4000E6E7F3B581B00E460027019801F016FE62
:108F50000446002C01D12120FEBD012E02D0052E99
:108F600017D112E000212046FCF730FA0546E08CCC
:108F70002A46216801F05AFE0746204601F05EFFAE
:108F8000002F01D13920055504E0204601F056FF9D
:108F900000E000BF00BF3846DEE70000F8B5074636
:108FA0000D46144600200090384601F0FDFD0646AF
:108FB0002048864201D12120F8BD012D19D1E00FB2
:108FC000C007002833D1242070431B494018806813
:108FD000C00FC007E907884201D02020ECE7032238
:108FE000520211462046FEF7BFF901281FD120206A
:108FF000E2E7022D19D1E00FC007002817D1242085
:1090000070430D4940184068C00FC007A907884247
:1090100001D02020D0E70B22D20111462046FEF7D6
:10902000A3F9012803D12020C6E71520009000985D
:10903000C2E70000FFFF00000C08002070B50446E6
:109040000025204601F0B0FD06460348864201D1C6
:10905000212070BD2846FCE7FFFF0000FFB581B06E
:109060001D460026144804780DE0601EC4B2A0001E
:10907000124900950F58002001A90EC9B8470646AD
:10908000002E00D001E0002CEFD100BF002E02D056
:10909000304605B0F0BD0848047809E0601EC4B24F
:1090A000A000064900950F58012001A90EC9B84734
:1090B000002CF3D13046ECE7390200203C020020BE
:1090C000F7B582B0064600250020019018480478C4
:1090D00016E0601EC4B2A00016490F5831460020A9
:1090E000049B039AB8470546002D09D0292D04D1C9
:1090F0000198401CC0B2019002E0284605B0F0BDC6
:10910000002CE6D10A48047809E0601EC4B2A00031
:1091100008490F5831460120049B039AB847002C98
:10912000F3D10198002801D02920E7E70020E5E7E6
:109130002D02002030020020FEB50446002600204B
:1091400001901A48057817E0681EC5B2E37EA08A30
:109150000090A17EA800164A17580020009AB84730
:109160000646002E08D0292E04D10198401CC0B21A
:10917000019001E03046FEBD002DE5D10B48057899
:109180000BE0681EC5B2E37EA28AA07E0090A80014
:1091900007490F5801200099B847002DF1D10198D7
:1091A000002801D02920E6E73046E4E73802002015
:1091B000340200204278120203781A438A828278AD
:1091C000CA767047F8B507460E460025384601F0C6
:1091D000EBFC04461148844201D10020F8BD012E69
:1091E00004D0022E09D0032E14D10CE024206043B9
:1091F0000B494018054608350DE024206043084916
:109200004018051D07E02420604305494018054625
:109210001C3500E000BF00BF2846DFE7FFFF00006D
:109220000C080020F8B507460E460025384601F028
:10923000BBFC04461548844201D12120F8BD012E13
:1092400002D0022E1ED10EE024226243104BD2180F
:10925000916824226243D218108C08230022FEF762
:10926000AFF905460FE024226243094BD21851683A
:1092700024226243D218D08B08230022FEF7A0F9E3
:10928000054600E000BF00BF2846D7E7FFFF00000B
:109290000C080020F0B585B005460E4617460120A3
:1092A000C0060190012F24D000240BE0E0001349F8
:1092B000085CB04204D1E00040184068019003E02F
:1092C000601C84B21A2CF1D300BF8020694608725A
:1092D0000931284601F07AF9002004231A4601A931
:1092E000009003A8FCF788FDE88B002202A900F09B
:1092F000ABFA00212220415505B0F0BDE4AE0008D4
:10930000F8B504460026FCF723FD07467F2F02D060
:10931000052F00D0F8BD608C24490978884200DB15
:10932000F8E7608C2421484321494518207D08280E
:1093300000D0EFE7607DE0210840402819D004DC30
:10934000002810D0202820D107E0602817D08028DE
:109350001BD10021222041551EE02146284601F064
:109360007CFA064618E02146284601F05EFB0646D8
:1093700012E02146284601F082F906460CE021461B
:10938000284601F0B5F9064606E01E262946204685
:109390001630FFF70FFF00BF00BF002E04D00022E1
:1093A00031462846FFF776FF00BFB3E72C020020C6
:1093B0000C08002070B5002536E02C460021242042
:1093C00060431C4A8018203081702420604311467D
:1093D00040188068012189070840002808D049000A
:1093E00024206043801881602420604380184160FD
:1093F000242262430F4BD218916824226243D21870
:10940000108C08230022FEF7DBF824226243094B6C
:10941000D218516824226243D218D08B082300222C
:10942000FEF7CEF8681C85B2034800788542C4DB9D
:1094300070BD00000C0800202C02002070B5002533
:1094400037E02C46242060431C494018807E0128C8
:1094500014D1FCF777FC0321490241182420604312
:10946000164A80188160FCF76DFC0B21C901411878
:1094700024206043114A8018416018E02420604392
:109480000E49401880680121C9070843242161431F
:109490000A4A8918886024206043114640184068B1
:1094A0000121C90708432421614389184860681CC9
:1094B00085B2034800788542C3DB70BD0C080020EC
:1094C0002C02002010B50446002007490870242112
:1094D0000648FAF744FE002005490870054908705F
:1094E0000549087010BD00002C0200200C08002067
:1094F0002D02002038020020390200200146002001
:109500007047000070B500251F480068002802D190
:109510001E49086070BD1C4804681C4806686068E5
:10952000B04200D9F6E719480068801B1749086067
:109530006068B04200D2666803E06068801B6060CB
:109540002468002CF9D11048046818E060680028ED
:1095500014D125462C682846FDF71AFAE868002839
:1095600002D0E96828698847287D012802D0287D33
:10957000032804D12846FBF767FD00E02468002C8F
:10958000E4D100BFC6E700004402002048020020EA
:10959000F0B585B007460C463846FFF787F9054613
:1095A000002D02D1212005B0F0BD2868C00FC007F2
:1095B0000121C907884201D04620F4E76868007895
:1095C000002801D04620EEE701A82204110E0090E9
:1095D000200C02AB03AAFEF791FE06463046E2E7F6
:1095E000F7B582B00F461446002001900298FFF7AD
:1095F0005DF90646002E02D1212005B0F0BD30688D
:10960000C00FC0070121C907884201D04620F4E7F6
:10961000002F0AD1002C08D021463046FBF726FF48
:109620000546082D01D94720E7E70198E5E7F0B5A1
:1096300007460C4600263846FFF738F90546002D48
:1096400000D1F0BD002C01D1AE6808E0A968091D69
:10965000601E0C22504308180646083600BF00BFA3
:109660003046EEE7F0B507460C4600263846FFF7D1
:109670001DF90546002D00D1F0BD002C01D16E680A
:1096800008E06968091D601E0C2250430818064650
:10969000083600BF00BF3046EEE7F8B506460C4678
:1096A00000273046FFF702F90546002D01D12120A1
:1096B000F8BDE00FC007002815D12868C00FC0070B
:1096C0000121C907884204D02868A04201D0202087
:1096D000EEE7FF22823211462046FDF745FE0128C3
:1096E00001D12020E4E73846E2E7F0B506460C4613
:1096F00000273046FFF7DAF80546002D01D121207A
:10970000F0BD032C07D12868C00FC007E1078842CD
:1097100004D02020F4E7052C00D015273846EFE7C9
:10972000F8B507460C461546002000903846FFF76E
:10973000BDF80646002E01D12120F8BD3068C00FCB
:10974000C0070121C907884201D02020F5E7022C7B
:1097500004D1FD2D06D22020009003E0062C01D07C
:10976000152000900098E8E7F0B506460D46002762
:109770003046FFF79BF80446002C00D1F0BD2B00CB
:10978000FBF744FC071305070A130D1013002746C7
:109790000CE02746323709E027462C3706E02746FB
:1097A0002E3703E02746333700E000BF00BF3846BE
:1097B000E4E7F8B507460E4600253846FFF776F889
:1097C0000446002C01D12120F8BD012E06D0022E26
:1097D00027D0032E2ED0052E32D12CE0002120469A
:1097E000FBF744FE0090E08C2168009A01F01EFA1D
:1097F0000546002D03D1204601F0BEFA0546002D96
:109800000ED13220005DFE2805D3A18DE08CFDF73E
:109810001DFF054604E0E08C0021FDF717FF05461B
:109820000FE03220015D34200155204601F0A4FAFA
:10983000054606E005E0204601F09EFA054600E0F8
:1098400000BF00BF2846BFE7F7B584B00F4600242D
:1098500000200390019000900498FDF79BFE0546C0
:10986000002D02D10D2007B0F0BD287C012801D0C9
:109870003320F8E728461C30FDF746F80290022115
:1098800006980840002804D00298012801D14820F9
:10989000E9E70020464908700698C007C00F002875
:1098A00005D00021049801F03BF9044626E0287D0C
:1098B000032808D0287D102805D0287D082802D04C
:1098C000287D04281AD10021049801F029F90446C2
:1098D000002C13D0002609E020461530805DB95DCC
:1098E000884201D0002404E0701C86B2207DB04282
:1098F000F2DC00BF002C01D001200190002C02D02E
:10990000012000900EE0FDF7E7FC0446002C09D191
:10991000012027490870FDF7ABFB0B20FBF79AFEEF
:109920003E20A0E7019800283AD104982084A87E20
:10993000207568686060A97BA173A878002802D1AF
:109940000021E17301E00121E173A989A181002FC8
:109950000AD0002605E0B95D204615308155701CFF
:1099600086B2A87EB042F6DC0098002818D1029892
:10997000012803D12046FBF79FFB11E00121049849
:1099800001F0CEF803900398002806D0288B002819
:1099900003D02046FBF790FB02E02046FBF796FB46
:1099A000012003490870FDF763FB00205BE700001E
:1099B0001C02002070B504462546284600F044F9F4
:1099C00070BD000072B6042207A10948FAF7AEFB89
:1099D00000BFBFF34F8F07480749C860BFF34F8FE1
:1099E00000BF00BFFEE70000424F4F5400000000E0
:1099F000000100200400FA0500ED00E070B5054606
:109A00000648047806E0601EC4B2A000044A11585B
:109A100028468847002CF6D170BD00006801002060
:109A2000600100207047000070B5054606480478C4
:109A300006E0601EC4B2A000044A115828468847B8
:109A4000002CF6D170BD00006901002064010020E7
:109A500070470000F8B52448467824484778224CDF
:109A6000054623480078C007C00F002814D120788D
:109A7000062800D000266868401CA978405C0028B1
:109A800000D00127A878401CA870A878E9788842FF
:109A900016D10020A87013E02878062800D00027EF
:109AA0006068401CA178405C002800D00126A078A6
:109AB000401CA070A078E178884201D10020A070FD
:109AC0006078B04203D03046FFF798FF6670687840
:109AD000B84203D03846FFF7A7FF6F7004480078FC
:109AE000401C03490870F8BD4C01002054010020BF
