:020000040800F2
:10420000281B0020B161000809620008096200084B
:104210000962000809620008096200080000000045
:10422000000000000000000000000000096200081B
:1042300009620008000000000962000869B900086E
:1042400009620008096200080962000809620008A2
:104250000962000809620008096200080962000892
:104260000962000809620008096200080962000882
:104270000962000809620008096200080962000872
:1042800009620008096200080962000875B900089F
:1042900081B900088DB9000899B9000809620008C1
:1042A0000962000809620008096200080962000842
:1042B0000962000809620008096200080962000832
:1042C0000962000809620008096200080962000822
:1042D0000962000809620008096200080962000812
:1042E0000962000809620008096200080962000802
:1042F00009620008096200080962000809620008F2
:1043000009620008096200080962000809620008E1
:1043100009620008096200080962000809620008D1
:1043200009620008096200080962000809620008C1
:1043300009620008096200080962000809620008B1
:1043400009620008096200080962000809620008A1
:104350000962000809620008096200080962000891
:104360000962000809620008096200080962000881
:104370000962000809620008096200080962000871
:10438000096200080962000880B485B000AF0346E6
:10439000FB710023FB73FB7B18461437BD465DF8A9
:1043A000047B704780B400AF024B1846BD465DF8F1
:1043B000047B70478004002080B582B000AFFFF717
:1043C000F1FF78607B6800221A707B6800225A70C7
:1043D0007B6800229A707B680022DA707B6800227A
:1043E0001A710837BD4680BD80B582B000AFFFF7B7
:1043F000D9FF78607B681B78012B05D17B68002290
:104400001A70062001F026FD7B685B79032B03D030
:104410007B68DB78012B0DD17B681B79012B02D1E6
:10442000042001F017FD7B681B79032B02D00120CB
:1044300001F010FD7B681B79032B07D07B681B798B
:10444000002B03D07B68DB78012B09D17B685B797B
:10445000022B05D1052001F0FDFC042001F0FAFC3F
:104460007B681B79012B0AD17B685B79022B06D113
:104470007B68DB78002B02D1042001F0EBFC7B6829
:104480001B79012B15D17B685B79012B11D17B68DE
:10449000DB78012B03D1052001F0DCFC09E07B680F
:1044A0005B78012B05D1042001F0D4FC052001F03C
:1044B000D1FC7B681B79012B06D07B685B79012BD3
:1044C00002D1052001F0C6FC7B6800225A707B688F
:1044D00000229A707B680022DA707B685A797B68C8
:1044E0001A71002318460837BD4680BD80B58AB0D2
:1044F00000AF7860396000237B6200233B620023B9
:10450000FB610023BB617B681B8A9BB27B627B6A79
:1045100023F440537B623B68DB881A467B6A134373
:104520007B627B6A9AB27B681A827B689B899BB2AA
:104530007B627B6A23F4B05323F00C037B623B68FD
:104540009A883B681B8913439AB23B685B89134383
:104550009BB21A467B6A13437B627B6A9AB27B6882
:104560009A817B689B8A9BB27B627B6A23F440734F
:104570007B623B689B891A467B6A13437B627B6A3A
:104580009AB27B689A8207F10803184602F012FB80
:104590007B68314A934203D07B68304A934202D110
:1045A0007B693B6201E03B693B627B689B899BB214
:1045B0009BB21BB2002B0CDA3A6A13469B001344E1
:1045C0009A001A443B681B685B00B2FBF3F3FB6183
:1045D0000BE03A6A13469B0013449A001A443B6866
:1045E0001B689B00B2FBF3F3FB61FB691C4AA2FB57
:1045F00003235B091B017B627B6A1B09642202FBAC
:1046000003F3FA69D31ABB617B689B899BB29BB2A7
:104610001BB2002B0CDABB69DB003233104AA2FB61
:1046200003235B0903F007037A6A13437B620BE001
:10463000BB691B0132330A4AA2FB03235B0903F067
:104640000F037A6A13437B627B6A9AB27B681A8192
:104650002837BD4680BD00BF001001400014014056
:104660001F85EB5180B483B000AF78607B684FF456
:1046700016521A607B6800229A807B680022DA80DA
:104680007B6800221A817B680C225A817B68002299
:104690009A810C37BD465DF8047B704780B483B0C7
:1046A00000AF78600B46FB70FB78002B08D07B686E
:1046B0009B899BB243F400539AB27B689A8107E0CE
:1046C0007B689B899BB223F400539AB27B689A81E2
:1046D0000C37BD465DF8047B704700BF80B483B0E3
:1046E00000AF78600B467B807B88C3F308039AB2E7
:1046F0007B689A800C37BD465DF8047B704700BF2D
:1047000080B485B000AF78600B467B800023FB73DC
:104710007B681B889AB27B8813409BB2002B02D027
:104720000123FB7301E00023FB73FB7B1846143766
:10473000BD465DF8047B704780B483B000AF7860FD
:1047400039607B689B8ADAB23B681A703B68013338
:104750007A68928A120A92B2D2B21A703B68023315
:104760007A68D27E1A700C37BD465DF8047B7047BC
:1047700080B483B000AF786039607B6801331B7808
:104780009BB21B029AB27B681B789BB213439AB20E
:104790003B689A827B689A783B68DA760C37BD462C
:1047A0005DF8047B704700BF80B584B000AF7860CF
:1047B0000023FB7306F0B6FA0346BB73BB7B7F2B6B
:1047C00003D0BB7B052B00D05FE07B68DA8B304BDE
:1047D0001B789BB29A4200D357E07B68DB8B1A466A
:1047E0001346DB0013449B002A4A1344BB607B68DA
:1047F0001B7C082B00D048E07B685B7C03F0E00367
:10480000402B1FD0402B04D8002B13D0202B09D0D5
:1048100028E0602B1ED0802B24D1BB68002283F8B7
:10482000222028E07B68B868194600F07FF903462B
:10483000FB7320E07B68B868194600F00BFB034669
:10484000FB7318E07B68B868194600F025F803464A
:10485000FB7310E07B68B868194600F0E7F8034680
:10486000FB7308E01E23FB737B6812331846B9689C
:10487000FFF77EFF00BFFB7B002B05D0FB7BB868FA
:104880001946002200F086FB00BF1037BD4680BDF0
:10489000880400208C04002080B584B000AF7860CC
:1048A00039607B6893F82230002B01D05C2345E00F
:1048B0003B68123318467968FFF75AFF7B68998A7C
:1048C0007B68DA7E7B68084611461A4608F014FEBB
:1048D0000346FB73FB7B002B01D0FB7B2EE07B6848
:1048E0001B68184607F020FF0346BB81BB8903F015
:1048F0000103002B01D1172320E07B68997E7B68A0
:104900009A8A7B68DB7E084611461A4600F0F6FB61
:104910000346FB73FB7B002B0AD0FB7B292B05D1C5
:104920007B680D2283F82220002307E0FB7B05E053
:10493000786800F007F80346FB73FB7B18461037D6
:10494000BD4680BD80B588B002AF78607B681B68CB
:10495000184608F029F902467B68DA607B689B8A72
:10496000DBB27B737B689B8A1B0A9BB2DBB2BB7397
:104970007B68DB7EFB7307F10C03043318460021D0
:10498000042209F055FB7B68DB68042B1AD941230C
:104990003B737B6803F10C0207F10C03191D002324
:1049A0000093084611460422042307F0F7F87B68B9
:1049B00000221A617B6800225A777B68012283F803
:1049C000222023E07B68DB68DBB2C3F10403DBB2A7
:1049D0009B00DBB243F04303DBB23B737B680022F6
:1049E00083F822207B68196807F10C031A1D002345
:1049F0000093084611460022042307F0C5F9034638
:104A0000FB75FB7D002B01D0FB7D0BE07B68DA8B17
:104A100007F10C0310461946002202F0C1FC0346C0
:104A2000FB75FB7D18461837BD4680BD80B588B044
:104A300002AF786039607B6893F82230012B01D097
:104A40001E236EE007F108030133184600210722F8
:104A500009F0EEFA3B685B7C03F01003FB747B68A3
:104A60005B7FFA7C9A4201D024235AE0FB7C002B26
:104A700003D17B6810225A7702E07B6800225A77C4
:104A800000233B723A7AFB7C1343DBB23B727B68B8
:104A9000DB68072B02D907237B6114E07B68DB68A6
:104AA0007B613A7A7B69DBB2C3F10703DBB25B005F
:104AB000DBB21343DBB243F00103DBB23B727B6832
:104AC000002283F822200123BB747B681868BB7C1A
:104AD00007F10802D1187B681A69002300937B69EB
:104AE00007F052F903467B747B7C002B01D07B7C62
:104AF00017E07B68DA687B69D21A7B68DA607B68CA
:104B00001A697B691A447B681A617B68DA8B07F142
:104B1000080310461946002202F042FC03467B744B
:104B20007B7C18461837BD4680BD00BF90B58BB062
:104B300002AF786039600023FB600023BB77042359
:104B40007B777B6893F82230002B01D05C231FE138
:104B50003B68123318467968FFF70AFE7B68998A2A
:104B60007B68DA7E7B68084611461A4608F0C4FC6A
:104B70000346FB77FB7F002B01D0FB7F08E17B68BE
:104B80001B68184608F010F802467B68DA607B68FC
:104B90001B68184607F0C8FD03467B837B8B03F038
:104BA0000203002B01D11823F2E03B685B7C03F089
:104BB0000303022B1ED0032B11D0012B1ED13B6807
:104BC00003F1150207F10C0100230093084611467A
:104BD0000422042306F0C6FF0123BB7710E03B68E4
:104BE0005B7C03F00E039B087B767B7EC3F10403A2
:104BF000FB6005E07B68DB68FB6001E01E23C7E02B
:104C00007B68DA68FB689A420DD07B68DA68FB68DB
:104C10009A4201D21F23BBE07B8B03F00403002BDD
:104C200001D01F23B4E07B6819687B7F10333A689A
:104C3000134401330846194607F082FD0346FB770B
:104C4000FB7F002B01D0FB7FA2E07B68987E7B6816
:104C5000998A7B68DC7E7B7F10333A68134401338A
:104C6000224600F09BFA0346FB77FB7F002B01D026
:104C7000FB7F8DE0BB7F012B2DD160233B747B68D4
:104C80009B8ADBB27B747B689B8A1B0A9BB2DBB27C
:104C9000BB747B68DB7EFB7407F11003043318469A
:104CA0000021042209F0C4F97B68DA8B07F11003B4
:104CB00010461946002202F073FB0346FB777B681F
:104CC00000221A617B6800225A777B68022283F8EF
:104CD0002220FB7F5CE07B68DB68042B0ED87B68BE
:104CE00019687B6803F116020123009308461146F8
:104CF0000022042307F048F80346FB77FB7F002BD4
:104D000012D17B6818687B7F10333A681344591CB2
:104D1000FC687B6823330022009201930022234623
:104D200007F086F80346FB77FB7F002B01D0FB7F63
:104D30002EE0786800F07EFA0346FB77FB7F002BBD
:104D40001CD0FB7F292B05D17B680E2283F8222003
:104D500000231DE07B68DB68042B0DD87B68186896
:104D60007B6803F116017B682333012200920193D3
:104D70000022042307F05CF8FB7F09E07B680E2229
:104D800083F82220786800F007F80346FB77FB7F62
:104D900018462437BD4690BD80B586B000AF786018
:104DA0007B6819687B689A8A7B6893F82330084689
:104DB00011461A4608F076FC0346BB75BB7D002BF6
:104DC00001D0BB7D42E07B6893F822300E2B17D1D7
:104DD00060233B737B689B8ADBB27B737B689B8A17
:104DE0001B0A9BB2DBB2BB737B68DB7EFB7307F1F4
:104DF0000C03043318460021042209F019F915E0C8
:104E00007B685B7F002B02D11023FB7501E0002340
:104E1000FB75FB7D43F02003DBB23B7307F10C0312
:104E2000013318460021072209F002F97B68DA8B6A
:104E300007F10C0310461946002202F0B1FA0346AE
:104E4000BB757B68002283F82220BB7D184618378B
:104E5000BD4680BD90B58BB002AF7860396001234C
:104E6000FB777B6893F82230022B06D07B6893F89F
:104E700022300B2B01D05C2388E03B685B7C03F085
:104E80001003BB777B685B7FBA7F9A4201D02423F3
:104E90007CE0BB7F002B03D17B6810225A7702E0B5
:104EA0007B6800225A773B685B7C03F00E035B084B
:104EB0007B777B7FC3F10703BB617B68DA68BB69E3
:104EC0009A4201D2222361E07B681868FB7F10338D
:104ED0003A681344591C7B681C697B6823330022A1
:104EE000009201932246BB6906F0A2FF0346FB75C0
:104EF000FB7D002B01D0FB7D48E07B68DA68BB6955
:104F0000D21A7B68DA607B681A69BB691A447B68CD
:104F10001A613B685B7C03F00103002B1DD07868AD
:104F200000F088F90346FB75FB7D002B0AD0FB7D62
:104F3000292B05D17B680F2283F82220002325E04E
:104F4000FB7D23E07B680F2283F822207868FFF73F
:104F500023FF0346FB75FB7D18E0BB7F43F0200376
:104F6000DBB23B7307F10C03013318460021072223
:104F700009F05EF87B68DA8B07F10C0310461946DE
:104F8000002202F00DFA0346FB75FB7D184624371C
:104F9000BD4690BD80B588B002AF78600B46FB700F
:104FA0001346BB704FF00063BB60BB78012B35D05C
:104FB0000023FB8210E0FB8A1C4A12F83330FA7897
:104FC0009A4206D1FB8A194ADB0013445B68BB6036
:104FD00005E0FB8A0133FB82FB8A192BEBD9802386
:104FE0003B7307F10C03013378681946FFF7A4FB04
:104FF00007F10C03191D07F108020023009308466E
:1050000011460422042306F0C9FD7B68DA8B07F100
:105010000C0310461946002202F0C2F97B680022F8
:1050200083F822201837BD4680BD00BFCCE00008C1
:1050300080B483B000AF78600C4B1B78002B01D09C
:105040000D230DE0094B1B781946094A7B6842F88D
:105050002130064B1B780133DAB2044B1A7000235F
:1050600018460C37BD465DF8047B7047B00400203D
:10507000B404002080B483B000AF78600C4B1B7880
:10508000002B01D00D230DE0094B1B781946094A6E
:105090007B6842F82130064B1B780133DAB2044BAF
:1050A0001A70002318460C37BD465DF8047B704724
:1050B000BD040020C004002080B483B000AF78603D
:1050C0000C4B1B78002B01D00D230DE0094B1B78F6
:1050D0001946094A7B6842F82130064B1B78013398
:1050E000DAB2044B1A70002318460C37BD465DF83F
:1050F000047B7047BC040020B804002090B585B044
:1051000000AF0346FB710B46BB801346BB71002307
:105110007B730023FB731F4B1B78BB7319E0BB7BB6
:10512000013BBB73BB7B1C4A52F82340F979BA8818
:10513000BB790020A04703467B737B7B002B08D004
:105140007B7B292B03D1FB7B0133FB7301E07B7B52
:105150001BE0BB7B002BE2D10E4B1B78BB730BE03B
:10516000BB7B013BBB73BB7B0B4A52F82340F979F5
:10517000BA88BB790120A047BB7B002BF0D1FB7B19
:10518000002B01D0292300E0002318461437BD4628
:1051900090BD00BFB0040020B4040020B0B586B0BC
:1051A00002AF3B600346FB710B46BB801346BB71ED
:1051B0000023FB731D4B1B78BB7314E0BB7B013BCF
:1051C000BB73BB7B1A4A52F82340F979BA88BD7980
:1051D0003B68009300202B46A0470346FB73FB7BF4
:1051E000002B00D002E0BB7B002BE7D1FB7B002B28
:1051F00001D0FB7B16E00D4B1B78BB730EE0BB7B35
:10520000013BBB73BB7B0A4A52F82340F979BA8849
:10521000BD793B68009301202B46A047BB7B002B48
:10522000EDD1FB7B18461037BD46B0BDBD04002054
:10523000C004002090B585B000AF78600023FB73F8
:105240000023BB73214B1B787B731CE07B7B013BF2
:105250007B737B7B1E4A52F823407B68997E7B6878
:105260009A8A7B68DB7E0020A0470346FB73FB7BAA
:10527000002B08D0FB7B292B03D1BB7B0133BB73F5
:1052800001E0FB7B1EE07B7B002BDFD10F4B1B780B
:105290007B730EE07B7B013B7B737B7B0C4A52F87C
:1052A00023407B68997E7B689A8A7B68DB7E01203D
:1052B000A0477B7B002BEDD1BB7B002B01D02923AA
:1052C00000E0FB7B18461437BD4690BDBC040020AF
:1052D000B804002080B584B000AF03460A46FB80C6
:1052E00013467B710023FB60FB88184600F008F929
:1052F00003467B817B894FF6FF72934201D10023E5
:1053000027E07B79022B0ED0032B16D0012B00D087
:105310001EE07A891346DB0013449B0008330F4AD2
:105320001344FB6014E07A891346DB0013449B00AE
:105330000A4A13440433FB600AE07A891346DB000F
:1053400013449B001833054A13440433FB6000BF29
:10535000FB6818461037BD4680BD00BF8C04002096
:1053600080B584B000AF0346FB800023FB73FB884D
:10537000184600F0C5F80346BB81BB894FF6FF72A3
:10538000934201D1212300E0FB7B18461037BD4634
:1053900080BD00BF80B584B000AF03463A60FB809B
:1053A0000B467B710023FB73FB88184600F0A8F8BE
:1053B0000346BB81BB894FF6FF72934201D1212383
:1053C0003FE07B79012B1BD13B68002B38DBBA898E
:1053D0001E491346DB0013449B000B4408331B6833
:1053E000002B01DB20232CE038684FF4C0614FF420
:1053F000C06201F0A1FB0346012B21D1202320E054
:105400007B79022B1AD13B68002B19DBBA890F4933
:105410001346DB0013449B000B445B68002B01DB4D
:1054200020230EE038684FF4B0614FF4B06201F011
:1054300083FB0346012B03D1202302E01523FB73DA
:10544000FB7B18461037BD4680BD00BF8C04002092
:1054500080B584B000AF03460A46FB8013467B71DB
:105460000023FB73FB88184600F04AF80346BB8113
:10547000BB894FF6FF72934201D1212339E07B793A
:10548000012B02D0022B1AD032E0BA891B491346F5
:10549000DB0013449B000B4420331888BA8917495A
:1054A0001346DB0013449B000B4408331B6819466A
:1054B0000022082301F012FA0346FB7318E0BA89B0
:1054C0000E491346DB0013449B000B441833D88865
:1054D000BA890A491346DB0013449B000B445B68FE
:1054E00019460022082301F0F9F90346FB7300BFB7
:1054F000FB7B18461037BD4680BD00BF8C040020E2
:1055000080B485B000AF0346FB800023FB8111E02F
:10551000FA890F491346DB0013449B000B441833F0
:105520009B789BB2FA889A4201D1FB890AE0FB89F9
:105530000133FB81074B1B789BB2FA899A42E7D370
:105540004FF6FF7318461437BD465DF8047B70476D
:105550008C0400208804002080B582B000AF0023B6
:10556000FB805DE0FB88BB80BA8832491346DB00D4
:1055700013449B000B44203300229A70BA882D49B3
:105580001346DB0013449B000B4408331B6803F0F5
:105590008043002B14D0BA8826491346DB001344FD
:1055A0009B000B4408334FF000421A60BA8821492F
:1055B0001346DB0013449B000B444FF000425A603B
:1055C000BA881C491346DB0013449B000B4420336C
:1055D0001888BA8817491346DB0013449B000B4414
:1055E00008331B6819460022082301F077F9BA88AE
:1055F00010491346DB0013449B000B441833D88832
:10560000BA880C491346DB0013449B000B445B68CB
:1056100019460022082301F061F9FB880133FB8061
:10562000054B1B789BB2FA889A429BD30837BD463C
:1056300080BD00BF8C0400208804002090B583B09A
:1056400000AF0023FB8051E0FB88BB80BA882C4967
:105650001346DB0013449B000B4418339B78012B4B
:105660001BD1BC8805F052FB034603F5C0622449F8
:105670002346DB0023449B000B4408331A60BC889C
:1056800005F044FB034603F5B0621D492346DB00E9
:1056900023449B000B445A6025E0BA88B988184817
:1056A0000B46DB000B449B00034408331B6843F0AC
:1056B000004113481346DB0013449B0003440833A6
:1056C0001960BA88B9880E480B46DB000B449B0072
:1056D00003445B6843F0004109481346DB00134470
:1056E0009B0003445960FB880133FB80054B1B780A
:1056F0009BB2FA889A42A7D30C37BD4690BD00BF33
:105700008C0400208804002080B582B000AF78604F
:10571000094B00221A7009480021242208F088FC55
:10572000074B00221A70074B00221A70064B00220A
:105730001A700837BD4680BD880400208C04002004
:10574000B0040020BC040020BD04002090B585B04A
:1057500000AF0346FB71324B1B78002B01D00A23AC
:1057600059E02F4B1B78FB81FA892E491346DB0049
:1057700013449B000B441833FA799A70FC89284B28
:105780001B789BB2002000211A4601F031F8034635
:105790001946244A2346DB0023449B001344183354
:1057A0000A46DA80FA891F491346DB0013449B003E
:1057B0000B441833DB884FF6FF72934201D132233A
:1057C00029E0FC89164B1B789BB2012000211A4668
:1057D00001F00EF803461946124A2346DB00234423
:1057E0009B00134420330A461A80FA890D49134658
:1057F000DB0013449B000B4420331B884FF6FF72E1
:10580000934201D1322306E0054B1B780133DAB213
:10581000034B1A70002318461437BD4690BD00BFD5
:10582000880400208C04002080B588B000AF0346B7
:105830003960FB80544B1B7803F0FE03002B03D12F
:10584000514B00221A7006E04F4B1B7843F00103C6
:10585000DAB24D4B1A7005F065FA0346FB75FB7D15
:105860007F2B04D0FB7D052B01D00E2387E0FB8826
:10587000DBB23B73FB881B0A9BB2DBB27B73424BF0
:105880001B78BB73FB8803F47F43002B04D0BB7BE6
:1058900043F00103DBB2BB733B68002B11D1002343
:1058A000FB770AE0FB7F033307F120021344002259
:1058B00003F8142CFB7F0133FB77FB7F042BF1D91A
:1058C00013E00023FB770DE0FB7F0333FA7F396899
:1058D0000A44127807F120010B4403F8142CFB7FD3
:1058E0000133FB77FB7F042BEED9284B1A8807F195
:1058F0000C0310461946002201F052FD0346BB7509
:10590000FB88002B3AD0224B1B78BB77204B1B78AF
:10591000002B02D0BB7F013BBB770EE0BB7F002B8F
:1059200008D1BB7FBA7F013A1A4951F822201949A0
:1059300041F82320BB7F013BBB77BB7F002BEDD120
:105940003B68002B02D1FB88BB610AE0FA883B6808
:1059500001331B781B041A433B681B781B06134357
:10596000BB610C4ABB691360094B1B78002B05D146
:10597000074B1B780133DAB2054B1A70BB7D184612
:105980002037BD4680BD00BFC4040020CC040020E9
:10599000D4040020D004002080B584B000AF0346BA
:1059A0003960FB80124B1B78FB7311E0FB7B013BE2
:1059B000FB73FB7B0F4A52F82330FA881046396894
:1059C00098470346BB73BB7B002B01D050230AE0F2
:1059D000FB7B002BEAD1FB8818463968FFF724FFD0
:1059E0000346BB73BB7B18461037BD4680BD00BF66
:1059F000DC040020D804002080B485B000AF03464A
:105A00000A46FB8013467B710023FB60FB88A3F5ED
:105A10008053013B142B4CD801A252F823F000BF55
:105A2000755A0008B35A00087B5A0008B35A000898
:105A3000B35A0008B35A0008B35A0008B35A000812
:105A4000B35A0008B35A0008B35A0008B35A000802
:105A5000B35A0008B35A0008B35A0008B35A0008F2
:105A6000B35A0008B35A0008B35A0008A75A0008EE
:105A7000AD5A0008134BFB601CE07B79002B02D170
:105A8000114BFB600EE0104B1B787A799A4202D9D9
:105A90000023FB6006E07B79013B9B000B4A13442B
:105AA000FB6007E006E00A4BFB6003E0094BFB608C
:105AB00000E000BFFB6818461437BD465DF8047B64
:105AC000704700BFC4040020D4040020D00400208C
:105AD000C8040020D604002080B584B000AF03467F
:105AE0003A60FB800B467B710023FB73FB8841F21D
:105AF0001402934217D10E4B1B683A689A4212D097
:105B00003B68002B05DB0A4B1B68002B01DB2023C5
:105B10000AE038688121812201F00EF80346012B4A
:105B200001D1202300E0FB7B18461037BD4680BD25
:105B3000C804002080B584B000AF03460A46FB804D
:105B400013467B710023FB73FB8841F214029342DE
:105B50000CD041F21502934215D041F20302934258
:105B600000D01BE0104B00221A7017E00F4B1A8870
:105B70000F4B1B68104619460022082300F0AEFEAA
:105B80000346FB730AE0094B1A880A4B1B88104630
:105B9000194600F0FFFE0346FB7300BFFB7B18466F
:105BA0001037BD4680BD00BFD4040020CC040020C7
:105BB000C8040020D604002080B485B000AF03469E
:105BC000FB800B467B7113463B710023FB73FB8804
:105BD00041F20102934207D07B79002B02D13B793D
:105BE000002B01D02023FB73FB7B18461437BD46E6
:105BF0005DF8047B704700BF80B500AF054B1A8885
:105C0000054B1B68104619460022082300F066FE6B
:105C100080BD00BFCC040020C804002080B582B045
:105C200000AF05F073F803468033194A13603B4612
:105C300041F2140000211A4607F0B0FB0346FB7145
:105C4000FB79002B08D13B68002B05DA104B1B6851
:105C500043F000430E4A13603B1D41F21500002142
:105C60001A4607F0EBFA0346FB71FB79002B0AD1C9
:105C7000BA88084B1A80084B1A88064B1B881046B6
:105C8000194600F087FE00BF0837BD4680BD00BF43
:105C9000C8040020D6040020CC04002080B500AF4A
:105CA00000200821002200F0A3FD03461A46064BFF
:105CB0001A80054B1B884FF6FF72934201D13223A5
:105CC00000E00023184680BDCC04002080B483B0DF
:105CD00000AF786039600C4B00221A700B4B002229
:105CE0001A600B4B4FF6FF721A800A4B00221A8083
:105CF000094B00221A70094B00221A700C37BD465E
:105D00005DF8047B704700BFC4040020C804002075
:105D1000CC040020D6040020D4040020DC040020A1
:105D200080B500AF00F006F801F062FD04F05AFD06
:105D300080BD00BF80B500AF0F4B1B78002B07D094
:105D400000F020F80346002B02D10B4B00221A7002
:105D50000A4B1B78002B04D0084B00221A7002F06B
:105D60002FFB074B1B78002B04D0054B00221A7029
:105D700000F04EFA80BD00BFE0040020E1040020E6
:105D8000E204002080B58AB000AF3B1D184601F048
:105D900045FA034687F8273097F82730002B02D1C1
:105DA00097F827302EE097F82030052B27D801A24E
:105DB00052F823F0EB5D0008FF5D0008CD5D0008A0
:105DC000E15D0008F55D0008D75D00083B1D184641
:105DD00004F036FE14E03B1D184602F06FFC0FE0A5
:105DE0003B1D184605F084F90AE03B1D1846FEF7F6
:105DF000DBFC05E03B1D184602F02AFC00E000BF7A
:105E000097F8273018462837BD4680BD80B483B048
:105E100000AF0346FB71FB79012B07D0022B09D0A1
:105E2000002B0BD1084B01221A7007E0074B01220F
:105E30001A7003E0064B01221A7000BF0C37BD46F2
:105E40005DF8047B704700BFE1040020E0040020FF
:105E5000E204002080B584B000AF0346FB71032349
:105E60003B730023BB730023FB730DE0FA7B4D49AA
:105E700013465B0013440B441B78FA799A4200D115
:105E800005E0FB7B0133FB73FB7B0B2BEED9FB7B2C
:105E90000C2B00D183E0FA7B424913465B0013448C
:105EA0000B449B78032B40D0FA7B3E4913465B00A2
:105EB00013440B449B783B733B4B1B783A7B9A42D1
:105EC00030D03B7B002B01D105F0F8F9374B1B7824
:105ED0007B7309E07B7B013B7B737B7B344A52F80D
:105EE00023303A7B104698477B7B002BF2D13B7BDB
:105EF000012B09D0022B10D0002B00D012E006207D
:105F0000012100F0F7FF0DE00620002100F0F2FF74
:105F10000220002100F0EEFF04E00220012100F049
:105F2000E9FF00BF204A3B7B1370FA7B1D491346F3
:105F30005B0013440B445B78012B09D11D4B1B788C
:105F4000FA799A4204D01B4AFB791370FB79BB7330
:105F5000FA7B144913465B0013440B445B78022B15
:105F600009D1154B1B78FA799A4204D0124AFB7971
:105F70001370FB79BB73BB7B002B10D00F4B1B78CE
:105F80007B7309E07B7B013B7B737B7B0C4A52F884
:105F90002330FA79104698477B7B002BF2D11037DB
:105FA000BD4680BD9CE10008E3040020E40400201D
:105FB000E80400201100002010000020E50400206B
:105FC000EC04002080B400AF0D4B00221A700D4B82
:105FD00000221A700C4B00221A700C4B00221A700F
:105FE0000B4B09221A700B4B02221A700A4B00222B
:105FF0001A700A4B00221A70BD465DF8047B704788
:10600000E0040020E1040020E2040020E30400207A
:106010001000002011000020E4040020E50400200E
:1060200080B483B000AF78600C4B1B78002B01D09C
:106030000D230DE0094B1B781946094A7B6842F88D
:106040002130064B1B780133DAB2044B1A7000235F
:1060500018460C37BD465DF8047B7047E404002009
:10606000E804002080B483B000AF78600C4B1B784C
:10607000002B01D00D230DE0094B1B781946094A6E
:106080007B6842F82130064B1B780133DAB2044BAF
:106090001A70002318460C37BD465DF8047B704724
:1060A000E5040020EC040020B0B58AB002AF7860AF
:1060B0003A4B07F108041D460FCD0FC42B6823602F
:1060C00007F10803184604F085FC00230093344BC5
:1060D000019334481121344A2C2307F03FFE4FF43A
:1060E0007A7002F0D5F901F08FF80120FFF72EFB4E
:1060F0000346FB77FB7F002B01D0FB7F49E04FF489
:106100007A731846012105F0FBFA0346FB77FB7F03
:10611000002B01D0FB7F3CE0FFF7C0FD0346FB777F
:10612000FB7F002B01D0FB7F33E0FE2100224FF4E8
:106130007A7400230093002301930120234603F087
:10614000F9FC0346FB77FB7F002B01D0FB7F20E0AF
:10615000FE21002240F6B834144B00930120234660
:1061600003F0B8FD0346FB77FB7F002B01D0FB7FDC
:106170000FE07B68002B01D00A230AE0002004F026
:106180001BFE0346FB77FB7F002B01D0FB7F00E06B
:10619000002318462037BD46B0BD00BF78E4000894
:1061A00004E4000860E3000800E20008E8E30008F7
:1061B00080B582B000AF0F4B7B600F4B3B6007E0B8
:1061C0003B681A1D3A607A68111D796012681A607E
:1061D0003B680A4A9342F3D309480A494FF0000248
:1061E0008842B8BF40F8042BFADB00F043F80837C8
:1061F000BD4680BDD8E700081000002080040020C4
:1062000080040020280B002080B400AFFEE700BF10
:1062100080B582B000AF00233B600F4B1B687B60F2
:106220000D4B00221A6011E07B683B603B681B68E5
:106230007B603B6800221A603B685B68002B05D0DE
:106240003B685B683A689268104698477B68002B09
:10625000EAD10837BD4680BDFC04002080B400AF01
:10626000034B00221A60BD465DF8047B704700BFF7
:10627000FC04002080B582B000AF514A3B46106854
:10628000186012791A7105F039FCFA2003F0A4FDA8
:106290000346002B02D0012000F00EFA4FF47A7072
:1062A00005F080FB0346002B02D0022000F004FA28
:1062B0000020FFF7F9FE0346002B05D0414801F00E
:1062C00025FF012000F0F8F93F4804F093FC034655
:1062D000002B02D0032000F0EFF93C4805F0B8F89D
:1062E0000346002B02D0042000F0E6F93848FEF700
:1062F0009FFE0346002B02D0052000F0DDF9354853
:10630000FEF7B8FE0346002B02D0062000F0D4F9B9
:106310003148FEF7D1FE0346002B02D0072000F0E3
:10632000CBF92E4802F0C8FE0346002B02D008200D
:1063300000F0C2F92A4802F0E1FE0346002B02D029
:10634000092000F0B9F9274800F00EFF0346002BA2
:1063500002D00A2000F0B0F9234800F02DFF0346D8
:10636000002B02D00B2000F0A7F92048FFF758FEC1
:106370000346002B02D00C2000F09EF91C48FFF7CA
:1063800071FE0346002B02D00D2000F095F962B695
:1063900003F05EFE0346002B02D00E2000F08CF9C5
:1063A0003B4641F234201946FFF73EFA0346002BE4
:1063B00002D00F2000F080F9FFF7B2FCFCE700BF2D
:1063C000A0E400088CE40008F5630008616400089C
:1063D0008D640008CD6400080D6500082164000884
:1063E000416400087966000899660008896500081C
:1063F000DD65000880B582B000AF03460A46FB7138
:106400001346BB71BA79FB79044811461A4601F06C
:1064100069FE002318460837BD4680BDA8E4000881
:1064200080B582B000AF0346FB80FB880348194665
:1064300001F058FE0837BD4680BD00BFD0E400081B
:1064400080B582B000AF0346FB80FB880348194645
:1064500001F048FE0837BD4680BD00BFECE40008EF
:1064600080B582B000AF0346FB710B46BB7113468B
:106470007B71B979FA797B79034801F033FE00BF6B
:106480000837BD4680BD00BF0CE5000890B585B05B
:1064900002AF0446084611461A462346FB710346DE
:1064A000BB710B46BB801346FB70F979BA79BC8887
:1064B000FB7800930448234601F014FE002318469D
:1064C0000C37BD4690BD00BF38E5000890B585B0DB
:1064D00002AF0446084611461A462346FB7103469E
:1064E000BB710B46BB801346FB70F979BA79BC8847
:1064F000FB7800930448234601F0F4FD002318467E
:106500000C37BD4690BD00BF70E5000890B587B060
:1065100002AF0446084611461A462346FB7103465D
:10652000BB710B46BB801346FB70F979BA79BC8806
:10653000FB7800931348234601F0D4FDBB8841F655
:106540005172934218D1FB78012B15D107F10E033C
:1065500041F6517001211A4605F04EFB0346FB73CC
:10656000FB7B002B01D0FB7B07E0BB7B002B01D02A
:10657000002302E001F0B8FF002318461437BD469F
:1065800090BD00BFB0E5000880B582B000AF034603
:10659000FB71FB79032B17D801A252F823F000BF3F
:1065A000B1650008B9650008C1650008C965000843
:1065B000074801F0ABFD08E0064801F0A7FD04E044
:1065C000054801F0A3FD00E000BF0837BD4680BDCF
:1065D000E8E50008F8E5000804E6000880B582B0A8
:1065E00000AF0346FB71FB79063B062B2CD801A2BA
:1065F00052F823F0116600081966000821660008A9
:1066000029660008316600083966000841660008FE
:10661000124801F07BFD1DE0114801F077FD19E003
:10662000104801F073FD15E00F4801F06FFD11E017
:106630000E4801F06BFD0DE00D4801F067FD09E02B
:106640000B4801F063FD05E0FB790A48194601F0AB
:1066500049FD00BF0837BD4680BD00BF14E60008F5
:106660002CE6000848E6000868E6000884E6000812
:10667000A0E60008BCE6000880B582B000AF034683
:10668000FB71FB790348194601F02CFD0837BD4624
:1066900080BD00BFDCE6000880B582B000AF0346D5
:1066A000FB71FB790348194601F01CFD0837BD4614
:1066B00080BD00BFE8E6000880B582B000AF78601A
:1066C0000248796801F00EFDFEE700BFF4E600081D
:1066D00080B584B000AF0346FB800023FB73FA88CB
:1066E000424913465B0013441B010B449B78002B6B
:1066F00035D1FA883D4913465B0013441B010B4416
:10670000DB7A002B2BD1FA88384913465B001344FF
:106710001B010B4408331B79BB73FA8833491346BA
:106720005B0013441B010B44083300221A71FA88E2
:1067300013465B0013441B012C4A134404331846D0
:1067400003F096FD0346FB73FA88284913465B0065
:1067500013441B010B440833BA7B1A7140E0FA88DA
:10676000224913465B0013441B010B449B78012B09
:1067700029D1FA881D4913465B0013441B010B44C1
:10678000DB7A012B1FD1FA88184913465B001344AA
:106790001B010B440022DA72FA8813465B00134493
:1067A0001B01124A13440433184603F061FD0346EB
:1067B000FB73FA880D4913465B0013441B010B441D
:1067C0000122DA720CE0FA8813465B0013441B01C5
:1067D000064A13440433184603F04AFD0346FB738C
:1067E000FB7B18461037BD4680BD00BF0405002066
:1067F00080B485B000AF0346FB710B46BB711346F6
:10680000BB80344B1B88072B02D94FF6FF735AE02D
:10681000304B1B88FB812F4B1B8801339AB22D4BC9
:106820001A80FA89FB89013398B22B4913465B0021
:1068300013441B010B4402461A80FA892649134669
:106840005B0013441B010B44FA799A70FA892249C0
:1068500013465B0013441B010B44083300221A71DA
:10686000FA891D4913465B0013441B010B444FF08A
:1068700000425A60FA89184913465B0013441B0111
:106880000B444FF6FF721A81FA89134913465B00D5
:1068900013441B010B441033BA791A70FA890E495C
:1068A00013465B0013441B010B441033BA885A8013
:1068B000FA89094913465B0013441B010B4410334A
:1068C00000229A80FB8918461437BD465DF8047B88
:1068D000704700BF000500200405002080B584B08B
:1068E00000AF396011461A460346FB800B467B71A8
:1068F00013463B71254B1B88FA889A4201D93223F3
:1069000040E0FA8813465B0013441B01204A1344FD
:10691000FB603B68002B03DAFB6800221A7307E078
:106920003B79082B01D920232CE0FB6801221A7344
:106930003B6823F06042FB685A603B6803F00053F9
:10694000002B03D0FB6801229A7202E0FB68002250
:106950009A727B79002B03D1FB680022DA7202E085
:10696000FB680122DA72FB683A799A75FB8818464F
:10697000FFF7AEFE0346FB72FB7A002B01D0FB7AD9
:1069800000E0002318461037BD4680BD00050020FA
:106990000405002080B582B000AF03460A46FB80A4
:1069A0001346BB800E4B1B88FA889A4201D93223CA
:1069B00011E0FA880B4913465B0013441B010B449A
:1069C0001033BA889A80BB88002B03D1FB88184605
:1069D00000F072FF002318460837BD4680BD00BF97
:1069E000000500200405002080B584B000AF0346F8
:1069F000FB80104B1B88FA889A4201D9322315E09C
:106A0000FA880D4913465B0013441B010B440833FD
:106A100000221A71FB881846FFF75AFE0346FB73E3
:106A2000FB7B002B01D0FB7B00E0002318461037D6
:106A3000BD4680BD000500200405002080B483B061
:106A400000AF0346FB800A4B1B88FA889A4201D9A3
:106A5000002306E0FA8813465B0013441B01054A35
:106A6000134418460C37BD465DF8047B704700BFE1
:106A7000000500200405002080B485B000AF7860D8
:106A80000023BB600023FB812EE0FA8913465B00E4
:106A900013441B011A4A1344BB607B681A68BB6825
:106AA0005B689A421DD17B689A79BB689B7A9A424F
:106AB00017D1BB681B7B012B13D1BB689B78012BC3
:106AC0000DD0BB689B78002B0BD17B68DB79012B49
:106AD00007D17B68DA79BB68DB7A9A4201D1BB685F
:106AE00008E0FB890133FB81064B1B88FA899A4237
:106AF000CBD3002318461437BD465DF8047B70479E
:106B0000040500200005002080B582B000AF0023FE
:106B1000FB8006E0FB881846FFF766FFFB88013321
:106B2000FB80044B1B88FA889A42F3D30837BD4692
:106B300080BD00BF0005002080B487B000AFF860C2
:106B4000B9607A600023FB751BE0FB7D124A52F8A6
:106B50003320FB689A4211D8FB7D0F4ADB001344B7
:106B60005A68FB689A4209D3FA68BB689A4203D311
:106B7000FA687B689A4201D9012306E0FB7D013364
:106B8000FB75FB7D072BE0D9002318461C37BD465B
:106B90005DF8047B704700BF00E7000880B400AFD9
:106BA000034B00221A80BD465DF8047B704700BF8E
:106BB0000005002080B489B000AF78600023BB617D
:106BC00000237B610023FB6102233B610023FB6008
:106BD0000223BB60484B9B6803F00C03BB61BB699D
:106BE000042B07D0082B09D0002B3FD17B68434AE8
:106BF0001A603FE07B68424A1A603BE03E4B5B68AC
:106C000003F480039B0DFB603B4B5B6803F03F0389
:106C1000BB60FB68002B0DD0394ABB68B2FBF3F2B6
:106C2000354B596847F6C0730B409B0903FB02F3D1
:106C3000FB610CE0314ABB68B2FBF3F22E4B5968A2
:106C400047F6C0730B409B0903FB02F3FB612A4B21
:106C50005B6803F440331B0C01335B003B61FA6952
:106C60003B69B2FBF3F27B681A6003E07B68234A5E
:106C70001A6000BF204B9B6803F0F003BB61BB6947
:106C80001B09BB611F4ABB6913441B78DBB27B61E4
:106C90007B681A687B69DA407B685A60164B9B6890
:106CA00003F4E053BB61BB699B0ABB61154ABB6936
:106CB00013441B78DBB27B617B685A687B69DA40DE
:106CC0007B689A600C4B9B6803F46043BB61BB69B3
:106CD0005B0BBB610B4ABB6913441B78DBB27B6166
:106CE0007B685A687B69DA407B68DA602437BD4686
:106CF0005DF8047B704700BF003802400024F400B8
:106D000000127A002400002080B483B000AF7860C5
:106D10000B46FB70FB78002B06D00949084B1A6B19
:106D20007B6813430B6306E00549054B1A6B7B68D0
:106D3000DB4313400B630C37BD465DF8047B7047A3
:106D40000038024080B483B000AF78600B46FB701F
:106D5000FB78002B06D00949084B1A6C7B6813435B
:106D60000B6406E00549054B1A6C7B68DB43134056
:106D70000B640C37BD465DF8047B70470038024059
:106D800080B483B000AF78600B46FB70FB78002BBB
:106D900006D00949084B1A6A7B6813430B6206E068
:106DA0000549054B1A6A7B68DB4313400B620C37BD
:106DB000BD465DF8047B70470038024080B582B064
:106DC00000AF0346FB71204B1B78012B04D100F070
:106DD00003F91E4B00221A701B4AFB7913701A4BE1
:106DE00000229A70FA7913465B0013445B00184A3C
:106DF0001344154A5360144B5B681A78124BDA70CF
:106E0000FB79002B0ED1114B1B78002B01D100F028
:106E1000E3F8104B1B78002B03D1002000F086F91B
:106E20000EE00DE00B4B1B78012B09D0FB79012BF9
:106E300003D1002000F0A6F802E0012000F0A2F843
:106E40000837BD4680BD00BF840600208C060020A8
:106E500040E700089406002080B582B000AF0346EA
:106E6000FB71204B1B78012B04D100F0B5F81E4BB1
:106E700000221A701B4AFB7913701A4B00229A7079
:106E8000FA7913465B0013445B00184A1344154A11
:106E90005360144B5B681A78124BDA70FB79002B45
:106EA0000ED1114B1B78002B01D100F095F8104B3F
:106EB0001B78002B03D1002000F01AF90EE00DE042
:106EC0000B4B1B78012B09D0FB79012B03D1002040
:106ED00000F058F802E0012000F054F80837BD46F1
:106EE00080BD00BF8C0600208406002040E700081B
:106EF0009406002080B584B000AF03460A46FB71BB
:106F00001346BB71BB79012B08D1FB7901229A4052
:106F10001A4B1B681343194A136009E0FB790122DD
:106F200002FA03F3DA43154B1B681340134A13604C
:106F3000124B1B68002B03D10020FFF78DFF19E0D7
:106F40000723FB7313E0FB7B013BFB730B4B1B68BD
:106F5000FA7B0B498A5CD34003F00103002B06D077
:106F6000FB7B074AD35C1846FFF776FF02E0FB7B0A
:106F7000002BE8D11037BD4680BD00BFC006002001
:106F80006CE7000880B586B002AF0346FB71FB7961
:106F9000012B02D10B4BFB6002E04CF25033FB6043
:106FA000012300930848F968084A002301F004F916
:106FB000074B01221A70074B00221A701037BD468A
:106FC00080BD00BF400D030098060020FD6F000843
:106FD00094060020B006002080B500AF044801F000
:106FE00035F9044B00221A70034B00221A7080BD41
:106FF0009806002094060020B006002080B586B0D8
:1070000000AF7860374B5B78FB75374B5B78BB75AF
:10701000344B3B61344BFB60344B1B7803F0010372
:10702000002B1FD13B691B78062B01D00023FB7579
:10703000FB685B68FA68927813445B78002B01D098
:107040000123BB75FB689B780133DAB2FB689A7049
:10705000FB689A78FB68DB789A4222D1FB680022B1
:107060009A701EE0FB681B78062B01D00023BB75CD
:107070003B695B683A69927813445B78002B01D0D6
:107080000123FB753B699B780133DAB23B699A7047
:107090003B699A783B69DB789A4202D13B690022CE
:1070A0009A703B695B78FA7D9A4206D0FB7D184660
:1070B00000F03CF83B69FA7D5A70FB685B78BA7D5A
:1070C0009A4206D0BB7D184600F012F8FB68BA7DE4
:1070D0005A70064B1B780133DAB2044B1A7018371A
:1070E000BD4680BD840600208C060020B00600202E
:1070F00080B584B000AF0346FB710A4B1B78FB736D
:1071000009E0FB7B013BFB73FB7B074A52F8233012
:10711000FA7910469847FB7B002BF2D11037BD4619
:1071200080BD00BFBD060020B806002080B584B039
:1071300000AF0346FB710A4B1B78FB7309E0FB7B36
:10714000013BFB73FB7B074A52F82330FA79104668
:107150009847FB7B002BF2D11037BD4680BD00BFA6
:10716000BC060020B406002080B582B000AF786075
:107170000E4B1B78002B01D00D2312E00B4B1B781C
:1071800019460B4A7B6842F82130084B1B780133C3
:10719000DAB2064B1A70074B5B781846FFF7C6FF4A
:1071A000002318460837BD4680BD00BFBC0600203E
:1071B000B40600208C06002080B582B000AF786055
:1071C0000E4B1B78002B01D00D2312E00B4B1B78CC
:1071D00019460B4A7B6842F82130084B1B78013373
:1071E000DAB2064B1A70074B5B781846FFF780FF40
:1071F000002318460837BD4680BD00BFBD060020ED
:10720000B80600208C06002080B500AF0020FFF7F4
:10721000D5FD0020FFF720FE80BD00BF80B586B001
:1072200000AF786000237B610023FB740023BB74F4
:107230005CE0344B1A88344B1B889A421DD00123E2
:10724000BB74314B1B8801339AB22F4B1A802E4BE3
:107250001B88092B02D92C4B00221A802A4B1B8831
:107260005B012A4A13447B61274B1A88254B1B88F4
:107270009A4202D10920FEF7EDFDBB7C012B28D1FB
:107280007B69002B25D00023FB747B6904331846EF
:10729000FFF7F2FBF860FB68002B10D17B695B689D
:1072A00023F07F03B3F5E06F13D17B6902221A77D5
:1072B0007B694FF6FF72DA830123FB7409E0FB68F8
:1072C0001A7C7B691A77FB685A8A7B69DA83012307
:1072D000FB74FB7C012B09D17B69002B06D07868FD
:1072E0007969202206F00AFE012306E0054B1A8880
:1072F000054B1B889A429CD1002318461837BD467F
:1073000080BD00BF0408002006080020C40600203D
:1073100080B483B000AF0E4B1B880133FB80FB8829
:10732000092B01D90023FB800A4B1B88FA889A425B
:1073300004D1094B01221A70002303E0FB885B0192
:10734000064A134418460C37BD465DF8047B704767
:10735000040800200608002078090020C406002048
:1073600080B582B000AF0C4B1B880133FB80FB88DB
:10737000092B01D90023FB80084B1B88FA889A420D
:1073800003D10820FEF766FD02E0034AFB88138064
:107390000837BD4680BD00BF040800200608002055
:1073A00080B588B000AF03463960FB8013467B711F
:1073B0000023FB6100237B6100237B7600233B7667
:1073C000FB881846FFF73AFB38613B69002B01D177
:1073D0000D23CAE03B691B7B012B01D03323C4E0A2
:1073E0003B691833184600F061FF0346FB737B7955
:1073F00003F00203002B04D0FB7B012B01D14823B7
:10740000B3E05C4B00221A707B7903F00103002B80
:1074100006D0FB881846002100F03AF9F86135E003
:107420003B691B7C032B0BD03B691B7C102B07D0CB
:107430003B691B7C082B03D03B691B7C042B25D1AB
:10744000FB881846002100F023F9F861FB69002B46
:107450001CD000237B830EE07B8BFA6913445A7C9B
:107460007B8B3968CB5C9A4202D00023FB6108E039
:107470007B8B01337B83FB691B7C9BB27A8B9A42AB
:10748000EAD3FB69002B01D001237B76FB69002B3B
:1074900002D001233B760FE000F044F9F861FB696C
:1074A000002B09D1334B01221A7002F039FF0B2057
:1074B000FEF7D0FC3E2358E07B7E002B4FD1FB69CA
:1074C000FA889A833B699A7DFB691A743B695A680A
:1074D000FB695A603B699A7AFB699A723B699B78AF
:1074E000002B03D1FB690022DA7202E0FB69012262
:1074F000DA723B691A89FB691A8100237B830AE0EF
:107500007B8B7A8B3968895CFA6913440A465A7412
:107510007B8B01337B833B699B7D9BB27A8B9A4249
:10752000EED33B7E002B1AD1FB7B012B03D1F869F4
:1075300000F022F813E0FB881846012100F0A8F8BB
:1075400078617B69002B07D03B699B8A002B03D0B5
:10755000F86900F011F802E0F86900F025F8054B31
:1075600001221A7002F0DCFE002318462037BD46C7
:1075700080BD00BF3400002080B485B000AF7860CB
:10758000084B1B68FB60074A7B6813607B68FA68DE
:107590001A627B6801229A771437BD465DF8047B36
:1075A000704700BF7009002080B485B000AF7860DC
:1075B0000F4B1B68FB60FB68002B03D10C4A7B68F8
:1075C00013600AE002E0FB681B6AFB60FB681B6A51
:1075D000002BF8D1FB687A681A627B6800221A6275
:1075E0007B6802229A771437BD465DF8047B7047AA
:1075F0007409002080B586B000AF786000233B613D
:10760000214B1B687B610EE07B699B8B1846FFF763
:1076100015FAF860FA687B689A4201D17B693B6190
:107620007B691B6A7B617B69002BEDD13B69002B79
:1076300024D0164B00221A70134B1A683B699A42E9
:1076400004D13B691B6A104A13600FE00E4B1B68A4
:107650007B6102E07B691B6A7B617B691A6A3B691B
:107660009A42F7D13B691A6A7B691A623869FFF757
:107670009BFF064B01221A7002F052FE3B6918462E
:107680001837BD4680BD00BF7009002034000020BF
:1076900080B485B000AF03460A46FB8013467B7179
:1076A0000023BB601D4B1B68FB6009E0FB689B8BE4
:1076B000FA889A4201D1FB68BB60FB681B6AFB60D9
:1076C000FB68002BF2D1BB68002B01D0BB681FE028
:1076D000134B1B68FB6017E0FB689B8BFA889A4290
:1076E0000FD17B79012B06D1FB689B7F002B08D043
:1076F000FB68BB6005E0FB689B7F022B01D1FB6848
:10770000BB60FB681B6AFB60FB68002BE4D1BB68B5
:1077100018461437BD465DF8047B70477009002099
:107720007409002080B582B000AF0023FB801BE00D
:10773000FA8811491346DB0013449B000B441833AD
:107740009B79002B0DD1FB88092B02D10A20FEF773
:1077500081FBFA881346DB0013449B00064A13445E
:1077600006E0FB880133FB80FB88092BE0D900236E
:1077700018460837BD4680BD0808002080B483B095
:1077800000AF114B1B78012B01D0002316E00F4BEB
:107790001B687B600EE07B689B7F022B07D17B68B8
:1077A00003229A777B687A681A607B6806E07B68B8
:1077B0001B6A7B607B68002BEDD1002318460C37D9
:1077C000BD465DF8047B704734000020740900203A
:1077D00080B485B000AF78607B681B68FB60FB6895
:1077E00004229A771437BD465DF8047B704700BFCA
:1077F00080B584B002AF2C4B1B78012B05D12A4BEE
:1078000000221A700820FEF725FB284B1B68002B6E
:1078100000D145E02CE0254B1B689B8B1846FFF7F9
:107820000DF978607B68002B14D07B689B8A002B55
:1078300010D07B6803F118017B689B8A1A46642389
:1078400003FB02F20023009308461146184A7B68A6
:1078500000F0B2FC154B1B6800229A77134B1B6893
:107860001B6A124A1360114B1B68002B00D104E005
:107870000E4B1B689B7F042BCDD00C4B1B68002B41
:1078800007D10C4B1B68002B0AD10C20FEF7E2FA43
:1078900006E0064B1B689B7F022B01D102F040FDE6
:1078A0000837BD4680BD00BF78090020740900205C
:1078B000ED7800087009002080B584B000AF034661
:1078C000FB800023FB60FB881846FFF7B7F8B86021
:1078D000BB68002B00D106E0B868FFF78BFEF860AC
:1078E000FB68002BF8D11037BD4680BD80B584B051
:1078F00000AF78607B68FB60F868FFF77BFE1037AD
:10790000BD4680BD80B483B000AF1B4B00221A80FF
:107910001A4B00221A800023FB800CE0FA881849D9
:107920001346DB0013449B000B44183300229A716A
:10793000FB880133FB80FB88092BEFD9114B012217
:107940001A70114B00221A60104B00221A600A4B69
:1079500000221A80094B00221A800B4B00221A6069
:107960000A4B00221A600A4B00221A700C37BD46DF
:107970005DF8047B704700BF040800200608002063
:10798000080800203400002070090020740900203D
:107990007809002080B400AF0A4B00221A800A4BFD
:1079A00000221A80094B01221A70094B00221A602A
:1079B000084B00221A60084B00221A70BD465DF881
:1079C000047B7047040800200608002034000020D3
:1079D00070090020740900207809002080B588B063
:1079E00000AF786001200121FFF78EF94FF40030DD
:1079F0000121FFF7A7F90423BB6002237B73022355
:107A00003B730023BB730123FB7307F108031B487F
:107A1000194602F0EFFE19480221072202F092FFF8
:107A20000823BB6002233B7307F108031348194680
:107A300002F0E0FE11480321072202F083FF07F164
:107A400010031846FCF70EFE0023BB820023FB82C6
:107A500000233B837B683B610023BB830C237B8338
:107A600007F1100306481946FCF740FD04480121C0
:107A7000FCF714FE2037BD4680BD00BF0000024069
:107A80000044004080B582B000AF0346FB71164B46
:107A90001B78002B06D14FF4E130FFF79FFF124B0C
:107AA00001221A70FB790A2B0BD100BF0F488021ED
:107AB000FCF726FE0346002BF8D00C480D21FCF7FE
:107AC0000DFE00BF09488021FCF71AFE0346002B7B
:107AD000F8D0FB799BB205481946FCF7FFFD00BFC3
:107AE0000837BD4680BD00BF7C090020004400402F
:107AF00080B483B000AF78600B46FB707B68FA7887
:107B00001A70012318460C37BD465DF8047B704798
:107B100080B485B000AF786039600023FB600AE074
:107B20007B685A1C7A603A68511C396012781A7066
:107B3000FB680133FB603B681B78002BF0D1FB68CE
:107B400018461437BD465DF8047B704780B586B093
:107B500000AFF8607A603B600B46FB7200237B61EC
:107B60007B68013B7B603B68092B10D93B681E4A50
:107B7000A2FB0323DB08FA7AF86811467A68FFF75C
:107B8000E5FF78617B69FA681344FB6011E00DE062
:107B9000FB7AF8681946FFF7ABFFFB680133FB601F
:107BA0007B6901337B617B68013B7B607B68002BD9
:107BB000EEDC39680C4BA3FB0123DA0813469B006B
:107BC00013445B00CA1AD3B23033DBB2F8681946EB
:107BD000FFF78EFF02467B6913447B617B69184681
:107BE0001837BD4680BD00BFCDCCCCCC90B587B09A
:107BF00000AFF8607A603B600B46FB7200237B614C
:107C00003B68002B03DA3B685B423B6101E03B6869
:107C10003B617B68013B7B603B69092B25D93B6855
:107C2000002B0FDA3B69314AA2FB0323DB085B42DE
:107C30001C46FB7AF86819467A682346FFF7D6FF98
:107C400078610DE03B69294AA2FB0323DB081C464F
:107C5000FB7AF86819467A682346FFF7C7FF786110
:107C60007B69FA681344FB6025E03B68002B02DA6D
:107C70007B68013B7B600DE0FB7AF8681946FFF7F3
:107C800037FFFB680133FB607B6901337B617B68F5
:107C9000013B7B607B68002BEEDC3B68002B0ADA43
:107CA000F8682D21FFF724FF02467B6913447B61AE
:107CB000FB680133FB6039690C4BA3FB0123DA0835
:107CC00013469B0013445B00CA1AD3B23033DBB2B5
:107CD000F8681946FFF70CFF02467B6913447B6185
:107CE0007B6918461C37BD4690BD00BFCDCCCCCCBF
:107CF00090B589B002AFF8607A601A460B46FB7205
:107D00001346BB7200237B617B68013B7B60BB6ACF
:107D10001B09002B13D0BB6A1B09FA7ABC7A0093AB
:107D2000F86811467A682346FFF7E2FF02467B694E
:107D300013447B617B69FA681344FB6011E00DE03A
:107D4000FB7AF8681946FFF7D3FEFB680133FB6046
:107D50007B6901337B617B68013B7B607B68002B27
:107D6000EEDCBB6A03F00F03092B0BD8BB6ADBB256
:107D700003F00F03DBB23033DBB2F8681946FFF7CC
:107D8000B7FE19E0BB7A002B0BD0BB6ADBB203F065
:107D90000F03DBB23733DBB2F8681946FFF7A8FEF2
:107DA0000AE0BB6ADBB203F00F03DBB25733DBB28E
:107DB000F8681946FFF79CFE7B6901337B617B699C
:107DC00018461C37BD4690BD90B58BB002AFF86029
:107DD000B9607A603B600023BB6100237B61FB6874
:107DE000002B02D0FB6800221A7002E17B681B782E
:107DF000252B0BD0FB685A1CFA607A68511C7960FD
:107E000012781A707B6901337B61F2E07B68013381
:107E10001B78252B0BD1FB685A1CFA6025221A709F
:107E20007B6802337B607B6901337B61E1E0202367
:107E3000FB770023BB777B6801337B607B681B7813
:107E4000302B04D13023FB777B6801337B600EE05D
:107E5000BB7F1A46920013445B00DAB27B681B7842
:107E60001344DBB2303BBB777B6801337B607B68BC
:107E70001B782F2B03D97B681B78392BE8D9BA7F65
:107E80007B6913441A46BB689A4205D9BB68DAB2CB
:107E90007B69DBB2D31ABB777B681B786C2B02D172
:107EA0007B6801337B607B681B78583B202B00F29A
:107EB000928001A252F823F08F7F0008D77F00083C
:107EC000D77F0008D77F0008D77F0008D77F00083A
:107ED000D77F0008D77F0008D77F0008D77F00082A
:107EE000D77F0008C17F00083D7F0008D77F0008CA
:107EF000D77F0008D77F0008D77F00083D7F0008A4
:107F0000D77F0008D77F0008D77F0008D77F0008F9
:107F1000D77F0008D77F0008D77F0008D77F0008E9
:107F2000D77F0008AD7F0008D77F0008577F000883
:107F3000D77F0008D77F0008717F0008BC7F3B68AF
:107F40001A1D3A601B68FA7FF86811462246FFF74F
:107F50004DFEB86142E0BC7F3B681A1D3A601B6869
:107F6000FA7FF86811462246FFF7F0FDB86135E068
:107F7000BC7F3B681A1D3A601B68FA7F0093F86863
:107F8000114622460023FFF7B3FEB86126E0BC7F0E
:107F90003B681A1D3A601B68FA7F0093F868114627
:107FA00022460123FFF7A4FEB86117E03B681A1DC3
:107FB0003A601B68F8681946FFF7AAFDB8610DE042
:107FC0003B681A1D3A601B68DBB2F8681946FFF778
:107FD0008FFDB86102E04FF0FF3325E07B6801338D
:107FE0007B60BB69FA681344FB607A69BB69134420
:107FF0007B617B681B78002B04D07A69BB689A424E
:10800000FFF4F4AE7A69BB689A4203D2FB6800229F
:108010001A7008E0FB68013BFB60FB6800221A70E5
:108020007B69013B7B617B6918462437BD4690BD67
:1080300080B584B000AFF860B9607A60F8686421F8
:10804000BA687B68FFF7C0FE034618461037BD4686
:1080500080BD00BFB0B5A6B000AFF860B9607A606F
:10806000144B07F110041D460FCD0FC40FCD0FC4E4
:108070002B68236007F134031846B9687A68FFF764
:10808000D7FF0346632B09DD0B4B1B68DB6807F149
:1080900010021046194600F06BF8FEE707F13403B2
:1080A0001846F96800F064F8034618469837BD464C
:1080B000B0BD00BF74E700086004002080B582B046
:1080C00000AF78603960064B1B689B68184679687A
:1080D0003A68FFF7BFFF034618460837BD4680BD24
:1080E000600400200FB480B582B000AF07F1140324
:1080F0003B6038693968FFF7E1FF78607B681846B4
:108100000837BD46BDE8804004B0704780B582B0F6
:1081100000AF7860054B1B689B687868194600F0D3
:1081200027F8034618460837BD4680BD6004002086
:1081300080B582B000AF786039600C4B1B689A68DC
:108140003B689A4205D0094B1B68DA683B689A4243
:1081500006D17B68DBB21846FFF794FC7B6801E030
:108160004FF0FF3318460837BD4680BD600400203D
:1081700080B584B000AF786039600023FB6012E006
:108180007B681B7818463968FFF7D2FF0346B3F1C6
:10819000FF3F02D14FF0FF330AE0FB680133FB6081
:1081A0007B6801337B607B681B78002BE8D1FB6820
:1081B00018461037BD4680BD80B586B000AFF86068
:1081C000B9607A603B60BB68002B01D10A2337E0BD
:1081D000F86800F03BF81C4B1B68BA68B2FBF3F27E
:1081E000FB689A6097F82030002B03D097F8203076
:1081F000012B0ED1144B1A68BB68B3FBF2F102FBE2
:1082000001F29B1A002B04D0FB689B685A1CFB6888
:108210009A60FB689B68002B02D1FB6801229A6080
:10822000FB687A68DA60FB6897F820201A75FB68AB
:108230003A681A61F86800F057F80346FB75FB7D51
:1082400018461837BD4680BD8009002080B485B02F
:1082500000AF7860144B1B68FB600023BB6019E023
:10826000FA687B689A4210D1BB68002B04D1FB6886
:108270001B680D4A136003E0FB681A68BB681A604C
:10828000FB6800221A60002308E0FB68BB60FB6803
:108290001B68FB60FB68002BE2D10A2318461437E9
:1082A000BD465DF8047B70478409002080B485B02A
:1082B00000AF78600B4B1B68FB6008E0FA687B68D6
:1082C0009A4201D1012306E0FB681B68FB60FB6852
:1082D000002BF3D1002318461437BD465DF8047B0C
:1082E000704700BF8409002080B485B000AF78607B
:1082F0007B689A68294B1B681A447B685A60284B34
:108300001B68002B07D1264A7B6813607B6800221C
:108310001A6000233BE0224B1B68FB600023BB601C
:1083200004E0FB68BB60FB681B68FB607B685A6805
:10833000FB685B689A4203D9FB681B68002BF0D18D
:108340007B685A68FB685B689A420DD2BB68002B59
:1083500003D1134A7B68136002E0BB687A681A6035
:108360007B68FA681A6011E0FB681B68002B06D175
:10837000FB687A681A607B6800221A6006E0FB6876
:108380001A687B681A60FB687A681A6000231846CE
:108390001437BD465DF8047B704700BF8809002094
:1083A0008409002080B500AF0020FDF72FFD034BAE
:1083B0001B680133014A136080BD00BF880900209B
:1083C00080B584B000AF00237B602F4B1B68002B6F
:1083D00003D12E4B00221A6052E02B4B1B68FB602E
:1083E0002A4B1B68BB60FB685A68BB689A4200D97D
:1083F00046E0264B1A68BB68D31A244A1360FB6810
:108400005A68BB689A4202D2FB685B68BB6008E0AE
:10841000FB685A68BB68D21AFB685A60FB681B6825
:10842000FB60FB68002BF3D1174B1B68FB6024E05B
:10843000FB685B68002B1DD1FB687B607B681B6859
:10844000FB607868FFF702FF7B68DB68002B05D0D4
:108450007B68DB687A681269104698477B681B7DE9
:10846000012B03D07B681B7D032B06D17868FFF7B7
:108470003BFF02E0FB681B68FB60FB68002BD7D169
:108480001037BD4680BD00BF840900208809002048
:1084900080B483B000AF7860064A7B681360064BF7
:1084A00000221A60054B00221A600C37BD465DF8A9
:1084B000047B70478009002084090020880900207F
:1084C00080B400AFBFF34F8F0549054BDB6803F461
:1084D000E062044B1343CB60BFF34F8FFEE700BF56
:1084E00000ED00E00400FA0580B500AF72B6044864
:1084F0000449042205F002FDFFF7E2FFFEE700BF9A
:108500000000002098E7000880B584B000AF034663
:108510000A46FB8013467B710023FB7302F002FCCA
:108520000346052B01D00E232EE0FB88184600F0F1
:108530002FFFB860BB68002B01D10A2324E0BB6881
:108540001B68002B01DA33231EE0BB6893F832303E
:10855000F02B0AD8BB6893F83230002B03D1BB68EC
:10856000012283F82420FB7B0EE0BB6893F83230B5
:10857000FD2B01D10B2307E07B79B868194600F089
:1085800007F80346FB73FB7B18461037BD4680BDDA
:10859000F0B589B002AF78600B46FB7007F10C03B1
:1085A00018460021082205F043FD0023BB75002377
:1085B000FB7536E0BB7D07F10C02D0187B6859686B
:1085C000FA7D13465B0013449B000B445D687B6897
:1085D0005968FA7D13465B0013449B000B441B7AD9
:1085E0001E467B685968FA7D13465B0013449B0066
:1085F0000B445B7A9CB20023009329463246234603
:1086000003F0CCFA7B685968FA7D13465B0013448B
:108610009B000B441A7ABB7D1344BB75FB7D013371
:10862000FB757B685B681B78FA7D9A42C2D37B68D6
:10863000D98C07F10C02FB78084611461A46FEF762
:10864000AFFE03467B757B7D18461C37BD46F0BDEB
:1086500080B584B000AF786002F064FB0346052B60
:1086600000D024E07B68DA8B124B1B889A4200D939
:108670001DE07B68DB8B1A461346DB009B1ADB0090
:108680000D4A1344FB60FB6893F83230F02B09D895
:10869000FB6893F83230002B08D1FB68012283F885
:1086A000242004E0F8680021FFF772FF00BF1037B4
:1086B000BD4680BDC40900208C09002080B588B06B
:1086C00002AF786002F02EFB0346052B00D067E076
:1086D0007B68DA8B344B1B889A4200D960E07B6858
:1086E000DB8B1A4613461B019B1A9B002F4A13442F
:1086F0007B617B681A7C7B6993F839309A421CD283
:1087000000233B7300237B730023BB730023FB73A5
:1087100000233B747B695B8DDBB23B737B695B8DB4
:108720001B0A9BB2DBB27B7307F10C0348F21020EB
:108730001946FDF731F900BF32E07B69DB8D002B74
:1087400011D07B6903F10C017B69DB8D1A464FF474
:108750007A7303FB02F20223009308461146144A7F
:108760007B69FFF729FD7B6993F83830F02B0ED831
:108770007B6903F130027B681133104619460822E9
:1087800005F0BCFB7B69022283F8242008E07B68AB
:10879000DA8B7B6811331046194600F00BF800BFE6
:1087A0001837BD4680BD00BF040A0020C80900205C
:1087B000A9880008F0B589B002AF03463960FB8094
:1087C00000237B75FA8813461B019B1A9B002F4AD6
:1087D00013443B610023BB750023FB7542E03B69FA
:1087E0005968FA7D13465B0013449B000B445B6899
:1087F000002B28D03B695968FA7D13465B0013446F
:108800009B000B445868BB7D3A68D5183B69596892
:10881000FA7D13465B0013449B000B441B7A1E46F3
:108820003B695968FA7D13465B0013449B000B4477
:108830005B7A9CB20023009329463246234603F01C
:1088400091F90346FB733B695968FA7D13465B0057
:1088500013449B000B441A7ABB7D1344BB75FB7D0C
:108860000133FB753B695B681B78FA7D9A42B6D38E
:108870003B695A8D3B6993F838301046194600F031
:108880005FFC7B7D18461C37BD46F0BDC809002043
:1088900080B582B000AF78607B680C331846FFF774
:1088A000D5FC0837BD4680BD80B584B000AF786088
:1088B0007B68FB60FB685B8D184600F065FC103739
:1088C000BD4680BD80B584B000AF03460A46FB803C
:1088D00013467B710023FB60FB88184600F058FDAF
:1088E000B860BB68002B01D1002328E07B79013BF5
:1088F000052B22D801A252F823F000BF15890008E9
:108900001B890008238900083B8900082B8900087F
:1089100033890008BB68FB6010E0BB683233FB6042
:108920000CE0BB682C33FB6008E0BB682E33FB60B7
:1089300004E0BB683333FB6000E000BFFB6818460F
:108940001037BD4680BD00BF80B584B000AF034680
:108950000A46FB8013467B710023FB60FB881846A8
:1089600000F016FDB860BB68002B01D1002314E0B5
:108970007B79002B03D1BB689B68FB600CE0BB6874
:1089800099687B795A1E13465B0013449B00083399
:108990000B440433FB6000BFFB6818461037BD462C
:1089A00080BD00BF80B584B000AF03460A46FB809F
:1089B00013467B710023FB60FB88184600F0E8FC3F
:1089C000B860BB68002B01D1002314E07B79002B39
:1089D00003D1BB685B68FB600CE0BB6859687B79BE
:1089E0005A1E13465B0013449B0008330B440433A8
:1089F000FB6000BFFB6818461037BD4680BD00BF56
:108A000080B584B000AF0346FB800B467B711346F4
:108A10003B710023FB73FB88184600F0B9FCB8607B
:108A2000BB68002B01D1212314E0BB681B68002B1D
:108A300001DB20230EE07B79022B05D13B79FC2B57
:108A400007D82023FB7304E07B79062B01D0152384
:108A5000FB73FB7B18461037BD4680BD80B584B0E4
:108A600000AF03460A46FB8013467B710023FB736D
:108A7000FB88184600F08CFCB860BB68002B01D165
:108A800021230EE07B79032B05D1BB681B68002BEB
:108A900006DB202305E07B79052B01D01523FB7332
:108AA000FB7B18461037BD4680BD00BF80B584B043
:108AB00000AF03463960FB800023FB73FB88184638
:108AC00000F066FCB860BB68002B01D121231AE0DE
:108AD0003B68002B16DBBB681B68002B06DBBB6802
:108AE0001A683B689A4201D020230CE0386840F2B3
:108AF000811140F28112FEF71FF80346012B01D1CC
:108B0000202300E0FB7B18461037BD4680BD00BF28
:108B100080B586B000AF0346FB800B467B711346E1
:108B20003B710023FB75FB88184600F031FC38616F
:108B30003B69002B01D1212318E03B691B68002B06
:108B400001DB462312E07B79002B0ED13B79002B11
:108B50000BD03B793869194600F084FB0346FB7360
:108B6000FB7B082B01D9472300E0FB7D1846183713
:108B7000BD4680BD90B589B002AF03463960FB8029
:108B8000FB88184600F004FC78617B69002B01D15A
:108B900021231FE07B691B68002B01DB462319E0C2
:108BA0007B695B681B78002B01D0462312E03B6891
:108BB0001B0C98B23B681B0AD9B207F10C0207F1F3
:108BC0000B0407F10A030093234604F035FA034629
:108BD000FB74FB7C18461C37BD4690BD80B586B043
:108BE00000AF03460A46FB8013467B710023FB75EA
:108BF000FB88184600F0CCFB38613B69002B01D1A3
:108C000021235CE07B79013B042B56D801A252F86A
:108C100023F000BF298C0008978C0008BB8C00084B
:108C2000BB8C0008AF8C00083869002100F01AFBEB
:108C30000346FB733B69D98C3B691A68FB7B08468A
:108C400011461A4600F072FD0346FB75FB7D002BB2
:108C500004D1386900F0B6FA0346FB75FB7D002BA2
:108C600018D13B6993F83230FD2B0AD93B69DA8C75
:108C70003B699B8D10461946FDF78CFE0346FB753C
:108C800008E03B69DB8C18460021FDF783FE0346B4
:108C9000FB7513E012E03B6993F832203B6983F8DF
:108CA0003420386900F08EFA0346FB7506E0386917
:108CB00000F088FA0346FB7500E000BFFB7D184614
:108CC0001837BD4680BD00BF80B584B000AF0346F5
:108CD0000A46FB8013467B710023FB60FB88184625
:108CE00000F0F8FCB860BB68002B01D1002322E043
:108CF0007B79013B042B1CD801A252F823F000BF62
:108D0000158D00081B8D0008238D0008338D000889
:108D10002B8D0008BB68FB600CE0BB683833FB6040
:108D200008E0BB682C33FB6004E0BB682E33FB60BB
:108D300000E000BFFB6818461037BD4680BD00BF8D
:108D400080B584B000AF03460A46FB8013467B71B2
:108D50000023FB60FB88184600F0BCFCB860BB68D1
:108D6000002B01D1002314E07B79002B03D1BB68D9
:108D70009B68FB600CE0BB6899687B795A1E1346C0
:108D80005B0013449B0008330B440433FB6000BFBB
:108D9000FB6818461037BD4680BD00BF80B584B063
:108DA00000AF03460A46FB8013467B710023FB603D
:108DB000FB88184600F08EFCB860BB68002B01D120
:108DC000002314E07B79002B03D1BB685B68FB6058
:108DD0000CE0BB6859687B795A1E13465B0013444C
:108DE0009B0008330B440433FB6000BFFB6818464C
:108DF0001037BD4680BD00BF80B584B000AF0346CC
:108E0000FB800B467B7113463B710023FB73FB8891
:108E1000184600F05FFCB860BB68002B01D121232D
:108E200013E0BB681B68002B01DB20230DE07B797E
:108E3000022B04D13B79FD2B06D8202305E07B795A
:108E4000062B01D01523FB73FB7B18461037BD465C
:108E500080BD00BF80B584B000AF03460A46FB80EA
:108E600013467B710023FB73FB88184600F032FC2D
:108E7000B860BB68002B01D121230EE07B79032B66
:108E800005D1BB681B68002B06DB202305E07B793E
:108E9000052B01D01523FB73FB7B18461037BD460D
:108EA00080BD00BF80B584B000AF03463960FB8051
:108EB0000023FB73FB88184600F00CFCB860BB680D
:108EC000002B01D121231AE03B68002B16DBBB6885
:108ED0001B68002B06DBBB681A683B689A4201D00E
:108EE00020230CE0386840F2811140F28112FDF736
:108EF00023FE0346012B01D1202300E0FB7B184613
:108F00001037BD4680BD00BF90B58BB002AF0346A1
:108F1000FB800B467B7113463B710023FB77FB887C
:108F2000184600F0D7FBB861BB69002B01D12123A3
:108F30003FE0BB691B68002B01DB462339E07B79EE
:108F4000002B26D0BB695B681B78002B01D0462321
:108F50002FE0BB6959687B795A1E13465B001344A6
:108F60009B000B4404337B617B699B681B0C98B2AC
:108F70007B699B681B0AD9B207F10C0207F10B044D
:108F800007F10A030093234603F0D2FF0346FB7761
:108F90000EE03B79002B0BD03B79B869194600F005
:108FA00015FB0346FB74FB7C082B01D9472300E02B
:108FB000FB7F18462437BD4690BD00BF90B589B0F1
:108FC00002AF03463960FB80FB88184600F082FB45
:108FD00078617B69002B01D1212326E07B691B6826
:108FE000002B01DB462320E07B695B681B78002BAC
:108FF00001D0462319E03B681B0C7B823B681B0AAF
:109000007B74788A797C07F10C0207F10B0407F175
:109010000A030093234603F08BFF03463B743B7C1B
:10902000002B01D0462300E03B7C18461C37BD4690
:1090300090BD00BF80B586B000AF03460A46FB80F6
:1090400013467B710023FB75FB88184600F042FB3A
:1090500038613B69002B01D1212328E07B79012B6A
:1090600002D0052B1ED021E03869002100F0AEFAB5
:109070000346FB733B69D98C3B691A68FB7B084646
:1090800011461A4600F052FB0346FB753869FFF79C
:10909000FFFBFB7D002B04D13B69FA7B83F8392071
:1090A00004E003E03869FFF7F3FB00BFFB7D1846DF
:1090B0001837BD4680BD00BF80B483B000AF786074
:1090C0000C4B1B88002B01D00D230DE0094B1B8896
:1090D0001946094A7B6842F82130064B1B88013348
:1090E0009AB2044B1A80002318460C37BD465DF82F
:1090F000047B70470C0A0020080A002080B483B06B
:1091000000AF78600C4B1B88002B01D00D230DE0C5
:10911000094B1B881946094A7B6842F82130064BE7
:109120001B8801339AB2044B1A80002318460C376F
:10913000BD465DF8047B7047140A0020100A002029
:1091400080B584B000AF03460A46FB8013467B71AE
:109150007B79F02B10D90A4B1B88FB8109E0FB8936
:10916000013BFB81FB89074A52F82330FA881046FD
:109170009847FB89002BF2D100BF1037BD4680BD58
:109180000C0A0020080A002080B584B000AF034616
:10919000FB800A4B1B88FB8109E0FB89013BFB81BB
:1091A000FB89074A52F82330FA8810469847FB8912
:1091B000002BF2D100BF1037BD4680BD140A00203D
:1091C000100A002080B586B002AF78600023FB73E0
:1091D00001F0A8FD0346BB737B681B68002B0BDB0B
:1091E0007B68DB8D002B07D07B6893F83230FD2B3A
:1091F00002D9BB7B052B05D07B680C331846FFF7E3
:1092000025F817E07B68DB8D002B13D07B6803F11A
:109210000C017B68DB8D1A464FF47A7303FB02F274
:109220000323009308461146054A7B68FEF7C4FFF6
:109230000346FB73FB7B18461037BD4680BD00BF5D
:109240004592000880B584B000AF78607B68FB6011
:10925000FB685B8D18460021FFF756F91037BD46B5
:1092600080BD00BFB0B590B002AF78600B46FB7018
:10927000FB78002B03D17B685B681B78FB707B68F5
:109280005B8D03F5CF531F339BB2184604F094FA5D
:1092900003461A46FB78934201D9FF2372E000236C
:1092A00087F83730002387F8363064E07B685968E8
:1092B00097F8362013465B0013449B000B4404339D
:1092C000FB627B681B8E4FF6FF72934203D107F15E
:1092D0000C033B6309E07B681B8E1A461346DB00D8
:1092E0009B1A9B00294A13443B63FB6A9B681B0C37
:1092F00098B2FB6A9B681B0AD9B297F836201346CE
:109300005B0013449B003A6B13441D1D97F83620F5
:1093100013465B0013449B003A6B134403F10804AB
:1093200097F8362013465B0013449B003A6B1344B6
:10933000093300932A46234603F07EFE034687F84E
:109340002B3097F82B30002B01D0FF231AE07B68DD
:10935000596897F8362013465B0013449B000B4472
:109360001A7A97F83730134487F8373097F8363041
:10937000013387F8363097F83620FB789A4295D338
:1093800097F8373018463837BD46B0BD180A002068
:1093900080B485B000AF0346FB800023FB8116E05C
:1093A000FA8910491346DB009B1ADB000B44283373
:1093B0005B88FA889A4207D1FA891346DB009B1A28
:1093C000DB00084A134406E0FB890133FB81FB897B
:1093D000002BE5D0002318461437BD465DF8047B0A
:1093E000704700BF8C09002080B582B000AF002319
:1093F000FB8013E0FA881346DB009B1ADB000B4A64
:1094000013443B603B685B8D18460021FFF77CF8F6
:109410003868FFF7D7FEFB880133FB80044B1B88BD
:10942000FA889A42E6D30837BD4680BD8C090020F1
:10943000C409002080B582B000AF0023FB800DE09E
:10944000FA881346DB009B1ADB00084A13443B6092
:109450003868FFF7B7FEFB880133FB80044B1B889D
:10946000FA889A42ECD30837BD4680BD8C090020AB
:10947000C409002080B584B000AF0346FB80114BC7
:109480001B88012B02D14FF6FF7317E00D4B1B8891
:10949000FB81FA89FB881046194600F015F803464F
:1094A0007B737B7B002B02D04FF6FF7306E0054BEE
:1094B0001B8801339AB2034B1A80FB891846103778
:1094C000BD4680BD340A0020B0B588B002AF034667
:1094D0000A46FB801346BB80FA881346DB009B1AC2
:1094E0009B00394A13443B613B69BA88104600210E
:1094F0001A4603F0F3FD0346BB75BB7D002B01D07C
:10950000BB7D5DE0BB88184604F056F90346013B7D
:10951000FB730023FB754EE0FB7D0133DAB2B988A3
:1095200007F10803084611461A4603F037FF0346C1
:10953000BB75BB7D002B01D0BB7D41E0FA7DB968D6
:10954000386913465B0013449B0003440833596099
:109550003B691B78FA7D9A422AD2BB681B0C98B2F1
:10956000BB681B0AD9B2FA7D13465B0013449B000B
:109570003A6913441D1DFA7D13465B0013449B009A
:109580003A69134403F10804FA7D13465B0013445F
:109590009B003A691344093300932A46234603F09B
:1095A0004BFD0346BB75BB7D002B01D0BB7D07E0A7
:1095B000FB7D0133FB75FA7DFB7B9A42ACD3BB7D0F
:1095C00018461837BD46B0BD180A0020B0B590B097
:1095D00002AF78600B46FB70FB78002B03D17B68F1
:1095E0005B681B78FB707B685B8D03F5AF531F33A3
:1095F0009BB2184604F0E0F803461A46FB78934203
:1096000001D9FF2361E0002387F83730002387F872
:10961000363053E07B68596897F8362013465B0074
:1096200013449B000B4404333B6307F10C03FB62C0
:109630003B6B9B681B0C98B23B6B9B681B0AD9B2B7
:1096400097F8362013465B0013449B00FA6A1344D4
:109650001D1D97F8362013465B0013449B00FA6AE1
:10966000134403F1080497F8362013465B001344B3
:109670009B00FA6A1344093300932A46234603F0F9
:1096800057FC034687F82B3097F82B30002B01D07E
:10969000FF231AE07B68596897F8362013465B0071
:1096A00013449B000B441A7A97F83730134487F819
:1096B000373097F83630013387F8363097F8362050
:1096C000FB789A42A6D397F8373018463837BD460C
:1096D000B0BD00BF80B485B000AF0346FB8000235F
:1096E000FB8116E0FA89104913461B019B1A9B0067
:1096F0000B4428335B88FA889A4207D1FA891346CB
:109700001B019B1A9B00084A134406E0FB890133A6
:10971000FB81FB89002BE5D0002318461437BD469A
:109720005DF8047B704700BFC809002080B584B095
:1097300000AF03463960FB8013467B713B6803F042
:109740008043002B09D0FA887B79104639680022C3
:10975000FDF7C4F80346FB7308E0FA887B791046EE
:1097600039680122FDF7BAF80346FB73FB7B184604
:109770001037BD4680BD00BF80B584B000AF002368
:10978000FB8127E0FA891346DB009B1ADB00324A93
:109790001344BB60BB681B68002B05DABB68DB8C1D
:1097A0001846FDF721F905E0BB685B8D18460121DD
:1097B000FFF714FABB6893F83220BB6883F83420B3
:1097C000BB68002283F82420B868FFF7FBFCFB8904
:1097D0000133FB81214B1B88FA899A42D2D30023A3
:1097E000FB812FE0FA8913461B019B1A9B001C4A40
:1097F00013447B607B681B68002B05DA7B68DB8C7D
:109800001846FDF7F1F813E078680021FFF7DEFE57
:109810000346FB707B68FA7883F839207B68D98C23
:109820007B681A68FB78084611461A46FFF77EFFE8
:109830007B68002283F824207868FFF729F8FB89E9
:109840000133FB81074B1B88FA899A42CAD300BFB8
:109850001037BD4680BD00BF8C090020C409002020
:10986000C8090020040A002090B587B000AF00238B
:10987000FB82A3E0FA8A1346DB009B1ADB00974ABF
:1098800013443B613B695B8D03F5BF531F339AB2B1
:109890003B1D104601211A4603F080FD0346FB7371
:1098A000FB7B002B04D17B6803F040437B6001E02D
:1098B00000237B603B695B8D002B14D03B695B8D83
:1098C000042B10D83B695B8D013BBB81BB891C021B
:1098D00001F01CFA0346234403F5C0727B681A4367
:1098E0003B691A6004E07B6843F000423B691A6000
:1098F0003B695B8D03F5BF531F339AB27B1C104647
:1099000002211A4603F0EAFB0346FB73FB7B002BA4
:1099100003D17A783B6983F832203B695B8D03F58C
:10992000BF531F339AB2BB1C104603211A4603F0E3
:1099300085FC0346FB73FB7B002B02D17A883B69D5
:109940009A853B695B8D03F5BF531F339AB2BB1CED
:10995000104605211A4603F071FC0346FB73FB7B9E
:10996000002B02D17A883B69DA853B695B8D03F570
:10997000BF531F339AB27B1C104606211A4603F0D0
:10998000ADFB0346FB73FB7B002B03D17A783B696D
:1099900083F833203B6993F82830012B0BD13B69C6
:1099A0001A8E3B695B8D03F5CF531F339BB2104674
:1099B0001946FFF789FDFB8A0133FB82484B1B8860
:1099C000FA8A9A42FFF456AF0023FB827CE0FA8ABF
:1099D00013461B019B1A9B00424A1344BB60BB68A1
:1099E0005B8D03F59F531F339AB23B1D1046012137
:1099F0001A4603F0D3FC0346FB73FB7B002B04D118
:109A00007B6803F040437B6001E000237B60BB6820
:109A10005B8D002B13D0BB685B8D042B0FD8BB680C
:109A20005B8D013BBB81BB8902331C0201F06EF9E7
:109A30000346E2187B681A43BB681A6004E07B683F
:109A400043F00042BB681A60BB685B8D03F59F530F
:109A50001F339AB27B1C104602211A4603F03EFBCC
:109A60000346FB73FB7B002B03D17A78BB6883F83A
:109A70003820BB685B8D03F59F531F339AB2BB1C24
:109A8000104603211A4603F0D9FB0346FB73FB7B08
:109A9000002B02D17A88BB689A85BB685B8D03F581
:109AA0009F531F339AB2BB1C104605211A4603F080
:109AB000C5FB0346FB73FB7B002B02D17A88BB6896
:109AC000DA85FB8A0133FB82074B1B88FA8A9A42AC
:109AD000FFF47DAF00BF1C37BD4690BD8C09002050
:109AE000C4090020C8090020040A002080B483B003
:109AF00000AF786039600A4B00221A80094B0022BF
:109B00001A80094B00221A80084B00221A80084B49
:109B100000221A800C37BD465DF8047B704700BFF9
:109B2000C4090020340A0020040A00200C0A002086
:109B3000140A002090B587B000AF044608461146CD
:109B40001A462346FB8003467B710B467B801346F7
:109B50003B800023FB755C4B1B88002B01D00A2344
:109B6000ADE0594B1B88BB82BA8A1346DB009B1AB7
:109B7000DB00564A13443B613B69FA885A85524BD5
:109B80001B88002004211A46FCF732FE03461A46C1
:109B90003B69DA843B69DB8C4FF6FF72934201D15B
:109BA00032238CE03B697A7983F832203B697A79F9
:109BB00083F834203B697A889A853B693A88DA854C
:109BC0003B6997F8282083F833203B69002283F80B
:109BD0002420FB6A002B2CD1FB8803F5CF531F33C5
:109BE0009BB21846FFF746FC0346FB81FB894FF604
:109BF000FF72934201D1472361E0FA891346DB00EB
:109C00009B1A9B00324A1A443B699A60BA8A2F49D0
:109C10001346DB009B1ADB000B4408331A683B69D0
:109C20005A603B69FA891A863B69012283F8282029
:109C30000DE03B69FA6A5A603B6900229A603B6911
:109C4000002283F828203B694FF6FF721A86386994
:109C50000021FFF707FB03467B737B7B082B0BD8A8
:109C60003B69DA8C7B7B10464FF000411A46FFF7C8
:109C70005DFD0346FB7509E03B69DB8C18464FF040
:109C800000410022FFF752FD4723FB757B79FD2B36
:109C900008D93B69DA8C3B699B8D10461946FCF765
:109CA00079FE05E03B69DB8C18460021FCF772FE6B
:109CB000054B1B8801339AB2034B1A80FB7D184673
:109CC0001C37BD4690BD00BFC40900208C09002090
:109CD000180A002090B587B000AF04460846114628
