:020000040800F2
:10420000980A002001430008094300080B430008F6
:104210000D4300080F430008114300080000000090
:104220000000000000000000000000001343000830
:104230001543000800000000174300088D460008E1
:104240001B4300081B4300081B4300081B430008D6
:104250001B4300081B4300081B4300081B430008C6
:104260001B4300081B4300081B4300081B430008B6
:104270001B4300081B4300081B4300081B430008A6
:104280001B4300081B4300081B430008E1460008CD
:10429000E5460008CB430008CF4300081B43000855
:1042A0001B4300081B4300081B4300081B43000876
:1042B0001B4300081B4300081B4300081B43000866
:1042C0001B4300081B4300081B4300081B43000856
:1042D0001B4300081B4300081B4300081B43000846
:1042E0001B4300081B4300081B430008DFF80CD0E9
:1042F00000F03CF800480047A9790008980A00201F
:104300000648804706480047FEE7FEE7FEE7FEE76F
:10431000FEE7FEE7FEE7FEE7FEE7FEE79146000860
:10432000ED42000840EA01039B0703D009E008C9F9
:10433000121F08C0042AFAD203E011F8013B00F86A
:10434000013B521EF9D27047D2B201E000F8012BB6
:10435000491EFBD270470022F6E710B513460A4605
:1043600004461946FFF7F0FF204610BD064C074DE6
:1043700006E0E06840F0010394E807009847103435
:10438000AC42F6D3FFF7B6FFD88A0008F88A0008D7
:1043900030B58C1810F8012B12F00F0301D110F872
:1043A000013B120906D110F8012B03E010F8015B64
:1043B00001F8015B5B1EF9D101E001F8013B521EDF
:1043C000FBD1A142E6D3002030BD01F081BA01F05B
:1043D000FFB9F0B5CC78002204F00F03E40601D554
:1043E0008C7823430C784FF00F0C14F0FF0F4FF034
:1043F000010E1BD005680E880EFA02F42640A64274
:1044000010D196000CFA06F725EA070703FA06F51D
:10441000CE783D43282E02D0482E02D002E04461DF
:1044200000E00461521C082AE5D305600A88FF2ACF
:104430001CD94468002202F108060EFA06F50E881F
:104440002E40AE420ED196000CFA06F7BC4303FA9A
:1044500006F7CE783C43282E00D14561CE78482E11
:1044600000D10561521C082AE5D34460F0BD00006C
:10447000F0B5144C002801DAE36900E06368450DEB
:104480002E0185B2C0F30157B540C0F30342032F9C
:1044900005D0C6020AD503269640B34307E023F0B1
:1044A0007062636823F07063636002E0AB4343F0C3
:1044B000706201B12A43002801DAE261F0BD626056
:1044C000F0BD0000000001404FF6FF7101800221A5
:1044D00081700421C170704710B515494FF000601C
:1044E00000F052F84FF4A06000F034F81149086869
:1044F0004FF6FF021040104A40F40070104308606D
:1045000001242146142000F02FF82146132000F04A
:104510002BF82146162000F027F8142000F00EF8A2
:10452000132000F00BF8BDE81040162000F006B88C
:10453000004200080CED00E00000FA0500F01F0248
:10454000012191404009800000F1E020C0F80011F5
:1045500070470000024908430249086070470000A4
:104560000000FA050CED00E00907090E002806DA44
:1045700000F00F0000F1E02080F8141D704700F1FA
:10458000E02080F800147047024A114001430248BD
:104590000160704780FFFF1F08ED00E0044A00291A
:1045A000D16901D0014300E08143D161704700002F
:1045B00000100240044A0029116901D0014300E0C3
:1045C000814311617047000000100240044A002935
:1045D000916901D0014300E081439161704700007F
:1045E000001002400CB5002226480092019201689A
:1045F00041F4803101604FF4A063016801F400319F
:1046000001910099491C0091019911B900999942B1
:10461000F3D10168890333D5012101911A490A6850
:1046200042F010020A600A6822F003020A600A6877
:1046300042F002020A60416841604168416041689D
:1046400041F480614160416821F47C11416041681E
:1046500041F4E8114160016841F080710160016836
:104660008901FCD5416821F003014160416841F0B6
:10467000020141604168C1F381010229FAD10CBDF8
:1046800001920CBD001002400020024000F088BFE3
:104690000F4810B5016841F00101016041680D4A01
:1046A0001140416001680C4A11400160016821F429
:1046B00080210160416821F4FE0141604FF41F0137
:1046C0008160FFF78FFF05494FF00060086010BD63
:1046D000001002400000FFF8FFFFF6FE08ED00E0CA
:1046E00001F02EBA01F0F4B802E008C8121F08C1A8
:1046F000002AFAD170477047002001E001C1121F63
:10470000002AFBD17047000070B5134E8168B26873
:104710008C1844607168002509B1002303E07060C3
:1047200017E00B4611464A68944202D90A68002AEB
:10473000F7D14A68944205D213B11860016005E0D0
:104740007060FBE70A681AB102600860002070BD63
:1047500008600560FAE7000034010020034A916810
:1047600090600162012181777047000014010020F0
:10477000074AD16811B9D06004E011460A6A002ADC
:10478000FBD108620021016202218177704700009D
:104790001401002070472DE9F04188B00E00054655
:1047A00001D168680678688D41F2FF51084480B2F3
:1047B00001F06CFFB04219D300273C4623E004EB24
:1047C00044000422696802EB80021144804601AA79
:1047D00002EB880202F10900431E00908868121D56
:1047E000C0F30721000C01F09BFF18B1FF2008B0B7
:1047F000BDE8F0810822696802EB8800641C085C4F
:10480000E4B23844C7B2B442D9D33846EFE7000027
:104810002DE9F04188B00F00054601D1686807789E
:10482000688D41F6FF11084480B201F02FFFB842B5
:1048300022D30020804604462FE004EB44060421E6
:10484000686801EB86010144288EA0F57F42FF3A9B
:1048500016D0134AC0EBC00002EB800000EB8602CA
:1048600002F10900431E00908868121DC0F3072161
:10487000000C01F096FF28B1FF2008B0BDE8F081E0
:1048800001A8EBE70821686801EB8601641C415C24
:10489000E4B201EB0800C0B28046BC42CDD3ECE7E5
:1048A0009803002070B588B005461422234902A859
:1048B000FFF738FD02A800F043F8204800247438C0
:1048C000CDE90040A0F501722C231121A43800F09D
:1048D00057FC42F2107000F00BFE00F02BFA0120A2
:1048E00000F0E0FD002823D14FF47A760121304614
:1048F00000F044F900281BD100F0D0F8002817D1AF
:10490000009433460022FE210120019400F0ECFCCB
:1049100000280DD1094840F6B833903800900022A5
:10492000FE21012000F076FC002801D115B10A20FB
:1049300008B070BD002000F0A9FAF9E70C89000862
:1049400010B5044601F062FA01F0A8FA04F10C0176
:10495000481E01F051FB04F10A0001F051FC01F086
:104960007BFC04F11001481E01F0BEFD01F0CEFDFC
:10497000A11D201D02F01EFA02F0B4FA04F1080095
:10498000BDE8104002F0A6BD2DE9F047054600261F
:104990003348314601EB4102825CAA4203D0491CF4
:1049A000C9B20C29F6D30C2958D001EB410101EB17
:1049B0000009DFF8B08099F80270032F2AD098F828
:1049C0000300B84224D00FB901F0AAFBDFF894A08D
:1049D00098F806400AF1080A05E0641EE4B2384679
:1049E0005AF824108847002CF7D127B1012F05D0A1
:1049F000022F0DD108E00121062007E0002106204A
:104A000000F012FA002100E00121022000F00CFA6F
:104A100088F8037099F80100012802D0022807D015
:104A20000DE098F80510A94209D088F8055005E076
:104A300098F80410A94202D088F804502E46002E9F
:104A40000CD0084E98F807400C3605E0641EE4B21E
:104A5000284656F824108847002CF7D1BDE8F08787
:104A6000B08900084000002010B503F0F5FC02F00A
:104A7000FFF9BDE8104000F0BFBD0000064901226B
:104A800028B1012805D0022800D18A7070474A70E9
:104A900070470A70704700004000002010B50022E7
:104AA0000821104601F036F90449C880A0F57F417D
:104AB000FF3901D0002010BD322010BD5000002071
:104AC0002DE9FC412C4E05460C4630784FF000078E
:104AD00041080BD040F00100307000F0D1F97F2880
:104AE00006D0052804D00E20BDE8FC813770F4E71D
:104AF0008DF80050280A8DF8010031788DF80210E9
:104B000003D041F001008DF802006946E4B10022B3
:104B10008B18A05C521CD2B2D870052AF8D30022A0
:104B2000F08802F003FE024625B3707812490300B4
:104B300001F10C0101D0401EC0B200280FD0FAD103
:104B400051F8047C0F60F6E74FF0000001EB000223
:104B500000F10100C0B2D7700528F7D3DFE72CB110
:104B60006078247845EA004040EA04650D600BB99E
:104B7000012070701046B7E7500000202DE9F04189
:104B80000D46044600220321104601F0C3F81449E3
:104B90004FF6FF76B042488011D08C8000204870DC
:104BA0000446104F10E022460321012001F0B2F824
:104BB00004EB840107EBC101B042088302D132202B
:104BC000BDE8F081641CE4B2AC42ECD3044A01219C
:104BD000521C41F2290000F0E3F90020F0E7000048
:104BE00064000020FC02002005498A790AB10D20EA
:104BF0007047034A08321060012088710020704716
:104C0000400000200549CA790AB10D207047034AC7
:104C10000C3210600120C871002070474000002055
:104C200005490A780AB10D207047034A083210601E
:104C3000012008700020704764000020084910B56A
:104C40008A780AB10D2010BD054A08321060012093
:104C5000887002F11000407802F036FE002010BD8E
:104C600040010020084910B5CA780AB10D2010BDD6
:104C7000054A0C3210600120C87002F10C00407827
:104C800002F036FE002010BD4001002005498A7860
:104C90000AB10D207047034A083210600120887065
:104CA000002070477000002005498A880AB10D2055
:104CB0007047034A0C321060012088800020704742
:104CC000000100200549CA880AB10D207047034A37
:104CD000103210600120C8800020704700010020C1
:104CE0000549CA780AB10D207047034A0C3210609A
:104CF0000120C870002070472401002005494A782F
:104D00000AB10D207047034A121D1060012048703F
:104D1000002070472401002005498A780AB10D203F
:104D20007047034A083210600120887000207047E5
:104D30002401002010B5002000F006F8BDE8104066
:104D4000002000F039B800002DE9F041184D04466C
:104D50000027287805F10806012802D103F06EFC2F
:104D6000377014492C7004EB4400AF7001EB400025
:104D700068600078E8700E4D103D4CB1287801282D
:104D800013D0012C0FD00120BDE8F04103F03ABC54
:104D9000307808B903F052FC2878002805D1BDE826
:104DA000F04102F091BD0020EEE7BDE8F081000087
:104DB00050010020AB8A00082DE9F041184D04464F
:104DC00000272878A5F10806012802D103F036FC57
:104DD000377014492C7004EB4400AF7001EB4000B5
:104DE00068600078E8700E4D183D4CB128780128B5
:104DF00013D0012C0FD00120BDE8F04103F002BC1C
:104E0000307808B903F01AFC2878002805D1BDE8ED
:104E1000F04102F06DBD0020EEE7BDE8F08100003A
:104E200058010020AB8A000830B4104B012404FA6A
:104E300000F25868012910D0904358605B687BB13C
:104E40000B4A0720401EC0B2155C04FA05F1194256
:104E500008D0E8B230BCFFF7AFBF02435A60EDE7BD
:104E60000020F7E70028EDD130BC7047400100205A
:104E7000A48A0008014800787047000070000020F4
:104E800001484078704700007000002010B50C4CBD
:104E90004FF000024FF0020108B1002000E00120B5
:104EA00000F038FFA08080B2A0F57F41FF3905D027
:104EB00002F020FE02F02EFE002010BD322010BDB8
:104EC0007000002010B50024FFF72CFA204610BD1A
:104ED00010B50024FFF726FA204610BDFFF722BACE
:104EE00038B514466A4600F08DF8002816D1009BAC
:104EF00059782A2913D008DC032910D004290ED0B0
:104F000005290CD0272908D109E0312907D03629F5
:104F100005D03B2903D03F2901D01F2038BD034ACB
:104F2000D988926832F81110218038BD80000020A5
:104F300038B514466A4600F065F8002826D1009B73
:104F400059782D2923D010DC232920D006DC09290B
:104F50001DD00A291BD00B2917D118E0252916D0FE
:104F6000282914D02B2910D111E037290FD006DCC5
:104F70002F290CD032290AD0342906D107E03C2948
:104F800005D0402903D0442901D01F2038BD034A51
:104F9000D988D26852F82110216038BD80000020E5
:104FA00038B514466A4600F02DF800281FD1009B42
:104FB00059782C291CD00DDC242919D005DCB9B175
:104FC000012915D0022911D112E0262910D0292952
:104FD0000CD10DE033290BD004DC2E2908D0302968
:104FE00004D105E0352903D03E2901D01F2038BD6A
:104FF000024AD9885268515C217038BD8000002077
:105000008088704738B514460022ADF800206A4603
:1050100002F0D8FE002807D10448BDF80010C06F88
:1050200000EBC1002060002038BD0000800000209F
:1050300010B50246002053783549492B30D2DFE8BD
:1050400003F030253E3527402F2F2F3A29422F2FAE
:105050002F2F2F2F2F2F2F4A44504C46524E48545B
:10506000585E6264332E332E33382E33382E332E6F
:10507000332E33382E332E33382E2F2E33382E2F17
:1050800033382E33382E2E2E3C2B5600496809E03B
:1050900089680CE0C96800E00969002900D0042093
:1050A00010BD49690029FBD0012010BD8969002984
:1050B000FBD0022010BDC969EFE7096AEDE7C96BB3
:1050C000F0E7096CF3E7496CE7E7496AEAE7896AC0
:1050D000EDE7C96AE1E7096BE4E7496BE7E7896B4C
:1050E000DBE7896CDEE7C96CE1E7096DD5E7496D5F
:1050F000D3E7496E04E0508851F8200010BDC96D17
:105100000029F8D110BDC96EFAE7496FF8E7000031
:10511000800000201CB5144601AAFFF773FF002889
:1051200025D1019843782C2B22D00FDC222B1FD0C5
:1051300005DCEBB1012B1BD0022B17D118E0242B7F
:1051400016D0262B14D0292B10D111E0352B0FD0DF
:1051500006DC2E2B0CD0302B0AD0332B06D107E0E7
:105160003E2B05D0412B03D0492B01D016201CBD6E
:105170000121002300911A46214601F09DFA1CBD31
:1051800010B4234C029BA0672180E267186860601E
:105190005868A0609868E060D8682061186960610C
:1051A0005869A0619869E061D8692062986BE063F2
:1051B000D86B2064186C6064186D6065186A606252
:1051C000586AA062986AE062D86A2063186B6063CC
:1051D000586BA063586CA064986CE064D86C206530
:1051E000586DA065986DE065D86D2066186E606694
:1051F000586EA066986EE066D86E2067186F60677C
:1052000010BC49F6FF714FF4805001F039BB00002B
:10521000800000202DE9F0471D4D8846089E6988D2
:105220009A46914611B10A20BDE8F087194C002733
:105230003A4660850521012000F06CFDA0F57F4114
:10524000E084FF3919D084F83880A4F82C90A4F8B1
:105250002EA084F824701EB1C4E9016784F8287078
:1052600000212046FFF797FA02460828E08C4FF00D
:10527000004104D803F02CF905E03220D4E70022E5
:1052800003F026F947206988491C6980CCE70000B3
:10529000000100205C03002070B50D460646002486
:1052A000FFF7EEFD052801D00E2070BD304601F05D
:1052B000A3FC20B10168002903DA332070BD0A2065
:1052C00070BD90F83220F02A05D812B9012180F87B
:1052D0002410204670BDFD2A04D02946BDE8704048
:1052E00002F02ABE0B2070BD2DE9FF5F05463C4849
:1052F0000F46DDF83C8001889B4619B10A2004B0B6
:10530000BDE8F09F374C4FF0000A81465246658554
:105310000421504600F0FEFC4FF6FF76E084B042D8
:1053200001D13220EBE784F8327084F834700298AF
:10533000A085A4F82EB00E9884F83300504684F867
:1053400024A0B8F1000F12D0C4E9018084F828002D
:10535000268600212046FFF75BFA02460828E08CEB
:105360004FF0004128D803F0B3F8054628E041F695
:10537000FF102844B9F8085081B2012D04D0C84666
:10538000284603F0DDF808B1354604E0B8F8081007
:10539000491CA8F80810B54201D14720AFE71149D0
:1053A000C5EBC500743101EB8000A060606025860C
:1053B000012084F82800CCE7002203F089F8472573
:1053C000FE2F02D3A18DE08C01E0E08C002100F0E3
:1053D0004FFDB9F800102846491CA9F800108EE7C7
:1053E000000100202403002009480178012901D090
:1053F00000207047C06803E0817F022903D0006A63
:105400000028F9D1704703218177006070470000C0
:105410001401002008494888401C80B20A2800D3A3
:1054200000208A88904203D10120487000207047F4
:10543000024901EB4010704714010020B403002022
:105440000B4B10B500225A800A499A80104600EB97
:10545000C00401EB8404401C80B2A2770A28F6D372
:10546000012018709A60DA605A809A805A7010BDD4
:1054700014010020F40400200068042181777047A3
:1054800007494888401C80B20A2800D300208A8837
:10549000904202D10820FFF777BA48807047000099
:1054A0001401002070B5104E317809B10A2070BD8A
:1054B0000E4C00221146A076104600F02BFC4FF651
:1054C000FF75E083A84207D032780021012000F068
:1054D00021FC2084A84201D1322070BD3078401CCC
:1054E0003070002070BD0000240100205C06002008
:1054F000024908600020486088607047340100203D
:105500000549496804E0814201D1012070470968DA
:105510000029F8D100207047340100202DE9F04126
:105520009846069E17460D0004460AD000F022F861
:105530000F480168B5FBF1F0A0602EB1012E03D039
:1055400009E00A20BDE8F081B5FBF1F201FB125140
:1055500009B1401CA06008B90120A060E760267571
:105560002046C4F81080BDE8F041FFF7CDB8000038
:1055700034010020094B002259680BE0814207D119
:1055800008681AB110600020086070475860FAE798
:105590000A4609680029F1D10A2070473401002029
:1055A00010B50020FFF76AFA02488168491C816043
:1055B00010BD0000340100200D4900200A6842F0AF
:1055C00001020A60091D0A68D207FCD0094A0021BD
:1055D0001170074914310A6822F001020A600A6852
:1055E00022F002020A600A6822F406420A6070474A
:1055F000006400402800002010B500F031F8BDE83C
:10560000104000F07DB800000C4910B50868002477
:1056100040F001000860086840F002000860086877
:1056200040F40640086005491439086820F001007C
:10563000086000F005F8204610BD0000146400402A
:1056400010B51420FEF77AFF1320FEF777FFBDE8B0
:1056500010401620FEF772BF004870473800002047
:1056600070B5FFF7F9FF24490968244C4FF0010396
:10567000227A4A4012F0060F09D04A0701D50322C8
:1056800002E08A0702D50222427100E04371A16064
:105690006178002231B1184910390968C1F382617B
:1056A00007291BD06280144925781439012D096817
:1056B0004FEAC1711AD000291CD12370437100F048
:1056C000F7F92078012815D16078002812D1E06818
:1056D00000280FD0BDE8704000F0EAB96188491C8D
:1056E00089B261801429DED96270DCE70029EBD031
:1056F0002270427170BD0000186400402800002034
:1057000070B52D4C00252078012803D12570062086
:10571000FFF73AF96079032802D0E07801280BD12D
:105720002079012802D10420FFF72EF920790328DF
:1057300009D00120FFF728F92079032803D010B100
:10574000E078012808D16079022805D10520FFF70B
:105750001BF90420FFF718F9207901281AD1607984
:10576000022807D1E07800BB0420FFF70DF920796B
:1057700001280FD16079012817D1E078012803D0E2
:10578000607801280AD010E00520FFF7FDF82079A5
:1057900001280AD06079012804D006E00420FFF730
:1057A000F3F8F1E70520FFF7EFF86570A570E570F5
:1057B00060792071002070BD38000020034800216E
:1057C000017041708170C170017170473800002014
:1057D00010B5FFF741FF094909684FF001024B0777
:1057E00001D5C27004E0890701D5427000E08270E3
:1057F000024904201439086010BD000018640040FC
:10580000024A0421918000F003B800002800002023
:1058100070B504462C48014602680023C21302609A
:1058200002681204FCD443F001020D460A602648C7
:10583000001D0268D207FCD043F04D002860D1F86B
:10584000000240F00100C1F80002D1F81C026FF321
:105850000D00C1F81C0200226FF0071001EBC2031B
:10586000C3F84002C3F84402521C92B20D2AF5D983
:10587000D1F804026FF30D00C1F80402D1F80C0254
:105880006FF30D00C1F80C02D1F814026FF30D0094
:10589000C1F81402D1F8040243F6FE721043C1F8B5
:1058A0000402D1F8000220F00100C1F80002074E06
:1058B000002535707570F560FFF780FF2046B560F4
:1058C000BDE8704000F05CB8006400402800002093
:1058D0002DE9F041284F00252C463868800720D05C
:1058E00026480068410700D50125810700D501241D
:1058F0009DB1C608FFF78EFD4FF0200878B11F4913
:1059000046608572091DC472096801F00F02082AF9
:1059100000D90822027434B11BE0460DEAE7C7F84B
:105920000080BDE8F08115490831096841740B0A0F
:1059300083740B0C090EC3740175042A09D90F492D
:105940000C31096841750A0A82750A0CC275090E84
:1059500001763868C00605D5FFF77EFE012101708B
:1059600010203860C7F80080FFF78AFDBDE8F041DD
:105970000120FFF783B800000C640040B0650040D0
:1059800010B50446FFF718FE00221146104806E045
:10599000A34202D100EBC10205E0491CC9B230F8B4
:1059A0003130002BF4D18AB1517913795088927932
:1059B00019441205074BA2F5801203EB01410A437B
:1059C000401E024304480260002010BD3C2010BD70
:1059D000208900080000FFFF1C64004010B5017A18
:1059E0004FF6FF7349B18188994206D1144A9188D4
:1059F000332902D88180491C9180817982880129CC
:105A00001CD0017A012906D09A420ED0D0B20022D1
:105A100040F2FF7107E0C17949B19A420ED0008887
:105A200081B2D0B2012200F00DF8002010BD9A42E0
:105A300004D0008881B2D0B20022F4E73D2010BD2E
:105A40002800002070B5154B8408D3F81C5201269D
:105A5000A640B543C3F81C52E400C0F3400504EB74
:105A6000850404F51074A40853F82450012A05D0C5
:105A70004901C00706D00904A8B205E0102242EA95
:105A80004111F6E7280C0004084343F82400D3F83A
:105A90001C023043C3F81C0270BD000000640040CB
:105AA0004FF0E0214FF40020C1F8000270470000E1
:105AB000064810B50178012901D03D2010BD40787D
:105AC00008B9FFF7EDFF002010BD000028000020FE
:105AD00030B5194A002319461468E40701D03F2065
:105AE00030BD154D047C2D1D2C60C47A44B10221BB
:105AF000847AB4B1406841EAC00040F0050015E086
:105B0000057DD0F8114065F31F640B4D08352C60FE
:105B1000057ED0F8154065F31F64074D0C352C60E9
:105B2000E6E7808841EA405040F0010010600349F8
:105B300001204870184630BD8065004028000020D4
:105B400070B50E480C4901600068C0F382600728F8
:105B500010D10B4C00256570E06810B1FFF78CFC8C
:105B6000E560FFF741FCE060002803D0BDE870402D
:105B7000FFF7AEBF70BD00000101010008640040E6
:105B80002800002038B501210846FEF71FFD01213D
:105B90000820FEF71BFD6846FEF796FC4FF4807068
:105BA000ADF8000048208DF80300134D03248DF854
:105BB000024069462846FEF70CFC6846FEF784FC66
:105BC0006915ADF8001018208DF803008DF802401B
:105BD00069462846FEF7FDFB01214FF4EA10FEF767
:105BE00047FC01214C062046FEF7D8FC0021204648
:105BF000FEF7E0FC38BD0000000C014010B5FEF7D8
:105C00006BFCBDE81040FFF7BDBF000010B5A0F56C
:105C10001C51103901D0502010BD4FF0E02406482F
:105C200060610F216017FEF79FFC0020A061072034
:105C30002061002010BD00007FFC0A0070471CB5E9
:105C4000007F0022032100F043FA00200090019021
:105C5000694648F2301000F0DDF901210320FFF71A
:105C6000E3F8BDE81C4000F05BBA00001CB5FFF78C
:105C700007F98DF80000034800226946408801F0CA
:105C800055FD1CBD640000207047000030B50B4C72
:105C9000002354F8335085420AD804EBC3056D68DD
:105CA000854205D3884201D3904201D9012030BDFD
:105CB0005B1CDBB2082BECD3002030BD70890008E0
:105CC00070B5024612480021104D04881AE001EB1D
:105CD000410005EB001013684668B34210D1937978
:105CE000867AB3420CD1037B012B09D18378012B37
:105CF0000BD02BB9D379012B02D1C37A012B04D05D
:105D0000491C89B2A142E2D3002070BD6401002089
:105D10003E000020F0B50E4B05464FF6FF74188884
:105D2000082801D32046F0BD461C1E80094B00EB1D
:105D3000400703EB07131E809D7000251D734FF075
:105D400000465E601C8119745A829D82F0BD00007D
:105D50003E0000206401002007490988884201D9DB
:105D600032207047054B00EB400203EB021200218A
:105D7000117300F015B800003E00002064010020FF
:105D800070B50024054D04E02046FFF7E5FF641CD4
:105D9000A4B228888442F7D370BD00003E000020E2
:105DA00070B500EB4001104800EB01140021A07811
:105DB00010B1012809D00BE0E07A48B9257B2173A6
:105DC000201DFFF70BFE257370BDE07A012804D07B
:105DD000201DBDE87040FFF701BEE172201DFFF7F6
:105DE000FDFD0121E17270BD6401002005490988B3
:105DF000884201D900207047034900EB400001EBC5
:105E0000001070473E00002064010020014900207E
:105E1000088070473E000020F0B4134C2488A04254
:105E200002D93220F0BC7047104D00EB400405EB66
:105E3000041401250026002901DA267304E0082B4A
:105E400001D92020EEE7257321F0604767608900C3
:105E500001D5A57200E0A67222B1E572A375F0BC6F
:105E6000FFF79EBFE672F9E73E00002064010020C4
:105E7000084A10B51288904201D9322010BD064B55
:105E800000EB400203EB0212918209B900F09CFF83
:105E9000002010BD3E0000206401002006480021C3
:105EA0000922017041708170C17002710222427139
:105EB0008171C171704700004000002010B50024BE
:105EC000A0F58051134614390ED1094881688B42E0
:105ED0000AD0002B01DB002908DA8122114618467E
:105EE000FFF7D4FE012801D0204610BD202010BDB0
:105EF0005000002010B50346002041F20104A342E7
:105F000002D0114300D0202010BD00000246002026
:105F10006FF48053D21807D0022A08D0132A15D064
:105F2000142A00D10B4870470A48001F704751B12E
:105F3000084A121F52789142F8D80648083000EB00
:105F40008100001F70470348C01E70470148001DB4
:105F5000704700005400002030B4014600200D4C72
:105F600001F6FD71B1F5005108D011290AD01229AE
:105F700006D1A188E08830BCFFF77ABF00216170AC
:105F800030BC7047E088A168082330BC0022FFF7CE
:105F900043BF0000500000201CB5FEF76BFF104C03
:105FA000803001AAA060002141F21400FEF7C0FF7A
:105FB00030B90198002803DAA06840F00040A060E2
:105FC0006A46002141F21500FEF78AFF002805D13C
:105FD000BDF80010A180E088FFF74AFF1CBD00005B
:105FE000500000200348082300228168C088FFF782
:105FF00013BF000050000020054800214FF6FF723B
:1060000001708160C28081804170817070470000A2
:10601000500000202DE9F04107460C480E4600F1E3
:10602000100584780AE0641EE4B2314655F8242055
:106030003846904710B15020BDE8F081002CF2D1D5
:1060400031463846BDE8F041FEF73ABD5000002029
:1060500070B50546C1F3064488B2C4B1B8B1FEF7C5
:1060600009FFA0420DD000210A4B6D1EA9420AD0A3
:1060700001EB810003EBC002107FA04203D1508BE3
:1060800008B10B2070BD491C11F0FF01EED00020BB
:1060900070BD0000FC0200200246002002F6EA72F9
:1060A000B2F5005205D0012A0AD0132A00D10648C1
:1060B000704701EB8100054901EBC00008387047CB
:1060C0000148C01C7047000065000020FC02002051
:1060D0002DE9F0418046094816460F46047800F144
:1060E000080507E0641EE4B2324655F8243039460C
:1060F00040469847002CF5D1BDE8F08164000020AF
:106100000246002002F6EA72B2F5005203D0012ADC
:1061100005D100F0D5B8491EC8B202F0E1B9704708
:1061200010B5FEF7ADFE05280DD10748407838B10F
:10613000022808D100210420BDE8104000F090B9E9
:1061400000217F20F8E710BD640000207CB5FEF739
:1061500091FE104D0446012300F5E0611A4668885F
:10616000FFF75AFE00208DF8000002466946688855
:1061700001F0DCFA20B17F2207212046FFF7A8FFBB
:106180000024204602F0ACF9641C14F0FF04F8D09F
:106190007CBD0000640000202DE9FC416A4600211E
:1061A00041F21700FEF79CFE18B91349BDF8000034
:1061B0008880124E00244FF6FF7741F2160804EB58
:1061C000840006EBC005288BB84208D0601CC1B221
:1061D00001AA4046FEF7ACFE08B901982862641C8B
:1061E00014F0FF04EBD0044A0121521C41F22900B3
:1061F000FEF7D6FEBDE8FC8164000020FC02002012
:1062000030B50A4B00224FF6FF71598014465A7080
:106210001046074D02EB820205EBC202401C00044F
:106220001183000CFAD01C7030BD00006400002007
:10623000FC02002070B5074800260568066006E0ED
:106240002C462D682660616809B1A0688847002D3A
:10625000F6D170BD60010020014900200860704740
:106260006001002010B542780021233A152A16D289
:10627000DFE802F00B15151010101717171515157C
:10628000151C1C1C1515212121000178408801F0E6
:1062900021F803E00178408801F011FA0146084630
:1062A00010BD0178408800F0F0FEF7E701784088E3
:1062B000FFF726FFF2E701784088FFF74DFEEDE794
:1062C00038B50C48818879B1012000904FF47A707C
:1062D00041430023084A0948FFF720F904460020FB
:1062E000FFF7C4FC204638BD0448FFF743F90020FF
:1062F00038BD0000640000206D5C0008E40200204E
:10630000F8B50546C07A01280ED0287C01285CD15A
:10631000287F032814D0687C002856D128797F2252
:1063200000F07F0000214CE0FEF7A4FD696800F555
:10633000E060814249D1BDE8F8400020FFF796BCFB
:10634000E88B224900EB800001EBC004687C94F8E4
:1063500024607F2248B1002504280ED005280CD0E7
:106360007F280DD084F8245025E084F82420164698
:10637000207F0021FFF7ACFE1DE084F8240001E03F
:1063800084F824202046FFF7BBF800950746618B70
:106390004FF47A70414323460D4A1846FFF7BEF882
:1063A0004FB994F82420207F0221FFF791FE0021AD
:1063B0000320FEF739FD94F82420B24205D0207F57
:1063C0000121BDE8F840FFF783BEF8BDFC020020C4
:1063D0003F5C000810B50446406838BB207C0228AA
:1063E00033D11A49A07C0978884201D000282CD1E9
:1063F000607C802826D008DC01280BD0022824D11C
:106400000121042000F02CF810E0812805D082281A
:106410001BD108E001210520F4E70121802000F0D4
:106420001FF801F067FB01F075FB58B16068B0F52B
:10643000E06F0AD9207C012807D12046BDE8104032
:10644000FFF75EBF01217F20DCE710BD7000002058
:106450000249C86800B10047C87870477000002042
:106460002DE9F0411F4F05467878A84237D0012921
:1064700001D0052833D11B4E0836052D0CD1BC7830
:1064800008E0641EE4B2294656F824200020904714
:10649000002824D1002CF4D17D70042D0AD0052DC4
:1064A00003D07F2D04D1052000E00620FEF74CFC30
:1064B000BC7808E00220F9E7641EE4B2294656F8E9
:1064C000242001209047002CF6D1052D03D0BDE8F3
:1064D000F04100F0BDBABDE8F04100F09DBABDE862
:1064E000F081000070000020074A4FF6FF73938090
:1064F0000078D0700868D0607F20107080205070C5
:106500000020907070470000700000200F480021AC
:1065100041608160C160016141618161C16101626D
:1065200041628162C162016341638163C16301644D
:1065300041648164C164016541658165C16501662D
:1065400041668166C166016741677047800000202F
:106550007CB50446002000900D460123042201A8CA
:10656000FEF7B6FC61782C294DD01EDC222930D0F4
:1065700010DC1E2906D006DC012903D0042901D035
:106580000A2971D17DE01F297BD0202979D02129CA
:1065900079D176E0A1F12300092874D2DFE800F078
:1065A0001D737323292E3E444900A1F12D001B28A1
:1065B00069D2DFE800F02E434966604E6868536692
:1065C0005A68686866686866666668686868686861
:1065D0006600608800F0B6FD7CBD21786088019A75
:1065E00000F07AFD7CBD2A782178608801F034F8CB
:1065F0007CBD2178608801F01BF87CBD6088019922
:1066000000F0FBFF7CBD2A782178608800F0C0FF95
:106610007CBD6088019900F0A1FF7CBD2A782178BB
:10662000608800F002FD7CBD2178608800F0E9FC04
:106630007CBD6088019900F0C9FC7CBD2A78217876
:10664000608800F077FC7CBD6088019900F056FC02
:106650007CBD20780199FFF7FBFC7CBD2A7821786E
:106660006088FFF747FC7CBD0DE021786088019AC7
:10667000FFF724FCF7E72A460521204601F086FAB9
:10668000F1E70020EFE72A46F7E70000094B10B5D5
:106690009A6F00211B8809E032F83140844203D10F
:1066A00002EBC100807810BD491C89B29942F3D336
:1066B000002010BD800000202DE9FF4F81B01C4656
:1066C000154682464FF053084FF000098788DDF8E1
:1066D00038B001F02DFB06001AD05046FEF7A8FC9A
:1066E000854203D3222005B0BDE8F08F421B14B1D0
:1066F000A24200D922467119BBF1010F0AD007F05E
:106700000403CDF800900298FEF7E8FB4FF0000874
:106710004046E8E707F004030298FEF7D3FBF5E7ED
:106720002DE9F8430027089D1C4616464FF0010846
:10673000202817D217600021424685F800800828DB
:106740000CD2DFE800F00B040406080406082270EF
:1067500005E0022000E00420207000E04621084609
:10676000BDE8F8836A46FEF74DFC0028F8D1009892
:10677000818811F0280F03D08A0703D41820EFE78F
:106780004620EDE7490701D42F7001E085F800802D
:1067900001F036FA30600098FEF74AFC20700020C5
:1067A000DEE7F8B51D46069C164620280FD36A463C
:1067B000FEF728FC00280BD10098818811F0180FF3
:1067C00005D0CA0705D0490705D4002104E04620BA
:1067D000F8BD1720F8BD0121217001F0A9FA306041
:1067E0000098FEF725FC28700020F8BD2DE9FF4F2A
:1067F00081B0814686884078DDF83CB01C4615465D
:106800004FF00A084FF0000A192831D008DC01289F
:106810002ED004282CD00A282AD0162806D127E00A
:106820001C2825D01F2823D0472821D0484601F016
:10683000E7F907001CD04846FEF7FAFB854203D370
:10684000222005B0BDE8F08F421B14B1A24200D94E
:1068500022460E99781901290CD006F00403CDF8D0
:1068600000A00299FEF734FB8BF800004FF00008FF
:106870004046E6E706F004030299FEF723FBF3E740
:106880002DE9F34F634881B00024D0E903C6D0E975
:106890000A87D0E901B9D0F878E0D0F824A00088C0
:1068A0000090B1E03EF83400019A90426FD3029A12
:1068B00090426CD800230EEBC4059DE0E888D16FB0
:1068C000184401EBC0000179490630D541781729F9
:1068D0005ED00FDC052964D005DCD1B102294ED091
:1068E000032924D124E0092932D00B296AD01529A3
:1068F0001DD115E01D296DD006DC18291FD01A29DD
:1069000057D01B2976D131E0462928D0482971D1AA
:1069100068E0C18842883F481BF80110406905E0E3
:10692000C18842883B481AF80110006B815461E02D
:10693000C1884288374839F81110806905E0C1885C
:106940004288344838F81110406B20F8121051E09A
:10695000C18842882F485CF82110C0690CE0C188CA
:1069600042882C4856F82110006A05E0C188428808
:10697000284857F82110806B40F822103AE04188EF
:10698000D26B52F82110C2881BF8020007E038E0F1
:106990004188926C52F82110C2881AF802000870DF
:1069A00028E04188126C52F82110C28839F8120090
:1069B00006E04188D26CC08852F8211038F81000E7
:1069C000088017E04188526CC08852F821105CF8AA
:1069D00020000EE04188126DC08852F8211057F84F
:1069E000200006E04188526DC08852F8211056F808
:1069F000200008605B1C9BB2A878064A98423FF6CC
:106A00005DAF641C0098A4B28442FFF44BAFBDE8B4
:106A1000FE8F0000800000202DE9F04100240A4E86
:106A20000A4F0CE0C4EBC40006EBC0050021688DE2
:106A3000FEF732FC284601F0C1FD641CA4B2388880
:106A40008442EFD3BDE8F081240300200001002040
:106A500070B50024074D084E07E0C4EBC40005EBF9
:106A6000C00001F0ABFD641CA4B230888442F4D3B2
:106A700070BD000024030020000100207CB5054605
:106A8000FEF7FEF905281CD11E49E88B498888428B
:106A900017D81D49C0EB001001EB8004287C94F846
:106AA000391088420ED2002000900190608D8DF840
:106AB0000000000A8DF80100694648F21020FFF737
:106AC000A9FA7CBDE18D022649B14FF47A704143A9
:106AD00023460E4A04F10C000096FEF71FFD94F8C1
:106AE0003800F02807D855F8110F206368686063F4
:106AF00084F824607CBDE88B05F11101BDE87C4081
:106B000001F0BEB9000100205C030020157F0008E1
:106B10002DE9F04100242646234FDFF8908019E04C
:106B2000C4EBC40108EBC1052868002803DAE88C2F
:106B3000FFF712F903E0688D012100F0C0FD95F820
:106B4000320085F8340085F82460284601F036FDCF
:106B5000641CA4B238888442E2D300251FE01349A4
:106B6000C5EB0510383101EB80042068002803DAFA
:106B7000E08CFFF7F1F80AE000212046FDF70BFE5C
:106B800084F839000246E08C216801F0A1FC84F809
:106B9000246004F10C00FEF7EDFC6D1CADB27888AA
:106BA0008542DCD3BDE8F0810001002024030020F1
:106BB00010B50446FEF764F9052812D10C49E08BA4
:106BC000098888420DD80B49C0EBC00001EBC0001A
:106BD00090F83210F02905D8002902D1012180F85F
:106BE000241010BDBDE81040002101F0A5B900003F
:106BF0000001002024030020094A0021C1EBC10349
:106C000002EBC3035B8D834204D1C1EBC10002EBF5
:106C1000C0007047491C0904090CEFD000207047E0
:106C2000240300202DE9FE43002541F2FF77A8460A
:106C3000DFF8789161E05E49C5EBC50001EBC00467
:106C40006A46608D0121384480B2FEF771F978B14F
:106C5000CDF80080608D401E03280ED886B2FEF766
:106C600009F900EB0620009900F5C070084307E021
:106C7000009800F040400090ECE7009840F00040A1
:106C80002060608D02AA384480B20221FEF788F9A4
:106C900018B99DF8080084F83200608D01AA3844C4
:106CA00080B20321FEF71CF910B9BDF80400A085DD
:106CB000608D01AA384480B20521FEF711F910B9A0
:106CC000BDF80400E085608D02AA384480B2062138
:106CD000FEF766F918B99DF8080084F8330094F8B7
:106CE0002800012807D1608D41F6FF11084481B2C8
:106CF000208E01F025FC6D1CADB2B9F800108D425C
:106D000099D3002541F2FF374AE02949C5EB051028
:106D1000383101EB80046A46608D0121384480B22D
:106D2000FEF706F978B1CDF80080608D401E03288B
:106D30000ED886B2FEF79EF800EB0620009900F50B
:106D40000070084307E0009800F040400090ECE736
:106D5000009840F000402060608D02AA384480B264
:106D60000221FEF71DF918B99DF8080084F83800D3
:106D7000608D01AA384480B20321FEF7B1F810B942
:106D8000BDF80400A085608D01AA384480B20521B9
:106D9000FEF7A6F810B9BDF80400E0856D1CADB291
:106DA000B9F802008542B0D3BDE8FE83000100209F
:106DB000240300200348002101800181418081805B
:106DC000C18070470001002010B5FFF70FF80400E4
:106DD00004D0204600F060FE0028FAD110BD00006B
:106DE0002DE9F04100248046264625461E4F33E01B
:106DF00011D0401C80B20125B8800A2801D30020A0
:106E0000B8801A4A80B202EB4014884205D10920AA
:106E1000FDF7BAFD01E0012D14D19CB10026201D23
:106E2000FEF74EFF18B1017C2177408A08E06068C8
:106E30000E21B1EBD01F0FD1022020774FF6FF704B
:106E4000E08301E046B13CB1202221464046FDF7F7
:106E500069FA0120BDE8F0817988B8888142C7D1FC
:106E60004FF00000F6E7000014010020B4030020FA
:106E700038B51A4C00256078012803D165700820C8
:106E8000FDF782FDE068002826D013E0808BFEF736
:106E9000ADFF030009D0998A39B164204143104AFB
:106EA00003F118000095FEF739FBE0688577006A6A
:106EB000E06048B1817F0429E8D0C8B202280BD134
:106EC000BDE83840FEF7F4BDA068002804D1BDE855
:106ED00038400C20FDF758BD38BD000014010020DB
:106EE00089780008044800210122418081800270D5
:106EF0008160C16041707047140100201FB50C46CD
:106F000001F07AFA30B10168002911DA406800789E
:106F100070B902E0212004B010BD03AA0092200C39
:106F2000C4F3072102AB01AAFFF7FAFB0028F2D055
:106F30004620F0E77FB516460C46002501F05CFAC6
:106F400048B10168002903DAD4B14068017821B161
:106F5000462004B070BD2120FBE704EB44016FF034
:106F6000070202EB8101084403A90091806802AB8B
:106F7000C0F30721000C01AAFFF7D2FB054607E08A
:106F800036B13146FDF707FC082801D94720E0E774
:106F90002846DEE710B50C4601F02EFA002806D090
:106FA0008068002C03D004EB440100EB810010BD8D
:106FB00010B50C4601F020FA002806D04068002CDD
:106FC00003D004EB440100EB810010BD70B50C460A
:106FD000002501F011FA80B1002C0CDB00680028BC
:106FE00001DBA0420BD140F281110A462046FEF798
:106FF0004DFE012803D0284670BD212070BD202001
:1070000070BD70B50D46002401F0F6F930B1032DC6
:1070100006D0052D00D01524204670BD212070BD5E
:1070200000680028F8DB202070BD70B516460D46BC
:10703000002401F0E1F948B1006800280ADA022DC5
:1070400006D0062D00D01524204670BD212070BD2D
:10705000FE2EF9D2202070BD70B50D46002401F03F
:10706000CBF900280AD0012D06D0022D07D0032D20
:1070700007D0052D01D106E00446204670BD38300A
:10708000FAE72C30F8E72E30F6E770B50D4600260B
:1070900001F0B2F9040004D0012D04D0052D18D15F
:1070A00013E0212070BD0021FDF775FB0546E08C43
:1070B0002A46216801F00CFA064604F10C00FEF79E
:1070C00059FA36B984F8395003E004F10C00FEF7A0
:1070D00051FA304670BD000070B514460E460025CA
:1070E00001F0A0F9A0F57F41FF3907D01449012E26
:1070F00006D0022E10D01525284670BD212070BD67
:10710000002CF9DB00EBC00001EB80008068002858
:1071100013DA4FF4C0610AE0002CEDDB00EBC00095
:1071200001EB80004068002807DA4FF4B0610A469E
:107130002046FEF7ABFD0128DED1202070BD000007
:107140005C06002010B5002401F06CF9A0F57F4129
:10715000FF3901D0204610BD212010BD2DE9F84F88
:10716000DFF854801E4691468A468346002598F8EB
:10717000034008F10C070BE0641EE4B2009657F8D8
:1071800024504B46524659460020A847050011D1CD
:10719000002CF1D198F8034009E0641EE4B2009697
:1071A00057F824C04B46524659460120E047002C70
:1071B000F3D12846BDE8F88F240100202DE9F047DF
:1071C000154F00259046894682467C783E1D0DE08D
:1071D000641EE4B2434656F824C04A465146002095
:1071E000E04718B1292812D16D1CEDB2002CEFD167
:1071F0007C7808E0641EE4B2434656F824704A46A0
:1072000051460120B847002CF4D115B12920BDE822
:10721000F0870020FBE70000240100202DE9F04763
:10722000DFF85C9000260446374699F8025009F1D1
:1072300008080EE06D1EEDB2E37E58F82560A28AC4
:10724000A17E0020B047060003D0292E13D17F1C59
:10725000FFB2002DEED199F8025008E06D1EEDB29C
:10726000E37E58F825C0A28AA17E0120E047002DC8
:10727000F4D117B12920BDE8F0873046FBE70000C4
:107280002401002070B50D46002401F0CBF8A0F5D4
:107290007F41FF3907D00E49012D06D0022D0AD0BB
:1072A000032D13D10DE0002070BD00EBC00001EBF9
:1072B000800408340AE000EBC00001EB8004241DC8
:1072C00004E000EBC00001EB80041C34204670BDDC
:1072D0005C06002070B50C46002501F0A3F8A0F56F
:1072E0007F41FF3905D00E49012C04D0022C14D166
:1072F00008E0212070BD00EBC00001EB8000816838
:10730000008C05E000EBC00001EB80004168C08B01
:1073100008230022FEF780FD0546284670BD0000C8
:107320005C0600207FB504464FF000600025039006
:10733000012A27D01548002210F832308B4204D1A0
:1073400000EBC2004068039003E0521C92B21A2A7C
:10735000F2D380208DF80400217D8DF80510A18ADC
:107360000423090A8DF80610E17E8DF8071002A8A3
:107370001A4603A90095FDF7B1FDE08B002201A993
:1073800000F0D4F984F822507FBD0000D4890008B1
:1073900070B50446FDF774FD7F2801D0052828D17B
:1073A0001F49E08B0978884223D21E4900EBC000B8
:1073B00001EB8005207C08281BD1607C00F0E000F8
:1073C000402823D003DCD0B1202804D112E060286B
:1073D00021D080280AD0608AA882207D1E21E876EC
:1073E0002846BDE870400022FFF79CBF002085F8CA
:1073F000220070BD2146284600F0CBFE03E0214666
:10740000284600F078FF0100EAD170BD21462846E9
:1074100000F008FEF7E72146284600F02CFEF2E7D0
:10742000240100205C0600202DE9F0410025124EC9
:10743000124F1BE005EBC50106EB8104002084F828
:107440002200A068400003D54FF00040A0606060BB
:10745000208C08230022A168FEF7DEFCE08B0823C5
:1074600000226168FEF7D8FC6D1CADB23878854209
:10747000E0D3BDE8F08100005C060020240100207C
:107480002DE9F0410025114E114F10E005EBC5002C
:1074900006EB8004A07E01280ED0A06840F00040DA
:1074A000A060606840F000406D1CADB2606038784C
:1074B0008542EBD3BDE8F081FDF7DCFC00F5C06050
:1074C000A060FDF7D7FC00F5B060EDE75C0600209A
:1074D0002401002070B5054C0025242125700448A6
:1074E000FCF739FF6570A570E57070BD24010020C0
:1074F0005C0600200020704770B5174B00255C68C3
:107500007CB19968626820468A420BD89D6000D29F
:1075100011464268A2EB0102426000680028F8D1DF
:1075200004E09D6070BD606818B12468002CFAD139
:1075300070BD254624682846FEF71CF8E96809B1A5
:1075400028698847287D012801D00328EED12846E4
:10755000FDF7DAF8EAE70000340100201FB50C4619
:10756000FFF74AFB40B10168002902DA4068007861
:1075700020B1462004B010BD2120FBE703A80090F5
:10758000200C02AB01AAC4F30721FFF70AF9F1E7C7
:1075900070B514460E460025FFF72EFB20B101689A
:1075A000002903DB462070BD212070BD3EB934B1F7
:1075B0002146FDF72DF9082801D9472070BD28463E
:1075C00070BD10B50C46FFF717FB002806D0806889
:1075D000002C03D004EB440100EB810010BD10B57A
:1075E0000C46FFF709FB002806D04068002C03D0AA
:1075F00004EB440100EB810010BD70B50C46002582
:10760000FFF7FAFA80B1002C0CDB0068002801DBE0
:10761000A0420BD140F281110A462046FEF736FB0C
:10762000012803D0284670BD212070BD202070BDE8
:1076300030B50D460024FFF7DFFA30B1032D06D038
:10764000052D00D01524204630BD212030BD006816
:107650000028F8DB202030BD70B516460D4600240A
:10766000FFF7CAFA20B10068002803DB202070BDB4
:10767000212070BD022D04D0062D00D015242046F7
:1076800070BDFD2EFBD22024F9E730B50D46002455
:10769000FFF7B2FA002809D0072D06D2DFE805F07F
:1076A00005040709050B0D000446204630BD3230A5
:1076B000FAE72C30F8E72E30F6E73330F4E770B510
:1076C0000D460026FFF798FA040008D0012D08D0D7
:1076D000022D23D0032D1FD0052D1DD123E0212005
:1076E00070BD0021FDF794F80246E08C216800F09F
:1076F000EFFE060010D1204600F060FF06000BD11F
:1077000094F83200FE2802D3A18DE08C01E0E08CD9
:107710000021FEF7ADFB0646304670BD94F83200FE
:1077200084F83400204600F049FFF4E72DE9F74FD4
:107730004FF0000914460E46C8460098FEF756FB67
:10774000050005D0287B012804D03320BDE8FE8F3A
:107750000D20FBE705F11800FDF7D2FE0746A00754
:1077600001D5012F0FD0DFF818A100204FF0010B39
:107770008AF80000E00708D00021009800F01AFE07
:10778000040020D122E04820E0E7287C032805D02F
:10779000102803D0082801D0042817D10021009810
:1077A00000F008FE040011D00020217C06E0221821
:1077B000335C527C9A4209D1401C80B28142F6D897
:1077C00024B14FF001094FF001080DE000242D48CD
:1077D00004EBC40100EB8100807F48B1641CA4B2BB
:1077E0000A2CF4D3002474B1B9F1000F14D041E095
:1077F000092C02D10A20FDF7C7F8224804EBC40186
:1078000000EB8104EFE78AF800B0FEF751F90B2096
:10781000FDF7BAF83E2099E70098A083A87D207470
:1078200068686060A87AA072A87828B184F80BB064
:1078300028892081002007E00020E072F8E7315C11
:107840002218401C517480B2A97D8142F7D8B8F14A
:10785000000F0FD1012F06D00121009800F0AAFDE2
:1078600028B1A88A18B12046FCF778FF02E020462C
:10787000FCF77EFF8AF800B0FEF71AF9002065E7F2
:1078800014010020F404002000F006B972B6084884
:1078900008A109680160BFF34F8F08480168084AD2
:1078A00001F4E06111430160BFF34F8FFEE7000078
:1078B00000000020424F4F54000000000CED00E09B
:1078C0000400FA057047000070B50646064800F14E
:1078D0000805847805E0641EE4B2304655F82410AB
:1078E0008847002CF7D170BD400100207047000090
:1078F00070B50646064800F10C05C47805E0641E24
:10790000E4B2304655F824108847002CF7D170BDFA
:10791000400100202DE9F0412248224D4FF00001A6
:1079200047780830A0F118084678044698F8010016
:10793000C00725D02078062800D00026A8786A68DD
:107940000244527802B10127401CC0B2A870EA7804
:10795000904200D1A9706878B84203D03846FFF74A
:10796000B3FF6F706078B04203D03046FFF7C0FFBE
:10797000667098F80110491C88F80110BDE8F08184
:107980002878062800D00027A07862680244527840
:1079900002B10126401CC0B2A070E2789042DAD158
:1079A000A170D8E7500100201CB52EA0D0E900102E
:1079B000CDE90010FEF722F9FA20FDF721FF00B112
:1079C000FEE742F21070FEF721F900B1FEE7002059
:1079D000FCF768FF00B1FEE72448FDF757F900B156
:1079E000FEE72348FDF71CF900B1FEE72148FDF74B
:1079F00085F900B1FEE72048FDF772F900B1FEE716
:107A00001E48FDF789F900B1FEE71D48FDF74CF966
:107A100000B1FEE71B48FDF755F900B1FEE71A4833
:107A2000FDF70CF900B1FEE71848FDF71BF900B1AE
:107A3000FEE71748FDF7D8F800B1FEE71548FDF757
:107A4000E1F800B1FEE762B6FDF7DEFD00B1FEE74A
:107A5000694641F23420FDF733F800B1FEE7FDF747
:107A600003F8FCE70102030405000000F17A0008B6
:107A7000895C0008A37F00089F7F0008018100083F
:107A80007D7E00087F7E0008C5780008ED7800083C
:107A9000954700083D5C00082DE9F041134E07466C
:107AA0000025B46806E0A08BFEF7A0F9B84200D12B
:107AB0002546246A002CF6D1A5B100203070B068AC
:107AC000A84203D1286AB06005E00846016AA942CD
:107AD000FBD1296A01622846FCF74AFE012030707A
:107AE000FDF7E6FF2846BDE8F08100001401002004
:107AF0000020704710B5FEF7AFFB49F6FF714FF459
:107B00000050FEF7BDFE0320FFF7F4FCBDE8104077
:107B1000FDF796BC10B5FEF79BFC1B4C2070FEF7E2
:107B20002FF980206070002202231146A088FEF702
:107B300073F92078401E7F2801D30F2010BD41F635
:107B4000FF714FF48050FEF79BFEFFF799FCFFF7A3
:107B500069F8FEF721FBFEF71FFA0220FFF7CAFCC7
:107B6000FFF762FCFEF7D4FF01218120FEF778FCCD
:107B700001217F20FEF774FCFEF7E8FAFEF732FAE7
:107B8000FEF79EFB002010BD700000207CB5007940
:107B900015460C46000630D5002000900123042233
:107BA000294601A8FDF794F9172C26D011DC092CE1
:107BB00023D007DC0CB3022C1FD0032C1DD0052CC6
:107BC00019D11AE00B2C18D0152C16D0162C12D166
:107BD00013E01C2C11D008DC182C0ED0192C0CD062
:107BE0001A2C0AD01B2C06D107E01D2C05D0462CE0
:107BF00003D0482C01D016207CBD00207CBD0000A5
:107C000010B542780021494B262A71D015DC242A70
:107C10006BD2DFE802F0326A3A346A3C6A6A6A364A
:107C20006A3E6A6A6A6A6A6A6A6A6A406A51456A48
:107C3000534B6A555B595D5F65652F2A67D009DC38
:107C4000A2F12702082A50D2DFE802F052525C5C0F
:107C50005C575761362A64D008DC302A5CD0312A60
:107C60005AD0322A58D0352A3FD15AE0372A58D034
:107C7000462A08D0482A38D124E05A690CE09A698B
:107C80000FE0DA6913E01A6A11E0DA6B23E01A6C8C
:107C900021E05A6C1FE01A6B0AB14088811824E079
:107CA0005A6B12B3408802EB40011EE09A6BE2B1BE
:107CB000408802EB800118E09A6C0CE0DA6C0AE074
:107CC0001A6D08E05A6D06E09A6D04E01A6E02E043
:107CD0009A6E00E01A6F42B1408852F8201004E01A
:107CE00001784088FFF7CEFA0146084610BDFFE74D
:107CF00001784088FFF7C9FCF6E701784088FFF774
:107D000060FCF1E701784088FFF7A6F9ECE701781D
:107D10004088FFF73FF9E7E701784088FEF7BCF9B4
:107D2000E2E701784088FEF7F1F8DDE78000002007
:107D300010B542780021224B1C2A2DD00CDC0A2AD7
:107D40001DD004DC012A16D0042A11D115E0162A10
:107D500017D0192A0CD119E02E2A25D004DC2C2AA0
:107D600027D02D2A04D124E02F2A1DD0472A15D050
:107D7000FFF746FF21E05A6804E09A6807E0DA68F6
:107D80000DE05A6AD2B14088811817E09A6AAAB108
:107D9000408802EB400111E0DA6A00E01A696AB13A
:107DA000408802EB800109E001784088FFF700F984
:107DB00003E001784088FFF712FC0146084610BD39
:107DC00080000020F0B52A4B0024294FB3F800E0D2
:107DD000A446BEF101039DB2BF6F234626461BD3C6
:107DE00015E063195B0837F833E0864502D14FF0A0
:107DF000010C664606D90BB94FF00106A3F1010547
:107E0000ADB202E003F10104A4B2012E01D0AC42F4
:107E1000E7D9BCF1010F01D01420F0BD07EBC3047A
:107E2000134FE088A578441E2C440026A4B23546A2
:107E3000FF6F15E003195B0817F833C08C4502D1BA
:107E40004FF00106354606D90BB94FF00105A3F1F5
:107E50000104A4B202E003F1010080B2012D01D0BF
:107E6000A042E7D916B113800020F0BD1520F0BD67
:107E700080000020408D0021FDF70EBA704770474A
:107E80002DE9F84F89464FF0000B2049C0EB001058
:107E900001EB80065F465C464FF0040A4FF008088D
:107EA0001AE004EB44050AEB8500085860B1002293
:107EB0000092092202EB85028B5C08EB85028A5C4A
:107EC00009EB0701FDF704F8716808EB8500641CF5
:107ED000085CE4B23844C7B271680878A042E0D8C0
:107EE00096F83800758DF0280CD9094800F10C0679
:107EF000848805E0641EA4B2284656F824108847FA
:107F0000002CF7D15846BDE8F88F00005C03002034
:107F10000001002070B5468D064800F11005C488A8
:107F200005E0641EA4B2304655F824108847002CA2
:107F3000F7D170BD000100202DE9FE434FF000088D
:107F400089460646CDF8048045464446CDF808806B
:107F50001AE004EB4401092202EB8102CDF8008013
:107F6000835C082202EB81074FF0040C0CEB8101CB
:107F7000C25D415801A82844FCF7B0FF7068641C3A
:107F8000E4B2C05D2844C5B270680178A142E0D86F
:107F9000F08C4A4601A9FFF7C9FBBDE8FE8300202B
:107FA000704700207047FEB504460068FDF740F8B2
:107FB000E060207D8DF80500A08A0025000A8DF87C
:107FC0000600E07E8DF807000295E06801AE042807
:107FD00010D941208DF8040004231A4604F10C0145
:107FE000301D0095FCF77AFF25616577012084F844
:107FF000220011E0C0F10400432141EA80008DF825
:10800000040084F82250009504230022311D2068CA
:10801000FEF752FB002804D1E08B002201A9FFF7F4
:1080200085FBFEBD10B5044690F8220008B15C2027
:1080300010BD488AA082097DE1762246FCF7E2FF66
:108040000028F5D12068FCF7DBFFC0070CD0E27EEA
:10805000A18AA07EFFF7B2F840B12928E8D10D200F
:1080600084F82200002010BD172010BD2046BDE876
:108070001040FFF798BF3EB5044690F82200012853
:1080800001D01E203EBD0022CDF80520ADF809200C
:108090008DF80B20487C617F00F01000814201D0F8
:1080A00024203EBD48B1627742EA00038DF80430D7
:1080B000E568072D04D907250CE010216177F3E767
:1080C000C5F10700012101EB400003438DF80430A6
:1080D00084F8222000920DF105012B4622692068C8
:1080E000FEF7EAFA0028DCD1E0680022401BE060DD
:1080F000206901A928442061E08BFFF717FB3EBDF2
:1081000008B541F6517082420CD1012B0AD16A4662
:108110000121FCF7FFFF002805D19DF8000008B9F8
:10812000FFF7B4FB002008BD7CB5044690F823207F
:10813000818A0068FEF796F8002818D194F822008A
:1081400000250E2814D0607F08B3002040F02000E6
:108150008DF80000CDF80150ADF805508DF80750AE
:10816000E08B00226946FFF7E1FA84F822507CBDDB
:1081700060208DF80000207D8DF80100A08A000AA3
:108180008DF80200E07E8DF803000195E8E71020ED
:10819000DCE72DE9F04385B04FF000080446CDF848
:1081A000108090F822000D46464618B15C2005B0BC
:1081B000BDE8F083688AA082297DE1762246FCF73B
:1081C00021FF0028F3D12068FCF732FFE06020682F
:1081D000FCF716FF0746800701D41820E7E7697C03
:1081E00001F00300012805D0022813D003280CD089
:1081F0001E20DCE704231A4605F1150104A8CDF87A
:108200000080FCF765FE012606E0C1F38100C0F1A5
:10821000040000E0E0680490E0680499884204D01B
:1082200001D3780701D51F20C1E7153529462068FD
:10823000FEF78EF90028BAD12B46E27EA18AA07EF5
:10824000FEF78CFF0028B2D1D6B160208DF808006F
:10825000207D8DF80900A08A4546000A8DF80A00A5
:10826000E07E8DF80B00CDF80C80E08B002202A997
:10827000FFF75CFA25616577022184F8221096E702
:10828000E168012704F11609042908D8009704239E
:10829000002249462068FEF70FFA002887D104F132
:1082A0002306CDE90086294620680022049BFEF7BC
:1082B0009DFA002892D12046FEF7B0FF05004FF04E
:1082C0000E0012D0292D0CD0E068042807D8CDE983
:1082D00000760423002249462068FEF787FA2846E4
:1082E00065E784F82200002061E784F82200204638
:1082F000FFF71AFF5BE72DE9FF41044690F82200E3
:108300000D46022805D00B2803D05C2004B0BDE840
:10831000F081687C00F01007607FB84201D0242013
:10832000F4E7002157B16177687CC0F34200C0F1E7
:108330000706E068B04204D22220E7E71020607709
:10834000F2E704F12300CDE90010884605F112019F
:10835000334622692068FEF749FA0028D6D1E06842
:10836000801BE060206930442061687CC00710D029
:108370002046FEF753FF0F2128B12928C6D184F8E3
:1083800022100020C2E784F822102046FFF7CCFE1E
:10839000BCE747F020008DF80800CDF80980ADF863
:1083A0000D808DF80F80E08B002202A9FFF7BEF947
:1083B000ACE7000030B50F4A04460020936804E0A3
:1083C0009D8BA54200D118461B6A002BF8D10028CE
:1083D0000FD1D2680BE0938BA34207D1937F012981
:1083E00002D0022B01D001E003B11046126A002A2C
:1083F000F1D130BD14010020094A0021C1EB011365
:1084000002EB83035B8D834204D1C1EB011002EBCD
:1084100080007047491C0904090CEFD00020704708
:108420005C0300200B4A10B503460020084912786F
:1084300008E000EBC00401EB8404A47E9C4205D05C
:10844000401C80B29042F4D34FF6FF7010BD000084
:108450005C0600202401002070B51C4D88B0002669
:10846000287810B36846FEF7BBFC04001BD09DF8CB
:108470001C00062817D2DFE800F00F16030B1307C5
:108480006846FDF7A7FF0EE06846FEF7F7FA0AE038
:108490006846FDF735FF06E06846FEF779FF02E023
:1084A0006846FEF785FB04B92E70687810B16E70CF
:1084B000FFF722F8A878002805D0AE7008B0BDE814
:1084C0007040FDF7B7BE08B070BD0000400000204E
:1084D0004B00134601D5002200E00122FDF79CBCB1
:1084E00010B5164900EB800001EBC004208BA0F50D
:1084F0007F41FF3917D02046FDF73CF8206AC0F3D2
:1085000006402077208C80B26083217F69B160B102
:10851000208B0123002201F5E061FDF77DFC0021A5
:1085200084F8241010BD0C2010BD208B01230022E4
:10853000BDE81040D907FDF76FBC0000FC02002029
:108540002DE9FC4789461C49C0EBC00001EB8006C1
:10855000324600214846FCF723FD050029D1484654
:10856000FEF794F8401E00F0FF0800241EE0671C90
:10857000F9B201AA4846FCF7DBFC050019D104EB6F
:10858000440106EB81020198D0603078A0420CD9FA
:1085900002F109000199431E0090080CC1F3072164
:1085A000121DFEF7FEF8050003D1FCB24445DED3F0
:1085B0002846BDE8FC8700009803002038B5044633
:1085C0000025FCF75DFC2168024604F10C0000293F
:1085D00007DBE18D29B194F83230FE2B01D3052A57
:1085E00002D0FCF7C7FF09E0032200924FF47A7231
:1085F00051432346024AFCF791FF0546284638BD01
:10860000757E000838B501280DD04CF25031012498
:108610000023064A06480094FCF780FF0548002125
:108620000470417038BD0449F1E700001579000875
:108630008006002040010020400D030010B50448D2
:10864000FCF798FF034800210170417010BD000045
:1086500080060020400100200201000405FE000009
:10866000E803B80B200001201001003000080100D1
:1086700000000000800000000006000080050000EF
:108680000002000010020030800100000000020023
:1086900004000000000A030045000300003501103B
:1086A00005000200003503104700020001370310E7
:1086B0004500030000371410450004000036151073
:1086C00047000000000101004500010001321610C2
:1086D00047000200003117104700010000010300AD
:1086E00045000300010A030005000300020A03001D
:1086F00005000300030A030005000300040A030049
:1087000005000300000100004500000001302910B1
:108710004700020002000300070002000001000001
:10872000450000000123010045000500022301006F
:10873000450006000001040045000400012B010073
:10874000470007000229010007000500032A010075
:10875000470000000429010007000200052A01006B
:10876000470002000001000045000000010A080067
:1087700045000800020A0000450000000001040056
:1087800045000400012801004700090002260100FD
:1087900047000500032701004700000004260100F0
:1087A000470002000527010047000100002C0100DE
:1087B00047000000012D010047000000022D0100CC
:1087C0004700010000010100450001000100040014
:1087D000C7000100001B000037000000000100007E
:1087E00045000000011800001500000002180100FB
:1087F000370001000010010000000000011001001E
:108800000000010003100201010002001410010029
:108810000000040015100100000005001610020100
:1088200001000600171001000000080018100504E0
:10883000020009002910030201000E0000120302C9
:1088400002001100001406050200140000160302C5
:1088500002001A000018060502001D00001A03029B
:1088600002002300511F0201010026000120010027
:10887000000028000030030201002900020000006F
:10888000220000200201000010020030240000201D
:108890000401000020000120588600085E860008C0
:1088A0006486000800000000100000201600002070
:1088B0001800002000000000000000008C86000866
:1088C0009086000800000000200000202400002006
:1088D0000000000000000000000000000000000098
:1088E0000000000000000000000000000000000088
:1088F0000000000000000000000000000000000078
:10890000000000000000000000000000110008004E
:1089100001000100010001010000007F00000000D3
:108920000A00E100000D020014007800000C0200B3
:1089300032002D00000D0200640012000010030040
:108940007D001200000D0200FA000900000D020077
:10895000F40109000006010020030300000C0200DE
:10896000E803040000070100000000000000000010
:108970000000000000000000010000007F00000077
:10898000010100008001000081050000FF050000DA
:10899000010600007F060000E0060000FF06000060
:1089A000010700007F07000080070000FF070000AC
:1089B0000702030802030902030A01030B01030C67
:1089C000010306020301000002000003000104008D
:1089D0000205000124000000000003051E00000045
:1089E000010004055C0000000100040526000000F1
:1089F0000200040527000000030004052500000014
:108A00000400040522000000050004052100000008
:108A10000000010617000000010001061800000018
:108A2000020001061400000000000206160000000B
:108A30004700040651000000000006061F00000069
:108A400010000706150000001100090620000000B4
:108A500030000906460000004100040647000000FF
:108A6000420004060B00000043000406540000000E
:108A700020000008520000002200000853000000FF
:108A8000240000086F0000000100000A6E000000D2
:108A90000200000A5C0000000300000A2900000038
:108AA00000000008000104020305060100000000A8
:108AB00000010100000000030100000000040101AA
:108AC000000000050101010000010100000000019B
:108AD0000100000000000000F88A000810000020DB
:108AE00054010000904300080C8B00086401002032
:108AF00034090000F84600084202E20104200200A6
:0C8B000004032B090203A37F8002500134
:04000005080042EDC0
:00000001FF
